:020000041004E6
:100000000000012051AE061089AE061091AE061018
:1000100000000000000000000000000000000000E0
:1000200000000000000000000000000099AE061073
:1000300000000000000000009BAE06109DAE061000
:10004000577D041017CD04101FCF041037CF0410B4
:1000500000000000000000000000000097D804101D
:10006000A5AE06102FD904106BEF04107304051011
:10007000D70E0510CDAE0610000000005F1505106C
:100080008F2C0510572D0510F5AE0610000000004E
:10009000EDAE06100000000005AF0610E5AE06103C
:1000A0005F300510FDAE06107B320510EF370510EE
:1000B000273F0510000000000000000000000000C5
:1000C0000000000000002440000000000000594033
:1000D000000000000088C3400000000084D7974162
:1000E0000080E03779C34143176E05B5B5B8934634
:1000F000F5F93FE9034F384D321D30F94877825A00
:100100003CBF737FDD4F15754572726F7220696E4B
:1001100020424C455F535441434B5F496E697428FC
:1001200029203078253032780D0A000020204661E1
:10013000696C2020203A206163695F68616C5F7799
:10014000726974655F636F6E6669675F646174612D
:1001500020636F6D6D616E64202D20434F4E4649C4
:10016000475F444154415F505542414444525F4FC0
:1001700046465345542C20726573756C743A203092
:1001800078253032580A0000202053756363657368
:10019000733A206163695F68616C5F777269746547
:1001A0005F636F6E6669675F6461746120636F6D22
:1001B0006D616E64202D20434F4E4649475F444198
:1001C00054415F505542414444525F4F4646534567
:1001D000540A000020204661696C2020203A2061EA
:1001E00063695F68616C5F7365745F74785F706F7B
:1001F0007765725F6C6576656C20636F6D6D616E9F
:10020000642C20726573756C743A20307825303216
:10021000580A00002020537563636573733A2061A8
:1002200063695F68616C5F7365745F74785F706F3A
:100230007765725F6C6576656C20636F6D6D616E5E
:10024000640A000020204661696C2020203A206862
:1002500063695F6C655F77726974655F7375676703
:1002600065737465645F64656661756C745F646111
:1002700074615F6C656E67746820636F6D6D616E2D
:10028000642C20726573756C743A20307825303296
:10029000580A000020204661696C2020203A206125
:1002A00063695F676174745F7372765F70726F66A3
:1002B000696C655F696E697420636F6D6D616E64F2
:1002C0002C20726573756C743A2030782530325862
:1002D0000A0000002020537563636573733A206140
:1002E00063695F676174745F7372765F70726F6663
:1002F000696C655F696E697420636F6D6D616E64B2
:100300000A00000020204661696C2020203A20610C
:1003100063695F6761705F696E697420636F6D6D9B
:10032000616E642C20726573756C743A2030782588
:100330003032580A00000000202053756363657353
:10034000733A206163695F6761705F696E697420E9
:10035000636F6D6D616E640A0000000020205075AF
:10036000626C696320426C7565746F6F74682041BC
:100370006464726573733A20253032783A253032DE
:10038000783A253032783A253032783A253032784A
:100390003A253032780A000020204661696C20201E
:1003A000203A204761705F70726F66696C655F7399
:1003B00065745F6465765F6E616D65202D204465B0
:1003C00076696365204E616D652C20726573756C6E
:1003D000743A203078253032580A000020205375B6
:1003E00063636573733A204761705F70726F66690B
:1003F0006C655F7365745F6465765F6E616D6520C3
:100400002D20446576696365204E616D650A0000A4
:1004100020204661696C2020203A204761705F707F
:10042000726F66696C655F7365745F61707065613A
:1004300072616E6365202D20417070656172616E1E
:1004400063652C20726573756C743A2030782530A2
:1004500032580A002020537563636573733A20474E
:1004600061705F70726F66696C655F7365745F6100
:100470007070656172616E6365202D2041707065DA
:100480006172616E63650A0020204661696C2020FC
:10049000203A206163695F6761705F7365745F69AB
:1004A0006F5F6361706162696C69747920636F6DFD
:1004B0006D616E642C20726573756C743A203078AF
:1004C000253032580A00000020205375636365739D
:1004D000733A206163695F6761705F7365745F6918
:1004E0006F5F6361706162696C69747920636F6DBD
:1004F0006D616E640A00000020204661696C202056
:10050000203A206163695F6761705F7365745F7330
:10051000656375726974795F726571756972656D0D
:10052000656E747320636F6D6D616E642C207265EF
:1005300073756C743A203078253032580A00000008
:100540002020537563636573733A206163695F6745
:1005500061705F7365745F73656375726974795FE9
:10056000726571756972656D656E747320636F6D08
:100570006D616E640A00000020204661696C2020D5
:10058000203A206163695F6761705F636F6E6669BF
:10059000677572655F66696C7465725F61636365D8
:1005A00070745F616E645F7265736F6C76696E679D
:1005B0005F6C69737420636F6D6D616E642C207263
:1005C0006573756C743A203078253032580A000013
:1005D0002020537563636573733A206163695F67B5
:1005E00061705F636F6E6669677572655F66696C7F
:1005F0007465725F6163636570745F616E645F727E
:1006000065736F6C76696E675F6C69737420636F76
:100610006D6D616E640A0000FFFFFFFFC0FFFFFF0A
:1006200020204661696C2020203A206163695F6761
:1006300061705F7365745F6C655F6576656E745F2E
:100640006D61736B20636F6D6D616E642C207265DC
:1006500073756C743A203078253032580A000000E7
:100660002020537563636573733A206163695F6724
:1006700061705F7365745F6C655F6576656E745FEE
:100680006D61736B20636F6D6D616E640A000000B5
:100690003D3D3E3E20456E6420424C455F496E69BB
:1006A000742066756E6374696F6E0A003E3E3D3D50
:1006B000204843495F444953434F4E4E45435449B4
:1006C0004F4E5F434F4D504C4554455F4556545F28
:1006D000434F44450A00000020202020202D2043C5
:1006E0006F6E6E656374696F6E2048616E646C65D1
:1006F0003A2020203078253032580A20202020202F
:100700002D20526561736F6E3A20202020307825AD
:100710003032580A000000003E3E3D3D204843492B
:100720005F4C455F434F4E4E454354494F4E5F55D6
:1007300050444154455F434F4D504C4554455F53E1
:1007400055424556545F434F44450A00202020201F
:10075000202D20436F6E6E656374696F6E20496E45
:1007600074657276616C3A20202025642E25303223
:1007700064206D730A20202020202D20436F6E6E90
:10078000656374696F6E206C6174656E63793A207D
:1007900020202025640A20202020202D2053757041
:1007A0006572766973696F6E2054696D656F7574D3
:1007B0003A2020202564206D730A00004843495FD9
:1007C0004C455F454E48414E4345445F434F4E4E76
:1007D000454354494F4E5F434F4D504C4554455F40
:1007E0005355424556545F434F44450A00000000AC
:1007F0004843495F4C455F454E48414E4345445F41
:10080000434F4E4E454354494F4E5F434F4D504C1E
:100810004554455F56325F5355424556545F434FEA
:1008200044450A004843495F4C455F434F4E4E459F
:100830004354494F4E5F434F4D504C4554455F53D1
:1008400055424556545F434F44450A004C455F4668
:10085000656174757265733A200000003078253048
:10086000325820004843495F4C455F504552494F3C
:100870004449435F4144564552544953494E475FAA
:10088000524553504F4E53455F5245504F52540AB4
:10089000000000004843495F4C455F4D4554415FAF
:1008A0004556543A203078253032580A000000006E
:1008B00020204661696C2020203A206163695F6CCA
:1008C000326361705F636F6E6E656374696F6E5FD4
:1008D000706172616D657465725F75706461746575
:1008E0005F7265737020636F6D6D616E640A0000E6
:1008F0002020537563636573733A206163695F6C8D
:10090000326361705F636F6E6E656374696F6E5F93
:10091000706172616D657465725F75706461746534
:100920005F7265737020636F6D6D616E640A0000A5
:100930003E3E3D3D204143495F4741505F50524F4D
:10094000435F434F4D504C4554455F5653455654B5
:100950005F434F44450A00002B5343414E454E44EC
:100960000D0A00003E3E3D3D204143495F47415056
:100970005F4B455950524553535F4E4F544946497A
:10098000434154494F4E5F56534556545F434F447D
:10099000450A00003E3E3D3D204143495F474150EE
:1009A0005F504153534B45595F5245515F56534534
:1009B00056545F434F44450A000000003D3D3E3E13
:1009C000206163695F6761705F706173736B6579E4
:1009D0005F72657370203A204661696C2C207265E5
:1009E00061736F6E3A203078253032580A0000006B
:1009F0003D3D3E3E206163695F6761705F7061737A
:100A0000736B65795F72657370203A205375636309
:100A10006573730A000000003E3E3D3D204143499E
:100A20005F4741505F4E554D455249435F434F4DDF
:100A300050415249534F4E5F56414C55455F5653B6
:100A40004556545F434F44450A00000020202020B3
:100A5000202D206E756D657269635F76616C7565BA
:100A6000203D2025640A000020202020202D204841
:100A700065785F76616C7565203D2025780A0000F9
:100A80003D3D3E3E206163695F6761705F6E756DDD
:100A9000657269635F636F6D70617269736F6E5FBA
:100AA00076616C75655F636F6E6669726D5F79659F
:100AB000736E6F203A204661696C2C2072656173F9
:100AC0006F6E3A203078253032580A003D3D3E3E68
:100AD000206163695F6761705F6E756D65726963E0
:100AE0005F636F6D70617269736F6E5F76616C7555
:100AF000655F636F6E6669726D5F7965736E6F2097
:100B00003A20537563636573730A00003E3E3D3DB2
:100B1000204143495F4741505F50414952494E4748
:100B20005F434F4D504C4554455F56534556545FB7
:100B3000434F44450A00000020202020202D205053
:100B4000616972696E67204B4F0A20202020202D9A
:100B5000205374617475733A203078253032580A06
:100B600020202020202D20526561736F6E3A2030A6
:100B700078253032580A000020202020202D2050D7
:100B8000616972696E6720537563636573730A00E8
:100B900050616972696E67206661696C6564206680
:100BA0006F72206B6579206D697373696E67206F52
:100BB0006E2070656572206465766963650A000061
:100BC00052656D6F7665206465766963652066722F
:100BD0006F6D204E564D206C6973740A0000000042
:100BE00052656D6F766520626F6E640A00000000CA
:100BF0003E3E3D3D204143495F474154545F53527F
:100C0000565F524541445F56534556545F434F44E7
:100C1000450A000048616E646C65203078253034E8
:100C2000580A00003E3E3D3D204143495F4C32435F
:100C300041505F434F535F434F4E4E454354494FDE
:100C40004E5F524553505F56534556545F434F4491
:100C5000450A00004368616E6E656C5F547970658B
:100C60003A2025640A506565725F4D54553A202537
:100C7000640A506565725F4D50533A2025640A43FB
:100C800049445F436F756E743A2025640A00000082
:100C90003E3E3D3D204143495F4C324341505F431E
:100CA0004F535F5344555F444154415F54585F561E
:100CB000534556545F434F44450A00003E3E3D3D78
:100CC000204143495F4C324341505F434F535F449F
:100CD0004953434F4E4E454354494F4E5F434F4D4A
:100CE000504C4554455F56534556545F434F444519
:100CF0000A0000003E3E3D3D204143495F4C3243E7
:100D000041505F434F4D4D414E445F52454A45432C
:100D1000545F56534556545F434F44450A00000004
:100D2000526561736F6E3A203078253034580A006E
:100D3000526561736F6E20446174613A0000000077
:100D400025303258200000004143495F48414C5F44
:100D500046575F4552524F525F56534556542030C6
:100D600078253032580A00004843495F56454E44C2
:100D70004F525F4556543A203078253034580A0097
:100D80004843495F48415244574152455F4552529A
:100D90004F525F455654203078253032580A0000B3
:100DA0004843495F4556454E543A20307825303205
:100DB000580A00003D3D3E3E20636F6E6E656374D1
:100DC000696F6E5F636F6D706C6574655F65766586
:100DD0006E74204661696C2C205374617475733A8B
:100DE000203078253032580A000000003E3E3D3D5C
:100DF000206863695F6C655F636F6E6E65637469BD
:100E00006F6E5F636F6D706C6574655F6576656E40
:100E100074202D20436F6E6E656374696F6E206859
:100E2000616E646C653A203078253034580A0000D1
:100E300020202020202D20436F6E6E656374696F23
:100E40006E2065737461626C69736865642077698C
:100E5000746820403A253032783A253032783A2585
:100E60003032783A253032783A253032783A2530A7
:100E700032780A0020202020202D20436F6E6E65DE
:100E80006374696F6E20496E74657276616C3A2086
:100E9000202025642E25303264206D730A20202006
:100EA00020202D20436F6E6E656374696F6E206C19
:100EB0006174656E63793A2020202025640A202021
:100EC0002020202D205375706572766973696F6ECE
:100ED0002054696D656F75743A202564206D730A1E
:100EE000000000006163695F6761705F7465726D27
:100EF000696E617465206661696C7572653A20720D
:100F00006561736F6E3D3078253032580A000000FD
:100F10003D3D3E3E206163695F6761705F7465724D
:100F20006D696E617465203A2053756363657373F0
:100F30000A0000006163695F676174745F636C74C9
:100F40005F65786368616E67655F636F6E6669672A
:100F5000206661696C7572653A20726561736F6EA7
:100F60003D3078253032580A000000003D3D3E3EBD
:100F7000206163695F676174745F636C745F657837
:100F80006368616E67655F636F6E666967203A20AC
:100F9000537563636573730A000000006163695FE2
:100FA0006761705F7365745F7363616E5F636F6EBB
:100FB00066696775726174696F6E202D206661695C
:100FC0006C2C20726573756C743A20307825303241
:100FD000580A00003D3D3E3E206163695F676170D5
:100FE0005F7365745F7363616E5F636F6E6669677D
:100FF00075726174696F6E202D205375636365731C
:10100000730A00006163695F6761705F7374617286
:10101000745F70726F636564757265202D20666100
:10102000696C2C20726573756C743A2030782530A9
:1010300032580A003D3D3E3E206163695F67617042
:101040005F73746172745F70726F636564757265EB
:10105000202D20537563636573730A003D3D3E3E4A
:10106000206163695F6761705F7365745F61647657
:101070006572746973696E675F636F6E66696775C1
:10108000726174696F6E202D206661696C2C20720C
:101090006573756C743A203078253032580A000038
:1010A0003D3D3E3E20537563636573733A20616333
:1010B000695F6761705F7365745F616476657274A0
:1010C0006973696E675F636F6E6669677572617475
:1010D000696F6E0A000000003D3D3E3E2068636976
:1010E0005F6C655F7365745F706572696F64696377
:1010F0005F6164766572746973696E675F7061724F
:10110000616D65746572735F7632202D206661694A
:101110006C2C20726573756C743A203078253032EF
:10112000580A00003D3D3E3E20537563636573736E
:101130003A206863695F6C655F7365745F706572A0
:10114000696F6469635F6164766572746973696EFF
:10115000675F706172616D65746572735F76320A84
:10116000000000003D3D3E3E206863695F6C655FA6
:101170007365745F706572696F6469635F616476DB
:101180006572746973696E675F656E61626C652014
:101190002D206661696C2C20726573756C743A2021
:1011A0003078253032580A003D3D3E3E205375636D
:1011B000636573733A206863695F6C655F73657418
:1011C0005F706572696F6469635F6164766572748C
:1011D0006973696E675F656E61626C650A00000025
:1011E0003D3D3E3E206863695F6C655F7365745F7B
:1011F000657874656E6465645F6164766572746950
:1012000073696E675F656E61626C65202D20666133
:10121000696C2C20726573756C743A2030782530B7
:1012200032580A003D3D3E3E20537563636573733B
:101230003A206863695F6C655F7365745F65787495
:10124000656E6465645F6164766572746973696E06
:10125000675F656E61626C650A0000003D3D3E3E61
:10126000206163695F6761705F7365745F636F6E50
:101270006E656374696F6E5F636F6E6669677572C2
:101280006174696F6E20537563636573732C20728C
:101290006573756C743A203078253032780A000016
:1012A0003D3D3E3E206163695F6761705F736574B9
:1012B0005F636F6E6E656374696F6E5F636F6E669A
:1012C000696775726174696F6E204661696C6564E7
:1012D0002C20726573756C743A2030782530327822
:1012E0000A0000006163695F6761705F7374617217
:1012F000745F70726F636564757265202867656ED0
:101300006572616C20636F6E6E656374696F6E29C0
:10131000202D206661696C2C20726573756C743A9F
:10132000203078253032580A000000003D3D3E3E16
:10133000206163695F6761705F73746172745F706D
:10134000726F636564757265202867656E6572618A
:101350006C20636F6E6E656374696F6E29202D203B
:10136000537563636573730A000000006863695F07
:101370006C655F706572696F6469635F61647665EF
:1013800072746973696E675F7365745F696E666FA7
:101390005F7472616E73666572202D206661696C80
:1013A0002C20726573756C743A2030782530325871
:1013B0002C20636F6E6E2068616E646C653A20301D
:1013C00078253034580A00003D3D3E3E2068636970
:1013D0005F6C655F706572696F6469635F61647695
:1013E0006572746973696E675F7365745F696E6651
:1013F0006F5F7472616E73666572202D2053756322
:10140000636573730A0000006863695F6C655F72EF
:101410006561645F72656D6F74655F666561747543
:10142000726573202D20726573756C743A20307864
:10143000253032580A00000050616972696E6720D9
:101440007265717565737420636D64206661696C83
:101450007572653A203078253032580A0000000055
:1014600050616972696E6720726571756573742069
:10147000636D6420737563636573730A0000000015
:101480002121212121206372656174655F7065727D
:10149000696F6469635F6164766572746973696EAC
:1014A000675F636F6E6E656374696F6E200A2050AC
:1014B0006565725F4164647265737320403A2530DC
:1014C00032783A253032783A253032783A2530323F
:1014D000783A253032783A253032780A0000000018
:1014E000202020202020436F6E6E656374696F6E2C
:1014F00020496E74657276616C3A20202025642044
:101500006D730A20202D205375706572766973699A
:101510006F6E2054696D656F75743A202564206D77
:10152000730A00006163695F6761705F6372656180
:1015300074655F706572696F6469635F6164766525
:1015400072746973696E675F636F6E6E65637469E9
:101550006F6E202D206661696C2C20726573756C2E
:10156000743A203078253032580A00003D3D3E3E26
:10157000206163695F6761705F6372656174655F55
:10158000706572696F6469635F61647665727469BE
:1015900073696E675F636F6E6E656374696F6E20EB
:1015A0002D20537563636573730A0000436F6E6685
:1015B0006967757265642045534C20666F756E646B
:1015C0003A20253032783A253032783A2530327850
:1015D0003A253032783A253032783A253032780A56
:1015E000000000002B5343414E3A2025642C253047
:1015F000325825303258253032582530325825306F
:101600003258253032580A00437265617465206390
:101610006F6E6E656374696F6E20746F2045534CF6
:101620000A0000003D3D3E3E204741502043726588
:1016300061746520636F6E6E656374696F6E2053AD
:101640007563636573730A003D3D3E3E204741501C
:101650002043726561746520636F6E6E65637469A3
:101660006F6E204661696C65642C20726573756CC1
:10167000743A203078253032780A000045534C41C6
:1016800050000000400F00209635000000000104CB
:1016900000003200F7000000FFFFFFFF64000110B0
:1016A00008020004F700010000010102020202002A
:1016B00000010003000400000A0A57415443484453
:1016C0004F472052455345542121212121212121D9
:1016D000210A0A000A0A53595354454D20524553D2
:1016E00045542121212121212121210A0A00000024
:1016F00000C2010000000000000000000000000027
:1017000052657472696576656420736176656420DC
:1017100041502073796E63206B65790A00000000E8
:1017200053657373696F6E206B65793A2000000012
:1017300025303258200000000A49563A20000000A7
:101740004E6F2073617665642041502053796E633B
:10175000206B65790A0000004572726F7220726515
:101760007472696576696E672041502053796E63A3
:10177000206B65790A0000004E564D20657261733A
:1017800065640A0047656E657261746564206E6504
:10179000772041502053796E63206B65790A0000F1
:1017A0004572726F72207768696C65207361766923
:1017B0006E67206B65790A004B65792073617665E9
:1017C000640A000045534C20616C726561647920A5
:1017D000636F6E666967757265640A004E6F206E8E
:1017E00065656420746F2075706461746520696E2E
:1017F000666F0A005265636F72642064656C65747D
:1018000065640A004572726F72207768696C6520A2
:10181000616464696E67207265636F726420696ECB
:10182000204E564D20282564290A00004E65772059
:101830007265636F72642061646465640A0000000D
:1018400045534C5F41505F44656C65746545534C2E
:10185000496E666F0A0000005265636F7264207201
:10186000656D6F7665640A00436C6561722053652F
:101870006375726974792044420A0000436C6561A3
:10188000722045534C20696E666F2044420A000066
:101890003D3D3E3E20474154545F434C49454E54E4
:1018A0005F4150505F5772697465454350202D2049
:1018B0006661696C2C20726573756C743A2030789F
:1018C000253032580A0000003D3D3E3E20537563EE
:1018D000636573733A20474154545F434C49454E06
:1018E000545F4150505F57726974654543500A0018
:1018F00053796E6368726F6E697A656420537461A0
:101900007465207472616E736974696F6E0A000089
:101910003D3D3E3E206C6C5F7365745F706572691F
:101920006F6469635F6164766572746973696E6719
:101930005F7375626576656E745F646174615F7014
:101940007472202D206661696C2C20726573756C31
:10195000743A203078253032580A00003D3D3E3E32
:1019600020537563636573733A206C6C5F736574A1
:101970005F706572696F6469635F616476657274D4
:101980006973696E675F7375626576656E745F64AF
:101990006174615F7074720A0000000044656372D4
:1019A000797074696F6E206661696C2E0A000000A0
:1019B00045534C5F41505F5374617274557064615C
:1019C00074653A20696E666F206E6F7420666F755D
:1019D0006E640A0045534C20416464726573732041
:1019E000283078253034582920616C72656164791B
:1019F0002061737369676E6564210A0053544D3327
:101A0000325742300000000002000000280F002082
:101A10000000000008000000580200200000000044
:101A200001000000900400204572726F723A20722B
:101A3000656163686564206D6178696D756D206EA0
:101A4000756D626572206F6620636F6E6E6563747C
:101A500065642073657276657273210A0000000068
:101A600047415454207365727669636573206469D5
:101A700073636F766572790A0000000050524F431D
:101A80005F474154545F43544C5F444953435F4163
:101A90004C4C5F5052494D4152595F534552564943
:101AA0004345532073657276696365732064697377
:101AB000636F7665726564205375636365737366DF
:101AC000756C6C790A0A000050524F435F474154CD
:101AD000545F43544C5F444953435F414C4C5F5007
:101AE00052494D4152595F5345525649434553203F
:101AF0006163695F676174745F636C745F64697369
:101B0000635F616C6C5F7072696D6172795F736540
:101B100072766963657320636D64204E4F4B20734A
:101B20007461747573203D3078253032580A0A008C
:101B3000444953434F5645525F414C4C5F434841E3
:101B4000525320436F6E6E48646C3D3078253034BC
:101B50005820414C4C5365727669636548616E64E8
:101B60006C655B307825303458202D203078253056
:101B700034585D0A00000000416C6C20636861729B
:101B800061637465726973746963732064697363F4
:101B90006F766572656420537563636573736675EC
:101BA0006C6C790A0A000000416C6C2063686172F9
:101BB00061637465726973746963732064697363C4
:101BC0006F76657279204661696C65642C20737448
:101BD00061747573203D3078253032580A0A000050
:101BE000444953434F5645525F414C4C5F43484133
:101BF000525F4445534353205B307825303458209E
:101C00002D203078253034585D0A0000416C6C205E
:101C10006368617261637465726973746963206477
:101C2000657363726970746F727320646973636F34
:101C30007665726564205375636365737366756C4E
:101C40006C790A0A00000000416C6C2063686172C4
:101C50006163746572697374696320646573637228
:101C60006970746F727320646973636F76657279DB
:101C7000204661696C65642C2073746174757320EF
:101C80003D3078253032580A0A0000002053657232
:101C9000766963654368616E676564436861724431
:101CA00065736348646C203D3078253034580A00F1
:101CB000456E61626C65206E6F74696669636174FC
:101CC000696F6E73206F6E20454350202868616EE7
:101CD000646C6520307825303458290A00000000F3
:101CE000456E61626C6520696E6469636174696FD9
:101CF0006E73206F6E204F414350202868616E64E0
:101D00006C6520307825303458290A00456E6162B0
:101D10006C6520696E6469636174696F6E73206FAE
:101D20006E204F4C4350202868616E646C652030F3
:101D30007825303458290A004E6F746966696361EA
:101D400074696F6E7320656E61626C656420737573
:101D5000636365737366756C6C790A00456E6162C6
:101D60006C696E67206E6F74696669636174696F10
:101D70006E73206661696C65642C20737461747580
:101D800073203078253032582C20676174742065B8
:101D900072726F7220636F64653D307825303258FF
:101DA0000A0000004143495F474154545F434C548B
:101DB0005F494E4449434154494F4E5F565345563F
:101DC000545F434F44450A0053657276696365204A
:101DD0004368616E67656420496E64696361746914
:101DE0006F6E0A00474154542070726F63656475CA
:101DF000726520636F6D706C6574653A203078256C
:101E00003032780A0000000020204D5455206578BB
:101E10006368616E6765642073697A65203D20257B
:101E2000640A0000202047415454204572726F72AA
:101E300020526573706F6E736520636F64653A201E
:101E4000307825303278200A0000000020204741F9
:101E50005454205265616420426C6F622052657355
:101E6000706F6E7365206C656E6774683A203078A9
:101E700025303278200A0000202025642F25642098
:101E800073686F727420555549443D30782530345D
:101E9000582C2068616E646C65205B307825303486
:101EA00058202D203078253034585D002C204741B3
:101EB000505F534552564943455F55554944206646
:101EC0006F756E640A0000002C2047454E4552494C
:101ED000435F4154545249425554455F534552560D
:101EE0004943455F5555494420666F756E640A0045
:101EF0002C2045534C5F534552564943455F555539
:101F0000494420666F756E640A0000002C20446509
:101F10007669636520496E666F726D6174696F6E74
:101F2000205365727669636520666F756E640A007A
:101F30004143495F4154545F524541445F42595FB8
:101F400047524F55505F545950455F524553505F6B
:101F500056534556545F434F44452C206661696C87
:101F60006564206E6F206672656520696E646578B1
:101F700020696E20636F6E6E656374696F6E207486
:101F800061626C6520210A004143495F4154545FFE
:101F900046494E445F42595F545950455F56414C43
:101FA00055455F524553505F56534556545F434F16
:101FB0004445202D20436F6E6E48646C3D3078257B
:101FC0003034582C204E756D5F6F665F48616E64CB
:101FD0006C655F506169723D25640A004143495F49
:101FE0004154545F46494E445F42595F54595045ED
:101FF0005F56414C55455F524553505F56534556C9
:10200000545F434F4445202D205061697449643D1D
:10201000256420466F756E645F41747472696275E1
:1020200074655F48616E646C653D30782530345866
:102030002C2047726F75705F456E645F48616E64F7
:102040006C653D3078253034580A0000202020206F
:1020500025642F25642073686F7274205555494498
:102060003D3078253034582C2050726F7065727472
:102070006965733D3078253034582C20436861728F
:1020800048616E646C65205B307825303458202DB3
:10209000203078253034585D000000002C20474166
:1020A00050204445564943455F4E414D45206368A5
:1020B0006172616320666F756E640A002C2047416F
:1020C0005020415050454152414E43452063686184
:1020D00072616320666F756E640A00002C204741B0
:1020E000545420534552564943455F4348414E4757
:1020F00045445F4348415241435445524953544932
:10210000435F555549442063686172616320666F7F
:10211000756E640A000000002C2045534C5F434F4D
:102120004E54524F4C5F504F494E545F55554944A1
:102130002063686172616320666F756E640A0000D7
:102140002C2045534C5F414444524553535F5555F1
:1021500049442063686172616320666F756E640A2A
:10216000000000002C2041505F53594E435F4B4507
:10217000595F4D4154455249414C5F5555494420A2
:1021800063686172616320666F756E640A000000A7
:102190002C2045534C5F524553505F4B45595F4D82
:1021A0004154455249414C5F55554944206368614B
:1021B00072616320666F756E640A00002C204553BF
:1021C0004C5F435552525F4142535F54494D455F06
:1021D000555549442063686172616320666F756E6E
:1021E000640A00002C2045534C5F444953504C4135
:1021F000595F494E464F5F555549442063686172A7
:10220000616320666F756E640A0000002C204553E0
:102210004C5F494D4147455F494E464F5F555549D3
:10222000442063686172616320666F756E640A00A2
:102230002C2045534C5F53454E534F525F494E46F9
:102240004F5F555549442063686172616320666F32
:10225000756E640A000000002C2045534C5F4C450D
:10226000445F494E464F5F5555494420636861724B
:10227000616320666F756E640A0000002C204F5465
:10228000535F464541545552455F55554944206377
:10229000686172616320666F756E640A00000000F9
:1022A0002C204F424A4543545F4E414D455F5555A2
:1022B00049442063686172616320666F756E640AC9
:1022C000000000002C204F424A4543545F545950AF
:1022D000455F555549442063686172616320666FAC
:1022E000756E640A000000002C204F424A4543549A
:1022F0005F53495A455F555549442063686172618F
:102300006320666F756E640A000000002C204F4247
:102310004A4543545F4C4153545F4D4F44494649ED
:1023200045445F5555494420636861726163206686
:102330006F756E640A0000002C204F424A454354DA
:102340005F49445F55554944206368617261632069
:10235000666F756E640A00002C204F424A45435454
:102360005F50524F504552544945535F555549446B
:102370002063686172616320666F756E640A000095
:102380002C204F424A4543545F414354494F4E5FCE
:10239000434F4E54524F4C5F504F494E545F55552A
:1023A00049442063686172616320666F756E640AD8
:1023B000000000002C204F424A4543545F4C4953D3
:1023C000545F434F4E54524F4C5F504F494E545FF1
:1023D000555549442063686172616320666F756E6C
:1023E000640A00002C204F424A4543545F4C495335
:1023F000545F46494C5445525F504F494E545F55C7
:102400005549442063686172616320666F756E642C
:102410000A0000002C20504E5049445F5555494455
:102420002063686172616320666F756E640A0000E4
:102430004143495F4154545F524541445F42595FB3
:10244000545950455F524553505F56534556545F5B
:10245000434F44452C206661696C65642068616E59
:10246000646C65206E6F7420666F756E6420696E93
:1024700020636F6E6E656374696F6E207461626C49
:102480006520210A0000000044657363726970745E
:102490006F7220555549443D3078253034582C20F2
:1024A00068616E646C653D3078253034582D307825
:1024B000253034582D307825303458002C20536581
:1024C0007276696365204368616E67656420434383
:1024D000434420666F756E640A0000002C2045534B
:1024E0004C20436F6E74726F6C20506F696E742055
:1024F0004343434420666F756E643A2068616E649E
:102500006C653D3078253034580A00002C204F622D
:102510006A65637420416374696F6E20436F6E74E3
:10252000726F6C20506F696E742043434344206681
:102530006F756E643A2068616E646C653D30782515
:102540003034580A000000002C204F626A65637422
:10255000204C69737420436F6E74726F6C20506FDF
:10256000696E74204343434420666F756E643A205D
:1025700068616E646C653D3078253034580A00001F
:102580004143495F4154545F46494E445F494E467A
:102590004F5F524553505F56534556545F434F4427
:1025A000452C206661696C65642068616E646C65A9
:1025B000206E6F7420666F756E6420696E20636F85
:1025C0006E6E656374696F6E207461626C65202144
:1025D0000A000000496E636F6D696E67204E6F667A
:1025E000696669636174696F6E2066726F6D2045FC
:1025F00043500A004143495F474154545F4E4F5492
:10260000494649434154494F4E5F56534556545FDE
:10261000434F44452C206661696C65642068616E97
:10262000646C65206E6F7420666F756E6420696ED1
:1026300020636F6E6E656374696F6E207461626C87
:102640006520210A000000006163695F676174749E
:102650005F636C745F65786368616E67655F636F05
:102660006E666967206661696C7572653A2072658D
:1026700061736F6E3D3078253032580A00000000DB
:102680003D3D3E3E206163695F676174745F636CCA
:10269000745F65786368616E67655F636F6E6669B6
:1026A00067203A20537563636573730A0000000066
:1026B00057726974696E672045534C204164647297
:1026C0006573732028307825303458290A000000BB
:1026D000204661696C65642C20636F6E6E48646C83
:1026E0003D3078253034582C2056616C756548642F
:1026F0006C3D3078253034580A00000057726974F8
:10270000696E672041502053796E63204D61746576
:102710007269616C0A00000057726974696E672003
:10272000526573706F6E7365204B6579204D6174CF
:10273000657269616C3A0A0053657373696F6E2044
:102740006B65793A200000002530325820000000E7
:102750000A49563A2000000057726974696E672072
:102760004162736F6C7574652074696D65202825EE
:1027700064290A004661696C2073656E64696E673E
:102780002075706461746520636F6D706C6574652D
:1027900020636F6D6D616E640A00000045534C202C
:1027A000636F6E66696775726174696F6E207361BD
:1027B0007665640A000000004572726F72207768C7
:1027C000696C6520736176696E6720636F6E6669F8
:1027D0006775726174696F6E0A00000057726974E0
:1027E000696E67204543500A000000002050726F58
:1027F000636564757265206661696C6564207769DC
:10280000746820676174745F6572726F725F636F62
:102810006465203D203078253032580A00000000E1
:102820004543502070726F63656475726520666100
:10283000696C65640A000000253032580000000011
:102840005265616420446973706C617920496E66D9
:102850006F726D6174696F6E0A0000005265616489
:1028600020496D61676520496E666F726D6174699C
:102870006F6E0A00526561642053656E736F72203B
:10288000496E666F726D6174696F6E0A00000000B8
:1028900052656164204C454420496E666F726D61DB
:1028A00074696F6E0A0000005265616420506E50BA
:1028B0002049440A000000006163695F6761747425
:1028C0005F636C745F72656164206661696C6564E6
:1028D0002C20636F6E6E48646C3D30782530345820
:1028E0002C2056616C756548646C3D307825303419
:1028F000580A00006163695F676174745F636C7498
:102900005F726561642C20636F6E6E48646C3D304D
:1029100078253034582C2056616C756548646C3DC0
:102920003078253034580A0052656164204C6F6E4F
:10293000670A00006163695F676174745F636C7448
:102940005F726561645F6C6F6E67206661696C655C
:10295000642C20636F6E6E48646C3D307825303493
:10296000582C2056616C756548646C3D3078253074
:1029700034580A006163695F676174745F636C74E3
:102980005F726561645F6C6F6E672C20636F6E6E43
:1029900048646C3D3078253034582C2056616C7575
:1029A0006548646C3D3078253034580A00000000DA
:1029B0006163695F676174745F636C745F77726988
:1029C0007465206661696C65642C20636F6E6E4867
:1029D000646C3D3078253034582C2056616C756518
:1029E00048646C3D3078253034580A006163695F73
:1029F000676174745F636C745F77726974652C20AF
:102A0000636F6E6E48646C3D3078253034582C20EE
:102A100056616C756548646C3D3078253034580AD1
:102A2000000000000000FFFF0000000004000000A4
:102A3000242A04100000000003000000CC0E002037
:102A400000000000010000007E520510010000009F
:102A5000020000002E0F002020000000FB349B5FCE
:102A60008000008000100000052A00001000000017
:102A7000010000003C030020282A04100A00000086
:102A8000FB349B5F8000008000100000292B0000B9
:102A9000100000000000000000000000342A0410B4
:102AA00002000000FB349B5F8000008000100000EB
:102AB0002A2B0000100000000000000000000000B1
:102AC0000000000002000000FB349B5F80000080DB
:102AD000001000003A2B0000100000000000000071
:102AE00000000000402A041096C298D84539A1F48D
:102AF000A033EB2D817D0377F240A463E5E6BCF8BB
:102B000047422CE1F2D1176BF551BF376840B6CB85
:102B1000CE5E316B5733CE2B169E0F7C4AEBE78E81
:102B20009B7F1AFEE242E34F00010000000000001C
:102B30000001000000000000000100000000000093
:102B40000100000000000000FFFFFFFFFFFFFFFF8C
:102B5000FFFFFFFF00000000000000000000000079
:102B600001000000FFFFFFFF020000000500000061
:102B700003000000FEFFFFFFF9FFFFFFFBFFFFFF69
:102B8000FCFFFFFFFCFFFFFF030000000000000050
:102B90000000000000000000000000000000000035
:102BA00000000000000000004B60D2273E3CCE3BFE
:102BB000F6B053CCB0061D65BC86987655BDEBB318
:102BC000E7933AAAD835C65AFFFFFFFFFFFFFFFF82
:102BD000FFFFFFFFFFFFFFFFFFFFFFFFFFFFFFFF05
:102BE000FFFFFFFFFFFFFFFFFFFFFFFFFFFFFFFFF5
:102BF000FFFFFFFFFFFFFFFFFFFFFFFFFFFFFFFFE5
:102C0000FFFFFFFFFFFFFFFFFFFFFFFFFFFFFFFFD4
:102E9000FFFE0001FFFFFFFFFFFFFFFFFFFFFFFF40
:102EA000FFFFFFFFF000FFFFFFFFF800007FFFFFC5
:102EB000FFFFFFFFFFFFFFFFFFFFFFFFFFB000006F
:102EC00001FFFFF000003FFFFFFFFFFFFFFFFFFFDD
:102ED000FFFFFFFFFFFF98000001FFFFE0FFFC1F67
:102EE000FFFFFFFFFFFFFFFFFFFFFFFFFFFFFF18D9
:102EF000000000FFFFE1FFFF1FFFFFFFFFFFFFFFDD
:102F0000FFFFFFFFFFFFFFFF08000000FFFFE3FFE1
:102F1000FF1FFFFFFFFFFFFFFFFFFFFFFFFFFFFFA1
:102F2000FE0C0000007FFFE7FFFF9FFFFFFFFFFF9A
:102F3000FFFFFFFFFFFFFFFFFFFE040000007FFF1A
:102F4000E3FFFF1FFFFFFFFFFFFFFFFFFFFFFFFF8D
:102F5000FFFFFC060000003FFFE3FFFF1FFFFFFF36
:102F6000FFFFFFFFFFFFFFFFFFFFFFF8060000006E
:102F70003FFFF0FFF83FFFFFFFFFFFFFFFFFFFFFF7
:102F8000FFFFFFFFF8030000001FFFF000003FFFFE
:102F9000FFFFFFFFFFFFFFFFFFFFFFFFFFF003004B
:102FA00000001FFFF800007FFFFFFFFFFFFFFFFF94
:102FB000FFFFFFFFFFFFF0010000000FFFFF000316
:102FC000FFFFFFFFFFFFFFFFFFFFFFFFFFFFFFE030
:102FD000018000000FFFFFFFFFFFFFFFFFFFFFFF6C
:102FE000FFFFFFFFFFFFFFFFE00080000007FFFF84
:102FF000FFFFFFFFFFFFFFFFFFFFFFFFFFFFFFFFE1
:10300000FFC000C0000007FFFFFF01FFFFFFFFFF41
:10301000FFFFFFFFFFFFFFFFFFFFC000C000000337
:10302000FFF80E007FFFFFFFFFFFFFFFFFFFFFFF27
:10303000FFFFFF800040000003FFF004007FFFFF60
:10304000FFFFFFFFFFFFFFFFFFFFFFFF000060002C
:103050000001FFE000383FFFFFFFFFFFFFFFFFFF22
:10306000FFFFFFFFFF000020000001FFE1E0FE3F47
:10307000FFFFFFFFFFFFFFFFFFFFFFFFFFFE00005F
:1030800030000000FFC3E0FE3FFFFFFFFFFFFFFF38
:10309000FFFFFFFFFFFFFE000030000000FFC7F151
:1030A000FF1FFFFFFFFFFFFFFFFFFFFFFFFFFFFC13
:1030B0000000180000007FC7F9FF1FFFFFFFFFFFA0
:1030C000FFFFFFFFFFFFFFFFFE0000180000007F73
:1030D000C7F9FF1FFFFFFFFFFFFFFFFFFFFFFFFF1E
:1030E000FFFE0000080000003FC7F9FF1FFFFFFFC1
:1030F000FFFFFFFFFFFFFFFFFFFFFE00000C0000D0
:10310000003FC7F9FF1FFFFFFFFFFFFFFFFFFFFFAC
:10311000FFFFFFFF0000040000001FC000001FFFB2
:10312000FFFFFFFFFFFFFFFFFFFFFFFFFF000007A5
:10313000FFFFFFBFC000001FFFFFFFFFFFFFFFFFFC
:10314000FFFFFFFFFFFF000007FFFFFFFFC00000C2
:103150001FFFFFFFFFFFFFFFFFFFFFFFFFFFFF80DE
:1031600000040000001FC000003FFFFFFFFFFFFF43
:10317000FFFFFFFFFFFFFFFF80000C0000003FFF8D
:10318000FFFFFFFFFFFFFFFFFFFFFFFFFFFFFFFF4F
:10319000FF8000180000007FDFFFFFFFFFFFFFFF41
:1031A000FFFFFFFFFFFFFFFFFFFFC0001000000059
:1031B000FFC0FFFFFFFFFFFFFFFFFFFFFFFFFFFF5E
:1031C000FFFFFFC00020000001FFC007FFFFFFFF5F
:1031D000FFFFFFFFFFFFFFFFFFFFFFFFC0006000DB
:1031E0000003FFC0007FFFFFFFFFFFFFFFFFFFFFA8
:1031F000FFFFFFFFFFE000C0000003FFFC0003FF34
:10320000FFFFFFFFFFFFFFFFFFFFFFFFFFFFE000EC
:1032100080000007FFFFF0001FFFFFFFFFFFFFFF21
:10322000FFFFFFFFFFFFFFE0018000000FFFFFFF38
:10323000801FFFFFFFFFFFFFFFFFFFFFFFFFFFFFFD
:10324000F0030000001FFFFFFFE01FFFFFFFFFFF75
:10325000FFFFFFFFFFFFFFFFFFF0020000003FFF47
:10326000FFFC001FFFFFFFFFFFFFFFFFFFFFFFFF50
:10327000FFFFF8040000007FFFFF00007FFFFFFF5B
:10328000FFFFFFFFFFFFFFFFFFFFFFF80C00000045
:103290007FFFC0001FFFFFFFFFFFFFFFFFFFFFFFDC
:1032A000FFFFFFFFF808000000FFFFC007FFFFFF60
:1032B000FFFFFFFFFFFFFFFFFFFFFFFFFFFC10000F
:1032C0000001FFFFC0FFFFFFFFFFFFFFFFFFFFFF4A
:1032D000FFFFFFFFFFFFFC30000003FFFFC003FF05
:1032E000FFFFFFFFFFFFFFFFFFFFFFFFFFFFFFFCF1
:1032F00060000007FFFFE0001FFFFFFFFFFFFFFF71
:10330000FFFFFFFFFFFFFFFFFE4000000FFFFFFF7B
:1033100080007FFFFFFFFFFFFFFFFFFFFFFFFFFFBB
:10332000FFFE8000001FFFFFFFFE001FFFFFFFFFEB
:10333000FFFFFFFFFFFFFFFFFFFFFF800FFFFFFF0C
:10334000FFFFFFF01FFFFFFFFFFFFFFFFFFFFFFF7C
:10335000FFFFFFFFFFFFFFFFFFFFFFFF801FFFFFDC
:10336000FFFFFFFFFFFFFFFFFFFFFFFFFFFFFFFF6D
:10337000FFFFFFFFF0001FFFFFFFFFFFFFFFFFFF4B
:10338000FFFFFFFFFFFFFFFFFFFFFFFFFC0003FF4B
:10339000FFFFFFFFFFFFFFFFFFFFFFFFFFFFFFFF3D
:1033A000FFFFFFFFFFC0007FFFFFFFFFFFFFFFFFEB
:1033B000FFFFFFFFFFFFFFFFFFFFFFFFFFFFC00F4C
:1033C000FFFFFFFFFFFFFFFFFFFFFFFFFFFFFFFF0D
:1033D000FFFFFFFFFFFFFFC1FFFFFFFFFFFFFFFF3B
:1033E000FFFFFFFFFFFFFFFFFFFFFFFFFFFFFFFFED
:1033F000DFFFFFFFFFFFFFFFFFFFFFFFFFFFFFFFFD
:10340000FFFFFFFFFFFFFFFFE7FFFFFFFFFFFFFFE4
:10341000FFFFFFFFFFFFFFFFFFFFFFFFFFFFFE01BB
:10342000FFE7FFFFFFFFFFFFFFFFFFFFFFFFFFFFC4
:10343000FFFFFFFFFFFFFFFC007FE7FFF033FFFF11
:10344000FFFFFFFFFFFFFFFFFFFFFFFFFFFFFFFF8C
:10345000F8783FE7FFC0307FFFFFFFFFFFFFFFFF70
:10346000FFFFFFFFFFFFFFFFFFF8FE1FE7FF8030BA
:103470003FFFFFFFFFFFFFFFFFFFFFFFFFFFFFFF1C
:10348000FFFFF9FF1FE7FF00303FFFFFFFFFFFFFD8
:10349000FFFFFFFFFFFFFFFFFFFFFFF9FF8FE7FFCA
:1034A00000301FFFFFFFFFFFFFFFFFFFFFFFFFFFDA
:1034B000FFFFFFFFF9FFC7E7FF0E3E1FFFFFFFFF04
:1034C000FFFFFFFFFFFFFFFFFFFFFFFFFFF9FFE32E
:1034D000E7FF1E3E1FFFFFFFFFFFFFFFFFFFFFFF96
:1034E000FFFFFFFFFFFFF9FFF1E7FF1E3E1FFFFF9A
:1034F000FFFFFFFFFFFFFFFFFFFFFFFFFFFFFFF8E3
:10350000FFF8E7FF0E3E1FFFFFFFFFFFFFFFFFFF7C
:10351000FFFFFFFFFFFFFFFFFC0FFC07FF00001F87
:10352000FFFFFFFFFFFFFFFFFFFFFFFFFFFFFFFFAB
:10353000FFFE0FFE07FF00003FFFFFFFFFFFFFFF43
:10354000FFFFFFFFFFFFFFFFFFFFFF8FFF87FF80F2
:10355000003FFFFFFFFFFFFFFFFFFFFFFFFFFFFF3A
:10356000FFFFFFFFFFFFFFFFC0007FFFFFFFFFFF29
:10357000FFFFFFFFFFFFFFFFFFFFFFFFFFFFFFFF5B
:10358000FFF001FFFFFFFFFFFFFFFFFFFFFFFFFF58
:10359000FFFFFFFFFFFFFFFFFFFFFFFFFFFFFFFF3B
:1035A000FFFFFFFFFFFFFFFFFFFFFFFFFFFFFF87A3
:1035B000C03FFFFFFFFFFFFFFFFFFFFFFFFFFFFF1A
:1035C000FFFFFFFFFFFFFFFC01801FFFF001FFFF78
:1035D000FFFFFFFFFFFFFFFFFFFFFFFFFFFFFFFFFB
:1035E000FC001F0FFFC0007FFFFFFFFFFFFFFFFF7B
:1035F000FFFFFFFFFFFFFFFFFFF8FC3FC7FF80005B
:103600003FFFFFFFFFFFFFFFFFFFFFFFFFFFFFFF8A
:10361000FFFFF9FC3FE7FF00001FFFFFFFFFFFFF79
:10362000FFFFFFFFFFFFFFFFFFFFFFF9FE7FE7FF49
:1036300000001FFFFFFFFFFFFFFFFFFFFFFFFFFF78
:10364000FFFFFFFFF9FE7FE7FF0FFC1FFFFFFFFFFC
:10365000FFFFFFFFFFFFFFFFFFFFFFFFFFF9FE7F01
:10366000E7FF0FFE1FFFFFFFFFFFFFFFFFFFFFFF53
:10367000FFFFFFFFFFFFF9FFFFE7FF0FFE1FFFFF49
:10368000FFFFFFFFFFFFFFFFFFFFFFFFFFFFFFF851
:10369000FFFFC7FF8FFC3FFFFFFFFFFFFFFFFFFFA5
:1036A000FFFFFFFFFFFFFFFFFC1FFF0FC000007FBA
:1036B000FFFFFFFFFFFFFFFFFFFFFFFFFFFFFFFF1A
:1036C000FFFE1FFC1FC000001FFFFFFFFFFFFFFFEB
:1036D000FFFFFFFFFFFFFFFFFFFFFF1FFC3FC000DB
:1036E000001FFFFFFFFFFFFFFFFFFFFFFFFFFFFFC9
:1036F000FFFFFFFFFFFFFFC000001FFFFFFFFFFFF7
:10370000FFFFFFFFFFFFFFFFFFFFFFFFFFFFFFFFC9
:10371000C000001FFFFFFFFFFFFFFFFFFFFFFFFFD6
:10372000FFFFFFFFFFFFFFFFFFFFFFFFFFFFFFFFA9
:10373000FFFFFFFFFFFFFFFFFFFFFFFFFFFFF000A7
:103740000007FFFFFFFFFFFFFFFFFFFFFFFFFFFF80
:10375000FFFFFFFFFFFFFFF0000007FFFFFFFFFF7E
:10376000FFFFFFFFFFFFFFFFFFFFFFFFFFFFFFFF69
:10377000F0000007FF00001FFFFFFFFFFFFFFFFF3C
:10378000FFFFFFFFFFFFFFFFFFF0000007FF00004C
:103790001FFFFFFFFFFFFFFFFFFFFFFFFFFFFFFF19
:1037A000FFFFF0000007FF00001FFFFFFFFFFFFF0C
:1037B000FFFFFFFFFFFFFFFFFFFFFFF003FFFFFF24
:1037C00000001FFFFFFFFFFFFFFFFFFFFFFFFFFFE7
:1037D000FFFFFFFFF0003FFFFF00001FFFFFFFFFA5
:1037E000FFFFFFFFFFFFFFFFFFFFFFFFFFF00001F5
:1037F000FFFFFFFC3FFFFFFFFFFFFFFFFFFFFFFF9C
:10380000FFFFFFFFFFFFFF80001FFFFFFE3FFFFFE7
:10381000FFFFFFFFFFFFFFFFFFFFFFFFFFFFFFFFB8
:10382000FC0007FFFFFE1FFFFFFFFFFFFFFFFFFF83
:10383000FFFFFFFFFFFFFFFFFFFFE007FFFFFE1F90
:10384000FFFFFFFFFFFFFFFFFFFFFFFFFFFFFFFF88
:10385000FFFFFFC007FF00001FFFFFFFFFFFFFFF8D
:10386000FFFFFFFFFFFFFFFFFFFFFFF80007FF0065
:10387000001FFFFFFFFFFFFFFFFFFFFFFFFFFFFF37
:10388000FFFFFFFF00003FFF00001FFFFFFFFFFFE4
:10389000FFFFFFFFFFFFFFFFFFFFFFFFF00003FF42
:1038A000FF00003FFFFFFFFFFFFFFFFFFFFFFFFFE6
:1038B000FFFFFFFFFFF0007FFFFF00007FFFFFFF24
:1038C000FFFFFFFFFFFFFFFFFFFFFFFFFFFFF0070F
:1038D000FFFFFFFFFFFFFFFFFFFFFFFFFFFFFFFFF8
:1038E000FFFFFFFFFFFFFFF0000007FFFFFFFFFFED
:1038F000FFFFFFFFFFFFFFFFFFFFFFFFFFFFFFFFD8
:10390000F0000007FFFF8FFFFFFFFFFFFFFFFFFF3C
:10391000FFFFFFFFFFFFFFFFFFF0000007F81F8121
:10392000FFFFFFFFFFFFFFFFFFFFFFFFFFFFFFFFA7
:10393000FFFFF0000007F01F807FFFFFFFFFFFFF8A
:10394000FFFFFFFFFFFFFFFFFFFFFFF0000007E0AB
:103950001F803FFFFFFFFFFFFFFFFFFFFFFFFFFF96
:10396000FFFFFFFFFFFFFFFFC01F803FFFFFFFFFC5
:10397000FFFFFFFFFFFFFFFFFFFFFFFFFFFFFFFF57
:10398000FFC01F801FFFFFFFFFFFFFFFFFFFFFFFC5
:10399000FFFFFFFFFFFFF07FFFFFC1FFFC1FFFFFE7
:1039A000FFFFFFFFFFFFFFFFFFFFFFFFFFFFFFF036
:1039B0007FFFFFC3FFFC1FFFFFFFFFFFFFFFFFFFB6
:1039C000FFFFFFFFFFFFFFFFF07FFFFFC3FFFE1FB3
:1039D000FFFFFFFFFFFFFFFFFFFFFFFFFFFFFFFFF7
:1039E000FFF07FFFFFC3FFFE1FFFFFFFFFFFFFFF93
:1039F000FFFFFFFFFFFFFFFFFFFFF07FFFFFC1FFA4
:103A0000FC1FFFFFFFFFFFFFFFFFFFFFFFFFFFFFA9
:103A1000FFFFFFF0000007C000001FFFFFFFFFFFD8
:103A2000FFFFFFFFFFFFFFFFFFFFFFFFF0000007AB
:103A3000E000003FFFFFFFFFFFFFFFFFFFFFFFFF73
:103A4000FFFFFFFFFFF0000007E000003FFFFFFF68
:103A5000FFFFFFFFFFFFFFFFFFFFFFFFFFFFF00084
:103A60000007F000007FFFFFFFFFFFFFFFFFFFFFEA
:103A7000FFFFFFFFFFFFFFF0000007FC0001FFFF5B
:103A8000FFFFFFFFFFFFFFFFFFFFFFFFFFFFFFFF46
:103A9000F07FFFFFFFFFFFFFFFFFFFFFFFFFFFFFC5
:103AA000FFFFFFFFFFFFFFFFFFF07FFFFFFFFFFFB5
:103AB000FFFFFFFFFFFFFFFFFFFFFFFFFFFFFFFF16
:103AC000FFFFF07FFFFFFFFFFFFFFFFFFFFFFFFF95
:103AD000FFFFFFFFFFFFFFFFFFFFFFF07FFFFFFF85
:103AE000FFFFFFFFFFFFFFFFFFFFFFFFFFFFFFFFE6
:103AF000FFFFFFFFF07FFFFFFFFFFFFFFFFFFFFF65
:103B0000FFFFFFFFFFFFFFFFFFFFFFFFFFFFFFFFC5
:103B1000FFFFFFFFFFFFFFFFFFFFFFFFFFFFFFFFB5
:103B2000FFFFFFFFFFFFFFFFC07FFFFFFFFFFFFF64
:103B3000FFFFFFFFFFFFFFFFFFFFFFFFFFFFFFFE96
:103B40001F801FFFFFFFFFFFFFFFFFFFFFFFFFFFC4
:103B5000FFFFFFFFFFFFFFFFFC1F000FFFFFFFFF47
:103B6000FFFFFFFFFFFFFFFFFFFFFFFFFFFFFFFF65
:103B7000FFF81F000FFFFFFFFFFFFFFFFFFFFFFF2B
:103B8000FFFFFFFFFFFFFFFFFFFFF81E0007FFFF24
:103B9000FFFFFFFFFFFFFFFFFFFFFFFFFFFFFFFF35
:103BA000FFFFFFF01E0207FFFFFFFFFFFFFFFFFF0A
:103BB000FFFFFFFFFFFFFFFFFFFFFFFFF07C0F078F
:103BC000FFFFFFFFFFFFFFFFFFFFFFFFFFFFFFFF05
:103BD000FFFFFFFFFFF0FC1F87FFFFFFFFFFFFFF5F
:103BE000FFFFFFFFFFFFFFFFFFFFFFFFFFFFF0F8FB
:103BF0001F87FFFFFFFFFFFFFFFFFFFFFFFFFFFF2D
:103C0000FFFFFFFFFFFFFFF0F81F87FFFFFFFFFF32
:103C1000FFFFFFFFFFFFFFFFFFFFFFFFFFFFFFFFB4
:103C2000F0703F07FFFFFFFFFFFFFFFFFFFFFFFFFA
:103C3000FFFFFFFFFFFFFFFFFFF0003807FFFFFF61
:103C4000FFFFFFFFFFFFFFFFFFFFFFFFFFFFFFFF84
:103C5000FFFFF8007807FFFFFFFFFFFFFFFFFFFFF9
:103C6000FFFFFFFFFFFFFFFFFFFFFFF800780FFFE1
:103C7000FFFFFFFFFFFFFFFFFFFFFFFFFFFFFFFF54
:103C8000FFFFFFFFFC00F81FFFFFFFFFFFFFFFFF2D
:103C9000FFFFFFFFFFFFFFFFFFFFFFFFFFFF03F837
:103CA0003FFFFFFFFFFFFFFFFFFFFFFFFFFFFFFFE4
:103CB000FFFFFFFFFFFFFFFFFFFFFFFFFFFFFFFF14
:103CC000FFFFFFFFFFFFFFFFFFFFFFFFFFFFFFFF04
:103CD000FFFFFFFFFFFFFFFFFFFFFFFFFFFFFFFFF4
:103CE000FFFFFFFFFFFFFFFFFFFFFFFFFFFFFFFFE4
:103F50000000000000E80B1000080200AA020000A8
:103F600000F00B1000080000AA02000000F00B1087
:103F7000F8070100000000004F41435020466561F2
:103F80007475726573203078253038580A00000047
:103F90004F4C4350204665617475726573203078CC
:103FA000253038580A0000004F4C43502074696D8A
:103FB000656F75740A0000004F4C4350204C6973C4
:103FC0007420656E640A00004F4C43502065727285
:103FD0006F720A004F4C43502070726F63656475B6
:103FE000726520696E7465727275707465640A001A
:103FF0004F414350206572726F720A004F41435027
:104000002070726F63656475726520696E74657285
:104010007275707465640A0057616974696E67200F
:104020004C32434150206576656E742025640A0049
:104030004C32434150204576656E7420726563654D
:10404000697665640A0000004C324341502070726A
:104050006F636564757265206661696C7572650A67
:10406000000000004F626A656374206E616D652018
:10407000666F756E64210A00437572722073697AE7
:10408000653A20256420416C6C6F632073697A6502
:104090003A2025640A0000006163695F6C32636145
:1040A000705F636F735F7364755F646174615F7485
:1040B00072616E736D6974203078253032580A0051
:1040C0004F54505F434C49454E545F4F4C43504909
:1040D0006E6469636174696F6E0A00004F54505FCB
:1040E000434C49454E545F4F414350496E646963A8
:1040F0006174696F6E0A000096C298D84539A1F4C0
:10410000A033EB2D817D0377F240A463E5E6BCF894
:1041100047422CE1F2D1176BF551BF376840B6CB5F
:10412000CE5E316B5733CE2B169E0F7C4AEBE78E5B
:104130009B7F1AFEE242E34FC4E9EAEBECEEEFF0BC
:10414000F1F2F3F3F4F5F6F7F8F9FAFBFCFDFDFEF6
:10415000FF00020304050506C4E8E9EAEBEDEEEF13
:10416000F0F1F2F3F4F5F6F7F8F9FAFBFCFCFDFEDA
:10417000FF00010203040506070000000403020219
:104180000101010100000000000000000100020028
:104190000400060008000A000C0010002000400087
:1041A000800000010101010307010000080402046E
:1041B00008010101526573706F6E73652066726F3E
:1041C0006D2045534C202825642C202564293A2055
:1041D0000000000030782530325820002B53544125
:1041E00054453A253032582C253032582C25642C31
:1041F00025640D0A000000002B4C45443A2530325E
:10420000582C253032582C25640D0A002B54585454
:104210003A253032582C253032582C25640D0A00AE
:104220002B50524943453A253032582C25303258CC
:104230002C25640D0A0000002B53454E533A2530BF
:1042400032582C253032582C25642C25640D0A0058
:104250002B444953503A253032582C253032582CB3
:1042600025642C25642C25640D0A00002B4F545026
:104270003A20252E2A730A0041542B50494E473DBF
:104280000000000025782C257800000041542B55B3
:104290004E4153534F433D0041542B5352565253BA
:1042A000543D000041542B465253540041542B5569
:1042B0005044434D5000000041542B53454E533D54
:1042C0000000000041542B524546524553483D00E2
:1042D00025782C25782C25750000000041542B49A9
:1042E0004D473D0025782C25782C25752C2575000B
:1042F00041542B494D4754494D3D000025782C250C
:10430000782C25752C25752C2575000041542B4CD7
:1043100045443D0025782C25782C25752C25782CB6
:10432000256C6C782C25752C25752C25752C2578FD
:104330000000000041542B4C454454494D3D0000C1
:1043400025782C25782C25752C25782C256C6C78D7
:104350002C25752C25752C25752C25782C2575007C
:1043600041542B5458543D0025782C25782C255B3E
:104370005E090D0A5D00000041542B50524943452F
:104380003D00000025782C25782C25752E257500FC
:1043900041542B5245434F4E463D000041542B4360
:1043A0004F4E4E3D0000000041542B494E464F00F9
:1043B00041542B444953504C4159494E464F0000FB
:1043C00041542B53454E534F52494E464F00000027
:1043D00041542B4C4544494E464F000041542B4319
:1043E0004C524E564D00000041542B41425354490B
:1043F0004D453F002B41425354494D453A202564D9
:104400000A00000041542B5343414E0041542B41BC
:1044100044443D0025642C256C6C782C25782C2593
:104420007800000041542B4F5450534541524348AB
:104430003D000000255B5E090D0A5D0041542B4FD5
:1044400054505345415243480000000041542B4F03
:1044500054504D45544100004E616D653A2025731E
:104460000A000000547970653A203078200000007E
:104470002530325820000000437572722053697A4B
:10448000653A2025640A0000416C6C6F6320536913
:104490007A653A2025640A0050726F703A203078AD
:1044A000253038580A00000049443A20307800008E
:1044B00041542B4F545053544152543D000000007E
:1044C00041542B4F545057524954453D0000000071
:1044D00041542B4F5450434C4F53450041542B48AB
:1044E000454C50005374616E646172642045534CB6
:1044F00020636F6D6D616E6473202847726F7570F5
:1045000020616E6420494420746F206265206769D1
:1045100076656E2061732068657861646563696D96
:10452000616C2076616C75652C206F7468657220F3
:1045300076616C7565732061726520646563696D71
:10454000616C20756E6C657373206F74686572772B
:1045500069736520737065636966696564293A0AE1
:104560000000000020202D2041542B50494E473D93
:104570003C67726F75705F69643E2C3C65736C5F5D
:1045800069643E3A2050696E670A000020202D20A1
:1045900041542B554E4153534F433D3C67726F7509
:1045A000705F69643E2C3C65736C5F69643E3A20C1
:1045B000556E6173736F63696174652066726F6DA8
:1045C0002041500A0000000020202D2041542B5390
:1045D00052565253543D3C67726F75705F69643E2A
:1045E0002C3C65736C5F69643E3A20536572766952
:1045F00063652052657365740A00000020202D2039
:1046000041542B465253543A20466163746F727979
:104610002052657365742028636F6E6E65637465E0
:10462000642045534C290A0020202D2041542B554D
:104630005044434D503A2055706461746520436F77
:104640006D706C6574652028636F6E6E656374654C
:10465000642045534C290A0020202D2041542B531F
:10466000454E533D3C67726F75705F69643E2C3CEC
:1046700065736C5F69643E2C3C73656E736F725F2B
:10468000696E6465783E3A20526561642053656EB8
:10469000736F7220446174610A00000020202D2095
:1046A00041542B524546524553483D3C67726F7505
:1046B000705F69643E2C3C65736C5F69643E2C3CA2
:1046C000646973706C61795F696E6465783E3A20E5
:1046D0005265667265736820446973706C61790A0B
:1046E0000000000020202D2041542B494D473D3C27
:1046F00067726F75705F69643E2C3C65736C5F69AF
:10470000643E2C3C646973706C61795F696E6465AA
:10471000783E2C3C696D6167655F696E6465783EC3
:104720003A20446973706C617920496D6167650A4C
:104730000000000020202D2041542B494D475449B2
:104740004D3D3C67726F75705F69643E2C3C6573CC
:104750006C5F69643E2C3C646973706C61795F695D
:104760006E6465783E2C3C696D6167655F696E6457
:1047700065783E2C3C6162736F6C7574655F74691B
:104780006D653E3A20446973706C61792054696D9F
:10479000656420496D6167650A00000020202D20B6
:1047A00041542B4C45443D3C67726F75705F6964A2
:1047B0003E2C3C65736C5F69643E2C3C6C65645FA9
:1047C000696E6465783E2C3C6C65645F636F6D70E8
:1047D0006F6E656E745F6865783E2C3C70617474B2
:1047E00065726E5F6865783E2C3C6F66665F7065CB
:1047F00072696F643E2C3C6F6E5F706572696F64A6
:104800003E2C3C7265706561745F747970653E2CF6
:104810003C7265706561745F6475726174696F6E16
:104820003E3A204C454420436F6E74726F6C0A0010
:1048300020202D2041542B4C454454494D3D3C678C
:10484000726F75705F69643E2C3C65736C5F696460
:104850003E2C3C6C65645F696E6465783E2C3C6CF4
:1048600065645F636F6D706F6E656E743E2C3C7037
:1048700061747465726E3E2C3C6F66665F70657223
:10488000696F643E2C3C6F6E5F706572696F643E49
:104890002C3C7265706561745F747970653E2C3C68
:1048A0007265706561745F6475726174696F6E3E84
:1048B0002C3C6162736F6C7574655F74696D653EE5
:1048C0003A204C45442054696D656420436F6E74F2
:1048D000726F6C0A000000000A50726F7072696596
:1048E000746172792045534C20636F6D6D616E6405
:1048F000733A200A0000000020202D2041542B5440
:1049000058543D3C67726F75705F69643E2C3C651E
:10491000736C5F69643E2C3C746578743E3A205336
:10492000657420746578740A20202D203C746578A5
:10493000743E2063616E2062652061207374726929
:104940006E672077697468206D6178696D756D2078
:10495000313520636861726163746572730A0000A7
:1049600020202D2041542B50524943453D3C677235
:104970006F75705F69643E2C3C65736C5F69643E63
:104980002C3C76616C5F696E743E2C3C76616C5F8A
:1049900066726163743E3A20536574207072696375
:1049A00065200A000A436F6D6D616E647320666F47
:1049B00072207370656369616C206F7065726174D9
:1049C000696F6E73206F722074657374730A0000D0
:1049D00020202D2041542B5343414E3A20536361F4
:1049E0006E20666F722045534C730A0020202D20E4
:1049F00041542B4144443D3C616464725F7479705E
:104A0000653E2C3C616464726573733E2C3C677236
:104A10006F75705F69643E2C3C65736C5F69643EC2
:104A20003A2041646420616E2045534C20746F200D
:104A3000746865206E6574776F726B0A0000000001
:104A400020202D2041542B434F4E4E3D3C67726F2A
:104A500075705F69643E2C3C65736C5F69643E3AB7
:104A600020436F6E6E65637420746F20616E204505
:104A7000534C20666F72207570646174650A000083
:104A800020202D2041542B5245434F4E463D3C6E35
:104A900065775F67726F75705F69643E2C3C6E6509
:104AA000775F65736C5F69643E3A205265636F6E31
:104AB0006669677572652074686520636F6E6E65E0
:104AC000637465642045534C2077697468206120C5
:104AD0006E657720616464726573730A000000007C
:104AE00020202D2041542B494E464F3A20526561DB
:104AF0006420616C6C2074686520496E666F726D0D
:104B00006174696F6E204368617261637465726974
:104B100073746963732066726F6D207468652063B7
:104B20006F6E6E65637465642045534C0A00000027
:104B300020202D2041542B444953504C4159494E7B
:104B4000464F3A2052656164207468652044697359
:104B5000706C617920496E666F726D6174696F6EF9
:104B6000204368617261637465726973746963205C
:104B700066726F6D2074686520636F6E6E65637416
:104B800065642045534C0A0020202D2041542B53AE
:104B9000454E534F52494E464F3A2052656164206C
:104BA0007468652053656E736F7220496E666F720C
:104BB0006D6174696F6E20436861726163746572C0
:104BC00069737469632066726F6D20746865206311
:104BD0006F6E6E65637465642045534C0A00000077
:104BE00020202D2041542B4C4544494E464F3A201D
:104BF0005265616420746865204C454420496E66A6
:104C00006F726D6174696F6E204368617261637465
:104C1000657269737469632066726F6D207468656C
:104C200020636F6E6E65637465642045534C0A00A3
:104C300020202D2041542B434C524E564D3A2043B8
:104C40006C65617220746865204E564D20646174F5
:104C500061626173650A000020202D2041542B41C0
:104C6000425354494D453F3A205265616420637573
:104C70007272656E74206162736F6C7574652074F6
:104C8000696D650A0000000020202D2041542B4F43
:104C900054505345415243483A20446973636F76F8
:104CA000657220696D61676573206F6E2074686539
:104CB00020636F6E6E6563746564207365727665DC
:104CC00072206F6E207468652045534C0A00000006
:104CD00020202D2041542B4F5450534541524348DE
:104CE0003D3C6E616D653E3A20536561726368209C
:104CF000616E642073656C656374207468652073ED
:104D0000706563696669656420696D616765206FB8
:104D10006E2074686520636F6E6E656374656420D1
:104D200045534C0A0000000020202D2041542B4FF9
:104D300054504D4554413A2052656164206D65746C
:104D4000616461746120666F722063757272656E52
:104D500074206F626A6563740A00000020202D20B1
:104D600041542B4F545053544152543D3C7472752E
:104D70006E636174653E3A204F70656E20616E20EF
:104D80004C32434150206368616E6E656C20746FD5
:104D9000207472616E7366657220616E20696D6148
:104DA000676520746F2074686520636F6E6E65633D
:104DB0007465642045534C2E20536574203C7472F6
:104DC000756E636174653E20746F203120746F20AE
:104DD0007472756E6361746520696D6167652C20FE
:104DE0006F74686572776973652073657420697480
:104DF00020746F20302E0A0020202D2041542B4F8C
:104E0000545057524954453D3C73697A653E3A20A7
:104E100053656E6420696D61676520646174612CFF
:104E200020757020746F2074686520676976656EE0
:104E30002073697A6520696E206279746573202811
:104E40006D6178696D756D2069732035303030295A
:104E50002E204461746120746F2062652073656E3A
:104E6000742069732073746F72656420696E73694E
:104E7000646520696D6167652E632066696C652EC7
:104E80000A00000020202D2041542B4F5450434C49
:104E90004F53453A20436C6F7365204C3243415069
:104EA000206368616E6E656C20746F207472616E31
:104EB0007366657220696D61676520646174612E37
:104EC0002049742073686F756C6420626520697373
:104ED00073756564207768656E20746865726520F7
:104EE000617265206E6F74206F7468657220696DE1
:104EF0006167657320746F2062652073656E742E20
:104F00000A00000020202D2041542B48454C503AE7
:104F1000204C697374206F6620415420636F6D6D5F
:104F2000616E64730A0000004F4B0D0A0000000020
:104F30004552524F520D0A00686A6C747A4C000058
:104F40007072696E74665F733A20256E20646973AF
:104F5000616C6C6F776564007072696E74663A207C
:104F600062616420256E20617267756D656E7400E4
:104F70007072696E74665F733A2062616420257393
:104F800020617267756D656E74000000000000009E
:104F90006E616E004E414E00696E6600494E4600DD
:104FA00030002E007363616E665F733A2062616445
:104FB0002025632C2025732C206F7220255B206117
:104FC0007267756D656E74007363616E665F733AC8
:104FD0002062616420666C6F6174696E672D706F0A
:104FE000696E7420617267756D656E7400000000F3
:104FF000686A6C747A4C000063436E5B00000000CA
:105000007363616E665F733A2062616420256E206F
:10501000617267756D656E740000000000004129C3
:10502000211C19171615141312121111111010103A
:105030000F0F0F0F0E0E0E0E0E0E0E0D0D0D0D0D91
:105040000D00000030313233343536373839616283
:10505000636465666768696A6B6C6D6E6F707172A8
:10506000737475767778797A00000000FB349B5F63
:105070008000008000100000292B000010000000BC
:10508000FB349B5F8000008000100000052A0000B8
:105090001000000000000000000000000000000000
:1050A000000000008D170710000000000200000043
:1050B00003000000030000000600000003000000E1
:1050C000030000003C0000007000000070000000C1
:1050D000D003000070000000C30100002DD80610AE
:1050E000D36F0410157004103D7004102F7004105D
:1050F000A36D0410496E0410077604101576041091
:1051000023760410317604103F76041059E006101F
:10511000B775041091750410C57504100F52051071
:105120004B480510776E0410F97304109370041047
:1051300011600710A170041091DC0610576507106C
:10514000A962071057670710696907106969071096
:105150007F6A071057670710596C0710596C0710C2
:10516000596C07105B66071063620710276207100F
:105170007F6A07100000000001750710CD2D071091
:10518000D174071019750710552C0710576E0410AD
:10519000676E0410ED6F0710F56F0710F16F0710C1
:1051A000A56E0410B56E0410C56E0410D56E041003
:1051B000256F0410F56E0410056F0410156F0410B0
:1051C000E56E0410B56F0710356F0410456F0410BD
:1051D000556F0410656F0410F96F07103B700710CE
:1051E000111907100000000049700710FD17071083
:1051F000BD2B0710D373071085200710AB73071062
:105200004B7407106F700710E7750710F1750710E2
:105210002D340710A53407100D76071045750710BB
:1052200000000000657B07107135071000000000CA
:1052300000000000213807104B7B0710C57B0710CA
:10524000ED79071000000000E17B0710917707104F
:10525000237B0710917B0710817807100000000066
:10526000000000002176071000000000257D0710D7
:10527000D53E071000000000F1430710E97B07103E
:1052800000000000C54A0710397E0710000000002A
:10529000457E071000000000000000003D4B071095
:1052A000194507103D7E0710677E0710317D0710F6
:1052B00000000000717F0710654E0710CD7E0710BB
:1052C000000000000000000000000000A17F0710A7
:1052D000977F071000000000AB7F0710B57E071016
:1052E0000000000013800710098007100000000074
:1052F0001D800710C17E071000B5BFF34F8F034814
:10530000A6490860BFF34F8F00BFFDE70400FA0510
:1053100080B501F023FA01F0E3FA0021C943884285
:1053200001D101F007FC01BDF8B598B00020694635
:105330000873062501950020009007AC009A01999A
:10534000200001F0FDFB2800694608740020694632
:10535000C8810BA89249342201F01EFC0BA801F071
:1053600051FC07003800C0B2002806D03900C9B28D
:105370008C4801F07DFC01F0DDFB07ACAD20207016
:10538000AB206070AA20A070E120E0708020207126
:105390000220607107AA0621002001F07DFC0600B2
:1053A0003000C0B2002805D03100C9B27E4801F0FB
:1053B0005FFC02E07D4801F05BFC1821002001F059
:1053C0006FFC6946087068460078002805D068467A
:1053D0000178774801F04CFC02E0764801F048FC87
:1053E0007549FB2002F001FB07003800C0B200281D
:1053F00004D03900C9B2714801F03AFC06A9012075
:1054000002F044FB06003000C0B2002805D0310095
:10541000C9B2A74801F02CFC02E0A64801F028FC24
:10542000002005436846457300216846007B02F072
:1054300089FB05002800C0B2002805D02900C9B2A8
:105440009D4801F015FC02E09C4801F011FC04A805
:10545000801C009005AB05AA921C6846017B68463B
:10546000407B02F077FB0600207802906078019084
:10547000A0780090E37822796179914801F0F8FBF7
:10548000904A0521002002F0AEFB04002000C0B2CB
:10549000002805D02100C9B28B4801F0E9FB02E0E9
:1054A0008A4801F0E5FB03AA921C0221002002F0C9
:1054B000ADFB06003000C0B2002805D03100C9B2F3
:1054C000834801F0D5FB02E0824801F0D1FB824C19
:1054D000012528002070207802F03DF907003800EF
:1054E000C0B2002805D03900C9B27C4801F0C0FB29
:1054F00002E07B4801F0BCFB280060700820E070EF
:1055000010202071A5700020029020790190E07891
:105510000090002302226178A07802F023F90500B0
:105520002800C0B2002805D02900C9B26D4801F09A
:105530009FFB02E06C4801F09BFBA078002810D094
:10554000012002F0E5FB05002800C0B2002805D0CC
:105550002900C9B2654801F08BFB02E0644801F004
:1055600087FB09A863490CC90CC00839083809A889
:1055700002F0DEFB04002000C0B2002805D02100AC
:10558000C9B25D4801F074FB02E05C4801F070FBB9
:105590005B4801F06DFB19B0F0BD00000CED00E0C0
:1055A00084160410080104102C0104108801041052
:1055B000D40104101402041048080000440204102E
:1055C00080B50121012002F08EFC01BD80B50120D3
:1055D00002F012FD02F013FD012002F00EFD01BDEC
:1055E00080B502F015FE01BD80B50021022002F059
:1055F0007AFC01BD80B504F03AFB01BD80B5012104
:10560000042002F070FC01BD80B5FFF7EDFF01BD85
:1056100010B50400200004F07BFBFFF7E5FFFFF767
:10562000EDFF10BD10B50400200004F0C5FB10BD57
:1056300080B500218020800002F055FC01BD80B5BE
:10564000FFF7BEFF01BD80B52E4A0021012002F008
:105650003AFC2D4A0021022002F035FC2B4A0021A1
:10566000042002F030FCFFF753FEFFF75DFE04F06C
:10567000A7FB274A00218020800002F024FC254A55
:105680000021802002F01FFC234A002180204000DE
:1056900002F019FC214A00218020C00002F013FC16
:1056A00006F034F900F062FD00F0EEFD01BD0000EF
:1056B00094020410D40204100403041038030410EC
:1056C0005C0304107C16041098030410DC0304101F
:1056D0001004041054040410500E00208804041018
:1056E000C8040410F80404104005041078050410E0
:1056F000D0050410180604102006041060060410DB
:1057000090060410CD550410E1550410F555041011
:1057100051BC0610996504107563041005CA041085
:10572000F1B598B086206946087518980078042865
:1057300004D018980078822800D0C8E31898401C3C
:10574000079018980078042803D10798801C0990C6
:1057500003E01898401CC01C0990079800780528A1
:1057600008D0102800D19EE33E2844D0FF2800D165
:10577000D6E1A7E30798871C01A801210170797879
:10578000BA781206120C1143418001A804F069FB9B
:105790007878B9780906090C0843DB4CA18980B2F6
:1057A000884225D1D948A08100252800A073D84877
:1057B00001F05EFA7978B8780006000C0143FA78B7
:1057C00089B2D44801F054FA062610342A00310078
:1057D000200001F0B5F97878B9780906090C08437A
:1057E00080B207F03FF9082002F08FFB00F04CFD7B
:1057F00000F0B2FC6BE30798801C069006980078D6
:10580000012800D103E1022800D128E1032815D0A6
:10581000042800D137E10A2800D1A8E00C2800D1E3
:10582000A0E00D2800D124E1272800D141E128285B
:1058300000D14DE1292800D1C1E05FE10698441C68
:10584000B54801F015FAE07821790906090C0843FA
:1058500080B207F06BF90022B04B07F081F900220B
:1058600080235B0307F03EFA2BD8E0782179090604
:10587000090C0843E57821790906090C0D4380B22B
:1058800007F054F90022A54B07F06AF906000F0053
:10589000ADB2280007F04AF90022A04B07F060F9EA
:1058A00007F03AFA07F052F902000B003000390015
:1058B00007F0BEFA0022D74B07F052F907F02CFA96
:1058C00028E0E07821790906090C0843E578217978
:1058D0000906090C0D4380B207F028F900228F4B0E
:1058E00007F03EF907F018FA07F030F906000F004C
:1058F000ADB2280007F01AF90022D14B07F030F9B9
:1059000032003B0007F031FA0022C24B07F028F9C1
:1059100007F002FAE279217A0906090C0A43637951
:10592000A1790906090C0B43E17825792D062D0C88
:10593000294392B20A25554300959BB202001600F6
:105940001D00080080B207F0F1F80022734B07F049
:1059500007F907F0E1F901002B003200C54801F01A
:1059600087F9D0E00698441C00F0F6FBCBE00698DF
:10597000441CC14801F07CF9E07E217F0906090C36
:105980000843627EA17E0906090C0A43E37D217E5D
:105990000906090C0B436178A5782D062D0C2943C7
:1059A00080B2039092B202929BB20193601D00906C
:1059B0002379E27889B2207800F0BAFAA3E0069859
:1059C000441CCB4801F054F9E07E217F0906090C04
:1059D0000843627EA17E0906090C0A43E37D217E0D
:1059E0000906090C0B436178A5782D062D0C294377
:1059F00080B2039092B202929BB20193601D00901C
:105A00002379E27889B2207800F092FA7BE0069858
:105A1000441CB84801F02CF9E07B217C0906090CF4
:105A20000843627BA17B0906090C0A43E37A217BC8
:105A30000906090C0B436178A5782D062D0C294326
:105A400080B2039092B202929BB20193601D0090CB
:105A50002379E27889B2207800F06AFA53E0069858
:105A6000441CE31CA27821000A31607A00F016FD84
:105A700049E00698441C231DE27821001931207E5C
:105A800000F00CFD3FE00698441CBE4801F0F0F821
:105A90000025082D06DA6019C178BB4801F0E8F846
:105AA0006D1CF6E7CEA001F0E3F8082002F02DFA15
:105AB00029E00698441C65786078A17840188542F2
:105AC00005DA2800C0B206F0CFFD6D1CF4E71AE03D
:105AD0000698461CC34801F0CBF8341D0025F07829
:105AE00085420ADAA31D6279E178707806F072FEC9
:105AF00060792018841D6D1CF1E704E00698017898
:105B0000CC4801F0B5F8E2E1500E0020FFFF0000A4
:105B1000AC060410D8060410180704100000F43F67
:105B2000099C207861780906090C084380B2001F9F
:105B300000D17FE0801E00D1A2E1BF49401A00D110
:105B4000C4E0401E00D17DE0401F65D0801E00D122
:105B500094E0401E6FD0FE218900401A1BD0801EA9
:105B600000D161E1801E00D158E1001F00D165E144
:105B7000401F00D138E1FD218900401A012800D8DA
:105B800086E1001F00D183E1093800D180E10938A6
:105B900000D1FBE07DE1A71C0125F87A397B0906DD
:105BA000090C08437A7AB97A0906090C0A4369464E
:105BB0000A84FA79397A0906090C0A437979BB799A
:105BC0001B061B0C19433B787E783606360C334394
:105BD0006E46F3822B00DBB20493BB780393102351
:105BE00002931023019380B200906846038C92B216
:105BF00089B26846C08A01F095FE06003000C0B246
:105C0000002803D0B34801F033F802E0B24801F0B5
:105C10002FF847E100005940B04801F029F8A51CD1
:105C20002878012805D16878002802D1AC4801F015
:105C30001FF837E136E1AB4801F01AF832E100BF56
:105C40000000F4BFA84801F013F8A849A8488089CB
:105C500001F0AEFD694608756846007D002805D054
:105C60006846017DA34801F003F802E0A24800F075
:105C7000FFFF17E14C070410BC0704109F4800F019
:105C8000F7FF201D07F04CF901009D4800F0F0FFE0
:105C9000201D07F045F901009A4800F0E9FF0125B1
:105CA0002900C9B29248808901F08BFD69460875C8
:105CB0006846007D002805D06846017D924800F0C6
:105CC000D7FF02E0914800F0D3FFEBE0904800F0EE
:105CD000CFFFA01C00900098807800280CD000987E
:105CE000C278009881788B4800F0C2FF07E000BFBF
:105CF000F007041024080410874800F0B9FF38A00A
:105D000000F0B6FF00988078002807D1784802009C
:105D10001032C17B808906F085FE28E000988078EB
:105D2000042824D17D4800F0A3FF714D7C4F0AABBD
:105D30000EAA3900E87B05F007FF06003000C0B26C
:105D4000002805D1774800F093FF0AA803F008FF68
:105D50003000C0B2002803D03000C0B2012806D104
:105D6000714800F085FF3900E87B01F038FD0098AC
:105D70008078002804D013215D48808901F066FCFA
:105D800090E000BF4C0804105C080410674800F065
:105D90006FFFA61C0825317970790006000C0143BD
:105DA00089B2BD4800F064FF327970790006000CBA
:105DB0000243B178F0780006000C01433078737824
:105DC0001B061B0C184300230193002300932B0098
:105DD000DBB292B289B280B201F025FD62E000BF71
:105DE0000A00000064080410AC4800F041FFA51C44
:105DF0006B79A8790006000C0343EA78287900063D
:105E0000000C0243E87A00909BB292B2A978A448B1
:105E100000F02EFF280007F0FFFC43E0A14800F04F
:105E200027FF07F025FD3DE09F4800F021FF07F028
:105E3000B1F837E094080410FB0300009B4800F021
:105E400017FFA61CF17830790006000C014389B2D7
:105E5000B14800F00DFF7079002810D0AF4800F075
:105E600007FF00257079854206DA70198179AC4800
:105E700000F0FEFE6D1CF5E7AAA000F0F9FE11E0AF
:105E8000A51C2978A84800F0F3FEFFF735FA09E0D1
:105E900008E0217860780006000C014389B2A3482D
:105EA00000F0E6FE13E00798841C2178A04800F07B
:105EB000DFFE2078042804DA052007F0EDFCFFF768
:105EC0001BFA04E0079801789A4800F0D1FE19B057
:105ED000F0BD0000B0080410F008041030090410F0
:105EE00058090410640904109409041007B2010051
:105EF000500E0020BC090410F0090410180A041008
:105F00004C0A0410680A0410800A0410CC0A041019
:105F10000C0B0410380B0410780B0410900B0410B9
:105F2000600E0020C00B0410E00B0410F00B0410F6
:105F3000FFB585B00E9C0F9E6846007D002808D0F6
:105F40006846017D7C4800F093FE00207B49887301
:105F5000A0E06846018B7A4800F08AFE2078029023
:105F600060780190A0780090E37822796179754893
:105F700000F07EFE300080B206F0D8FD0022724BA9
:105F800006F0EEFD002280235B0306F0ABFE22D874
:105F9000300080B206F0CAFD00226B4B06F0E0FD37
:105FA00000900191300080B206F0C0FD0022664BE7
:105FB00006F0D6FD06F0B0FE06F0C8FD02000B00AC
