:020000041004E6
:1000000000000120CDAD061005AE06100DAE0610A5
:1000100000000000000000000000000000000000E0
:1000200000000000000000000000000015AE0610F7
:10003000000000000000000017AE061019AE061008
:100040003F7904106BC8041073CA04108BCA0410E3
:10005000000000000000000000000000EBD30410CE
:1000600021AE061083D404109BEA04101FFF041075
:100070006F09051049AE061000000000EF0F0510D3
:1000800007230510CB27051071AE061000000000F5
:1000900069AE0610000000000000000061AE06100E
:1000A000F72A051079AE06109F2F05102F33051083
:1000B00053340510000000000000000000000000A4
:1000C0000000000000002440000000000000594033
:1000D000000000000088C3400000000084D7974162
:1000E0000080E03779C34143176E05B5B5B8934634
:1000F000F5F93FE9034F384D321D30F94877825A00
:100100003CBF737FDD4F15754572726F7220696E4B
:1001100020424C455F535441434B5F496E697428FC
:1001200029203078253032780D0A000020204661E1
:10013000696C2020203A206163695F68616C5F7799
:10014000726974655F636F6E6669675F646174612D
:1001500020636F6D6D616E64202D20434F4E4649C4
:10016000475F444154415F505542414444525F4FC0
:1001700046465345542C20726573756C743A203092
:1001800078253032580A0000202053756363657368
:10019000733A206163695F68616C5F777269746547
:1001A0005F636F6E6669675F6461746120636F6D22
:1001B0006D616E64202D20434F4E4649475F444198
:1001C00054415F505542414444525F4F4646534567
:1001D000540A000020204661696C2020203A2061EA
:1001E00063695F68616C5F7365745F74785F706F7B
:1001F0007765725F6C6576656C20636F6D6D616E9F
:10020000642C20726573756C743A20307825303216
:10021000580A00002020537563636573733A2061A8
:1002200063695F68616C5F7365745F74785F706F3A
:100230007765725F6C6576656C20636F6D6D616E5E
:10024000640A000020204661696C2020203A206862
:1002500063695F6C655F77726974655F7375676703
:1002600065737465645F64656661756C745F646111
:1002700074615F6C656E67746820636F6D6D616E2D
:10028000642C20726573756C743A20307825303296
:10029000580A000020204661696C2020203A206125
:1002A00063695F676174745F7372765F70726F66A3
:1002B000696C655F696E697420636F6D6D616E64F2
:1002C0002C20726573756C743A2030782530325862
:1002D0000A0000002020537563636573733A206140
:1002E00063695F676174745F7372765F70726F6663
:1002F000696C655F696E697420636F6D6D616E64B2
:100300000A00000020204661696C2020203A20610C
:1003100063695F6761705F696E697420636F6D6D9B
:10032000616E642C20726573756C743A2030782588
:100330003032580A00000000202053756363657353
:10034000733A206163695F6761705F696E697420E9
:10035000636F6D6D616E640A0000000020205075AF
:10036000626C696320426C7565746F6F74682041BC
:100370006464726573733A20253032783A253032DE
:10038000783A253032783A253032783A253032784A
:100390003A253032780A000020204661696C20201E
:1003A000203A204761705F70726F66696C655F7399
:1003B00065745F6465765F6E616D65202D204465B0
:1003C00076696365204E616D652C20726573756C6E
:1003D000743A203078253032580A000020205375B6
:1003E00063636573733A204761705F70726F66690B
:1003F0006C655F7365745F6465765F6E616D6520C3
:100400002D20446576696365204E616D650A0000A4
:1004100020204661696C2020203A204761705F707F
:10042000726F66696C655F7365745F61707065613A
:1004300072616E6365202D20417070656172616E1E
:1004400063652C20726573756C743A2030782530A2
:1004500032580A002020537563636573733A20474E
:1004600061705F70726F66696C655F7365745F6100
:100470007070656172616E6365202D2041707065DA
:100480006172616E63650A0020204661696C2020FC
:10049000203A206163695F6761705F7365745F69AB
:1004A0006F5F6361706162696C69747920636F6DFD
:1004B0006D616E642C20726573756C743A203078AF
:1004C000253032580A00000020205375636365739D
:1004D000733A206163695F6761705F7365745F6918
:1004E0006F5F6361706162696C69747920636F6DBD
:1004F0006D616E640A00000020204661696C202056
:10050000203A206163695F6761705F7365745F7330
:10051000656375726974795F726571756972656D0D
:10052000656E747320636F6D6D616E642C207265EF
:1005300073756C743A203078253032580A00000008
:100540002020537563636573733A206163695F6745
:1005500061705F7365745F73656375726974795FE9
:10056000726571756972656D656E747320636F6D08
:100570006D616E640A00000020204661696C2020D5
:10058000203A206163695F6761705F636F6E6669BF
:10059000677572655F66696C7465725F61636365D8
:1005A00070745F616E645F7265736F6C76696E679D
:1005B0005F6C69737420636F6D6D616E642C207263
:1005C0006573756C743A203078253032580A000013
:1005D0002020537563636573733A206163695F67B5
:1005E00061705F636F6E6669677572655F66696C7F
:1005F0007465725F6163636570745F616E645F727E
:1006000065736F6C76696E675F6C69737420636F76
:100610006D6D616E640A0000FFFFFFFFC0FFFFFF0A
:1006200020204661696C2020203A206163695F6761
:1006300061705F7365745F6C655F6576656E745F2E
:100640006D61736B20636F6D6D616E642C207265DC
:1006500073756C743A203078253032580A000000E7
:100660002020537563636573733A206163695F6724
:1006700061705F7365745F6C655F6576656E745FEE
:100680006D61736B20636F6D6D616E640A000000B5
:100690003D3D3E3E20456E6420424C455F496E69BB
:1006A000742066756E6374696F6E0A003E3E3D3D50
:1006B000204843495F444953434F4E4E45435449B4
:1006C0004F4E5F434F4D504C4554455F4556545F28
:1006D000434F44450A00000020202020202D2043C5
:1006E0006F6E6E656374696F6E2048616E646C65D1
:1006F0003A2020203078253032580A20202020202F
:100700002D20526561736F6E3A20202020307825AD
:100710003032580A000000003E3E3D3D204843492B
:100720005F4C455F434F4E4E454354494F4E5F55D6
:1007300050444154455F434F4D504C4554455F53E1
:1007400055424556545F434F44450A00202020201F
:10075000202D20436F6E6E656374696F6E20496E45
:1007600074657276616C3A20202025642E25303223
:1007700064206D730A20202020202D20436F6E6E90
:10078000656374696F6E206C6174656E63793A207D
:1007900020202025640A20202020202D2053757041
:1007A0006572766973696F6E2054696D656F7574D3
:1007B0003A2020202564206D730A00004843495FD9
:1007C0004C455F454E48414E4345445F434F4E4E76
:1007D000454354494F4E5F434F4D504C4554455F40
:1007E0005355424556545F434F44450A00000000AC
:1007F0004843495F4C455F454E48414E4345445F41
:10080000434F4E4E454354494F4E5F434F4D504C1E
:100810004554455F56325F5355424556545F434FEA
:1008200044450A004843495F4C455F434F4E4E459F
:100830004354494F4E5F434F4D504C4554455F53D1
:1008400055424556545F434F44450A004C455F4668
:10085000656174757265733A200000003078253048
:10086000325820004843495F4C455F504552494F3C
:100870004449435F4144564552544953494E475FAA
:10088000524553504F4E53455F5245504F52540AB4
:10089000000000004843495F4C455F4D4554415FAF
:1008A0004556543A203078253032580A000000006E
:1008B00020204661696C2020203A206163695F6CCA
:1008C000326361705F636F6E6E656374696F6E5FD4
:1008D000706172616D657465725F75706461746575
:1008E0005F7265737020636F6D6D616E640A0000E6
:1008F0002020537563636573733A206163695F6C8D
:10090000326361705F636F6E6E656374696F6E5F93
:10091000706172616D657465725F75706461746534
:100920005F7265737020636F6D6D616E640A0000A5
:100930003E3E3D3D204143495F4741505F50524F4D
:10094000435F434F4D504C4554455F5653455654B5
:100950005F434F44450A00002B5343414E454E44EC
:100960000D0A00003E3E3D3D204143495F47415056
:100970005F4B455950524553535F4E4F544946497A
:10098000434154494F4E5F56534556545F434F447D
:10099000450A00003E3E3D3D204143495F474150EE
:1009A0005F504153534B45595F5245515F56534534
:1009B00056545F434F44450A000000003D3D3E3E13
:1009C000206163695F6761705F706173736B6579E4
:1009D0005F72657370203A204661696C2C207265E5
:1009E00061736F6E3A203078253032580A0000006B
:1009F0003D3D3E3E206163695F6761705F7061737A
:100A0000736B65795F72657370203A205375636309
:100A10006573730A000000003E3E3D3D204143499E
:100A20005F4741505F4E554D455249435F434F4DDF
:100A300050415249534F4E5F56414C55455F5653B6
:100A40004556545F434F44450A00000020202020B3
:100A5000202D206E756D657269635F76616C7565BA
:100A6000203D2025640A000020202020202D204841
:100A700065785F76616C7565203D2025780A0000F9
:100A80003D3D3E3E206163695F6761705F6E756DDD
:100A9000657269635F636F6D70617269736F6E5FBA
:100AA00076616C75655F636F6E6669726D5F79659F
:100AB000736E6F203A204661696C2C2072656173F9
:100AC0006F6E3A203078253032580A003D3D3E3E68
:100AD000206163695F6761705F6E756D65726963E0
:100AE0005F636F6D70617269736F6E5F76616C7555
:100AF000655F636F6E6669726D5F7965736E6F2097
:100B00003A20537563636573730A00003E3E3D3DB2
:100B1000204143495F4741505F50414952494E4748
:100B20005F434F4D504C4554455F56534556545FB7
:100B3000434F44450A00000020202020202D205053
:100B4000616972696E67204B4F0A20202020202D9A
:100B5000205374617475733A203078253032580A06
:100B600020202020202D20526561736F6E3A2030A6
:100B700078253032580A000020202020202D2050D7
:100B8000616972696E6720537563636573730A00E8
:100B900050616972696E67206661696C6564206680
:100BA0006F72206B6579206D697373696E67206F52
:100BB0006E2070656572206465766963650A000061
:100BC00052656D6F7665206465766963652066722F
:100BD0006F6D204E564D206C6973740A0000000042
:100BE00052656D6F766520626F6E640A00000000CA
:100BF0003E3E3D3D204143495F4C324341505F43BF
:100C00004F535F434F4E4E454354494F4E5F5245FD
:100C100053505F56534556545F434F44450A0000B6
:100C20004368616E6E656C5F547970653A20256427
:100C30000A506565725F4D54553A2025640A506527
:100C400065725F4D50533A2025640A4349445F431F
:100C50006F756E743A2025640A0000003E3E3D3DEB
:100C6000204143495F4C324341505F434F535F53F0
:100C700044555F444154415F54585F565345565460
:100C80005F434F44450A00003E3E3D3D20414349FD
:100C90005F4C324341505F434F535F444953434F8E
:100CA0004E4E454354494F4E5F434F4D504C455473
:100CB000455F56534556545F434F44450A00000074
:100CC0004143495F48414C5F46575F4552524F523E
:100CD0005F5653455654203078253032580A00006C
:100CE0004843495F56454E444F525F4556543A205B
:100CF0003078253034580A004843495F484152440F
:100D0000574152455F4552524F525F45565420302D
:100D100078253032580A00004843495F4556454E11
:100D2000543A203078253032580A00003E3E3D3D8E
:100D3000206863695F6C655F636F6E6E656374697D
:100D40006F6E5F636F6D706C6574655F6576656E01
:100D500074202D20436F6E6E656374696F6E20681A
:100D6000616E646C653A203078253034580A000092
:100D700020202020202D20436F6E6E656374696FE4
:100D80006E2065737461626C69736865642077694D
:100D9000746820403A253032783A253032783A2546
:100DA0003032783A253032783A253032783A253068
:100DB00032780A0020202020202D20436F6E6E659F
:100DC0006374696F6E20496E74657276616C3A2047
:100DD000202025642E25303264206D730A202020C7
:100DE00020202D20436F6E6E656374696F6E206CDA
:100DF0006174656E63793A2020202025640A2020E2
:100E00002020202D205375706572766973696F6E8E
:100E10002054696D656F75743A202564206D7320C8
:100E20002020202D205374617475733A203078256A
:100E30003032780A000000006163695F6761705FAB
:100E40007465726D696E617465206661696C757236
:100E5000653A20726561736F6E3D30782530325887
:100E60000A0000003D3D3E3E206163695F6761709E
:100E70005F7465726D696E617465203A20537563A5
:100E8000636573730A0000006163695F676174746E
:100E90005F636C745F65786368616E67655F636FDD
:100EA0006E666967206661696C7572653A20726565
:100EB00061736F6E3D3078253032580A00000000B3
:100EC0003D3D3E3E206163695F676174745F636CA2
:100ED000745F65786368616E67655F636F6E66698E
:100EE00067203A20537563636573730A000000003E
:100EF0006163695F6761705F7365745F7363616E7F
:100F00005F636F6E66696775726174696F6E202DBD
:100F1000206661696C2C20726573756C743A2030A0
:100F200078253032580A00003D3D3E3E206163691D
:100F30005F6761705F7365745F7363616E5F636F3A
:100F40006E66696775726174696F6E202D205375C6
:100F500063636573730A00006163695F6761705F53
:100F600073746172745F70726F636564757265200B
:100F70002D206661696C2C20726573756C743A2043
:100F80003078253032580A003D3D3E3E206163698D
:100F90005F6761705F73746172745F70726F6365B5
:100FA00064757265202D20537563636573730A0041
:100FB0003D3D3E3E206163695F6761705F736574AC
:100FC0005F6164766572746973696E675F636F6E83
:100FD00066696775726174696F6E202D206661693C
:100FE0006C2C20726573756C743A20307825303221
:100FF000580A00003D3D3E3E2053756363657373A0
:101000003A206163695F6761705F7365745F6164F3
:10101000766572746973696E675F636F6E66696720
:1010200075726174696F6E0A000000003D3D3E3EBE
:10103000206863695F6C655F7365745F7065726972
:101040006F6469635F6164766572746973696E6702
:101050005F706172616D65746572735F7632202DA9
:10106000206661696C2C20726573756C743A20304F
:1010700078253032580A00003D3D3E3E20537563CE
:10108000636573733A206863695F6C655F73657449
:101090005F706572696F6469635F616476657274BD
:1010A0006973696E675F706172616D657465727393
:1010B0005F76320A000000003D3D3E3E20686369D5
:1010C0005F6C655F7365745F706572696F64696397
:1010D0005F6164766572746973696E675F656E617E
:1010E000626C65202D206661696C2C2072657375B9
:1010F0006C743A203078253032580A003D3D3E3E2F
:1011000020537563636573733A206863695F6C6528
:101110005F7365745F706572696F6469635F616452
:10112000766572746973696E675F656E61626C651E
:101130000A0000003D3D3E3E206863695F6C655FCC
:101140007365745F657874656E6465645F61647609
:101150006572746973696E675F656E61626C652044
:101160002D206661696C2C20726573756C743A2051
:101170003078253032580A003D3D3E3E205375639D
:10118000636573733A206863695F6C655F73657448
:101190005F657874656E6465645F616476657274BA
:1011A0006973696E675F656E61626C650A00000055
:1011B0003D3D3E3E206163695F6761705F736574AA
:1011C0005F636F6E6E656374696F6E5F636F6E668B
:1011D000696775726174696F6E20537563636573B7
:1011E000732C20726573756C743A20307825303218
:1011F000780A00003D3D3E3E206163695F67617093
:101200005F7365745F636F6E6E656374696F6E5F45
:10121000636F6E66696775726174696F6E2046618F
:10122000696C65642C20726573756C743A20307833
:10123000253032780A0000006163695F6761705F82
:1012400073746172745F70726F6365647572652028
:101250002867656E6572616C20636F6E6E6563747E
:10126000696F6E29202D206661696C2C2072657370
:10127000756C743A203078253032580A000000002E
:101280003D3D3E3E206163695F6761705F737461DD
:1012900072745F70726F636564757265202867652C
:1012A0006E6572616C20636F6E6E656374696F6EDC
:1012B00029202D20537563636573730A00000000B5
:1012C0006863695F6C655F706572696F6469635FAD
:1012D0006164766572746973696E675F7365745F64
:1012E000696E666F5F7472616E73666572202D2021
:1012F0006661696C2C20726573756C743A20307865
:10130000253032582C20636F6E6E2068616E646CDD
:10131000653A203078253034580A00003D3D3E3E85
:10132000206863695F6C655F706572696F6469638B
:101330005F6164766572746973696E675F73657403
:101340005F696E666F5F7472616E73666572202D81
:1013500020537563636573730A0000006863695FF7
:101360006C655F726561645F72656D6F74655F6601
:1013700065617475726573202D20726573756C7468
:101380003A203078253032580A00000050616972E6
:10139000696E67207265717565737420636D642072
:1013A0006661696C7572653A203078253032580A6A
:1013B0000000000050616972696E67207265717586
:1013C00065737420636D6420737563636573730A5A
:1013D00000000000212121212120637265617465D4
:1013E0005F706572696F6469635F6164766572746A
:1013F0006973696E675F636F6E6E656374696F6E44
:10140000200A20506565725F4164647265737320C1
:10141000403A253032783A253032783A25303278E1
:101420003A253032783A253032783A253032780A07
:1014300000000000202020202020436F6E6E656396
:1014400074696F6E20496E74657276616C3A202003
:10145000202564206D730A20202D2053757065723D
:10146000766973696F6E2054696D656F75743A2083
:101470002564206D730A00006163695F6761705FB6
:101480006372656174655F706572696F6469635FDB
:101490006164766572746973696E675F636F6E6E9F
:1014A000656374696F6E202D206661696C2C2072F3
:1014B0006573756C743A203078253032580A000014
:1014C0003D3D3E3E206163695F6761705F637265A9
:1014D0006174655F706572696F6469635F6164768A
:1014E0006572746973696E675F636F6E6E6563744E
:1014F000696F6E202D20537563636573730A000056
:10150000436F6E666967757265642045534C20664B
:101510006F756E643A20253032783A253032783A49
:10152000253032783A253032783A253032783A25EB
:101530003032780A000000002B5343414E3A2025F8
:10154000642C253032582530325825303258253019
:10155000325825303258253032580A0043726561BE
:10156000746520636F6E6E656374696F6E20746F4F
:101570002045534C0A0000003D3D3E3E204741506F
:101580002043726561746520636F6E6E6563746974
:101590006F6E20537563636573730A003D3D3E3E75
:1015A000204741502043726561746520636F6E6E01
:1015B000656374696F6E204661696C65642C207286
:1015C0006573756C743A203078253032780A0000E3
:1015D00045534C41500000003C0F00209632000063
:1015E0000000010400003200F7000000FFFFFFFFD1
:1015F0006400011008020004F7000100000101026C
:101600000202020000010003000400000A0A574120
:10161000544348444F4720524553455421212121EA
:1016200021212121210A0A000A0A53595354454D08
:101630002052455345542121212121212121210AD4
:101640000A00000000C201000000000000000000CD
:1016500000000000526574726965766564207361EC
:101660007665642041502073796E63206B65790A3A
:101670000000000053657373696F6E206B65793AE3
:101680002000000025303258200000000A49563A58
:10169000200000004E6F2073617665642041502069
:1016A00053796E63206B65790A0000004572726F92
:1016B000722072657472696576696E672041502088
:1016C00053796E63206B65790A0000004E564D20F9
:1016D0006572617365640A0047656E657261746561
:1016E00064206E65772041502053796E63206B65CE
:1016F000790A00004572726F72207768696C652004
:10170000736176696E67206B65790A004B65792095
:1017100073617665640A000045534C20616C726504
:1017200061647920636F6E666967757265640A002B
:101730004E6F206E65656420746F207570646174EF
:101740006520696E666F0A005265636F726420647B
:10175000656C657465640A004572726F7220776803
:10176000696C6520616464696E67207265636F727D
:101770006420696E204E564D0A0000004E657720A9
:101780007265636F72642061646465640A000000BE
:1017900045534C5F41505F44656C65746545534CDF
:1017A000496E666F0A0000005265636F72642072B2
:1017B000656D6F7665640A00436C656172205365E0
:1017C0006375726974792044420A0000436C656154
:1017D000722045534C20696E666F2044420A000017
:1017E0003D3D3E3E20474154545F434C49454E5495
:1017F0005F4150505F5772697465454350202D20FA
:101800006661696C2C20726573756C743A2030784F
:10181000253032580A0000003D3D3E3E205375639E
:10182000636573733A20474154545F434C49454EB6
:10183000545F4150505F57726974654543500A00C8
:1018400053796E6368726F6E697A65642053746150
:101850007465207472616E736974696F6E0A00003A
:101860003D3D3E3E206C6C5F7365745F70657269D0
:101870006F6469635F6164766572746973696E67CA
:101880005F7375626576656E745F646174615F70C5
:101890007472202D206661696C2C20726573756CE2
:1018A000743A203078253032580A00003D3D3E3EE3
:1018B00020537563636573733A206C6C5F73657452
:1018C0005F706572696F6469635F61647665727485
:1018D0006973696E675F7375626576656E745F6460
:1018E0006174615F7074720A000000004465637285
:1018F000797074696F6E206661696C2E0A00000051
:1019000045534C5F41505F5374617274557064610C
:1019100074653A20696E666F206E6F7420666F750D
:101920006E640A0045534C204164647265737320F1
:10193000283078253034582920616C7265616479CB
:101940002061737369676E6564210A0053544D33D7
:10195000325742300000000002000000280F002033
:1019600000000000080000005802002000000000F5
:1019700001000000900400200A4741545420736580
:1019800072766963657320646973636F76657279D3
:101990000A0000006163695F676174745F636C745F
:1019A0005F646973635F616C6C5F7072696D6172B3
:1019B000795F7365727669636573206661696C2C03
:1019C00020737461747573203078253032580A0A98
:1019D000000000000A446973636F76657220616CD1
:1019E0006C204368617261637465726973746963C2
:1019F00073202868616E646C6573205B30782530D5
:101A00003458202D203078253034585D290A0000C4
:101A10006163695F676174745F636C745F64697349
:101A2000635F616C6C5F636861725F6F665F736553
:101A30007276696365206661696C2C2073746174C9
:101A40007573203078253032580A0A000A446973C9
:101A5000636F76657220616C6C20436861726163AC
:101A60007465726973746963732044657363726922
:101A700070746F7273205B307825303458202D20BD
:101A80003078253034585D0A000000006163695FDA
:101A9000676174745F636C745F646973635F616CC6
:101AA0006C5F636861725F64657363206661696C13
:101AB0002C20737461747573203078253032580A85
:101AC0000A00000020536572766963654368616EA1
:101AD000676564436861724465736348646C203D64
:101AE0003078253034580A00456E61626C65206E8E
:101AF0006F74696669636174696F6E73206F6E20BD
:101B0000454350202868616E646C6520307825302C
:101B10003458290A00000000456E61626C65206936
:101B20006E6469636174696F6E73206F6E204F41DC
:101B30004350202868616E646C652030782530340D
:101B400058290A00456E61626C6520696E6469639C
:101B50006174696F6E73206F6E204F4C4350202864
:101B600068616E646C6520307825303458290A002D
:101B70004E6F74696669636174696F6E7320656E18
:101B800061626C6564207375636365737366756CFD
:101B90006C790A00456E61626C696E67206E6F74C5
:101BA000696669636174696F6E73206661696C65EB
:101BB000642C20737461747573203078253032582A
:101BC0002C2067617474206572726F7220636F6479
:101BD000653D3078253032580A0000004143495FA6
:101BE000474154545F434C545F494E444943415428
:101BF000494F4E5F56534556545F434F44450A0084
:101C000053657276696365204368616E6765642019
:101C1000496E6469636174696F6E0A004741545488
:101C20002070726F63656475726520636F6D706C90
:101C30006574653A203078253032780A000000005B
:101C400020204D54552065786368616E6765642077
:101C500073697A65203D2025640A000020204741F1
:101C60005454204572726F7220526573706F6E7398
:101C70006520636F64653A20307825303278200A19
:101C80000000000020204741545420526561642028
:101C9000426C6F6220526573706F6E7365206C6565
:101CA0006E6768743A20307825303278200A000058
:101CB000555549443D3078253034582C2068616EA4
:101CC000646C65205B307825303458202D203078C6
:101CD000253034585D0000002C204741505F5345AB
:101CE00052564943455F5555494420666F756E64A9
:101CF0000A0000002C2047454E455249435F41549D
:101D0000545249425554455F534552564943455FE5
:101D10005555494420666F756E640A002C20455362
:101D20004C5F534552564943455F555549442066DB
:101D30006F756E640A0000002C2044657669636547
:101D400020496E666F726D6174696F6E20536572A3
:101D50007669636520666F756E640A004143495F6A
:101D60004154545F524541445F42595F47524F5579
:101D7000505F545950455F524553505F5653455636
:101D8000545F434F44452C206661696C6564206E46
:101D90006F206672656520696E64657820696E20C3
:101DA000636F6E6E656374696F6E207461626C65DB
:101DB00020210A004143495F4154545F46494E4443
:101DC0005F42595F545950455F56414C55455F52EB
:101DD0004553505F56534556545F434F4445202D5D
:101DE00020436F6E6E48646C3D3078253034582C3B
:101DF000204E756D5F6F665F48616E646C655F5005
:101E00006169723D25640A004143495F4154545F52
:101E100046494E445F42595F545950455F56414CC4
:101E200055455F524553505F56534556545F434F97
:101E30004445202D205061697449643D2564204645
:101E40006F756E645F4174747269627574655F4822
:101E5000616E646C653D3078253034582C204772B3
:101E60006F75705F456E645F48616E646C653D3090
:101E700078253034580A0000555549443D307825BE
:101E80003034582C2050726F706572746965733DE0
:101E90003078253034582C204368617248616E6474
:101EA0006C65205B307825303458202D2030782523
:101EB0003034585D000000002C204741502044453C
:101EC000564943455F4E414D4520636861726163E9
:101ED00020666F756E640A002C20474150204150E7
:101EE00050454152414E4345206368617261632011
:101EF000666F756E640A00002C20474154542053CD
:101F00004552564943455F4348414E4745445F4328
:101F1000484152414354455249535449435F5555F2
:101F200049442063686172616320666F756E640A5C
:101F3000000000002C2045534C5F434F4E54524F3D
:101F40004C5F504F494E545F55554944206368617A
:101F500072616320666F756E640A00002C20455321
:101F60004C5F414444524553535F555549442063A7
:101F7000686172616320666F756E640A000000001C
:101F80002C2041505F53594E435F4B45595F4D41A3
:101F900054455249414C5F5555494420636861722C
:101FA000616320666F756E640A0000002C20455343
:101FB0004C5F524553505F4B45595F4D415445521C
:101FC00049414C5F55554944206368617261632003
:101FD000666F756E640A00002C2045534C5F4355B4
:101FE00052525F4142535F54494D455F55554944F4
:101FF0002063686172616320666F756E640A000019
:102000002C2045534C5F444953504C41595F494E35
:10201000464F5F555549442063686172616320668D
:102020006F756E640A0000002C2045534C5F494DCB
:102030004147455F494E464F5F55554944206368C7
:102040006172616320666F756E640A002C204553CF
:102050004C5F53454E534F525F494E464F5F555567
:1020600049442063686172616320666F756E640A1B
:10207000000000002C2045534C5F4C45445F494E06
:10208000464F5F555549442063686172616320661D
:102090006F756E640A0000002C204F54535F464554
:1020A00041545552455F55554944206368617261FA
:1020B0006320666F756E640A000000002C204F429A
:1020C0004A4543545F4E414D455F55554944206351
:1020D000686172616320666F756E640A00000000BB
:1020E0002C204F424A4543545F545950455F555543
:1020F00049442063686172616320666F756E640A8B
:10210000000000002C204F424A4543545F53495A77
:10211000455F555549442063686172616320666F6D
:10212000756E640A000000002C204F424A4543545B
:102130005F4C4153545F4D4F4449464945445F55B8
:102140005549442063686172616320666F756E64EF
:102150000A0000002C204F424A4543545F49445F27
:10216000555549442063686172616320666F756EDE
:10217000640A00002C204F424A4543545F50524F9E
:10218000504552544945535F555549442063686151
:1021900072616320666F756E640A00002C204F42E6
:1021A0004A4543545F414354494F4E5F434F4E5459
:1021B000524F4C5F504F494E545F55554944206330
:1021C000686172616320666F756E640A00000000CA
:1021D0002C204F424A4543545F4C4953545F434F70
:1021E0004E54524F4C5F504F494E545F55554944E1
:1021F0002063686172616320666F756E640A000017
:102200002C204F424A4543545F4C4953545F464942
:102210004C5445525F504F494E545F5555494420E8
:1022200063686172616320666F756E640A00000006
:102230002C20504E5049445F5555494420636861F5
:1022400072616320666F756E640A00004143495FE6
:102250004154545F524541445F42595F545950457F
:102260005F524553505F56534556545F434F444564
:102270002C206661696C65642068616E646C652001
:102280006E6F7420666F756E6420696E20636F6E6A
:102290006E656374696F6E207461626C6520210ADB
:1022A0000000000044657363726970746F7220559A
:1022B0005549443D3078253034582C2068616E648F
:1022C0006C653D3078253034580000002C20536573
:1022D0007276696365204368616E67656420434375
:1022E000434420666F756E640A0000002C2045533D
:1022F0004C20436F6E74726F6C20506F696E742047
:102300004343434420666F756E643A2068616E648F
:102310006C653D3078253034580A00002C204F6A17
:1023200065637420416374696F6E20436F6E7472CD
:102330006F6C20506F696E74204343434420666F76
:10234000756E643A2068616E646C653D3078253046
:1023500034580A002C204F6A656374204C697374EA
:1023600020436F6E74726F6C20506F696E742043DF
:1023700043434420666F756E643A2068616E646CF6
:10238000653D3078253034580A0000004143495FEC
:102390004154545F46494E445F494E464F5F524553
:1023A00053505F56534556545F434F44452C206667
:1023B00061696C65642068616E646C65206E6F7421
:1023C00020666F756E6420696E20636F6E6E656344
:1023D00074696F6E207461626C6520210A000000D0
:1023E000496E636F6D696E67204E6F6669666963DB
:1023F0006174696F6E2066726F6D204543500A00EC
:102400004143495F474154545F4E4F544946494305
:102410004154494F4E5F56534556545F434F4445D0
:102420002C206661696C65642068616E646C65204F
:102430006E6F7420666F756E6420696E20636F6EB8
:102440006E656374696F6E207461626C6520210A29
:10245000000000006163695F676174745F636C749E
:102460005F65786368616E67655F636F6E666967F5
:10247000206661696C7572653A20726561736F6E72
:102480003D3078253032580A000000003D3D3E3E88
:10249000206163695F676174745F636C745F657802
:1024A0006368616E67655F636F6E666967203A2077
:1024B000537563636573730A000000005772697493
:1024C000696E672045534C204164647265737320C4
:1024D00028307825303458290A00000020466169E8
:1024E0006C65642C20636F6E6E48646C3D3078259B
:1024F0003034582C2056616C756548646C3D3078DA
:10250000253034580A00000057726974696E6720DC
:1025100041502053796E63204D6174657269616C1E
:102520000A00000057726974696E67205265737003
:102530006F6E7365204B6579204D617465726961BA
:102540006C3A0A0053657373696F6E206B65793A54
:102550002000000025303258200000000A49563A79
:102560002000000057726974696E67204162736FC2
:102570006C7574652074696D6520282564290A00CE
:102580004661696C2073656E64696E67207570645E
:1025900061746520636F6D706C65746520636F6D29
:1025A0006D616E640A00000045534C20636F6E66D7
:1025B000696775726174696F6E2073617665640A0C
:1025C000000000004572726F72207768696C6520A8
:1025D000736176696E6720636F6E66696775726195
:1025E00074696F6E0A00000057726974696E672023
:1025F0004543500A000000002050726F6365647507
:102600007265206661696C6564207769746820670B
:102610006174745F6572726F725F636F6465203D91
:10262000203078253032580A000000004543502001
:1026300070726F636564757265206661696C65644C
:102640000A00000025303258000000005265616425
:1026500020446973706C617920496E666F726D6198
:1026600074696F6E0A0000005265616420496D61F3
:10267000676520496E666F726D6174696F6E0A00DE
:10268000526561642053656E736F7220496E666F88
:10269000726D6174696F6E0A0000000052656164BA
:1026A000204C454420496E666F726D6174696F6E8F
:1026B0000A0000005265616420506E502049440AAF
:1026C000000000006163695F676174745F636C742C
:1026D0005F72656164206661696C65642C20636F5C
:1026E0006E6E48646C3D3078253034582C2056612D
:1026F0006C756548646C3D3078253034580A0000AC
:102700006163695F676174745F636C745F72656154
:10271000642C20636F6E6E48646C3D3078253034D5
:10272000582C2056616C756548646C3D30782530B6
:1027300034580A0052656164204C6F6E670A0000CD
:102740006163695F676174745F636C745F72656114
:10275000645F6C6F6E67206661696C65642C2063D2
:102760006F6E6E48646C3D3078253034582C20569E
:10277000616C756548646C3D3078253034580A00CA
:102780006163695F676174745F636C745F726561D4
:10279000645F6C6F6E672C20636F6E6E48646C3D77
:1027A0003078253034582C2056616C756548646C3F
:1027B0003D3078253034580A000000006163695FBD
:1027C000676174745F636C745F77726974652066A7
:1027D00061696C65642C20636F6E6E48646C3D307B
:1027E00078253034582C2056616C756548646C3DF2
:1027F0003078253034580A006163695F676174740A
:102800005F636C745F77726974652C20636F6E6EA2
:1028100048646C3D3078253034582C2056616C75F6
:102820006548646C3D3078253034580A000000005B
:102830000000FFFF0000000004000000302804102A
:102840000000000003000000D00E00200000000087
:1028500001000000D241051001000000020000004C
:102860002C0F002020000000FB349B5F80000080C4
:1028700000100000052A0000100000000100000008
:102880003C030020342804100A000000FB349B5F46
:102890008000008000100000292B000010000000C4
:1028A00000000000000000004028041002000000AA
:1028B000FB349B5F80000080001000002A2B00008A
:1028C00010000000000000000000000000000000F8
:1028D00002000000FB349B5F8000008000100000BD
:1028E0003A2B000010000000000000000000000073
:1028F0004C28041096C298D84539A1F4A033EB2D8A
:10290000817D0377F240A463E5E6BCF847422CE101
:10291000F2D1176BF551BF376840B6CBCE5E316B45
:102920005733CE2B169E0F7C4AEBE78E9B7F1AFE09
:10293000E242E34F0001000000000000000100003F
:102940000000000000010000000000000100000085
:1029500000000000FFFFFFFFFFFFFFFFFFFFFFFF83
:102960000000000000000000000000000100000066
:10297000FFFFFFFF02000000050000000300000051
:10298000FEFFFFFFF9FFFFFFFBFFFFFFFCFFFFFF65
:10299000FCFFFFFF0300000000000000000000003B
:1029A0000000000000000000000000000000000027
:1029B000000000004B60D2273E3CCE3BF6B053CC2B
:1029C000B0061D65BC86987655BDEBB3E7933AAA71
:1029D000D835C65AFFFFFFFFFFFFFFFFFFFFFFFFD6
:1029E000FFFFFFFFFFFFFFFFFFFFFFFFFFFFFFFFF7
:1029F000FFFFFFFFFFFFFFFFFFFFFFFFFFFFFFFFE7
:102A0000FFFFFFFFFFFFFFFFFFFFFFFFFFFFFFFFD6
:102A1000FFFFFFFFFFFFFFFFFFFFFFFFFFFFFFFFC6
:102C9000FFFFFFFFFFFFFFFFFFFFFFFFFFFE000142
:102CA000FFFFFFFFFFFFFFFFFFFFFFFFFFFFFFFF34
:102CB000F000FFFFFFFFF800007FFFFFFFFFFFFFB7
:102CC000FFFFFFFFFFFFFFFFFFB0000001FFFFF06E
:102CD00000003FFFFFFFFFFFFFFFFFFFFFFFFFFFC2
:102CE000FFFF98000001FFFFE0FFFC1FFFFFFFFF59
:102CF000FFFFFFFFFFFFFFFFFFFFFF18000000FFC8
:102D0000FFE1FFFF1FFFFFFFFFFFFFFFFFFFFFFFD1
:102D1000FFFFFFFF08000000FFFFE3FFFF1FFFFFB3
:102D2000FFFFFFFFFFFFFFFFFFFFFFFFFE0C0000A5
:102D3000007FFFE7FFFF9FFFFFFFFFFFFFFFFFFF9A
:102D4000FFFFFFFFFFFE040000007FFFE3FFFF1F08
:102D5000FFFFFFFFFFFFFFFFFFFFFFFFFFFFFC067F
:102D60000000003FFFE3FFFF1FFFFFFFFFFFFFFF2C
:102D7000FFFFFFFFFFFFFFF8060000003FFFF0FF2F
:102D8000F83FFFFFFFFFFFFFFFFFFFFFFFFFFFFF1A
:102D9000F8030000001FFFF000003FFFFFFFFFFFF0
:102DA000FFFFFFFFFFFFFFFFFFF0030000001FFF1B
:102DB000F800007FFFFFFFFFFFFFFFFFFFFFFFFFA8
:102DC000FFFFF0010000000FFFFF0003FFFFFFFF08
:102DD000FFFFFFFFFFFFFFFFFFFFFFE0018000009D
:102DE0000FFFFFFFFFFFFFFFFFFFFFFFFFFFFFFFE3
:102DF000FFFFFFFFE00080000007FFFFFFFFFFFF76
:102E0000FFFFFFFFFFFFFFFFFFFFFFFFFFC000C04F
:102E1000000007FFFFFF01FFFFFFFFFFFFFFFFFFB6
:102E2000FFFFFFFFFFFFC000C0000003FFF80E0020
:102E30007FFFFFFFFFFFFFFFFFFFFFFFFFFFFF80A1
:102E40000040000003FFF004007FFFFFFFFFFFFFD3
:102E5000FFFFFFFFFFFFFFFF000060000001FFE03A
:102E600000383FFFFFFFFFFFFFFFFFFFFFFFFFFFF8
:102E7000FF000020000001FFE1E0FE3FFFFFFFFF39
:102E8000FFFFFFFFFFFFFFFFFFFE0000300000001D
:102E9000FFC3E0FE3FFFFFFFFFFFFFFFFFFFFFFF5E
:102EA000FFFFFE000030000000FFC7F1FF1FFFFF23
:102EB000FFFFFFFFFFFFFFFFFFFFFFFC0000180009
:102EC00000007FC7F9FF1FFFFFFFFFFFFFFFFFFFAE
:102ED000FFFFFFFFFE0000180000007FC7F9FF1F83
:102EE000FFFFFFFFFFFFFFFFFFFFFFFFFFFE0000F1
:102EF000080000003FC7F9FF1FFFFFFFFFFFFFFFB4
:102F0000FFFFFFFFFFFFFE00000C0000003FC7F9BE
:102F1000FF1FFFFFFFFFFFFFFFFFFFFFFFFFFFFFA1
:102F20000000040000001FC000001FFFFFFFFFFFA4
:102F3000FFFFFFFFFFFFFFFFFF000007FFFFFFBFD7
:102F4000C000001FFFFFFFFFFFFFFFFFFFFFFFFFAE
:102F5000FFFF000007FFFFFFFFC000001FFFFFFF94
:102F6000FFFFFFFFFFFFFFFFFFFFFF8000040000E8
:102F7000001FC000003FFFFFFFFFFFFFFFFFFFFF3D
:102F8000FFFFFFFF80000C0000003FFFFFFFFFFF7F
:102F9000FFFFFFFFFFFFFFFFFFFFFFFFFF800018A6
:102FA0000000007FDFFFFFFFFFFFFFFFFFFFFFFFCE
:102FB000FFFFFFFFFFFFC00010000000FFC0FFFF8A
:102FC000FFFFFFFFFFFFFFFFFFFFFFFFFFFFFFC050
:102FD0000020000001FFC007FFFFFFFFFFFFFFFF12
:102FE000FFFFFFFFFFFFFFFFC00060000003FFC007
:102FF000007FFFFFFFFFFFFFFFFFFFFFFFFFFFFF60
:10300000FFE000C0000003FFFC0003FFFFFFFFFF25
:10301000FFFFFFFFFFFFFFFFFFFFE0008000000753
:10302000FFFFF0001FFFFFFFFFFFFFFFFFFFFFFF9E
:10303000FFFFFFE0018000000FFFFFFF801FFFFF89
:10304000FFFFFFFFFFFFFFFFFFFFFFFFF003000099
:10305000001FFFFFFFE01FFFFFFFFFFFFFFFFFFF5E
:10306000FFFFFFFFFFF0020000003FFFFFFC001F1B
:10307000FFFFFFFFFFFFFFFFFFFFFFFFFFFFF80462
:103080000000007FFFFF00007FFFFFFFFFFFFFFF4B
:10309000FFFFFFFFFFFFFFF80C0000007FFFC000F5
:1030A0001FFFFFFFFFFFFFFFFFFFFFFFFFFFFFFF10
:1030B000F808000000FFFFC007FFFFFFFFFFFFFF52
:1030C000FFFFFFFFFFFFFFFFFFFC10000001FFFFFE
:1030D000C0FFFFFFFFFFFFFFFFFFFFFFFFFFFFFF3F
:1030E000FFFFFC30000003FFFFC003FFFFFFFFFFF7
:1030F000FFFFFFFFFFFFFFFFFFFFFFFC6000000778
:10310000FFFFE0001FFFFFFFFFFFFFFFFFFFFFFFCD
:10311000FFFFFFFFFE4000000FFFFFFF80007FFF6B
:10312000FFFFFFFFFFFFFFFFFFFFFFFFFFFE80002E
:10313000001FFFFFFFFE001FFFFFFFFFFFFFFFFF5E
:10314000FFFFFFFFFFFFFF800FFFFFFFFFFFFFF00D
:103150001FFFFFFFFFFFFFFFFFFFFFFFFFFFFFFF5F
:10316000FFFFFFFFFFFFFFFF801FFFFFFFFFFFFFCE
:10317000FFFFFFFFFFFFFFFFFFFFFFFFFFFFFFFF5F
:10318000F0001FFFFFFFFFFFFFFFFFFFFFFFFFFF3D
:10319000FFFFFFFFFFFFFFFFFC0003FFFFFFFFFF3D
:1031A000FFFFFFFFFFFFFFFFFFFFFFFFFFFFFFFF2F
:1031B000FFC0007FFFFFFFFFFFFFFFFFFFFFFFFFDD
:1031C000FFFFFFFFFFFFFFFFFFFFC00FFFFFFFFF3E
:1031D000FFFFFFFFFFFFFFFFFFFFFFFFFFFFFFFFFF
:1031E000FFFFFFC1FFFFFFFFFFFFFFFFFFFFFFFF2D
:1031F000FFFFFFFFFFFFFFFFFFFFFFFFDFFFFFFFFF
:10320000FFFFFFFFFFFFFFFFFFFFFFFFFFFFFFFFCE
:10321000FFFFFFFFE7FFFFFFFFFFFFFFFFFFFFFFD6
:10322000FFFFFFFFFFFFFFFFFFFFFE01FFE7FFFFC5
:10323000FFFFFFFFFFFFFFFFFFFFFFFFFFFFFFFF9E
:10324000FFFFFFFC007FE7FFF033FFFFFFFFFFFF03
:10325000FFFFFFFFFFFFFFFFFFFFFFFFF8783FE7E4
:10326000FFC0307FFFFFFFFFFFFFFFFFFFFFFFFFFC
:10327000FFFFFFFFFFF8FE1FE7FF80303FFFFFFF6C
:10328000FFFFFFFFFFFFFFFFFFFFFFFFFFFFF9FF54
:103290001FE7FF00303FFFFFFFFFFFFFFFFFFFFFC4
:1032A000FFFFFFFFFFFFFFF9FF8FE7FF00301FFF6A
:1032B000FFFFFFFFFFFFFFFFFFFFFFFFFFFFFFFF1E
:1032C000F9FFC7E7FF0E3E1FFFFFFFFFFFFFFFFFF6
:1032D000FFFFFFFFFFFFFFFFFFF9FFE3E7FF1E3EDA
:1032E0001FFFFFFFFFFFFFFFFFFFFFFFFFFFFFFFCE
:1032F000FFFFF9FFF1E7FF1E3E1FFFFFFFFFFFFF8C
:10330000FFFFFFFFFFFFFFFFFFFFFFF8FFF8E7FFF3
:103310000E3E1FFFFFFFFFFFFFFFFFFFFFFFFFFF4F
:10332000FFFFFFFFFC0FFC07FF00001FFFFFFFFF79
:10333000FFFFFFFFFFFFFFFFFFFFFFFFFFFE0FFE8F
:1033400007FF00003FFFFFFFFFFFFFFFFFFFFFFF43
:10335000FFFFFFFFFFFFFF8FFF87FF80003FFFFFA3
:10336000FFFFFFFFFFFFFFFFFFFFFFFFFFFFFFFF6D
:10337000FFFFFFFFC0007FFFFFFFFFFFFFFFFFFF1B
:10338000FFFFFFFFFFFFFFFFFFFFFFFFFFF001FF5A
:10339000FFFFFFFFFFFFFFFFFFFFFFFFFFFFFFFF3D
:1033A000FFFFFFFFFFFFFFFFFFFFFFFFFFFFFFFF2D
:1033B000FFFFFFFFFFFFFFFFFFFFFF87C03FFFFF94
:1033C000FFFFFFFFFFFFFFFFFFFFFFFFFFFFFFFF0D
:1033D000FFFFFFFC01801FFFF001FFFFFFFFFFFF6A
:1033E000FFFFFFFFFFFFFFFFFFFFFFFFFC001F0FBF
:1033F000FFC0007FFFFFFFFFFFFFFFFFFFFFFFFF9B
:10340000FFFFFFFFFFF8FC3FC7FF80003FFFFFFF0C
:10341000FFFFFFFFFFFFFFFFFFFFFFFFFFFFF9FCC5
:103420003FE7FF00001FFFFFFFFFFFFFFFFFFFFF62
:10343000FFFFFFFFFFFFFFF9FE7FE7FF00001FFF19
:10344000FFFFFFFFFFFFFFFFFFFFFFFFFFFFFFFF8C
:10345000F9FE7FE7FF0FFC1FFFFFFFFFFFFFFFFFEE
:10346000FFFFFFFFFFFFFFFFFFF9FE7FE7FF0FFEFC
:103470001FFFFFFFFFFFFFFFFFFFFFFFFFFFFFFF3C
:10348000FFFFF9FFFFE7FF0FFE1FFFFFFFFFFFFF3B
:10349000FFFFFFFFFFFFFFFFFFFFFFF8FFFFC7FF7B
:1034A0008FFC3FFFFFFFFFFFFFFFFFFFFFFFFFFF5F
:1034B000FFFFFFFFFC1FFF0FC000007FFFFFFFFFAC
:1034C000FFFFFFFFFFFFFFFFFFFFFFFFFFFE1FFCF0
:1034D0001FC000001FFFFFFFFFFFFFFFFFFFFFFFF9
:1034E000FFFFFFFFFFFFFF1FFC3FC000001FFFFFAC
:1034F000FFFFFFFFFFFFFFFFFFFFFFFFFFFFFFFFDC
:10350000FFFFFFC000001FFFFFFFFFFFFFFFFFFFE8
:10351000FFFFFFFFFFFFFFFFFFFFFFFFC000001FD8
:10352000FFFFFFFFFFFFFFFFFFFFFFFFFFFFFFFFAB
:10353000FFFFFFFFFFFFFFFFFFFFFFFFFFFFFFFF9B
:10354000FFFFFFFFFFFFFFFFFFFFF0000007FFFF90
:10355000FFFFFFFFFFFFFFFFFFFFFFFFFFFFFFFF7B
:10356000FFFFFFF0000007FFFFFFFFFFFFFFFFFF70
:10357000FFFFFFFFFFFFFFFFFFFFFFFFF000000760
:10358000FF00001FFFFFFFFFFFFFFFFFFFFFFFFF29
:10359000FFFFFFFFFFF0000007FF00001FFFFFFF1E
:1035A000FFFFFFFFFFFFFFFFFFFFFFFFFFFFF00039
:1035B0000007FF00001FFFFFFFFFFFFFFFFFFFFFF0
:1035C000FFFFFFFFFFFFFFF003FFFFFF00001FFFF4
:1035D000FFFFFFFFFFFFFFFFFFFFFFFFFFFFFFFFFB
:1035E000F0003FFFFF00001FFFFFFFFFFFFFFFFF97
:1035F000FFFFFFFFFFFFFFFFFFF00001FFFFFFFCEA
:103600003FFFFFFFFFFFFFFFFFFFFFFFFFFFFFFF8A
:10361000FFFFFF80001FFFFFFE3FFFFFFFFFFFFFD9
:10362000FFFFFFFFFFFFFFFFFFFFFFFFFC0007FFA4
:10363000FFFE1FFFFFFFFFFFFFFFFFFFFFFFFFFF7B
:10364000FFFFFFFFFFFFE007FFFFFE1FFFFFFFFF82
:10365000FFFFFFFFFFFFFFFFFFFFFFFFFFFFFFC0B9
:1036600007FF00001FFFFFFFFFFFFFFFFFFFFFFF40
:10367000FFFFFFFFFFFFFFF80007FF00001FFFFF36
:10368000FFFFFFFFFFFFFFFFFFFFFFFFFFFFFFFF4A
:1036900000003FFF00001FFFFFFFFFFFFFFFFFFFD6
:1036A000FFFFFFFFFFFFFFFFF00003FFFF00003FF2
:1036B000FFFFFFFFFFFFFFFFFFFFFFFFFFFFFFFF1A
:1036C000FFF0007FFFFF00007FFFFFFFFFFFFFFF16
:1036D000FFFFFFFFFFFFFFFFFFFFF007FFFFFFFF01
:1036E000FFFFFFFFFFFFFFFFFFFFFFFFFFFFFFFFEA
:1036F000FFFFFFF0000007FFFFFFFFFFFFFFFFFFDF
:10370000FFFFFFFFFFFFFFFFFFFFFFFFF0000007CE
:10371000FFFF8FFFFFFFFFFFFFFFFFFFFFFFFFFF29
:10372000FFFFFFFFFFF0000007F81F81FFFFFFFF13
:10373000FFFFFFFFFFFFFFFFFFFFFFFFFFFFF000A7
:103740000007F01F807FFFFFFFFFFFFFFFFFFFFF6E
:10375000FFFFFFFFFFFFFFF0000007E01F803FFFBC
:10376000FFFFFFFFFFFFFFFFFFFFFFFFFFFFFFFF69
:10377000FFFFFFFFC01F803FFFFFFFFFFFFFFFFFB7
:10378000FFFFFFFFFFFFFFFFFFFFFFFFFFC01F80E7
:103790001FFFFFFFFFFFFFFFFFFFFFFFFFFFFFFF19
:1037A000FFFFF07FFFFFC1FFFC1FFFFFFFFFFFFFD9
:1037B000FFFFFFFFFFFFFFFFFFFFFFF07FFFFFC3E4
:1037C000FFFC1FFFFFFFFFFFFFFFFFFFFFFFFFFFEC
:1037D000FFFFFFFFF07FFFFFC3FFFE1FFFFFFFFFA5
:1037E000FFFFFFFFFFFFFFFFFFFFFFFFFFF07FFF78
:1037F000FFC3FFFE1FFFFFFFFFFFFFFFFFFFFFFFF6
:10380000FFFFFFFFFFFFF07FFFFFC1FFFC1FFFFF78
:10381000FFFFFFFFFFFFFFFFFFFFFFFFFFFFFFF0C7
:10382000000007C000001FFFFFFFFFFFFFFFFFFFBB
:10383000FFFFFFFFFFFFFFFFF0000007E000003F7A
:10384000FFFFFFFFFFFFFFFFFFFFFFFFFFFFFFFF88
:10385000FFF0000007E000003FFFFFFFFFFFFFFF5A
:10386000FFFFFFFFFFFFFFFFFFFFF0000007F0007B
:10387000007FFFFFFFFFFFFFFFFFFFFFFFFFFFFFD7
:10388000FFFFFFF0000007FC0001FFFFFFFFFFFF4D
:10389000FFFFFFFFFFFFFFFFFFFFFFFFF07FFFFFC7
:1038A000FFFFFFFFFFFFFFFFFFFFFFFFFFFFFFFF28
:1038B000FFFFFFFFFFF07FFFFFFFFFFFFFFFFFFFA7
:1038C000FFFFFFFFFFFFFFFFFFFFFFFFFFFFF07F97
:1038D000FFFFFFFFFFFFFFFFFFFFFFFFFFFFFFFFF8
:1038E000FFFFFFFFFFFFFFF07FFFFFFFFFFFFFFF77
:1038F000FFFFFFFFFFFFFFFFFFFFFFFFFFFFFFFFD8
:10390000F07FFFFFFFFFFFFFFFFFFFFFFFFFFFFF56
:10391000FFFFFFFFFFFFFFFFFFFFFFFFFFFFFFFFB7
:10392000FFFFFFFFFFFFFFFFFFFFFFFFFFFFFFFFA7
:10393000FFFFFFFFC07FFFFFFFFFFFFFFFFFFFFF56
:10394000FFFFFFFFFFFFFFFFFFFFFFFE1F801FFFC7
:10395000FFFFFFFFFFFFFFFFFFFFFFFFFFFFFFFF77
:10396000FFFFFFFFFC1F000FFFFFFFFFFFFFFFFF39
:10397000FFFFFFFFFFFFFFFFFFFFFFFFFFF81F003D
:103980000FFFFFFFFFFFFFFFFFFFFFFFFFFFFFFF37
:10399000FFFFFFFFFFFFF81E0007FFFFFFFFFFFF16
:1039A000FFFFFFFFFFFFFFFFFFFFFFFFFFFFFFF036
:1039B0001E0207FFFFFFFFFFFFFFFFFFFFFFFFFFED
:1039C000FFFFFFFFFFFFFFFFF07C0F07FFFFFFFF81
:1039D000FFFFFFFFFFFFFFFFFFFFFFFFFFFFFFFFF7
:1039E000FFF0FC1F87FFFFFFFFFFFFFFFFFFFFFF51
:1039F000FFFFFFFFFFFFFFFFFFFFF0F81F87FFFF45
:103A0000FFFFFFFFFFFFFFFFFFFFFFFFFFFFFFFFC6
:103A1000FFFFFFF0F81F87FFFFFFFFFFFFFFFFFF24
:103A2000FFFFFFFFFFFFFFFFFFFFFFFFF0703F07FC
:103A3000FFFFFFFFFFFFFFFFFFFFFFFFFFFFFFFF96
:103A4000FFFFFFFFFFF0003807FFFFFFFFFFFFFF53
:103A5000FFFFFFFFFFFFFFFFFFFFFFFFFFFFF8007C
:103A60007807FFFFFFFFFFFFFFFFFFFFFFFFFFFFE5
:103A7000FFFFFFFFFFFFFFF800780FFFFFFFFFFFD3
:103A8000FFFFFFFFFFFFFFFFFFFFFFFFFFFFFFFF46
:103A9000FC00F81FFFFFFFFFFFFFFFFFFFFFFFFF1F
:103AA000FFFFFFFFFFFFFFFFFFFF03F83FFFFFFFE9
:103AB000FFFFFFFFFFFFFFFFFFFFFFFFFFFFFFFF16
:103AC000FFFFFFFFFFFFFFFFFFFFFFFFFFFFFFFF06
:103AD000FFFFFFFFFFFFFFFFFFFFFFFFFFFFFFFFF6
:103AE000FFFFFFFFFFFFFFFFFFFFFFFFFFFFFFFFE6
:103D5000FFFFFFFFFFFFFFFFFFFFFFFF000000006F
:103D600000E80B1000080200AA02000000F00B108F
:103D700000080000AA02000000F00B10F807010084
:103D8000000000004F414350204665617475726524
:103D900073203078253038580A0000004F4C4350CB
:103DA0002046656174757265732030782530385807
:103DB0000A0000004F4C43502074696D656F7574A4
:103DC0000A0000004F4C4350204C69737420656E0C
:103DD000640A00004F4C4350206572726F720A00F3
:103DE0004F4C43502070726F636564757265206933
:103DF0006E7465727275707465640A004F41435049
:103E0000206572726F720A004F4143502070726FCA
:103E100063656475726520696E746572727570741D
:103E200065640A0057616974696E67204C324341CA
:103E300050206576656E742025640A004C3243413B
:103E400050204576656E7420726563656976656499
:103E50000A0000004C324341502070726F63656469
:103E6000757265206661696C7572650A00000000F4
:103E70004F626A656374206E616D6520666F756E52
:103E800064210A00437572722073697A653A2025AD
:103E90006420416C6C6F632073697A653A202564F5
:103EA0000A0000006163695F6C326361705F636F79
:103EB000735F7364755F646174615F7472616E7364
:103EC0006D6974203078253032580A004F54505FA5
:103ED000434C49454E545F4F4C4350496E646963AF
:103EE0006174696F6E0A00004F54505F434C49453E
:103EF0004E545F4F414350496E6469636174696F0A
:103F00006E0A000096C298D84539A1F4A033EB2D73
:103F1000817D0377F240A463E5E6BCF847422CE1DB
:103F2000F2D1176BF551BF376840B6CBCE5E316B1F
:103F30005733CE2B169E0F7C4AEBE78E9B7F1AFEE3
:103F4000E242E34FCAEBECEDEFF0F1F2F3F4F5F6F9
:103F5000F7F8F9FAFAFCFDFDFEFEFFFF0000010292
:103F600003040506CAEBECEDEFF0F1F2F3F4F5F61D
:103F7000F7F8F9FAFAFCFDFDFEFEFFFF0000010272
:103F80000304050608000000040302020101010108
:103F90000000000000000000010002000400060014
:103FA00008000A000C001000200040008000000102
:103FB00001010103070100000804020408010101D6
:103FC000526573706F6E73652066726F6D20455316
:103FD0004C202825642C202564293A20000000006C
:103FE00030782530325820002B53544154453A251F
:103FF0003032582C253032582C25642C25640D0A7B
:10400000000000002B4C45443A253032582C253016
:1040100032582C25640D0A002B5458543A2530325E
:10402000582C253032582C25640D0A002B5052494B
:1040300043453A253032582C253032582C25640D12
:104040000A0000002B53454E533A253032582C2598
:104050003032582C25642C25640D0A002B4449531A
:10406000503A253032582C253032582C25642C25D6
:10407000642C25640D0A00002B4F54503A20252E45
:104080002A730A0041542B50494E473D000000005E
:1040900025782C257800000041542B554E41535370
:1040A0004F433D0041542B5352565253543D000050
:1040B00041542B465253540041542B555044434DC8
:1040C0005000000041542B53454E533D000000006A
:1040D00041542B524546524553483D0025782C25E6
:1040E000782C25750000000041542B494D473D00B8
:1040F00025782C25782C25752C25750041542B49C5
:104100004D4754494D3D000025782C25782C2575C8
:104110002C25752C2575000041542B4C45443D0041
:1041200025782C25782C25752C25782C256C6C78F9
:104130002C25752C25752C25752C25780000000064
:1041400041542B4C454454494D3D000025782C25C5
:10415000782C25752C25782C256C6C782C25752CC5
:1041600025752C25752C25782C25750041542B544C
:1041700058543D0025782C25782C255B5E090D0AC6
:104180005D00000041542B50524943453D00000062
:1041900025782C25782C25752E25750041542B5219
:1041A00045434F4E463D000041542B434F4E4E3D3C
:1041B0000000000041542B494E464F0041542B440F
:1041C0004953504C4159494E464F000041542B53DE
:1041D000454E534F52494E464F00000041542B4C20
:1041E0004544494E464F000041542B434C524E56D5
:1041F0004D00000041542B41425354494D453F006E
:104200002B41425354494D453A2025640A00000091
:1042100041542B5343414E0041542B4144443D00F3
:1042200025642C256C6C782C25782C2578000000D2
:1042300041542B4F54505345415243483D000000D8
:10424000255B5E090D0A5D0041542B4F54505345C8
:10425000415243480000000041542B4F54504D45FB
:10426000544100004E616D653A2025730A0000003C
:10427000547970653A20307820000000253032589B
:1042800020000000437572722053697A653A202538
:10429000640A0000416C6C6F632053697A653A20B0
:1042A00025640A0050726F703A20307825303858F3
:1042B0000A00000049443A203078000041542B4F56
:1042C000545053544152543D0000000041542B4F70
:1042D000545057524954453D0000000041542B4F63
:1042E0005450434C4F53450041542B48454C5000CB
:1042F0005374616E646172642045534C20636F6D2A
:104300006D616E6473202847726F757020616E64F2
:1043100020494420746F20626520676976656E20AD
:1043200061732068657861646563696D616C20768E
:10433000616C75652C206F746865722076616C7590
:1043400065732061726520646563696D616C2075B9
:104350006E6C657373206F7468657277697365201E
:10436000737065636966696564293A0A0000000034
:1043700020202D2041542B50494E473D3C67726F01
:1043800075705F69643E2C3C65736C5F69643E3A8E
:104390002050696E670A000020202D2041542B55C3
:1043A0004E4153534F433D3C67726F75705F696474
:1043B0003E2C3C65736C5F69643E3A20556E6173B8
:1043C000736F63696174652066726F6D2041500A76
:1043D0000000000020202D2041542B5352565253F0
:1043E000543D3C67726F75705F69643E2C3C657329
:1043F0006C5F69643E3A205365727669636520524A
:10440000657365740A00000020202D2041542B465E
:104410005253543D3C67726F75705F69643E2C3C2B
:1044200065736C5F69643E3A20466163746F7279AC
:104430002052657365740A0020202D2041542B55AD
:104440005044434D503D3C67726F75705F69643EE8
:104450002C3C65736C5F69643E3A205570646174EE
:104460006520436F6D706C6574650A0020202D20F7
:1044700041542B53454E533D3C67726F75705F69D5
:10448000643E2C3C65736C5F69643E2C3C73656EC6
:10449000736F725F696E6465783E3A20526561643D
:1044A0002053656E736F7220446174610A000000CE
:1044B00020202D2041542B524546524553483D3C27
:1044C00067726F75705F69643E2C3C65736C5F69E1
:1044D000643E2C3C646973706C61795F696E6465DD
:1044E000783E3A205265667265736820446973703D
:1044F0006C61790A0000000020202D2041542B49D6
:104500004D473D3C67726F75705F69643E2C3C653A
:10451000736C5F69643E2C3C646973706C61795F95
:10452000696E6465783E2C3C696D6167655F696E94
:104530006465783E3A20446973706C617920496DF6
:104540006167650A0000000020202D2041542B499E
:104550004D4754494D3D3C67726F75705F69643ECD
:104560002C3C65736C5F69643E2C3C646973706CB1
:1045700061795F696E6465783E2C3C696D61676541
:104580005F696E6465783E2C3C6162736F6C757414
:10459000655F74696D653E3A20446973706C61793A
:1045A0002054696D656420496D6167650A000000EB
:1045B00020202D2041542B4C45443D3C67726F75A3
:1045C000705F69643E2C3C65736C5F69643E2C3C93
:1045D0006C65645F696E6465783E2C3C6C65645FF5
:1045E000636F6D706F6E656E745F6865783E2C3CAE
:1045F0007061747465726E5F6865783E2C3C6F669E
:10460000665F706572696F643E2C3C6F6E5F7065AB
:1046100072696F643E2C3C7265706561745F747979
:1046200070653E2C3C7265706561745F6475726183
:1046300074696F6E3E3A204C454420436F6E74722D
:104640006F6C0A0020202D2041542B4C45445449C6
:104650004D3D3C67726F75705F69643E2C3C6573BD
:104660006C5F69643E2C3C6C65645F696E64657860
:104670003E2C3C6C65645F636F6D706F6E656E742D
:104680003E2C3C7061747465726E3E2C3C6F6666A5
:104690005F706572696F643E2C3C6F6E5F7065720F
:1046A000696F643E2C3C7265706561745F747970EB
:1046B000653E2C3C7265706561745F6475726174EF
:1046C000696F6E3E2C3C6162736F6C7574655F74CC
:1046D000696D653E3A204C45442054696D656420FF
:1046E000436F6E74726F6C0A000000000A50726FA4
:1046F00070726965746172792045534C20636F6DE7
:104700006D616E64733A200A0000000020202D20A5
:1047100041542B5458543D3C67726F75705F696407
:104720003E2C3C65736C5F69643E2C3C7465787408
:104730003E3A2053657420746578740A20202D2039
:104740003C746578743E2063616E20626520612050
:10475000737472696E672077697468206D61786917
:104760006D756D20313520636861726163746572A7
:10477000730A000020202D2041542B5052494345FC
:104780003D3C67726F75705F69643E2C3C65736C6D
:104790005F69643E2C3C76616C5F696E743E2C3CB4
:1047A00076616C5F66726163743E3A205365742073
:1047B0007072696365200A000A436F6D6D616E64F3
:1047C0007320666F72207370656369616C206F700F
:1047D00065726174696F6E73206F72207465737493
:1047E000730A000020202D2041542B5343414E3AA0
:1047F000205363616E20666F722045534C730A002C
:1048000020202D2041542B4144443D3C616464727E
:104810005F747970653E2C3C6164647265733E2CF4
:104820003C67726F75705F69643E2C3C65736C5FAA
:1048300069643E3A2041646420616E2045534C20F7
:10484000746F20746865206E6574776F726B0A00F0
:1048500020202D2041542B434F4E4E3D3C67726F1C
:1048600075705F69643E2C3C65736C5F69643E3AA9
:1048700020436F6E6E65637420746F20616E2045F7
:10488000534C20666F72207570646174650A000075
:1048900020202D2041542B5245434F4E463D3C6E27
:1048A00065775F67726F75705F69643E2C3C6E65FB
:1048B000775F65736C5F69643E3A205265636F6E23
:1048C0006669677572652074686520636F6E6E6EC9
:1048D00065637465642045534C2077697468206172
:1048E000206E657720616464726573730A0000004E
:1048F00020202D2041542B494E464F3A20526561CD
:104900006420616C6C2074686520496E666F726DFE
:104910006174696F6E204368617261637465726966
:1049200073746963732066726F6D207468652063A9
:104930006F6E6E65637465642045534C0A00000019
:1049400020202D2041542B444953504C4159494E6D
:10495000464F3A205265616420746865204469734B
:10496000706C617920496E666F726D6174696F6EEB
:10497000204368617261637465726973746963204E
:1049800066726F6D2074686520636F6E6E65637408
:1049900065642045534C0A0020202D2041542B53A0
:1049A000454E534F52494E464F3A2052656164205E
:1049B0007468652053656E736F7220496E666F72FE
:1049C0006D6174696F6E20436861726163746572B2
:1049D00069737469632066726F6D20746865206303
:1049E0006F6E6E65637465642045534C0A00000069
:1049F00020202D2041542B4C4544494E464F3A200F
:104A00005265616420746865204C454420496E6697
:104A10006F726D6174696F6E204368617261637457
:104A2000657269737469632066726F6D207468655E
:104A300020636F6E6E65637465642045534C0A0095
:104A400020202D2041542B434C52534344423A20C2
:104A5000436C656172207468652073656375726963
:104A600074792064620A000020202D2041542B41DB
:104A7000425354494D453F3A205265616420637565
:104A80007272656E74206162736F6C7574652074E8
:104A9000696D650A0000000020202D2041542B4F35
:104AA00054505345415243483A20446973636F76EA
:104AB000657220696D61676573206F6E207468652B
:104AC00020636F6E6E6563746564207365727665CE
:104AD00072206F6E207468652045534C0A000000F8
:104AE00020202D2041542B4F5450534541524348D0
:104AF0003D3C6E616D653E3A20536561726368208E
:104B0000616E642073656C656374207468652073DE
:104B1000706563696669656420696D616765206FAA
:104B20006E2074686520636F6E6E656374656420C3
:104B300045534C0A0000000020202D2041542B4FEB
:104B400054504D4554413A2052656164206D65745E
:104B5000616461746120666F722063757272656E44
:104B600074206F626A6563740A00000020202D20A3
:104B700041542B4F545053544152543D3C74727520
:104B80006E636174653E3A204F70656E20616E20E1
:104B90004C32434150206368616E6E656C20746FC7
:104BA000207472616E7366657220616E20696D613A
:104BB000676520746F2074686520636F6E6E65632F
:104BC0007465642045534C2E20536574203C7472E8
:104BD000756E636174653E20746F203120746F20A0
:104BE0007472756E6361746520696D6167652C20F0
:104BF0006F74686572776973652073657420697472
:104C000020746F20302E0A0020202D2041542B4F7D
:104C1000545057524954453D3C73697A653E3A2099
:104C200053656E6420696D61676520646174612CF1
:104C300020757020746F2074686520676976656ED2
:104C40002073697A6520696E206279746573202803
:104C50006D6178696D756D2069732035303030294C
:104C60002E204461746120746F2062652073656E2C
:104C7000742069732073746F72656420696E736940
:104C8000646520696D6167652E632066696C652EB9
:104C90000A00000020202D2041542B4F5450434C3B
:104CA0004F53453A20436C6F7365204C324341505B
:104CB000206368616E6E656C20746F207472616E23
:104CC0007366657220696D61676520646174612E29
:104CD0002049742073686F756C6420626520697365
:104CE00073756564207768656E20746865726520E9
:104CF000617265206E6F74206F7468657220696DD3
:104D00006167657320746F2062652073656E742E11
:104D10000A00000020202D2041542B48454C503AD9
:104D2000204C697374206F6620415420636F6D6D51
:104D3000616E64730A0000004F4B0D0A0000000012
:104D40004552524F520D0A00686A6C747A4C00004A
:104D50007072696E74665F733A20256E20646973A1
:104D6000616C6C6F776564007072696E74663A206E
:104D700062616420256E20617267756D656E7400D6
:104D80007072696E74665F733A2062616420257385
:104D900020617267756D656E740000000000000090
:104DA0006E616E004E414E00696E6600494E4600CF
:104DB00030002E007363616E665F733A2062616437
:104DC0002025632C2025732C206F7220255B206109
:104DD0007267756D656E74007363616E665F733ABA
:104DE0002062616420666C6F6174696E672D706FFC
:104DF000696E7420617267756D656E7400000000E5
:104E0000686A6C747A4C000063436E5B00000000BB
:104E10007363616E665F733A2062616420256E2061
:104E2000617267756D656E740000000000004129B5
:104E3000211C19171615141312121111111010102C
:104E40000F0F0F0F0E0E0E0E0E0E0E0D0D0D0D0D83
:104E50000D00000030313233343536373839616275
:104E6000636465666768696A6B6C6D6E6F7071729A
:104E7000737475767778797A00000000FB349B5F55
:104E80008000008000100000292B000010000000AE
:104E9000FB349B5F8000008000100000052A0000AA
:104EA00010000000020000000300000003000000EA
:104EB0000600000003000000030000003C000000AA
:104EC0007000000070000000D003000070000000BF
:104ED000C30100006DDF0610B76B0410F96B0410FE
:104EE000216C0410136C0410876904102D6A0410DF
:104EF00019720410277204103572041043720410E2
:104F00005172041099E70610C9710410A3710410BE
:104F1000D7710410B73D0510BB3B05105B6A041048
:104F20000F700410776C0410856C0410D1E3061028
:104F30008B540710DD5107108B5607109D58071032
:104F40009D580710B35907108B5607108D5B07103B
:104F50008D5B07108D5B07108F5507109751071059
:104F60005B510710B35907103B6A04104B6A0410D9
:104F7000315F0710395F0710355F0710896A041029
:104F8000996A0410A96A0410B96A0410096B041024
:104F9000D96A0410E96A0410F96A0410C96A041095
:104FA000F95E0710196B0410296B0410396B04109B
:104FB000496B041000B5BFF34F8F0348A649086042
:104FC000BFF34F8F00BFFDE70400FA0580B501F085
:104FD000B7F901F077FA0021C943884201D101F005
:104FE0009BFB01BDF8B598B0002069460873062503
:104FF00001950020009007AC009A0199200001F073
:1050000091FB28006946087400206946C8810BA8F6
:105010009249342201F0B2FB0BA801F0E5FB070036
:105020003800C0B2002806D03900C9B28C4801F05F
:1050300011FC01F071FB07ACAD202070AB2060705B
:10504000AA20A070E120E070802020710220607111
:1050500007AA0621002001F011FC06003000C0B2B2
:10506000002805D03100C9B27E4801F0F3FB02E010
:105070007D4801F0EFFB1821002001F003FC694698
:10508000087068460078002805D06846017877489F
:1050900001F0E0FB02E0764801F0DCFB7549FB2003
:1050A00002F097FA07003800C0B2002804D0390097
:1050B000C9B2AA4801F0CEFB06A9012002F0DAFA33
:1050C00006003000C0B2002805D03100C9B2A448A3
:1050D00001F0C0FB02E0A34801F0BCFB0020054347
:1050E0006846457300216846007B02F01FFB0500FF
:1050F0002800C0B2002805D02900C9B29A4801F0A2
:10510000A9FB02E0994801F0A5FB04A8801C0090CF
:1051100005AB05AA921C6846017B6846407B02F0FD
:105120000DFB06002078029060780190A078009036
:10513000E378227961798E4801F08CFB8D4A052154
:10514000002002F044FB04002000C0B2002805D07B
:105150002100C9B2884801F07DFB02E0874801F0D8
:1051600079FB03AA921C0221002002F043FB0600F7
:105170003000C0B2002805D03100C9B2804801F02B
:1051800069FB02E07F4801F065FB7F4C01252800A8
:105190002070207802F0E8F807003800C0B200283C
:1051A00005D03900C9B2794801F054FB02E07848D3
:1051B00001F050FB280060700820E0701020207182
:1051C000A5700020029020790190E07800900023E3
:1051D00002226178A07802F0CEF805002800C0B263
:1051E000002805D02900C9B26A4801F033FB02E06B
:1051F000694801F02FFBA078002810D0012002F0B0
:105200007BFB05002800C0B2002805D02900C9B2E8
:10521000624801F01FFB02E0614801F01BFB09A896
:1052200060490CC90CC00839083809A802F074FBA1
:1052300004002000C0B2002805D02100C9B25A489D
:1052400001F008FB02E0594801F004FB584801F066
:1052500001FB19B0F0BD00000CED00E0D815041002
:10526000080104102C01041088010410D40104105A
:10527000140204104808000080B50121012002F04A
:1052800026FC01BD80B5012002F0AAFC02F0ABFCB7
:10529000012002F0A6FC01BD80B502F0B3FD01BD06
:1052A00080B50021022002F012FC01BD80B504F09F
:1052B000D2FA01BD80B50121042002F008FC01BD35
:1052C00080B5FFF7EDFF01BD10B50400200004F02C
:1052D00013FBFFF7E5FFFFF7EDFF10BD80B50021E1
:1052E0008020800002F0F3FB01BD80B5FFF7C4FF12
:1052F00001BD80B52F4A0021012002F0D8FB2E4AC3
:105300000021022002F0D3FB2C4A0021042002F0ED
:10531000CEFBFFF75BFEFFF765FE04F099FB284A22
:1053200000218020800002F0C2FB264A002180205C
:1053300002F0BDFB244A00218020400002F0B7FBB0
:10534000224A00218020C00002F0B1FB06F08AF85A
:1053500000F0FCFC00F08AFD01BD000044020410D6
:1053600094020410D402041004030410380304103F
:105370005C030410D015041098030410DC0304101F
:105380001004041054040410480E00208804041073
:10539000C8040410F8040410400504107805041033
:1053A000D00504101806041020060410600604102E
:1053B000900604108552041099520410AD52041046
:1053C000C5BB06107D610410595F041059C5041057
:1053D000F1B594B0862069460875149800780428C1
:1053E00004D014980078822800D075E31498401CEB
:1053F000079014980078042803D10798801C09901E
:1054000003E01498401CC01C0990079800780528F8
:1054100008D0102800D14BE33E2844D0FF2800D10B
:10542000DAE154E30798871C7878B9780906090C03
:105430000843CC4CA18980B2884231D1CA48A081AE
:1054400000252800A073C94801F004FA7978B878DB
:105450000006000C0143FA7889B2DC4801F0FAF941
:10546000062610342A003100200001F05BF968465E
:10547000012101707978BA781206120C114341802B
:10548000684604F02DFB7878B9780906090C0843C2
:1054900080B207F091F8082002F02BFB00F0E6FC48
:1054A00000F04AFC18E30798801C069006980078E4
:1054B000012800D103E1022800D128E1032815D0FA
:1054C000042800D137E10A2800D1A8E00C2800D137
:1054D000A0E00D2800D124E1272800D148E12828A8
:1054E00000D154E1292800D1C1E069E10698441CAB
:1054F000B74801F0AFF9E07821790906090C0843B3
:1055000080B207F0BDF80022B24B07F0D3F80022BA
:1055100080235B0307F090F92BD8E0782179090606
:10552000090C0843E57821790906090C0D4380B27E
:1055300007F0A6F80022A74B07F0BCF806000F0002
:10554000ADB2280007F09CF80022A24B07F0B2F899
:1055500007F08CF907F0A4F802000B0030003900C6
:1055600007F010FA0022D54B07F0A4F807F07EF9F7
:1055700028E0E07821790906090C0843E5782179CB
:105580000906090C0D4380B207F07AF80022914B0E
:1055900007F090F807F06AF907F082F806000F00AC
:1055A000ADB2280007F06CF80022CF4B07F082F86C
:1055B00032003B0007F083F90022C04B07F07AF875
:1055C00007F054F9E279217A0906090C0A43637954
:1055D000A1790906090C0B43E17825792D062D0CDC
:1055E000294392B20A25554300959BB2020016004A
:1055F0001D00080080B207F043F80022754B07F049
:1056000059F807F033F901002B003200C34801F0CC
:1056100021F9DAE00698441C00F08EFBD5E00698EC
:10562000441CBF4801F016F9E07E217F0906090CF1
:105630000843627EA17E0906090C0A43E37D217EB0
:105640000906090C0B436178A5782D062D0C29431A
:1056500080B2039092B202929BB20193601D0090BF
:105660002379E27889B2207800F05EFAADE00698FE
:10567000441CC94801F0EEF8E07E217F0906090CC0
:105680000843627EA17E0906090C0A43E37D217E60
:105690000906090C0B436178A5782D062D0C2943CA
:1056A00080B2039092B202929BB20193601D00906F
:1056B0002379E27889B2207800F036FA85E00698FE
:1056C000441CB64801F0C6F8E07B217C0906090CB1
:1056D0000843627BA17B0906090C0A43E37A217B1C
:1056E0000906090C0B436178A5782D062D0C29437A
:1056F00080B2039092B202929BB20193601D00901F
:105700002379E27889B2207800F00EFA5DE00698FD
:10571000441CE31CA27821000A31607A00F0B0FC3E
:1057200053E00698441C231DE27821001931207EA5
:1057300000F0A6FC49E00698441CCC4801F08AF829
:105740000025082D06DA6019C178C94801F082F8F1
:105750006D1CF6E7C7A001F07DF8082002F0C9F93A
:1057600033E000BF480E0020FFFF0000AC0604102D
:105770000698441C65786078A1784018854205DA5F
:105780002800C0B206F01AFD6D1CF4E71DE0069873
:10579000461CC64801F05EF8341D0025F0788542AD
:1057A0000DDAA31D6279E178707806F0BDFD6079AD
:1057B000062148432018040024346D1CEEE704E061
:1057C00006980178C54801F045F885E1D80604102F
:1057D000180704100000F43F099C2078617809063E
:1057E000090C084380B2001F78D0801E00D149E127
:1057F000BB49401A00D1BDE0401E77D0401F5FD0AA
:10580000801E00D18EE0401E69D0FE218900401A22
:1058100015D0801E00D12FE1801E00D11FE1093874
:1058200000D102E1FD218900401A012800D831E1B0
:10583000001F00D12EE1093800D12BE12BE1A71C7C
:105840000125F87A397B0906090C08437A7AB97A76
:105850000906090C0A4369460A84FA79397A090665
:10586000090C0A437979BB791B061B0C19433B7859
:105870007E783606360C33436E46F3822B00DBB25D
:105880000493BB780393102302931023019380B2F7
:1058900000906846038C92B289B26846C08A01F0D3
:1058A00035FE06003000C0B2002803D08D4800F05D
:1058B000D1FF02E08C4800F0CDFFF5E00000594038
:1058C0008A4800F0C7FFA51C2878012805D1687810
:1058D000002802D1864800F0BDFFE5E0E4E08548FD
:1058E00000F0B8FFE0E000BF0000F4BF824800F025
:1058F000B1FF82498248808901F063FD69460875DD
:105900006846007D002805D06846017D7D4800F08E
:10591000A1FF02E07C4800F09DFFC5E04C070410A9
:10592000BC070410794800F095FF201D07F0A2F88D
:105930000100774800F08EFF201D07F09BF8010062
:10594000744800F087FF01252900C9B26C4880899E
:1059500001F040FD694608756846007D002805D0C5
:105960006846017D6C4800F075FF02E06B4800F06E
:1059700071FF99E06A4800F06DFFA01C009000984C
:10598000807800280CD00098C2780098817865480B
:1059900000F060FF07E000BFF007041024080410C7
:1059A000B84800F057FF33A000F054FF009880780B
:1059B000002807D1524802001032C17B808906F0CE
:1059C000DBFD28E000988078042824D1AE4800F060
:1059D00041FF4B4DAD4F01AB0AAA3900E87B05F002
:1059E0005BFE06003000C0B2002805D1A84800F0D8
:1059F00031FF01A803F0A8FE3000C0B2002803D098
:105A00003000C0B2012806D1A24800F023FF3900BF
:105A1000E87B01F0EDFC00988078002804D0132189
:105A20003748808901F01BFC3EE0B54800F012FFCA
:105A3000A51C6B79A8790006000C0343EA78287945
:105A40000006000C0243E87A00909BB292B2A9785B
:105A5000AC4800F0FFFE280007F088FC24E0AA48CC
:105A600000F0F8FE07F0AEFC1EE000BF4C0804108A
:105A70005C0804100A000000A44800F0EBFE07F0E8
:105A800033F811E0A51C2978A14800F0E3FEFFF7E8
:105A900091FA09E008E0217860780006000C0143E3
:105AA00089B29C4800F0D6FE16E000BF64080410DE
:105AB0000798841C2178984800F0CCFE20780428B0
:105AC00004DA052007F092FCFFF774FA04E0079867
:105AD0000178924800F0BEFE15B0F0BD94080410A5
:105AE000FB030000B0080410F00804103009041093
:105AF00058090410640904109409041007B2010045
:105B0000480E0020BC090410F0090410180A041003
:105B10004C0A0410680A0410800A0410CC0A04100D
:105B20000C0B0410380B0410FFB583B00C9C0D9EB9
:105B30006846018A7A4800F08DFE207802906078ED
:105B40000190A0780090E37822796179754800F09F
:105B500081FE300080B206F093FD0022724B06F009
:105B6000A9FD002280235B0306F066FE22D83000E8
:105B700080B206F085FD00226B4B06F09BFD009085
:105B80000191300080B206F07BFD0022664B06F0EA
:105B900091FD06F06BFE06F083FD02000B000098FD
:105BA000019906F0EFFE0022604B06F083FD06F03F
:105BB0005DFE1FE0300080B206F062FD00225A4B0D
:105BC00006F078FD06F052FE06F06AFD00900191A5
:105BD000300080B206F054FD0022554B06F06AFDFD
:105BE000009A019B06F06BFE0022504B06F062FD0E
:105BF00006F03CFE6946097B01916946898F0A22BD
:105C00004A43009269460B8F020017001D003000C6
:105C100080B206F035FD0022434B06F04BFD06F046
:105C200025FE01002B003A00424800F013FE6846B2
:105C3000007B002824D1894DA87B012802D10320B4
:105C4000A87301E00220A8736846008AA88102A810
:105C5000002101706946098A418002A803F040FFD3
:105C600000218020400001F032FF6846007EE8738A
:105C70000627009410353A000099280000F098FD9E
:105C800007B0F0BD780B0410900B0410580E0020E4
:105C9000C00B0410E00B041038B505002800C0B29A
:105CA000012802D0022816D028E013216B488089F1
:105CB00001F0D5FA04002000C0B2002805D0210070
:105CC000C9B2674800F0C6FD04E0664800F0C2FDB6
:105CD00000F037F812E06148808901F0ADFB040064
:105CE0002000C0B2002805D02100C9B25E4800F0F3
:105CF000B1FD02E0954800F0ADFDFFE731BD0000C9
:105D0000F00B0410200C04105C0C0410880C041020
:105D1000C00C0410E00C0410F80C0410180D041052
:105D20002C0D0410700D04100000F43F00005940C9
:105D30000000F4BFB40D041080B5012001F0D9FEBD
:105D400001BD80B5012001F0F7FE01BD30B58DB079
:105D5000C823DB0000200A90002009900120089051
:105D6000002007900120069000200590002004905C
:105D70000020039000200290072001900093002251
:105D80000021002007F048FB05002800C0B20028D1
:105D900005D02900C9B28C4800F05CFD02E08B48B8
:105DA00000F058FDA02292000820049010200390DB
:105DB0002820029050200190042000900023110020
:105DC000002001F01AFC04002000C0B2002805D019
:105DD0002100C9B2A34800F03DFD02E0A24800F056
:105DE00039FD0021012001F0FEFB05002800C0B2B2
:105DF000002805D02900C9B29C4800F02BFD02E024
:105E00009B4800F027FD00200BA902000A70020049
:105E10004A8008710BAA0121012001F0CEFB040089
:105E20002000C0B2002805D02100C9B2914800F07E
:105E300011FD02E0904800F00DFD0BAA01210020A9
:105E400001F0BBFB05002800C0B2002804D02900E7
:105E5000C9B2884800F0FEFC0DB030BD480E0020ED
:105E6000380E0410640E0410880E04107FB501244F
:105E700082480470C8208000010001910090002336
:105E800001220021012001F0F4F905002800C0B230
:105E9000002807D02900C9B22D4800F0DBFC00F033
:105EA0003BFC02E02B4800F0D5FC022002900220CF
:105EB000019032200090002320222021012001F0B7
:105EC000EEF906003000C0B2002805D13100C9B299
:105ED000A44800F0BFFC06E03100C9B2A24800F0BF
:105EE000B9FC00F019FC002300220121032001F07D
:105EF000FBF905002800C0B200280AD02900C9B269
:105F00009A4800F0A7FC00209949887300F004FC2F
:105F100004E0984800F09EFC954884737FBD38B536
:105F2000934C00220021A08901F088FB0500280085
:105F3000C0B2002806D0A2892900C9B28E4800F05C
:105F400089FC02E0B94800F085FC31BDC00E0410A8
:105F5000F00E0410280F041038B5082001F0D8FD09
:105F6000834CA08901F022FB05002900C9B2B0488A
:105F700000F070FC2800C0B23A2805D10021802032
:105F8000400001F0A4FD1DE02800C0B2002803D0AD
:105F90000120FFF781FE15E0082001F0CDFD002271
:105FA0000221A08901F000FA04002000C0B20028FC
