:020000041004E6
:1000000000000120115306104953061051530610E9
:1000100000000000000000000000000000000000E0
:10002000000000000000000000000000595306100E
:1000300000000000000000005B5306105D53061036
:10004000CB5704107B5A0410E79F0410EFA1041053
:1000500000000000000000000000000007A20410E3
:1000600065530610CBA20410BFB9041043CE041090
:1000700047D904108D53061000000000D3DF041090
:100080005FE7041023EC0410B553061000000000D5
:10009000AD5306100000000000000000A55306103C
:1000A0003BEF0410BD5306103BF30410CBF60410D5
:1000B000EFF7041000000000000000000000000046
:1000C0000000000000002440000000000000594033
:1000D000000000000088C3400000000084D7974162
:1000E0000080E03779C34143176E05B5B5B8934634
:1000F000F5F93FE9034F384D321D30F94877825A00
:100100003CBF737FDD4F15754572726F7220696E4B
:1001100020424C455F535441434B5F496E697428FC
:1001200029203078253032780D0A000020204661E1
:10013000696C2020203A206163695F68616C5F7799
:10014000726974655F636F6E6669675F646174612D
:1001500020636F6D6D616E64202D20434F4E4649C4
:10016000475F444154415F505542414444525F4FC0
:1001700046465345542C20726573756C743A203092
:1001800078253032580A0000202053756363657368
:10019000733A206163695F68616C5F777269746547
:1001A0005F636F6E6669675F6461746120636F6D22
:1001B0006D616E64202D20434F4E4649475F444198
:1001C00054415F505542414444525F4F4646534567
:1001D000540A000020204661696C2020203A2061EA
:1001E00063695F68616C5F7365745F74785F706F7B
:1001F0007765725F6C6576656C20636F6D6D616E9F
:10020000642C20726573756C743A20307825303216
:10021000580A00002020537563636573733A2061A8
:1002200063695F68616C5F7365745F74785F706F3A
:100230007765725F6C6576656C20636F6D6D616E5E
:10024000640A000020204661696C2020203A206169
:1002500063695F676174745F7372765F70726F66F3
:10026000696C655F696E697420636F6D6D616E6442
:100270002C20726573756C743A20307825303258B2
:100280000A0000002020537563636573733A206190
:1002900063695F676174745F7372765F70726F66B3
:1002A000696C655F696E697420636F6D6D616E6402
:1002B0000A00000020204661696C2020203A20615D
:1002C00063695F6761705F696E697420636F6D6DEC
:1002D000616E642C20726573756C743A20307825D9
:1002E0003032580A000000002020537563636573A4
:1002F000733A206163695F6761705F696E6974203A
:10030000636F6D6D616E640A0000000020205075FF
:10031000626C696320426C7565746F6F746820410C
:100320006464726573733A20253032783A2530322E
:10033000783A253032783A253032783A253032789A
:100340003A253032780A000020204661696C20206E
:10035000203A204761705F70726F66696C655F73E9
:1003600065745F6465765F6E616D65202D20446500
:1003700076696365204E616D652C20726573756CBE
:10038000743A203078253032580A00002020537506
:1003900063636573733A204761705F70726F66695B
:1003A0006C655F7365745F6465765F6E616D652013
:1003B0002D20446576696365204E616D650A0000F5
:1003C00020204661696C2020203A204761705F70D0
:1003D000726F66696C655F7365745F61707065618B
:1003E00072616E6365202D20417070656172616E6F
:1003F00063652C20726573756C743A2030782530F3
:1004000032580A002020537563636573733A20479E
:1004100061705F70726F66696C655F7365745F6150
:100420007070656172616E6365202D20417070652A
:100430006172616E63650A0020204661696C20204C
:10044000203A206163695F6761705F7365745F69FB
:100450006F5F6361706162696C69747920636F6D4D
:100460006D616E642C20726573756C743A203078FF
:10047000253032580A0000002020537563636573ED
:10048000733A206163695F6761705F7365745F6968
:100490006F5F6361706162696C69747920636F6D0D
:1004A0006D616E640A00000020204661696C2020A6
:1004B000203A206163695F6761705F7365745F7381
:1004C000656375726974795F726571756972656D5E
:1004D000656E747320636F6D6D616E642C20726540
:1004E00073756C743A203078253032580A00000059
:1004F0002020537563636573733A206163695F6796
:1005000061705F7365745F73656375726974795F39
:10051000726571756972656D656E747320636F6D58
:100520006D616E640A00000020204661696C202025
:10053000203A206163695F6761705F636F6E66690F
:10054000677572655F66696C7465725F6163636528
:1005500070745F616E645F7265736F6C76696E67ED
:100560005F6C69737420636F6D6D616E642C2072B3
:100570006573756C743A203078253032580A000063
:100580002020537563636573733A206163695F6705
:1005900061705F636F6E6669677572655F66696CCF
:1005A0007465725F6163636570745F616E645F72CE
:1005B00065736F6C76696E675F6C69737420636FC7
:1005C0006D6D616E640A0000FFFFFFFFC0FFFFFF5B
:1005D00020204661696C2020203A206163695F67B2
:1005E00061705F7365745F6C655F6576656E745F7F
:1005F0006D61736B20636F6D6D616E642C2072652D
:1006000073756C743A203078253032580A00000037
:100610002020537563636573733A206163695F6774
:1006200061705F7365745F6C655F6576656E745F3E
:100630006D61736B20636F6D6D616E640A00000005
:100640003D3D3E3E20456E6420424C455F496E690B
:10065000742066756E6374696F6E0A003E3E3D3DA0
:10066000204843495F444953434F4E4E4543544904
:100670004F4E5F434F4D504C4554455F4556545F78
:10068000434F44450A00000020202020202D204315
:100690006F6E6E656374696F6E2048616E646C6521
:1006A0003A2020203078253032580A20202020207F
:1006B0002D20526561736F6E3A20202020307825FE
:1006C0003032580A000000003E3E3D3D204843497C
:1006D0005F4C455F434F4E4E454354494F4E5F5527
:1006E00050444154455F434F4D504C4554455F5332
:1006F00055424556545F434F44450A002020202070
:10070000202D20436F6E6E656374696F6E20496E95
:1007100074657276616C3A20202025642E25303273
:1007200064206D730A20202020202D20436F6E6EE0
:10073000656374696F6E206C6174656E63793A20CD
:1007400020202025640A20202020202D2053757091
:100750006572766973696F6E2054696D656F757423
:100760003A2020202564206D730A00004843495F29
:100770004C455F454E48414E4345445F434F4E4EC6
:10078000454354494F4E5F434F4D504C4554455F90
:100790005355424556545F434F44450A00000000FC
:1007A0004843495F4C455F454E48414E4345445F91
:1007B000434F4E4E454354494F4E5F434F4D504C6F
:1007C0004554455F56325F5355424556545F434F3B
:1007D00044450A004843495F4C455F434F4E4E45F0
:1007E0004354494F4E5F434F4D504C4554455F5322
:1007F00055424556545F434F44450A004C455F46B9
:10080000656174757265733A200000003078253098
:10081000325820004843495F4C455F504552494F8C
:100820004449435F4144564552544953494E475FFA
:10083000524553504F4E53455F5245504F52540A04
:10084000000000004843495F4C455F4D4554415FFF
:100850004556543A203078253032580A00000000BE
:1008600020204661696C2020203A206163695F6C1A
:10087000326361705F636F6E6E656374696F6E5F24
:10088000706172616D657465725F757064617465C5
:100890005F7265737020636F6D6D616E640A000036
:1008A0002020537563636573733A206163695F6CDD
:1008B000326361705F636F6E6E656374696F6E5FE4
:1008C000706172616D657465725F75706461746585
:1008D0005F7265737020636F6D6D616E640A0000F6
:1008E0003E3E3D3D204143495F4741505F50524F9E
:1008F000435F434F4D504C4554455F565345565406
:100900005F434F44450A00002D2D204741505F476B
:10091000454E4552414C5F444953434F5645525909
:100920005F50524F4320636F6D706C657465640A4D
:10093000000000003E3E3D3D204143495F4741509D
:100940005F4B455950524553535F4E4F54494649AA
:10095000434154494F4E5F56534556545F434F44AD
:10096000450A00003E3E3D3D204143495F4741501E
:100970005F504153534B45595F5245515F56534564
:1009800056545F434F44450A000000003D3D3E3E43
:10099000206163695F6761705F706173736B657914
:1009A0005F72657370203A204661696C2C20726515
:1009B00061736F6E3A203078253032580A0000009B
:1009C0003D3D3E3E206163695F6761705F706173AA
:1009D000736B65795F72657370203A20537563633A
:1009E0006573730A000000003E3E3D3D20414349CF
:1009F0005F4741505F4E554D455249435F434F4D10
:100A000050415249534F4E5F56414C55455F5653E6
:100A10004556545F434F44450A00000020202020E3
:100A2000202D206E756D657269635F76616C7565EA
:100A3000203D2025640A000020202020202D204871
:100A400065785F76616C7565203D2025780A000029
:100A50003D3D3E3E206163695F6761705F6E756D0D
:100A6000657269635F636F6D70617269736F6E5FEA
:100A700076616C75655F636F6E6669726D5F7965CF
:100A8000736E6F203A204661696C2C207265617329
:100A90006F6E3A203078253032580A003D3D3E3E98
:100AA000206163695F6761705F6E756D6572696310
:100AB0005F636F6D70617269736F6E5F76616C7585
:100AC000655F636F6E6669726D5F7965736E6F20C7
:100AD0003A20537563636573730A00003E3E3D3DE3
:100AE000204143495F4741505F50414952494E4779
:100AF0005F434F4D504C4554455F56534556545FE8
:100B0000434F44450A00000020202020202D205083
:100B1000616972696E67204B4F0A20202020202DCA
:100B2000205374617475733A203078253032580A36
:100B300020202020202D20526561736F6E3A2030D6
:100B400078253032580A000020202020202D205007
:100B5000616972696E6720537563636573730A0018
:100B60004143495F48414C5F46575F4552524F529F
:100B70005F5653455654203078253032580A0000CD
:100B80004843495F56454E444F525F4556543A20BC
:100B90003078253034580A004843495F4841524470
:100BA000574152455F4552524F525F45565420308F
:100BB00078253032580A00004843495F4556454E73
:100BC000543A203078253032580A00003E3E3D3DF0
:100BD000206863695F6C655F636F6E6E65637469DF
:100BE0006F6E5F636F6D706C6574655F6576656E63
:100BF00074202D20436F6E6E656374696F6E20687C
:100C0000616E646C653A203078253034580A0000F3
:100C100020202020202D20436F6E6E656374696F45
:100C20006E2065737461626C6973686564207769AE
:100C3000746820403A253032783A253032783A25A7
:100C40003032783A253032783A253032783A2530C9
:100C500032780A0020202020202D20436F6E6E6500
:100C60006374696F6E20496E74657276616C3A20A8
:100C7000202025642E25303264206D730A20202028
:100C800020202D20436F6E6E656374696F6E206C3B
:100C90006174656E63793A2020202025640A202043
:100CA0002020202D205375706572766973696F6EF0
:100CB0002054696D656F75743A202564206D73202A
:100CC0002020202D205374617475733A20307825CC
:100CD0003032780A000000006163695F6761705F0D
:100CE0007465726D696E617465206661696C757298
:100CF000653A20726561736F6E3D307825303258E9
:100D00000A0000003D3D3E3E206163695F676170FF
:100D10005F7465726D696E617465203A2053756306
:100D2000636573730A0000006163695F67617474CF
:100D30005F636C745F65786368616E67655F636F3E
:100D40006E666967206661696C7572653A207265C6
:100D500061736F6E3D3078253032580A0000000014
:100D60003D3D3E3E206163695F676174745F636C03
:100D7000745F65786368616E67655F636F6E6669EF
:100D800067203A20537563636573730A000000009F
:100D90006163695F6761705F7365745F7363616EE0
:100DA0005F636F6E66696775726174696F6E202D1F
:100DB000206661696C2C20726573756C743A203002
:100DC00078253032580A00003D3D3E3E206163697F
:100DD0005F6761705F7365745F7363616E5F636F9C
:100DE0006E66696775726174696F6E202D20537528
:100DF00063636573730A00006163695F6761705FB5
:100E000073746172745F70726F636564757265206C
:100E10002D206661696C2C20726573756C743A20A4
:100E20003078253032580A003D3D3E3E20616369EE
:100E30005F6761705F7365745F6164766572746922
:100E400073696E675F636F6E6669677572617469F7
:100E50006F6E202D206661696C2C20726573756C35
:100E6000743A203078253032580A00003D3D3E3E2D
:100E700020537563636573733A206163695F6761CB
:100E8000705F7365745F6164766572746973696EAF
:100E9000675F636F6E66696775726174696F6E0A0A
:100EA000000000003D3D3E3E206863695F6C655F69
:100EB0007365745F706572696F6469635F6164769E
:100EC0006572746973696E675F706172616D657474
:100ED0006572735F7632202D206661696C2C2072FA
:100EE0006573756C743A203078253032580A0000EA
:100EF0003D3D3E3E20537563636573733A206863DE
:100F0000695F6C655F7365745F706572696F646952
:100F1000635F6164766572746973696E675F70613F
:100F200072616D65746572735F76320A000000004D
:100F30003D3D3E3E206863695F6C655F7365745F2D
:100F4000706572696F6469635F6164766572746904
:100F500073696E675F656E61626C65202D206661E6
:100F6000696C2C20726573756C743A20307825306A
:100F700032580A003D3D3E3E2053756363657373EE
:100F80003A206863695F6C655F7365745F70657252
:100F9000696F6469635F6164766572746973696EB1
:100FA000675F656E61626C650A0000003D3D3E3E14
:100FB000206863695F6C655F7365745F65787465ED
:100FC0006E6465645F6164766572746973696E6787
:100FD0005F656E61626C65202D206661696C2C20F6
:100FE000726573756C743A203078253032580A0077
:100FF0003D3D3E3E20537563636573733A206863DD
:10100000695F6C655F7365745F657874656E646550
:10101000645F6164766572746973696E675F656E3B
:1010200061626C650A0000006163695F6761705FFF
:101030006164645F646576696365735F746F5F663E
:10104000696C7465725F6163636570745F616E641F
:101050005F7265736F6C76696E675F6C697374201D
:101060002D206661696C2C20726573756C743A2052
:101070003078253032580A003D3D3E3E206163699C
:101080005F6761705F6164645F64657669636573FF
:101090005F746F5F66696C7465725F6163636570CE
:1010A000745F616E645F7265736F6C76696E675FA3
:1010B0006C697374202D20537563636573730A0024
:1010C0003D3D3E3E206163695F6761705F7365749B
:1010D0005F636F6E6E656374696F6E5F636F6E667C
:1010E000696775726174696F6E20537563636573A8
:1010F00073202C20726573756C743A20307825301B
:1011000032780A003D3D3E3E206163695F67617051
:101110005F7365745F636F6E6E656374696F6E5F36
:10112000636F6E66696775726174696F6E20466180
:10113000696C6564202C20726573756C743A20307C
:1011400078253032780A00003D3D3E3E20616369DB
:101150005F6761705F73746172745F70726F6365F3
:101160006475726520286175746F20636F6E6E659B
:101170006374696F6E29202D2053756363657373E3
:101180000A0000006863695F6C655F706572696F73
:101190006469635F6164766572746973696E675FC1
:1011A0007365745F696E666F5F7472616E73666596
:1011B00072202D206661696C2C20726573756C74C9
:1011C0003A203078253032582C20636F6E6E2068BC
:1011D000616E646C653A203078253034580A00001E
:1011E0003D3D3E3E206863695F6C655F7065726976
:1011F0006F6469635F6164766572746973696E6751
:101200005F7365745F696E666F5F7472616E73663B
:101210006572202D20537563636573730A000000A7
:101220006863695F6C655F726561645F72656D6F4D
:1012300074655F6665617475726573202D207265D3
:1012400073756C743A203078253032580A000000EB
:1012500050616972696E672072657175657374207B
:10126000636D64206661696C7572653A203078251B
:101270003032580A0000000050616972696E6720C0
:101280007265717565737420636D64207375636333
:101290006573730A0000000021212121212063725F
:1012A000656174655F706572696F6469635F6164CD
:1012B000766572746973696E675F636F6E6E65637E
:1012C00074696F6E200A20506565725F41646472B4
:1012D00065737320403A253032783A253032783AB7
:1012E000253032783A253032783A253032783A252E
:1012F0003032780A00000000202020202020436F98
:101300006E6E656374696F6E20496E746572766186
:101310006C3A2020202564206D730A20202D205354
:1013200075706572766973696F6E2054696D656F4B
:1013300075743A202564206D730A00006163695F4B
:101340006761705F6372656174655F706572696F14
:101350006469635F6164766572746973696E675FFF
:10136000636F6E6E656374696F6E202D20666169B0
:101370006C2C20726573756C743A2030782530328D
:10138000580A00003D3D3E3E206163695F67617021
:101390005F6372656174655F706572696F646963CC
:1013A0005F6164766572746973696E675F636F6E9F
:1013B0006E656374696F6E202D205375636365736A
:1013C000730A000045534C4150000000300F0020CC
:1013D0008A3200000000010400003200F700000023
:1013E000FFFFFFFF6400011008020004F700010086
:1013F00000010102020202000001000300040000DB
:101400000A0A5741544348444F47205245534554D4
:101410002121212121212121210A0A000A0A5359CF
:101420005354454D2052455345542121212121211A
:101430002121210A0A000000427574746F6E202574
:101440006420707265737365640A000000C2010055
:101450000000000000000000000000003D3D3E3E96
:101460002045534C5F41505F77726974655F454317
:1014700050202D206661696C2C20726573756C7428
:101480003A203078253032580A0000003D3D3E3E7B
:1014900020537563636573733A2045534C5F415025
:1014A0005F77726974655F4543500A0053796E63D4
:1014B00068726F6E697A6564205374617465207414
:1014C00072616E736974696F6E200A2000000000FB
:1014D0003D3D3E3E206C6C5F7365745F7065726964
:1014E0006F6469635F6164766572746973696E675E
:1014F0005F7375626576656E745F646174615F7059
:101500007472202D206661696C2C20726573756C75
:10151000743A203078253032580A00003D3D3E3E76
:1015200020537563636573733A206C6C5F736574E5
:101530005F706572696F6469635F61647665727418
:101540006973696E675F7375626576656E745F64F3
:101550006174615F7074720A000000004465637218
:10156000797074696F6E206661696C2E0A000000E4
:101570002121212045534C5F41505F5570646174B7
:10158000696E6753746174655472616E73697469CE
:101590006F6E202D2045534C2073746174653A2082
:1015A0002564200A000000005570646174696E674C
:1015B000205374617465207472616E736974696F0D
:1015C0006E200A2000000000212121212020455307
:1015D0004C5F41505F5570646174696E675374610C
:1015E00074655472616E736974696F6E202D206525
:1015F000736C5F6E6F6465203D3D204E554C4C20F2
:101600000A00000053544D333257423000000000AE
:1016100002000000180F0020000000000800000079
:101620009802002000000000010000007405002066
:101630000A47415454207365727669636573206468
:101640006973636F766572790A0000006163695F90
:10165000676174745F636C745F646973635F616C0A
:101660006C5F7072696D6172795F736572766963C0
:101670006573206661696C2C2073746174757320C6
:101680003078253032580A0A000000000A44697395
:10169000636F76657220616C6C2043686172616370
:1016A000746572697374696373202868616E646C11
:1016B0006573205B307825303458202D2030782514
:1016C0003034585D290A00006163695F6761747492
:1016D0005F636C745F646973635F616C6C5F6368A4
:1016E00061725F6F665F73657276696365206661BC
:1016F000696C2C20737461747573203078253032D6
:10170000580A0A000A446973636F76657220616C37
:101710006C20436861726163746572697374696394
:10172000732044657363726970746F7273205B30E9
:101730007825303458202D203078253034585D0AF3
:10174000000000006163695F676174745F636C74BB
:101750005F646973635F616C6C5F636861725F642F
:10176000657363206661696C2C2073746174757392
:10177000203078253032580A0A0000000A456E6190
:10178000626C65206E6F74696669636174696F6EFF
:1017900073206F6E20454350202868616E646C652D
:1017A00020307825303458290A0000004E6F7469C3
:1017B0006669636174696F6E7320656E61626C65E2
:1017C00064207375636365737366756C6C790A0066
:1017D000456E61626C696E67206E6F7469666963DD
:1017E0006174696F6E73206661696C65642C207327
:1017F0007461747573203078253032582C206761FD
:101800007474206572726F7220636F64653D307806
:10181000253032580A0000002050726F63656475ED
:10182000726520636F6D706C65746520636F6465AD
:101830003A20307825303278200A000020204D549C
:10184000552065786368616E6765642073697A65A1
:10185000203D2025640A00002020474154542045A3
:1018600072726F7220526573706F6E736520636F52
:1018700064653A20307825303278200A0000000074
:10188000202047415454205265616420426C6F62AD
:1018900020526573706F6E7365206C656E67687437
:1018A0003A20307825303278200A000055554944D6
:1018B0003D3078253034582C2068616E646C65208A
:1018C0005B307825303458202D203078253034583E
:1018D0005D0000002C204741505F5345525649435C
:1018E000455F5555494420666F756E640A000000D7
:1018F0002C2047454E455249435F4154545249427A
:101900005554455F534552564943455F55554944E3
:1019100020666F756E640A002C2045534C5F53455A
:1019200052564943455F5555494420666F756E646C
:101930000A0000004143495F4154545F524541440D
:101940005F42595F47524F55505F545950455F525F
:101950004553505F56534556545F434F44452C20E2
:101960006661696C6564206E6F20667265652069CA
:101970006E64657820696E20636F6E6E656374694E
:101980006F6E207461626C6520210A004143495FDB
:101990004154545F46494E445F42595F5459504543
:1019A0005F56414C55455F524553505F565345561F
:1019B000545F434F4445202D20436F6E6E48646C46
:1019C0003D3078253034582C204E756D5F6F665F42
:1019D00048616E646C655F506169723D25640A0000
:1019E0004143495F4154545F46494E445F42595F09
:1019F000545950455F56414C55455F524553505FD1
:101A000056534556545F434F4445202D205061693D
:101A10007449643D256420466F756E645F4174743B
:101A20007269627574655F48616E646C653D30789B
:101A3000253034582C2047726F75705F456E645F97
:101A400048616E646C653D3078253034580A00007A
:101A5000555549443D3078253034582C2050726F0C
:101A6000706572746965733D3078253034582C2068
:101A70004368617248616E646C65205B3078253024
:101A80003458202D203078253034585D0000000077
:101A90002C20474150204445564943455F4E414D17
:101AA000452063686172616320666F756E640A0029
:101AB0002C2047415020415050454152414E434512
:101AC0002063686172616320666F756E640A00004E
:101AD0002C204741545420534552564943455F43B7
:101AE00048414E4745445F43484152414354455263
:101AF00049535449435F55554944206368617261B5
:101B00006320666F756E640A000000002C20455348
:101B10004C5F434F4E54524F4C5F504F494E545FB1
:101B2000555549442063686172616320666F756E24
:101B3000640A00002C2045534C5F414444524553F5
:101B4000535F555549442063686172616320666F35
:101B5000756E640A000000002C2041505F53594EFE
:101B6000435F4B45595F4D4154455249414C5F5588
:101B70005549442063686172616320666F756E64C5
:101B80000A0000002C2045534C5F524553505F4BD8
:101B900045595F4D4154455249414C5F5555494463
:101BA0002063686172616320666F756E640A00006D
:101BB0002C2045534C5F435552525F4142535F5472
:101BC000494D455F55554944206368617261632002
:101BD000666F756E640A00002C2045534C5F4449C3
:101BE00053504C41595F494E464F5F55554944202B
:101BF00063686172616320666F756E640A0000003D
:101C00002C2045534C5F494D4147455F494E464F57
:101C10005F555549442063686172616320666F7542
:101C20006E640A002C2045534C5F53454E534F526F
:101C30005F494E464F5F5555494420636861726164
:101C40006320666F756E640A000000002C20455307
:101C50004C5F4C45445F494E464F5F5555494420C3
:101C600063686172616320666F756E640A000000CC
:101C70004143495F4154545F524541445F42595F7B
:101C8000545950455F524553505F56534556545F23
:101C9000434F44452C206661696C65642068616E21
:101CA000646C65206E6F7420666F756E6420696E5B
:101CB00020636F6E6E656374696F6E207461626C11
:101CC0006520210A00000000446573637269707426
:101CD0006F7220555549443D3078253034582C20BA
:101CE00068616E646C653D307825303458000000C2
:101CF0002C2053657276696365204368616E676561
:101D000064204343434420666F756E640A000000FC
:101D10002C2045534C20436F6E74726F6C20506FB3
:101D2000696E74204343434420666F756E643A20A5
:101D300068616E646C653D3078253034580A000067
:101D40004143495F4154545F46494E445F494E46C2
:101D50004F5F524553505F56534556545F434F446F
:101D6000452C206661696C65642068616E646C65F1
:101D7000206E6F7420666F756E6420696E20636FCD
:101D80006E6E656374696F6E207461626C6520218C
:101D90000A0000002020496E636F6D696E67204E57
:101DA0006F66696669636174696F6E2066726F6DD4
:101DB000204543500A0000004143495F47415454C5
:101DC0005F4E4F54494649434154494F4E5F565325
:101DD0004556545F434F44452C206661696C6564E9
:101DE0002068616E646C65206E6F7420666F756E1E
:101DF0006420696E20636F6E6E656374696F6E2018
:101E00007461626C6520210A000000006163695FF3
:101E1000676174745F636C745F65786368616E6733
:101E2000655F636F6E666967206661696C75726570
:101E30003A20726561736F6E3D3078253032580AF2
:101E4000000000003D3D3E3E206163695F676174B4
:101E5000745F636C745F65786368616E67655F6308
:101E60006F6E666967203A20537563636573730A02
:101E700000000000212121204572726F7220746FD2
:101E800020696E736572742065736C20696E746F5F
:101E9000206C6973743A206E6F20636F6E66696799
:101EA0002076616C7565202121210A005468652027
:101EB00045534C2064657669636520697320616CC5
:101EC00072656164792070726573656E7420696EE5
:101ED00020626F6E64656420646576696365206C5A
:101EE000697374210A0000002121212045534C5FB1
:101EF00041505F52656D6F76655F45534C5F66720A
:101F00006F6D5F4C6973740A000000004C69737454
:101F1000206F662045534C20626F6E6465642064B8
:101F200065766963653A200A0000000050656572B5
:101F300020416464726573733A2000002530325882
:101F4000000000002C2053746174653A2025642C35
:101F50002045534C20416464726573733A202530E8
:101F600034580A004E6F64652077697468205065A4
:101F7000657220616464726573732000206E6F74F3
:101F80002070726573656E7420696E2045534C2015
:101F9000626F6E646564206C6973742E0A000000C1
:101FA0004E6F646520776974682045534C206164E6
:101FB00064726573732025303458206E6F74206608
:101FC0006F756E642E0A00004E6F64652077697429
:101FD0006820436F6E6E656374696F6E2048616E32
:101FE000646C652025303458206E6F7420666F75E0
:101FF0006E642E0A0000000045534C204E6F64654D
:1020000020557064617465642E0A0000577269740B
:10201000696E672045534C20416464726573732078
:1020200028307825303458290A000000204661699C
:102030006C65642C20636F6E6E48646C3D3078254F
:102040003034582C2056616C756548646C3D30788E
:10205000253034580A00000057726974696E672091
:1020600041502053796E63204D6174657269616CD3
:102070000A00000057726974696E672052657370B8
:102080006F6E7365204B6579204D6174657269616F
:102090006C0A000057726974696E67204162736F41
:1020A0006C7574652074696D6520282564290A00A3
:1020B00053656E64696E6720557064617465204372
:1020C0006F6D706C6574650A000000005570646186
:1020D000746520436F6D706C65746520636F6D6D02
:1020E000616E64206661696C65643A2030782530E1
:1020F0003258200A00000000557064617465204366
:102100006F6D706C65746520636F6D6D616E6420BA
:1021100073756363657373212028436F6E66696707
:102120007572696E6720737461746529200A0000F6
:1021300057726974696E67204543500A00000000B9
:102140002050726F636564757265206661696C65A5
:1021500064207769746820676174745F6572726F58
:10216000725F636F6465203D203078253032580AF5
:10217000000000004E65772045534C5F6164647237
:10218000657373206163695F676174745F636C7406
:102190005F7772697465206661696C65642C206381
:1021A0006F6E6E48646C3D3078253034582C205664
:1021B000616C756548646C3D3078253034580A0090
:1021C0004E65772045534C5F61646472657373207C
:1021D000307825303458206163695F676174745FBB
:1021E000636C745F7772697465207375636365737C
:1021F000732C20636F6E6E48646C3D3078253034EC
:10220000582C2056616C756548646C3D30782530DB
:1022100034580A0055706461746520436F6D706CAA
:1022200065746520636F6D6D616E642073756363A3
:102230006573732120285265636F6E6620636F6D2E
:102240006D616E6429200A004543502070726F63EF
:102250006564757265206661696C65640A000000DA
:10226000556E6173736F6369617465642053746143
:102270007465207472616E736974696F6E20666F25
:1022800072206C696E6B206C6F73730A2000000003
:102290005573796E6368726F6E697A6564205374E2
:1022A000617465207472616E736974696F6E206603
:1022B0006F72206C696E6B206C6F73730A20000064
:1022C0005570646174696E6720537461746520741D
:1022D00072616E736974696F6E2066726F6D2055DE
:1022E0006E73796E6368726F6E697A656420737459
:1022F0006174650A200000000A5265616420446927
:1023000073706C617920496E666F726D6174696F6C
:102310006E0A00000A5265616420496D616765209C
:10232000496E666F726D6174696F6E0A000000001D
:102330000A526561642053656E736F7220496E6640
:102340006F726D6174696F6E0A0000000A526561F8
:1023500064204C454420496E666F726D6174696FEC
:102360006E0A0000436C6561722053656375726983
:102370007479204442210A006163695F6761747463
:102380005F636C745F72656164206661696C65642B
:102390002C20636F6E6E48646C3D30782530345865
:1023A0002C2056616C756548646C3D30782530345E
:1023B000580A00006163695F676174745F636C74DD
:1023C0005F726561642C20636F6E6E48646C3D3093
:1023D00078253034582C2056616C756548646C3D06
:1023E0003078253034580A0045534C5F41505F52D5
:1023F0006561645F496E666F5F4368617273210A4D
:10240000000000006163695F676174745F636C74EE
:102410005F726561645F6C6F6E67206661696C6591
:10242000642C20636F6E6E48646C3D3078253034C8
:10243000582C2056616C756548646C3D30782530A9
:1024400034580A006163695F676174745F636C7418
:102450005F726561645F6C6F6E672C20636F6E6E78
:1024600048646C3D3078253034582C2056616C75AA
:102470006548646C3D3078253034580A000000000F
:102480000000FFFF00000000040000008024041092
:102490000000000005000000AC0E0020000000005D
:1024A00001000000B612051001000000030000004A
:1024B000C00E002020000000FB349B5F80000080E5
:1024C00000100000052A00001000000001000000BC
:1024D00008040020842404100A000000FB349B5FE1
:1024E0008000008000100000292B00001000000078
:1024F0000000000000000000902404100200000012
:10250000FB349B5F80000080001000002A2B00003D
:1025100010000000000000000000000000000000AB
:1025200002000000FB349B5F800000800010000070
:102530003A2B000010000000000000000000000026
:102540009C24041096C298D84539A1F4A033EB2DF1
:10255000817D0377F240A463E5E6BCF847422CE1B5
:10256000F2D1176BF551BF376840B6CBCE5E316BF9
:102570005733CE2B169E0F7C4AEBE78E9B7F1AFEBD
:10258000E242E34F000100000000000000010000F3
:102590000000000000010000000000000100000039
:1025A00000000000FFFFFFFFFFFFFFFFFFFFFFFF37
:1025B000000000000000000000000000010000001A
:1025C000FFFFFFFF02000000050000000300000005
:1025D000FEFFFFFFF9FFFFFFFBFFFFFFFCFFFFFF19
:1025E000FCFFFFFF030000000000000000000000EF
:1025F00000000000000000000000000000000000DB
:10260000000000004B60D2273E3CCE3BF6B053CCDE
:10261000B0061D65BC86987655BDEBB3E7933AAA24
:10262000D835C65A0000000000F00B10000800006A
:10263000AA02000000F80B10F807010000000000DB
:1026400096C298D84539A1F4A033EB2D817D03774C
:10265000F240A463E5E6BCF847422CE1F2D1176BE7
:10266000F551BF376840B6CBCE5E316B5733CE2BBA
:10267000169E0F7C4AEBE78E9B7F1AFEE242E34FE9
:10268000CAEBECEDEFF0F1F2F3F4F5F6F7F8F9FA46
:10269000FAFCFDFDFEFEFFFF00000102030405063B
:1026A000CAEBECEDEFF0F1F2F3F4F5F6F7F8F9FA26
:1026B000FAFCFDFDFEFEFFFF00000102030405061B
:1026C00008000000040302020101010100000000F3
:1026D00000000000010002000400060008000A00DB
:1026E0000C001000200040008000000101010103E7
:1026F000070100000804020408010101526573701B
:102700006F6E73652066726F6D2045534C202825CF
:10271000642C202564293A20000000003078253000
:10272000325820002B53544154453A253032582C0E
:10273000253032582C25642C25640D0A0000000039
:102740002B4C45443A253032582C253032582C2514
:10275000640D0A002B5458543A253032582C253039
:1027600032582C25640D0A002B50524943453A2516
:102770003032582C253032582C25640D0A000000C8
:102780002B53454E533A253032582C253032582C95
:1027900025642C25640D0A002B444953503A2530FA
:1027A00032582C253032582C25642C25642C256475
:1027B0000D0A000041542B50494E473D00000000D7
:1027C00025782C257800000041542B554E41535359
:1027D0004F433D0041542B5352565253543D000039
:1027E00041542B465253543D0000000041542B5598
:1027F0005044434D503D000041542B53454E533DF2
:102800000000000041542B524546524553483D00BC
:1028100025782C25782C25750000000041542B4983
:102820004D473D0025782C25782C25752C257500E5
:1028300041542B494D4754494D3D000025782C25E6
:10284000782C25752C25752C2575000041542B4CB2
:1028500045443D0025782C25782C25782C25782C8E
:10286000256C6C782C25782C25782C257800000098
:1028700041542B4C454454494D3D000025782C25AE
:10288000782C25782C25782C256C6C782C25782CA8
:1028900025782C25782C25750000000041542B54F8
:1028A00058543D0025782C25782C255B5E090D0AAF
:1028B0005D00000041542B50524943453D0000004B
:1028C00025782C25782C25752E25750041542B5202
:1028D00045434F4E463D000025782C25782C257821
:1028E0002C25780041542B434F4E4E3D00000000F4
:1028F00041542B494E464F0041542B444953504CB0
:102900004159494E464F000041542B53454E534FB9
:1029100052494E464F00000041542B4C4544494E0D
:10292000464F000041542B434C5253434442000055
:1029300041542B41425354494D453F002B41425392
:1029400054494D453A2025640A00000041542B4863
:10295000454C50005374616E646172642045534C61
:1029600020636F6D6D616E64733A200A0000000091
:1029700020202D2041542B50494E473D3C67726F1B
:1029800075705F69643E2C3C65736C5F69643E3AA8
:102990002050696E670A000020202D2041542B55DD
:1029A0004E4153534F433D3C67726F75705F69648E
:1029B0003E2C3C65736C5F69643E3A20556E6173D2
:1029C000736F63696174652066726F6D204150207A
:1029D0000A00000020202D2041542B535256525300
:1029E000543D3C67726F75705F69643E2C3C657343
:1029F0006C5F69643E3A2053657276696365205264
:102A000065736574200A000020202D2041542B4658
:102A10005253543D3C67726F75705F69643E2C3C45
:102A200065736C5F69643E3A20466163746F7279C6
:102A3000205265736574200A0000000020202D20BC
:102A400041542B555044434D503D3C67726F757057
:102A50005F69643E2C3C65736C5F69643E3A205547
:102A6000706461746520436F6D706C657465200AD5
:102A70000000000020202D2041542B53454E533D93
:102A80003C67726F75705F69643E2C3C65736C5F68
:102A900069643E2C3C73656E736F725F696E64652A
:102AA000783E3A20526561642053656E736F7220E0
:102AB00044617461200A000020202D2041542B52D3
:102AC0004546524553483D3C67726F75705F696477
:102AD0003E2C3C65736C5F69643E2C3C646973708A
:102AE0006C61795F696E6465783E3A205265667202
:102AF00065736820446973706C6179200A00000076
:102B000020202D2041542B494D473D3C67726F7565
:102B1000705F69643E2C3C65736C5F69643E2C3C5D
:102B2000646973706C61795F696E6465783E2C3C92
:102B3000696D6167655F696E6465783E3A204469D6
:102B400073706C617920496D616765200A0000002F
:102B500020202D2041542B494D4754494D3D3C6781
:102B6000726F75705F69643E2C3C65736C5F69645D
:102B70003E2C3C646973706C61795F696E64657842
:102B80003E2C3C696D6167655F696E6465783E2CBB
:102B90003C6162736F6C7574655F74696D653E3A14
:102BA00020446973706C61792054696D65642049B3
:102BB0006D616765200A000020202D2041542B4CB8
:102BC00045443D3C67726F75705F69643E2C3C659F
:102BD000736C5F69643E2C3C6C65645F696E646510
:102BE000783E2C3C6C65645F636F6D706F6E656ED4
:102BF000743E2C3C7061747465726E3E2C3C6F6642
:102C0000665F706572696F643E2C3C6F6E5F7065C5
:102C100072696F643E2C3C7265706561743E3A2047
:102C20004C454420436F6E74726F6C200A000000A4
:102C300020202D2041542B4C454454494D3D3C67A8
:102C4000726F75705F69643E2C3C65736C5F69647C
:102C50003E2C3C6C65645F696E6465783E2C3C6C10
:102C600065645F636F6D706F6E656E743E2C3C7053
:102C700061747465726E3E2C3C6F66665F7065723F
:102C8000696F643E2C3C6F6E5F706572696F643E65
:102C90002C3C7265706561743E2C3C6162736F6C94
:102CA0007574655F74696D653E3A204C45442054E7
:102CB000696D656420436F6E74726F6C200A00004A
:102CC0000A50726F70726965746172792045534C55
:102CD00020636F6D6D616E64733A200A000000001E
:102CE00020202D2041542B5458543D3C67726F7561
:102CF000705F69643E2C3C65736C5F69643E2C3C7C
:102D0000746578743E3A2053657420746578740A4B
:102D100020202D203C746578743E2063616E206213
:102D200065206120737472696E672077697468200A
:102D30006D6178696D756D203135206368617261F0
:102D400063746572730A000020202D2041542B50BB
:102D5000524943453D3C67726F75705F69643E2C14
:102D60003C65736C5F69643E2C3C76616C5F696E98
:102D7000743E2C3C76616C5F66726163743E3A20EF
:102D8000536574207072696365200A000A436F6D91
:102D90006D616E647320666F722073706563696124
:102DA0006C206F7065726174696F6E7320616E6400
:102DB00020666F72207465737473200A000000002F
:102DC00020202D2041542B5245434F4E463D3C6719
:102DD000726F75705F69643E2C3C65736C5F6964EB
:102DE0003E2C3C6E65775F67726F75705F69643EFD
:102DF0002C3C6E65775F65736C5F69643E3A205268
:102E000065636F6E66696775726520616E204553F4
:102E10004C20776974682061206E65772061646456
:102E200072657373200A000020202D2041542B432B
:102E30004F4E4E3D3C67726F75705F69643E2C3C2F
:102E400065736C5F69643E3A20436F6E6E656374B0
:102E500020746F20616E2045534C202845534C2030
:102E6000656E74657273202A7570646174696E672B
:102E70002073746174652A29200A000020202D2007
:102E800041542B494E464F3A205265616420616C93
:102E90006C2074686520496E666F726D6174696F2D
:102EA0006E204368617261637465726973746963EB
:102EB000732066726F6D2074686520636F6E6E6537
:102EC000637465642045534C200A000020202D20A7
:102ED00041542B444953504C4159494E464F3A2096
:102EE000526561642074686520446973706C61790F
:102EF00020496E666F726D6174696F6E2043686100
:102F000072616374657269737469632066726F6D50
:102F10002074686520636F6E6E6563746564204518
:102F2000534C200A0000000020202D2041542B5338
:102F3000454E534F52494E464F3A205265616420E8
:102F40007468652053656E736F7220496E666F7288
:102F50006D6174696F6E204368617261637465723C
:102F600069737469632066726F6D2074686520638D
:102F70006F6E6E65637465642045534C200A0000D3
:102F800020202D2041542B4C4544494E464F3A2099
:102F90005265616420746865204C454420496E6622
:102FA0006F726D6174696F6E2043686172616374E2
:102FB000657269737469632066726F6D20746865E9
:102FC00020636F6E6E65637465642045534C200A00
:102FD0000000000020202D2041542B434C5253432D
:102FE00044423A20436C65617220746865207365C1
:102FF000637572697479206462200A0020202D2094
:1030000041542B41425354494D453F3A205265614A
:10301000642063757272656E74206162736F6C7583
:1030200074652074696D650A0000000020202D2061
:1030300041542B48454C503A204C697374206F66BC
:1030400020415420636F6D6D616E6473200A00002F
:103050004F4B0D0A000000004552524F520D0A001E
:10306000686A6C747A4C00007072696E74665F7383
:103070003A20256E20646973616C6C6F776564001B
:103080007072696E74663A2062616420256E2061F8
:103090007267756D656E74007072696E74665F73C9
:1030A0003A2062616420257320617267756D656ED8
:1030B00074000000000000006E616E004E414E0082
:1030C000696E6600494E460030002E007363616EE3
:1030D000665F733A206261642025632C2025732C7F
:1030E000206F7220255B20617267756D656E7400BC
:1030F0007363616E665F733A2062616420666C6F11
:103100006174696E672D706F696E74206172677586
:103110006D656E7400000000686A6C747A4C000083
:1031200063436E5B000000007363616E665F733A19
:103130002062616420256E20617267756D656E7412
:103140000000000000004129211C19171615141356
:1031500012121111111010100F0F0F0F0E0E0E0E74
:103160000E0E0E0D0D0D0D0D0D0000003031323321
:103170003435363738396162636465666768696A11
:103180006B6C6D6E6F707172737475767778797A17
:1031900000000000FB349B5F8000008000100000F6
:1031A000292B000010000000FB349B5F8000008092
:1031B00000100000052A00001000000002000000BE
:1031C00003000000030000000600000003000000F0
:1031D000030000003C0000007000000070000000D0
:1031E000D003000070000000C3010000F181061050
:1031F00043010510E30205107B0805100F060510BA
:10320000434C0410E94C0410E5530410F35304102C
:10321000015404100F5404101D5404101D8A06108C
:10322000955304106F530410A35304104712051054
:10323000254D041007520410854E041047FF04105A
:10324000174D041055860610C7F2061019F0061027
:10325000C7F40610D9F60610D9F60610EFF70610D7
:10326000C7F40610C9F90610C9F90610C9F9061005
:10327000CBF30610D3EF061097EF0610EFF706100A
:10328000F74C0410074D04106DFD061075FD061077
:1032900071FD06104B4D04105B4D04106B4D041076
:1032A0007B4D0410CB4D04109B4D0410AB4D04100E
:1032B000BB4D04108B4D041035FD0610DB4D041082
:1032C000EB4D0410FB4D04100B4E041000B5BFF382
:1032D0004F8F9E489E490860BFF34F8F00BFFDE7A8
:1032E00080B501F03BF801F0FBF80021C9438842AA
:1032F00001D101F01FFA01BDF8B598B00020694670
:103300000873062501950020009007AC009A0199EA
:10331000200001F017FA2800694608740020694669
:10332000C8810BA88B49342201F044FA0BA801F0A4
:1033300077FA07003800C0B2002806D03900C9B2B9
:10334000854801F0A3FA01F0F5F907ACAD20207033
:10335000AB206070AA20A070E120E0708020207176
:103360000220607107AA0621002001F0A3FA0600DE
:103370003000C0B2002805D03100C9B2774801F052
:1033800085FA02E0764801F081FA1821002001F068
:1033900095FA07003800C0B2002805D03900C9B23C
:1033A000704801F073FA02E06F4801F06FFA06A965
:1033B000012001F087FA06003000C0B2002805D0D5
:1033C0003100C9B2A94801F061FA02E0A84801F051
:1033D0005DFA002005436846457300216846007B7E
:1033E00001F0CCFA05002800C0B2002805D0290061
:1033F000C9B2A04801F04AFA02E09F4801F046FA3B
:1034000004A8801C009005AB05AA921C6846017BAD
:103410006846407B01F0BAFA060020780290607896
:103420000190A0780090E37822796179934801F0C7
:103430002DFA934A0521002001F0F1FA0400200042
:10344000C0B2002805D02100C9B28E4801F01EFA92
:1034500002E08D4801F01AFA03AA921C0221002012
:1034600001F0F0FA06003000C0B2002805D03100AB
:10347000C9B2864801F00AFA02E0854801F006FA6E
:10348000844C012528002070207802F047F80700BE
:103490003800C0B2002805D03900C9B27E4801F01A
:1034A000F5F902E07D4801F0F1F92800607008208C
:1034B000E07010202071A57000200290207901900A
:1034C000E0780090002302226178A07802F02DF8C5
:1034D00005002800C0B2002805D02900C9B27048F4
:1034E00001F0D4F902E06F4801F0D0F9A07800288B
:1034F00010D0012002F046F905002800C0B20028D3
:1035000005D02900C9B2684801F0C0F902E0674857
:1035100001F0BCF909A866490CC90CC00839083883
:1035200009A802F03FF904002000C0B2002805D02D
:103530002100C9B25F4801F0A9F902E05E4801F03C
:10354000A5F95E4801F0A2F919B0F0BD0400FA0532
:103550000CED00E0CC130410080104102C01041041
:1035600088010410D40104101402041080B5012154
:10357000012002F0F2F901BD80B5012002F076FAD7
:1035800002F077FA012002F072FA01BD80B502F074
:1035900081FB01BD80B50021022002F0DEF901BDF2
:1035A00080B504F0A0F801BD80B50121042002F02F
:1035B000D4F901BD80B5FFF7EDFF01BD10B50400E2
:1035C000200004F0E1F8FFF7E5FFFFF7EDFF10BD85
:1035D00080B500218020400102F0BFF901BD80B517
:1035E000FFF7C4FF01BD10B5354A0021012002F0EC
:1035F000A4F9344A0021022002F09FF9324A002146
:10360000042002F09AF9FFF76BFEFFF775FE04F055
:1036100067F92E4A00218020400102F08EF98024B3
:10362000A4002B4A0021200002F087F9294A00213A
:103630008020C00002F081F9274A0021802000018B
:1036400002F07BF9254A00218020800102F075F903
:1036500005F004FE05F06CF800F0AAFC002000F074
:1036600047FE0021200002F078F910BD440204104A
:1036700084020410B4020410E80204100C030410C5
:10368000C4130410480304108C030410C003041076
:1036900004040410300E00203804041078040410D0
:1036A000A8040410F0040410280504108005041078
:1036B000C8050410D00504101006041040060410BC
:1036C000793504108D350410A1350410755E06108F
:1036D000D1400410B1410410E9410410599D041077
:1036E000F1B58AB08620694608750A9800780428E2
:1036F00004D00A980078822800D021E30A98401C60
:1037000008900A980078042803D10898801C099032
:1037100003E00A98401CC01C09900898007805280E
:1037200008D0102800D1F7E23E2833D0FF2800D17E
:10373000B6E100E30898841C6178A0780006000CCC
:103740000143D348828989B2914220D1D1498181F4
:1037500000218173D04801F099F86178A0780006C3
:10376000000C0143E27889B2CC4801F08FF8607810
:10377000A1780906090C084380B205F0FFFB082078
:1037800002F0FDF800218020800002F0E6F800F051
:1037900005FCD5E20898801C069006980078012860
:1037A00000D103E1022800D128E1032815D0042824
:1037B00000D129E10A2800D1A8E00C2800D1A0E01E
:1037C0000D2800D11DE1272800D133E1282800D1A0
:1037D0003FE1292800D1C1E054E10698441CC648C5
:1037E00001F054F8E07821790906090C084380B209
:1037F00006F004FB0022C14B06F01AFB00228023D6
:103800005B0306F0D7FB2BD8E07821790906090C79
:103810000843E57821790906090C0D4380B206F0CA
:10382000EDFA0022B54B06F003FB06000F00ADB227
:10383000280006F0E3FA0022B04B06F0F9FA06F091
:10384000D3FB06F0EBFA02000B003000390006F063
:1038500057FC0022D54B06F0EBFA06F0C5FB28E03A
:10386000E07821790906090C0843E57821790906F1
:10387000090C0D4380B206F0C1FA00229F4B06F0FE
:10388000D7FA06F0B1FB06F0C9FA06000F00ADB298
:10389000280006F0B3FA0022D14B06F0C9FA320034
:1038A0003B0006F0CAFB0022C04B06F0C1FA06F04E
:1038B0009BFBE279217A0906090C0A436379A17915
:1038C0000906090C0B43E17825792D062D0C2943B7
:1038D00092B20A25554300959BB2020016001D00C6
:1038E000080080B206F08AFA0022844B06F0A0FAA3
:1038F00006F07AFB01002B003200CF4800F0C6FF33
:10390000C5E00698441C00F049FBC0E00698441C42
:10391000CA4800F0BBFFE07E217F0906090C08437E
:10392000627EA17E0906090C0A43E37D217E090619
:10393000090C0B436178A5782D062D0C294380B224
:10394000039092B202929BB20193601D0090237982
:10395000E27889B2207800F017FA98E00698441CC3
:10396000BE4800F093FFE07E217F0906090C084362
:10397000627EA17E0906090C0A43E37D217E0906C9
:10398000090C0B436178A5782D062D0C294380B2D4
:10399000039092B202929BB20193601D0090237932
:1039A000E27889B2207800F0EFF970E00698441CC4
:1039B000AB4800F06BFFE07B217C0906090C084353
:1039C000627BA17B0906090C0A43E37A217B090685
:1039D000090C0B436178A5782D062D0C294380B284
:1039E000039092B202929BB20193601D00902379E2
:1039F000E27889B2207800F0C7F948E00698401CC8
:103A000045E00698401C42E00698441CC14800F07E
:103A10003DFF0025082D06DA6019C178C94800F07D
:103A200035FF6D1CF6E7C8A000F030FF082001F05C
:103A3000A6FF2CE00698441C65786078A1784018B1
:103A4000854205DA2800C0B206F007F86D1CF4E7DD
:103A50001DE00698461CBD4800F018FF341D0025E7
:103A6000F07885420DDAA31D6279E178707806F06E
:103A7000ABF86079062148432018040024346D1CFB
:103A8000EEE704E006980178B14800F0FFFE57E148
:103A9000300E0020FFFF00005C06041088060410B2
:103AA00009980790079908784A781206120C104373
:103AB00080B2001F74D0801E00D115E1A549401AC4
:103AC00000D1BDE0401E73D0401F56D0801E00D1F3
:103AD00088E0401E65D0FE218900401A10D09E4922
:103AE000401A012800D808E1001F00D105E109387B
:103AF00000D102E102E100BFC80604100000F43F5B
:103B00000798851C0124EB7A287B0006000C0343F0
:103B1000697AA87A0006000C01436846C182EA79F6
:103B2000287A0006000C02436979A8790006000C87
:103B3000014328786E783606360C30432600F6B2FC
:103B40000496AE78039610260296102601969BB234
:103B500000936B46DB8A92B289B280B201F0A6FD77
:103B600006003000C0B2002803D07C4800F08EFE72
:103B700002E07B4800F08AFECAE07A4800F086FE48
:103B80000798841C2078012809D16078002806D184
:103B9000754800F07BFE0021802001F0DEFEB7E0DA
:103BA000B6E0724800F072FEB2E000BF000059407B
:103BB0006F4800F06BFE6F496F48808901F0DBFCB5
:103BC000694608756846007D002805D06846017D75
:103BD0006A4800F05BFE02E0694800F057FE97E09B
:103BE0000000F4BF674800F051FE0798001D06F082
:103BF000FFFA0100BE4800F049FE0798001D06F0DC
:103C0000F7FA0100BB4800F041FE01242100C9B2CF
:103C10005948808901F0B8FC694608756846007DFE
:103C2000002805D06846017DB34800F02FFE02E071
:103C3000B24800F02BFE6BE0FC0604106C07041089
:103C4000AF4800F023FE0798861CB078002809D002
:103C5000F278B178AB4800F019FE06E0A007041036
:103C6000D4070410A84800F011FE37A000F00EFEA3
:103C7000B07800281AD14049C87C0002C024A400B2
:103C80000440887C0443307872781206120C10438A
:103C900023009BB24A7C123180B204F0A1FD0028BF
:103CA00019D00021082001F058FE14E0B078042853
:103CB00011D1314C27001237617C380004F03EFEF0
:103CC0000500002D03D0280004F0F4FD03E03900C6
:103CD000607C01F067FCB078002804D013212648EE
:103CE000808901F0A2FB13E00798841C2178A14889
:103CF00000F0CCFDFFF7EAFA0AE009E00798017846
:103D000042781206120C114389B29B4800F0BEFDA6
:103D100016E000BFFC0704100898841C217897481F
:103D200000F0B4FD2078042804DA052006F06CFACF
:103D3000FFF7CCFA04E008980178914800F0A6FD5E
:103D40000BB0F0BD0C0804100A00000014080410A9
:103D500044080410FB030000010400006008041084
:103D6000A0080410E0080410080904103409041025
:103D70006409041007B20100300E00208C09041001
:103D8000C0090410E8090410FFB583B00C9C0D9E17
:103D90006846018A7B4800F079FD207802906078BF
:103DA0000190A0780090E37822796179764800F05C
:103DB0006DFD300080B206F021F80022734B06F052
:103DC00037F8002280235B0306F0F4F822D8300095
:103DD00080B206F013F800226C4B06F029F8009030
:103DE0000191300080B206F009F80022674B06F01E
:103DF0001FF806F0F9F806F011F802000B00009821
:103E0000019906F07DF90022614B06F011F806F0E9
:103E1000EBF81FE0300080B205F0F0FF00225B4BB2
:103E200006F006F806F0E0F805F0F8FF00900191C2
:103E3000300080B205F0E2FF0022564B05F0F8FF9B
:103E4000009A019B06F0F9F80022514B05F0F0FFB3
:103E500006F0CAF86946097B01916946898F0A22F2
:103E60004A43009269460B8F020017001D00300084
:103E700080B205F0C3FF0022444B05F0D9FF06F0E5
:103E8000B3F801002B003A00434800F0FFFC6846FD
:103E9000007B00282AD18A4DA87B012802D103206B
:103EA000A87301E00220A8736846008AA8816846CA
:103EB000018A002003F04BFD05F0A0F900218020CD
:103EC000000101F04AFD6846007E687406270094F0
:103ED00012353A000099280000F086FC002005F019
:103EE0003DF86846017E200005F066F807B0F0BD99
:103EF0001C0A0410380A0410500A04109C0A04100A
:103F0000DC0A0410080B0410480B041038B5050037
:103F10002800C0B2012802D0022816D028E01321C0
:103F20006748808901F081FA04002000C0B20028AF
:103F300005D02100C9B2634800F0A8FC04E0624843
:103F400000F0A4FC00F02FF812E05D48808901F039
:103F50004DFB04002000C0B2002805D02100C9B2EA
:103F60005A4800F093FC02E08F4800F08FFCFFE716
:103F700031BD0000600B0410800B0410980B04107E
:103F8000B80B0410CC0B0410100C04100000F43F0C
:103F9000000059400000F4BF540C041080B501200B
:103FA00001F0EDFC01BD80B5012001F00BFD01BD6C
:103FB00030B58DB0C823DB0000200A9000200990A6
:103FC0000120089000200790012006900020059015
:103FD0000020049000200390002002900720019010
:103FE000009300220021002006F024F9050028009B
:103FF000C0B2002805D02900C9B2974800F046FC9D
:1040000002E0964800F042FCF022520008200490A2
:10401000042003902820029050200190042000905A
:1040200000231100002001F07FFB04002000C0B23B
:10403000002805D02100C9B2AC4800F027FC02E0FE
:10404000AD4800F023FC0021012001F063FB0500D6
:104050002800C0B2002805D02900C9B2A94800F044
:1040600015FC02E0A84800F011FC00200BA902009A
:104070000A7002004A8008710BAA0121012001F098
:104080003DFB04002000C0B2002805D02100C9B2C9
:104090009E4800F0FBFB02E09D4800F0F7FB0BAAF6
:1040A0000121002001F02AFB05002800C0B20028F1
:1040B00004D02900C9B2954800F0E8FB0DB030BD2E
:1040C000300E0020D80C0410040D0410280D04102C
:1040D0003EB5904B09220121012006F0E0F80400D2
:1040E0002000C0B2002807D02100C9B28A4800F0E1
:1040F000CDFB00F01FFB02E0884800F0C7FBA020CA
:104100000190A0200090002301220121012001F054
:1041100096F905002800C0B2002807D02900C9B2CE
:10412000224800F0B3FB00F005FB02E02C4800F051
:10413000ADFB02200290022001903220009000236B
:1041400028222821012001F090F904002000C0B2AB
:10415000002805D12100C9B2714800F097FB06E0A4
:104160002100C9B26F4800F091FB00F0E3FA002390
:1041700000220121022001F091F905002800C0B2BF
:1041800000280AD02900C9B2164800F07FFB0020A1
:104190006549887300F0CEFA05E0644800F076FBCC
:1041A00001206149887337BD600D0410900D041023
:1041B00038B55D4C00220021A08901F0D6FA050037
:1041C0002800C0B2002806D0A2892900C9B25848E8
:1041D00000F05CFB02E0574800F058FB31BD0000E6
:1041E000C80D0410F80D041038B5082001F0D6FBF6
:1041F0004D4CA08901F07BFA05002900C9B24E4858
:1042000000F044FB2800C0B23A2805D100218020EC
:10421000000101F0A2FB1DE02800C0B2002803D07D
:104220000120FFF773FE15E0082001F0CBFB002210
:104230000221A08901F092F904002000C0B20028F8
:1042400005D02100C9B23D4800F020FB02E03C4807
:1042500000F01CFB31BD0000280E04106C0E041091
:10426000F8B588B007000C0016002078029060783E
:104270000190A0780090E37822796179314800F0CC
:1042800005FB32222821304800F000FB022001F01B
:1042900015F9FFF788FE02200790022006903220D1
:1042A000059000200490282003902820029001947B
:1042B0003000C0B20090002300223900C9B20020B3
:1042C00001F003F905002800C0B2002805D029003C
:1042D000C9B21E4800F0DAFA05E01D4800F0D6FA2F
:1042E00001201149887309B0F0BD0000A40E04102C
:1042F0000D49C87370470000F00E04100A48C07BD7
:1043000070470000300F0410740F0410AC0F04103D
:10431000F00F04104C020020281004107810041034
:10432000C010041004110410300E002048110410B5
:1043300084110410E0110410201204105012041013
:104340007812041098120410F81204103C13041090
:1043500084130410704770477047430010B502F093
:10436000D7FF5C4C2100002003F09EF85A49012041
:1043700003F09AF85948046010BDFEB504000F0020
:1043800016001D002000C0B2022803D15248534934
:10439000086002E04F485149086001956846008C6A
:1043A00000903B00320092B22100C9B24B48006835
:1043B00003F0DEF801000800C0B2002801D100209F
:1043C00008E00800C0B2022802D10020C04301E08A
:1043D0000120C043FEBDF3B583B017001E000A9D47
:1043E0006846007C022804D13B483C49086001240F
:1043F00003E038483949086000246846007B0228F9
:104400000CD102A800902B009BB23200390089B277
:104410003248006803F08CF8010018E06846007B21
:10442000002805D12D4801682000C0B203F03CF8F7
:1044300002A80190280080B2009033003A0092B2A6
:104440006846017C2548006803F04BF8010008002D
:10445000C0B2002801D1002008E00800C0B2042842
:1044600002D10220C04301E00120C04305B0F0BDED
:1044700070B506000D00140023009BB22A00310025
:1044800089B21648006802F092FB0100002901D1B0
:10449000002006E0002902D5A4B2200001E002209D
:1044A000C04370BD10B504002000C0B2022808D17E
:1044B0000A480168084A91420AD0006803F08CF863
:1044C00006E02000C0B2032802D1002003F08AF8E1
:1044D00010BD0000600E0020700E00203000002093
:1044E0000120194908600020704700B50020EFF353
:1044F000108172B6144A1368012B03D00122D243F3
:10450000100001E00323136081F3108840B200BD66
:1045100000B50020EFF3108172B60B4A1368032B2D
:1045200003D00122D243100001E00123136081F384
:10453000108840B200BD38B505000C0022000349C8
:10454000280005F02DFF32BD4C0400204026041049
:1045500000B5BFF34F8F694869490860BFF34F8FBB
:1045600000BFFDE70069704781B066490A680243F1
:104570000A60096801400091009901B0704781B05C
:1045800061490A6802430A60096801400091009984
:1045900001B0704700B55C4909680140814201D112
:1045A000012000E0002000BD58490A6802430A606B
:1045B000704756490A6882430A60704780B506F022
:1045C00001F900F010F800F038F800F0A9F800F058
:1045D00055F800F06CF800F046F8002006F058F9A5
:1045E00006F007FAFCE738B588B01821002422004D
:1045F00002AD280000F0A6F8082122006D46280030
:1046000000F0A0F8032002908020400203901020C8
:10461000059002A806F0E8FA002801D000F08AF818
:104620000094202001900021684606F0DBFB002862
:1046300001D000F07FF809B030BD10B586B0182168
:1046400000226C46200000F07DF8022000908020BF
:1046500040010590684606F0A7FC002801D000F054
:1046600069F806B010BD80B529482A49016006F0F6
:1046700051FD002801D000F05DF801BD80B526484D
:10468000006800900120FFF785FF002808D1012075
:10469000FFF78AFF0120FFF78CFF0120FFF76FFF74
:1046A000C020C0050090684606F08CFE01BD3EB5F6
:1046B0000821002422006D46280000F043F8012064
:1046C000FFF768FF002808D10120FFF76DFF0120E8
:1046D000FFF76FFF0120FFF752FF1048FFF742FF7F
:1046E0001028FAD36846A02149000180210081707A
:1046F0000194684601F02AFA37BD00000400FA056B
:104700000CED00E050004048600040484000404848
:10471000DC0D002000003048242604100018006042
:1047200080B50820FFF720FF0420FFF71DFF01F0F0
:104730009FF901BD80B572B6FFF70AFF01BD1800F1
:10474000500150011206130A1A43130C1A4300BFFA
:10475000094205D0830707D00270401C491EF9D1D9
:10476000704700000022FFE71300103906D330B471
:104770001400150010393CC0FCD230BC490700D3EE
:104780000CC000D504C0890002D30280801C00291F
:1047900000D5027070478300850007000700830082
:1047A000850005000700030003000F0005008200DC
:1047B0008100050070B4103A03D378C9103A78C06C
:1047C000FBD2530701D318C918C001D508C908C0C6
:1047D000D20704D30B880380891C801C002A01D5D2
:1047E0000B78037070BC70478B0701D18307E1D051
:1047F000124205D00B78491C0370401C521EF9D19F
:1048000070470300FFFFFFFFFFFFFFFFFFFFFFFFFA
:10481000FFFF010000000000FFFF01000000FFFF9C
:10482000B0B50546C07A1224802829D8298C1729CA
:1048300026D31448821D914222D8298A17291FD3D2
:1048400081421DD8A87E00281AD000F07DFB0028E8
:1048500008D0E87E002813D0802811D8287F401E79
:104860000E280DD808483422294606F0E1FF07F04B
:10487000A7F8002803D407F0D7FA002400E0872423
:104880002046B0BDFA0300004C0D00200EB4C0B5A8
:10489000020003A801900020009001AB0121044810
:1048A00078440C3007F02AFB029906B0084700BF95
:1048B000A5A6020080B508F0C5FA80BD80B508F055
:1048C0009FFB80BDF1B50F0000203880264C2000F2
:1048D00000F071FE05002800C0B2002802D02800B8
:1048E000C0B240E0200000F06CFE04006846007892
:1048F000C0070CD5210089B21C4800F068FE0500F5
:104900002800C0B2002802D02800C0B22BE017480F
:1049100000F066FE3880210089B2154800F057FE8D
:1049200006003000C0B2002802D03000C0B21AE049
:10493000210089B20F4800F04AFE05002800C0B2ED
:10494000002802D02800C0B20DE0210089B20A4838
:1049500000F03DFE01000800C0B2002802D00800AF
:10496000C0B200E00020F2BD24040020B4240410F2
:10497000D8240410FC2404102025041080B502283B
:1049800001D9122080BD08F05FFB80BDFFB581B06A
:104990000A9F002503980580049805803D8068469D
:1049A000007905210140002936D0634E300000F027
:1049B00002FE6946087068460078002802D0684602
:1049C00000782AE05D4C200000F00AFE0399088080
:1049D0002000243000F004FE04990880300000F02C
:1049E000F0FD694648803D806846007A02280ED175
:1049F0006846418820006C3000F0E9FD6946087087
:104A000068460078002802D06846007805E04C4AE5
:104A10000821002000F003F8002005B0F0BDF8B533
:104A200007000E001500454800F0DAFD0400641C84
:104A30002B00320092B2390089B2200080B200F01F
:104A400014F8F2BDF8B507000E0015003D4800F05F
:104A5000C7FD0400641C2B00320092B2390089B2F9
:104A6000200080B200F001F8F2BDFBB584B0150063
:104A700000242000C0B2052816D230482100C9B257
:104A800024225143401800F0ABFD69460880684677
:104A90000088002806D068460088401C6946098ABC
:104AA000884201D0641CE4E72000C0B2052801D18F
:104AB00012203FE0214E2000C0B22421484330188C
:104AC000006A80886946898A2A0092B289188842D9
:104AD00001DA12202EE02000C0B224214843301811
:104AE000006A002801D1122024E0280080B2029040
:104AF000069801902000C0B2242148433018006A73
:104B000080686946898A4718029A01993800FFF738
:104B10006BFE2000C0B2242148433018006A0078A0
:104B2000800706D52000C0B2242148433018006A0F
:104B30004580002007B0F0BD54030020A0020020F3
:104B400004160410C4020020F0B58BB007000E005C
:104B500015001C001AA800780A9019A8007809907E
:104B600018A80078089017A80078079016A8007871
:104B70000690694654200856059014A800780490C1
:104B80001398039012A80078029011A80078019061
:104B90001098009023002A0092B23100C9B2380068
:104BA000C0B208F0ABFA0BB0F0BD70B506000D0056
:104BB000140022002900C9B23000C0B208F03CFB4A
:104BC00070BDF8B507000E0015001C006846007E99
:104BD00000902300DBB22A00D2B23100C9B2380003
:104BE00008F0B0FBF2BD38B505000C002100C9B2D9
:104BF0002800C0B208F0F2FB32BD38B505000C0049
:104C00002100C9B22800C0B208F01EFC32BDF8B5C0
:104C100007000E0015001C0023002A00D2B231004C
:104C2000C9B23800C0B208F027FCF2BD10B50400CC
:104C30002000C0B208F078FC10BD80B508F0AEFCD2
:104C400002BD10B50400200080B208F0C9FC10BD00
:104C500038B505000C00210089B22800C0B208F068
:104C6000E5FC31BD38B505000C002100C9B22800B3
:104C700008F000FD32BD38B505000C002100C9B2B6
:104C8000280008F00BFD32BD10B504002000C0B2B2
:104C900008F090FD10BD10B504002000C0B208F06F
:104CA000AFFD10BD38B505000C002100C9B22800C9
:104CB000C0B208F0CDFD31BD10B50400200080B2B7
:104CC00008F0CDFD10BD10B50400200008F0C8FDAF
:104CD00010BD80B508F0E0FD02BD10B50400200055
:104CE000C0B208F005FE10BD10B50400200080B26F
:104CF00008F024FE10BD38B505000C002100280086
:104D000008F022FE32BD38B505000C002100280055
:104D100008F044FE32BD10B50400200080B208F057
:104D20005FFE10BD10B50400200080B208F06CFEDC
:104D300010BD80B508F0D2FE02BD80B508F0D0FEEF
:104D400002BD80B508F0CEFE02BD38B505000C00EE
:104D50002100280008F0E2FE32BD38B505000C0045
:104D60002100280008F00AFF32BD38B505000C000C
:104D70002100280008F01EFF32BD38B505000C00E8
:104D80002100280008F032FF32BD38B505000C00C4
:104D90002100280008F06AFF32BD38B505000C007C
:104DA0002100280008F0A8FF32BD38B505000C002E
:104DB0002100280008F0D0FF32BD38B505000C00F6
:104DC0002100280008F0E6FF32BD38B505000C00D0
:104DD0002100280008F0FAFF32BD38B505000C00AC
:104DE0002100280009F010F832BD38B505000C008C
:104DF0002100280009F026F832BD38B505000C0066
:104E00002100280009F034F832BD38B505000C0047
:104E10002100280009F048F832BD80B509F08AF871
:104E200002BD10B50400200009F0BEF810BD80B529
:104E300009F0BCF802BD10B504002000C0B209F0B2
:104E4000B7F810BD38B505000C0021002800C0B22D
:104E500009F0C0F831BD38B505000C00210028006C
:104E6000C0B209F0CFF831BD10B504002000C0B2C7
:104E700009F008F910BD10B504002000C0B209F017
:104E800057F910BD10B50400200080B209F058F9A0
:104E900010BDF8B507000E0015001C0023002A0005
:104EA000D2B23100C9B23800C0B209F067F9F1BD21
:104EB00080B509F0EDF901BD10B50400200009F03E
:104EC000FBF910BD38B505000C002100280009F0E1
:104ED0008DFB32BD70B506000D00140022002900C4
:104EE000C9B2300009F0C2FB70BD80B509F010FCFA
:104EF00002BD38B505000C002100C9B2280009F038
:104F000009FC32BD10B50400200009F029FC10BDD9
:104F100010B50400200009F09FFC10BD38B5050055
:104F20000C002100280009F0CBFD32BD38B505008A
:104F30000C002100280009F0E4FD31BD10B504008B
:104F4000200009F0EAFD10BD80B509F009FE02BDA0
:104F500010B50400200009F005FE10BDF8B50700EB
:104F60000E0015001C002300DBB22A00D2B2310073
:104F7000C9B23800C0B209F025FEF1BD10B5040079
:104F80002000C0B209F03AFE10BDF8B507000E00CF
:104F900015001C000698009023009BB22A003100E7
:104FA000380009F03FFEF1BD38B505000C002100C6
:104FB000C9B2280009F0ECFE31BD10B50400200094
:104FC00009F0BCFF10BD80B50AF0FCF801BD70B55A
:104FD00006000D0014002200D2B22900C9B2300030
:104FE000C0B20AF011F970BD10B5040020000AF03B
:104FF0003FF910BD10B5040020000AF04DF910BDB6
:1050000010B5040020000AF05BF910BD10B50400D3
:1050100020000AF069F910BD10B5040020000AF064
:105020008DF910BD80B50AF003FB01BDF8B507008E
:105030000E0015001C006846007E00902300DBB2C5
:105040002A00D2B23100C9B23800C0B20AF0FEFA6A
:10505000F1BD10B504002000C0B20AF01FFB10BD66
:1050600038B505000C002100C9B228000AF02EFB5B
:1050700031BD70B506000D0014002200290030007B
:10508000C0B20AF097FB70BD10B504002000C0B29A
:105090000AF0AEFB10BD10B5040020000AF0C4FBFE
:1050A00010BD38B505000C002100C9B228000AF077
:1050B000E5FB32BD38B505000C00210028000AF0E0
:1050C0001BFC31BD10B5040020000AF04BFC10BDE4
:1050D00038B505000C002100C9B228000AF06AFCAE
:1050E00031BD10B5040020000AF0B0FC10BD10B5B1
:1050F000040020000AF0B1FC10BDFEB507000E0050
:1051000015001C000998019008A800780090230061
:10511000DBB22A00310038000AF0A6FCFEBD70B5F3
:1051200006000D0014002200D2B2290030000AF05F
:1051300095FD70BD10B504002000C0B20AF0DCFD82
:1051400010BD38B505000C002100C9B22800C0B25E
:105150000AF02AFE31BD70B506000D0014002200D1
:10516000D2B22900C9B230000AF08AFE70BD10B573
:10517000040020000AF0CCFE10BDF8B507000E00B8
:1051800015001C002300DBB22A00D2B23100C9B2E4
:1051900038000AF0D9FEF1BD38B505000C00210039
:1051A00028000AF041FF32BD0FB581B06846007E8D
:1051B000009001A80FC80AF082FF05B000BD10B52D
:1051C000040020000AF0BEFF10BD10B5040020004E
:1051D000C0B20AF0E9FF10BD80B50BF017F801BDB1
:1051E00080B50BF01BF801BD80B50BF01FF801BDB9
:1051F00080B50BF023F801BD10B504002000C0B24B
:105200000BF05CF810BD10B50400200080B20BF06C
:1052100069F810BD70B506000D00140022002900C9
:1052200030000BF0F3F870BD10B5040020000BF057
:1052300027F910BD38B505000C00210028000BF03F
:105240005BF931BD10B5040020000BF095F910BDDD
:1052500038B505000C002100280080B20BF0C4F91D
:1052600032BD10B5040020000BF0D2F910BD80B59E
:105270000BF08EFA02BDF0B587B007000E001500E6
:105280001C0012A80078069011A80078059010A8BC
:10529000007804900FA8007803900EA80078029080
:1052A0000DA8007801900CA8007800902300DBB2D4
:1052B0002A00D2B23100C9B23800C0B20BF06AFA8B
:1052C00007B0F0BD10B5040020000BF093FA10BD3C
:1052D00010B5040020000BF0D1FA10BD10B5040089
:1052E00020000BF07BFB10BD10B5040020000BF07C
:1052F0008FFB10BD10B5040020000BF0A1FB10BD0A
:1053000010B5040020000BF0B5FB10BD10B5040073
:1053100020000BF0C7FB10BD10B5040020000BF0FF
:10532000E9FB10BD10B5040020000BF011FC10BD0E
:1053300010B5040020000BF02BFC10BD10B50400CC
:105340002000C0B20BF06EFC10BD10B504002000B0
:105350000BF088FC10BD10B5040020000BF09EFC83
:1053600010BD10B5040020000BF0C6FC10BD10B538
:105370000400200080B20BF0F9FC10BD10B5040051
:1053800020000BF0D5FD10BD10B5040020000BF07F
:10539000E7FD10BD10B50400200080B20BF008FE40
:1053A00010BD10B50400200080B20BF005FE10BD4A
:1053B00010B5040020000BF0C5FE10BD10B50400B0
:1053C00020000BF015FF10BD10B5040020000BF0FD
:1053D0003BFF10BD80B50BF06FFF01BD80B50BF03A
:1053E000BBFF01BD10B50400200080B20CF018F81E
:1053F00010BD10B50400200080B20CF023F810BDE1
:1054000010B50400200080B20CF03EF810BD10B5BD
:105410000400200080B20CF05BF810BD10B5040051
:10542000200080B20CF00EF910BD38B505000C005C
:105430002100C9B2280080B20CF01AF932BDFEB5C5
:1054400007000E0015001C006846808C019068461D
:10545000008C00902300DBB22A00D2B23100C9B226
:105460003800C0B20CF008F9FEBDFEB507000E0012
:1054700015001C006846008D02906846808C0190E3
:105480006846008C009023009BB22A0092B2310043
:1054900089B23800C0B20CF001F9FEBDF8B50700C2
:1054A0000E0015001C0023009BB22A0092B23100AE
:1054B000C9B23800C0B20CF011F9F2BD10B5040049
:1054C0002000C0B20CF020F910BDF8B588B007007C
:1054D0000E0015001C0015A80088079014A800886D
:1054E000069013A80088059012A80088049011A8BF
:1054F0000088039010A8008802900F9801900EA8D1
:10550000007800902300DBB22A00D2B23100C9B289
:105510003800C0B20CF008F909B0F0BD10B50400B5
:105520002000C0B20CF046F910BDFEB507000E0019
:1055300015001C000AA80078029009A800780190C4
:1055400008A8007800902300DBB22A00D2B2310014
:10555000C9B23800C0B20CF035F9FEBD70B5060016
:105560000D0014002200D2B22900C9B2300080B26E
:105570000CF06CF970BD38B505000C002100280056
:1055800080B20CF071F932BD38B505000C00210075
:10559000C9B2280080B20CF073F932BD80B50CF0AE
:1055A00077F902BD38B505000C0021002800C0B213
:1055B0000CF073F932BD10B5040020000CF078F93E
:1055C00010BD10B5040020000CF076F910BD38B500
:1055D00005000C00210089B228000CF071F932BDE1
:1055E00010B5040020000CF06FF910BD10B50400D8
:1055F000200080B20CF06CF910BD38B505000C002D
:10560000210089B2280080B20CF066F932BDF8B5ED
:1056100007000E0015001C0023009BB22A0092B266
:10562000310089B2380080B20CF05AF9F2BDF8B5F9
:1056300007000E0015001C0023009BB22A0092B246
:10564000310089B2380080B20CF055F9F2BD70B566
:1056500006000D001400220092B2290089B2300029
:1056600080B20CF04EF970BDF8B507000E001500C1
:105670001C0023009BB22A0092B2310089B238008C
:1056800080B20CF046F9F2BDF8B507000E00150027
:105690001C000698009023009BB22A0092B23100B1
:1056A00089B2380080B20CF03CF9F2BDF0B585B09B
:1056B00007000E0015001C000EA8007804900DA82D
:1056C000007803906846008E02906846808D0190B5
:1056D0006846008D009023009BB22A0092B23100F0
:1056E00089B2380080B20CF02BF905B0F0BD10B5CE
:1056F0000400200080B20CF036F910BD70B5060031
:105700000D00140022002900C9B23000C0B20CF014
:1057100031F970BD38B505000C002100C9B2280070
:10572000C0B20CF075F932BDF0B585B007000E00BF
:1057300015001C000EA8007804900DA800780390B6
:105740000CA8007802900BA8007801900AA80078B5
:10575000009023009BB22A0092B2310089B2380037
:10576000C0B20CF073F905B0F0BD70B506000D00C5
:1057700014002200D2B2290089B2300080B20CF0AD
:10578000E7F970BDE0B501A908700122084611468D
:105790000CF0F2F9002800D08CBD01A800780CF0C4
:1057A00009FA8CBD1CB5044668460CF01FFA0020AF
:1057B000082806D06946095C225C0A432254401C32
:1057C000F6E720460CF04AFA1CBDFEE7F1B588B0BA
:1057D0007748006806907648006808990140744848
:1057E00001606C48006802907248006801906A4845
:1057F000006800907048006804906D4F029800990E
:10580000014038680840002869D001980499014097
:10581000002964D10024804DE000285800990140FF
:1058200038680840002801D1641CF4E7E0002858DB
:1058300000990140386808400390E000281840684B
:1058400003990140002904D10020C043E1006918F8
:1058500048605A4F0399E00028184068084000F05B
:10586000DDF838600121E000281842683B68080034
:1058700098408243E00028184260EFF310800590C2
:1058800072B6444802683B68080098408243414829
:1058900002600226002E0DD0F00028180838026899
:1058A0003B68080098408243F000281808380260DE
:1058B000761EEFE7059880F3108841483968890023
:1058C000405880473348006802903A480068019089
:1058D0003148006800903848006804908DE7002047
:1058E000C04336490860344C0198216801400029C2
:1058F0001FD105F084F8EFF3108572B625480068D3
:1059000002902C480068019023480068009002989B
:105910000099014038680840002806D101982168A4
:105920000140002901D105F06BF885F310880CF0D7
:10593000A5F90698386009B0F0BDF8B504000F006D
:105940001500EFF3108672B6200000F067F88000B3
:105950001B490D5086F31088F1BD30B4EFF310826F
:1059600072B60C4B1C6804431C602B4BCC001C59BA
:105970000443CD005C5182F3108830BC7047EFF3D4
:10598000108172B60B4A13680343136081F31088C9
:1059900070470000D40E002050040020EFF3108167
:1059A00072B6044A13688343136081F3108870470A
:1059B00054040020D80E0020DC0E0020E00E002051
:1059C000240B0020FEB50400244E3068009030689F
:1059D0000021C943884201D1002502E00125306839
:1059E00085401F4F386801903C601E480168214087
:1059F000002904D1210028000CF041F9F5E70099B5
:105A00003160EFF3108172B60268A243026081F345
:105A1000108801983860F7BD800E002010B5010095
:105A200000200A00130C1B04002B02D110231800C5
:105A30001204130E1B06002B01D108301202130FA3
:105A40001B07002B01D1001D1201074B140F1B5D1A
:105A5000C0181F23181AC0B210BD0000E00E0020AD
:105A6000DC0E0020D80E0020C426041070477047BA
:105A7000704780B50CF00AF980BDFEE700B5010063
:105A800049B2002905D40121C206D20E91407F4AB5
:105A9000116000BDC1680322914302220A43C26023
:105AA0007047C16803229143C1607047C1680322F7
:105AB0009143C160704701617047816A8022D205BD
:105AC0000A4382627047816A714A0A408262704763
:105AD000016B8022D2050A4302637047016B6C4A56
