:020000041004E6
:1000000000000120C9AE0510E9AE0510F1AE0510E3
:1000100000000000000000000000000000000000E0
:10002000000000000000000000000000F9AE051014
:100030000000000000000000FBAE0510FDAE051042
:100040008774041003790410638004100B84041077
:1000500000000000000000000000000063880410A1
:1000600005AF0510EB8B04100F8D0410F78D0410F5
:100070002B94041021AF05100000000027960410F7
:10008000B7970410779C041045AF051000000000DE
:100090003DAF0510000000000000000035AF051066
:1000A0007B9E04104DAF0510E3A004103FA6041082
:1000B0001BAA041000000000000000000000000067
:1000C000C40B00203E32000000000104000032009A
:1000D000F7000000FFFFFFFF6400011002020004B0
:1000E000F70001000001010202020200000100030A
:1000F000000400004572726F7220696E20424C4508
:100100005F535441434B5F496E697428292030780E
:10011000253032780D0A000020204661696C2020CD
:10012000203A206163695F68616C5F7365745F7416
:10013000785F706F7765725F6C6576656C20636F52
:100140006D6D616E642C20726573756C743A20302D
:1001500078253032580A0000202053756363657398
:10016000733A206163695F68616C5F7365745F7483
:10017000785F706F7765725F6C6576656C20636F12
:100180006D6D616E640A000020204661696C20205C
:10019000203A206163695F676174745F7372765F90
:1001A00070726F66696C655F696E697420636F6DEC
:1001B0006D616E642C20726573756C743A203078B2
:1001C000253032580A0000002020537563636573A0
:1001D000733A206163695F676174745F7372765FFD
:1001E00070726F66696C655F696E697420636F6DAC
:1001F0006D616E640A00000020204661696C202059
:10020000203A206163695F6761705F696E6974207D
:10021000636F6D6D616E642C20726573756C743ADA
:10022000203078253032580A000000002020537515
:1002300063636573733A206163695F6761705F69C7
:100240006E697420636F6D6D616E640A000000005A
:1002500020205374617469632052616E646F6D2055
:10026000426C7565746F6F74682041646472657365
:10027000733A20253032783A253032783A253032B8
:10028000783A253032783A253032783A253032784B
:100290000A00000020204661696C2020203A204797
:1002A00061705F70726F66696C655F7365745F64BF
:1002B00065765F6E616D65202D20446576696365A6
:1002C000204E616D652C20726573756C743A203018
:1002D00078253032580A0000202053756363657317
:1002E000733A204761705F70726F66696C655F7307
:1002F00065745F6465765F6E616D65202D20446571
:1003000076696365204E616D650A000020204661B4
:10031000696C2020203A204761705F70726F6669B7
:100320006C655F7365745F617070656172616E6347
:1003300065202D20417070656172616E63652C20AF
:10034000726573756C743A203078253032580A0023
:100350002020537563636573733A204761705F7043
:10036000726F66696C655F7365745F6170706561FB
:1003700072616E6365202D20417070656172616EDF
:1003800063650A0020204661696C2020203A2061C4
:1003900063695F6761705F7365745F696F5F6361F5
:1003A000706162696C69747920636F6D6D616E64F0
:1003B0002C20726573756C743A2030782530325871
:1003C0000A0000002020537563636573733A20614F
:1003D00063695F6761705F7365745F696F5F6361B5
:1003E000706162696C69747920636F6D6D616E64B0
:1003F0000A00000020204661696C2020203A20611C
:1004000063695F6761705F7365745F73656375725D
:100410006974795F726571756972656D656E747303
:1004200020636F6D6D616E642C20726573756C74E2
:100430003A203078253032580A00000020205375C9
:1004400063636573733A206163695F6761705F73AB
:1004500065745F73656375726974795F72657175D0
:100460006972656D656E747320636F6D6D616E6426
:100470000A00000020204661696C2020203A20619B
:1004800063695F6761705F636F6E666967757265E8
:100490005F66696C7465725F6163636570745F61E8
:1004A0006E645F7265736F6C76696E675F6C69739B
:1004B0007420636F6D6D616E642C20726573756C52
:1004C000743A203078253032580A000020205375C5
:1004D00063636573733A206163695F6761705F632B
:1004E0006F6E6669677572655F66696C7465725F69
:1004F0006163636570745F616E645F7265736F6C76
:1005000076696E675F6C69737420636F6D6D616E81
:10051000640A000020204661696C2020203A206196
:1005200063695F6761705F7365745F6C655F657653
:10053000656E745F6D61736B20636F6D6D616E646A
:100540002C20726573756C743A20307825303258DF
:100550000A0000002020537563636573733A2061BD
:1005600063695F6761705F7365745F6C655F657613
:10057000656E745F6D61736B20636F6D6D616E642A
:100580000A0000003E3E3D3D204843495F44495338
:10059000434F4E4E454354494F4E5F434F4D504C91
:1005A0004554455F4556545F434F44450A0000009B
:1005B00020202020202D20436F6E6E656374696FAC
:1005C0006E2048616E646C653A20202030782530BA
:1005D00032580A20202020202D20526561736F6E32
:1005E0003A202020203078253032580A00000000C0
:1005F0003E3E3D3D204843495F4C455F434F4E4E94
:10060000454354494F4E5F5550444154455F434F15
:100610004D504C4554455F5355424556545F434FEA
:1006200044450A0020202020202D20436F6E6E6557
:100630006374696F6E20496E74657276616C3A20DE
:10064000202025642E25303264206D730A2020205E
:1006500020202D20436F6E6E656374696F6E206C71
:100660006174656E63793A2020202025640A202079
:100670002020202D205375706572766973696F6E26
:100680002054696D656F75743A2020202564206DB3
:10069000730A00004843495F4C455F504552494F3B
:1006A0004449435F4144564552544953494E475F7C
:1006B000524553504F4E53455F5245504F52540A86
:1006C0000000000020204661696C2020203A206153
:1006D00063695F6C326361705F636F6E6E656374D4
:1006E000696F6E5F706172616D657465725F757060
:1006F000646174655F7265737020636F6D6D616EA8
:10070000640A00002020537563636573733A2061A7
:1007100063695F6C326361705F636F6E6E65637493
:10072000696F6E5F706172616D657465725F75701F
:10073000646174655F7265737020636F6D6D616E67
:10074000640A00003E3E3D3D204143495F47415021
:100750005F50524F435F434F4D504C4554455F5699
:10076000534556545F434F44450A00002D2D204702
:1007700041505F47454E4552414C5F444953434FBA
:10078000564552595F50524F4320636F6D706C65F0
:100790007465640A000000003E3E3D3D204143492F
:1007A0005F4741505F4B455950524553535F4E4F41
:1007B00054494649434154494F4E5F565345565458
:1007C0005F434F44450A00003E3E3D3D20414349C2
:1007D0005F4741505F504153534B45595F5245511C
:1007E0005F56534556545F434F44450A000000008E
:1007F0003D3D3E3E206163695F6761705F7061737C
:10080000736B65795F72657370203A204661696C1D
:100810002C20726561736F6E3A2030782530325823
:100820000A0000003D3D3E3E206163695F676170E4
:100830005F706173736B65795F72657370203A20C6
:10084000537563636573730A000000003E3E3D3DCF
:10085000204143495F4741505F50414952494E470B
:100860005F434F4D504C4554455F56534556545F7A
:10087000434F44450A00000020202020202D205016
:10088000616972696E67204B4F0A20202020202D5D
:10089000205374617475733A203078253032580AC9
:1008A00020202020202D20526561736F6E3A203069
:1008B00078253032580A00003E3E3D3D206863698D
:1008C0005F6C655F636F6E6E656374696F6E5F63A7
:1008D0006F6D706C6574655F6576656E74202D2034
:1008E000436F6E6E656374696F6E2068616E646CD1
:1008F000653A203078253034580A00002020202026
:10090000202D20436F6E6E656374696F6E20657372
:100910007461626C697368656420776974682040EB
:100920003A253032783A253032783A253032783AE2
:10093000253032783A253032783A253032780A003C
:100940006163695F6761705F7365745F7363616E34
:100950005F636F6E66696775726174696F6E202D73
:10096000206661696C2C20726573756C743A203056
:1009700078253032580A00003D3D3E3E20616369D3
:100980005F6761705F7365745F7363616E5F636FF0
:100990006E66696775726174696F6E202D2053757C
:1009A00063636573730A00006163695F6761705F09
:1009B00073746172745F70726F63656475726520C1
:1009C0002D206661696C2C20726573756C743A20F9
:1009D0003078253032580A003D3D3E3E2061636943
:1009E0005F6761705F73746172745F70726F63656B
:1009F00064757265202D20537563636573730A00F7
:100A00006163695F6761705F7465726D696E61745F
:100A1000655F6761705F70726F63202D206661692A
:100A20006C2C20726573756C743A203078253032E6
:100A3000580A00003D3D3E3E206163695F6761707A
:100A40005F7465726D696E6174655F6761705F7018
:100A5000726F63202D20537563636573730A000002
:100A60006163695F6761705F6164645F6465766933
:100A70006365735F746F5F66696C7465725F6163F1
:100A8000636570745F616E645F7265736F6C7669C5
:100A90006E675F6C697374202D206661696C2C2011
:100AA000726573756C743A203078253032580A00BC
:100AB0003D3D3E3E206163695F6761705F616464D4
:100AC0005F646576696365735F746F5F66696C7494
:100AD00065725F6163636570745F616E645F7265A8
:100AE000736F6C76696E675F6C697374202D205329
:100AF0007563636573730A003D3D3E3E2061636923
:100B00005F6761705F7365745F636F6E6E6563745A
:100B1000696F6E5F636F6E66696775726174696F26
:100B20006E2053756363657373202C207265737533
:100B30006C743A203078253032780A003D3D3E3ED4
:100B4000206163695F6761705F7365745F636F6E77
:100B50006E656374696F6E5F636F6E6669677572E9
:100B60006174696F6E204661696C6564202C207227
:100B70006573756C743A203078253032780A00003D
:100B80003D3D3E3E206163695F6761705F737461E4
:100B900072745F70726F6365647572652028617529
:100BA000746F20636F6E6E656374696F6E29202D9C
:100BB00020537563636573730A0000002020503270
:100BC00050207365727665722C20646220616464C3
:100BD00072203078253032583A253032583A253054
:100BE00032583A253032583A253032583A25303288
:100BF000580A00003D3D3E3E206163695F676170B9
:100C00005F7365745F6164766572746973696E673A
:100C10005F636F6E66696775726174696F6E202DB0
:100C2000206661696C2C20726573756C743A203093
:100C300078253032580A00003D3D3E3E2053756312
:100C4000636573733A206163695F6761705F7365A1
:100C5000745F6164766572746973696E675F636FF0
:100C60006E66696775726174696F6E0A00000000D4
:100C70003D3D3E3E206863695F6C655F7365745FF0
:100C8000706572696F6469635F61647665727469C7
:100C900073696E675F706172616D65746572735FB1
:100CA0007632202D206661696C2C20726573756C1C
:100CB000743A203078253032580A00003D3D3E3EDF
:100CC00020537563636573733A206863695F6C656D
:100CD0005F7365745F706572696F6469635F616497
:100CE000766572746973696E675F706172616D6554
:100CF000746572735F76320A000000003D3D3E3E2F
:100D0000206863695F6C655F7365745F70657269A5
:100D10006F6469635F6164766572746973696E6735
:100D20005F656E61626C65202D206661696C2C20A8
:100D3000726573756C743A203078253032580A0029
:100D40003D3D3E3E20537563636573733A2068638F
:100D5000695F6C655F7365745F706572696F646904
:100D6000635F6164766572746973696E675F656EEF
:100D700061626C650A0000003D3D3E3E206863698B
:100D80005F6C655F7365745F657874656E646564D8
:100D90005F6164766572746973696E675F656E61C1
:100DA000626C65202D206661696C2C2072657375FC
:100DB0006C743A203078253032580A003D3D3E3E72
:100DC00020537563636573733A206863695F6C656C
:100DD0005F7365745F657874656E6465645F616494
:100DE000766572746973696E675F656E61626C6562
:100DF0000A0000006863695F6C655F726561645F2B
:100E000072656D6F74655F66656174757265732078
:100E10002D206661696C2C20726573756C743A20A4
:100E20003078253032580A003D3D3E3E20686369E7
:100E30005F6C655F726561645F72656D6F74655F3D
:100E40006665617475726573202D205375636365E3
:100E500073730A006863695F6C655F706572696FC0
:100E60006469635F6164766572746973696E675FF4
:100E70007365745F696E666F5F7472616E736665C9
:100E800072202D206661696C2C20726573756C74FC
:100E90003A203078253032580A0000003D3D3E3E71
:100EA000206863695F6C655F706572696F64696310
:100EB0005F6164766572746973696E675F73657488
:100EC0005F696E666F5F7472616E73666572202D06
:100ED00020537563636573730A0000003D3D3E3E19
:100EE000206C6C5F7365745F706572696F646963B1
:100EF0005F6164766572746973696E675F7375624A
:100F00006576656E745F646174615F707472202DC4
:100F1000206661696C2C20726573756C743A2030A0
:100F200078253032580A00003D3D3E3E205375631F
:100F3000636573733A206C6C5F7365745F70657280
:100F4000696F6469635F6164766572746973696E01
:100F5000675F7375626576656E745F646174615F07
:100F60007074720A0000000000000000020000001F
:100F7000300000200000000008000000980200205F
:100F80000000000001000000EC0400200000FFFF52
:100F900000000000040000008C0F0410000000009E
:100FA00005000000740B002000000000010000009C
:100FB000EAD004100100000003000000840B0020B0
:100FC00020000000FB349B5F8000008000100000C8
:100FD000052A000010000000010000005803002056
:100FE000900F04100A000000FB349B5F800000801B
:100FF00000100000292B000010000000000000007D
:10100000000000009C0F041002000000FB349B5FF6
:1010100080000080001000002A2B0000100000005B
:1010200000000000000000000000000002000000BE
:10103000FB349B5F80000080001000003A2B000012
:10104000100000000000000000000000A80F0410C5
:1010500000F00B1000080000AA02000000F80B10BE
:10106000F807010000000000CAEBECEDEFF0F1F230
:10107000F3F4F5F6F7F8F9FAFAFCFDFDFEFEFFFFD2
:10108000000001020304050608000000686A6C7491
:101090007A4C00007072696E74665F733A20256E38
:1010A00020646973616C6C6F776564007072696E3F
:1010B00074663A2062616420256E20617267756DE6
:1010C000656E74007072696E74665F733A20626157
:1010D0006420257320617267756D656E7400000071
:1010E000000000006E616E004E414E00696E6600A9
:1010F000494E460030002E007363616E665F733A9E
:10110000206261642025632C2025732C206F7220BF
:10111000255B20617267756D656E7400686C747A0A
:101120004C00000063436E5B0000000000002115CE
:10113000110E0D0C0B0B0A0A090909090908080808
:10114000080808080707070707070707070707072B
:1011500007000000303132333435363738396162B8
:10116000636465666768696A6B6C6D6E6F707172D7
:10117000737475767778797A00000000FB349B5F92
:101180008000008000100000292B000010000000EB
:10119000FB349B5F8000008000100000052A0000E7
:1011A0001000000002000000030000000300000027
:1011B0000600000003000000030000003C000000E7
:1011C0007000000070000000D003000070000000FC
:1011D000C301000065C60510FBBC04104BBE041023
:1011E0000BBF0410C3BE0410A7270410FF27041070
:1011F0003F2B0410472B04104F2B0410572B0410C7
:101200005F2B04106DCE05104FC704100F2B041078
:101210001F2B0410BBBF04101F280410552A0410F4
:10122000B72804106BB1041017280410ADCA0510BC
:10123000773E0610653B061077400610894206107F
:10124000894206109F430610774006107945061024
:1012500079450610794506107B3F06101F3B0610A6
:10126000E33A06109F430610072804100F280410C5
:101270001D49061025490610214906103F28041073
:10128000472804104F280410572804107F28041002
:10129000672804106F280410772804105F280410B2
:1012A000E5480610872804108F280410972804109A
:1012B0009F280410BFF34F8F7E487F490860BFF31B
:1012C0004F8F00BFFDE7000078B595B0062106A856
:1012D00000F0BEFD0620694608730020C881774CE7
:1012E00008A82100342200F0BBFD08A800F0E0FDB2
:1012F000010005D02000343001F044F801F015F968
:101300001821002001F034F9002805D00100200048
:10131000583001F037F803E02000983001F032F83F
:1013200005A9891C012001F027F9002805D001003A
:101330002000C83001F026F804E084204000201886
:1013400001F020F80121002001F04AF9002806D020
:1013500001009C204000201801F014F804E0B620A1
:101360004000201801F00EF804A8009004AB9B1C6C
:1013700005AA0021062001F03BF906AA03A9802056
:1013800001F0C8F906A801780291417801918178AD
:101390000091C37802794179C8204000201800F0FC
:1013A000F1FF00BF46A20921002001F062F90028E8
:1013B00006D00100EA204000201800F0E3FF04E01E
:1013C00086208000201800F0DDFF03AA921C022175
:1013D000002001F054F9002806D00100932080007D
:1013E000201800F0CFFF04E0A4208000201800F0B7
:1013F000C9FFAF4E01250120307001F0D4FB002859
:1014000006D00100B1208000201800F0BBFF04E0EE
:10141000C1208000201800F0B5FF75700820F07022
:1014200010203071B570002002901020019008202B
:101430000090002300220121012001F0B8FB0028C8
:1014400006D00100CD208000201800F09BFF04E0B2
:10145000DF208000201800F095FFB07800280FD022
:10146000012001F000FC002806D00100ED208000E2
:10147000201800F087FF03E08E48201800F082FF5C
:10148000684600BF11A10CC90CC0684601F0FBFB07
:10149000002805D001008848201800F073FF03E001
:1014A0008648201800F06EFF0AA000F06BFF16B00F
:1014B00070BD00000400FA050CED00E0C00004104F
:1014C000703270436C69656E74000000FFFFFFFFAF
:1014D000C0FFFFFF3D3D3E3E20456E6420424C452F
:1014E0005F496E69742066756E6374696F6E0A0079
:1014F00080B5012101202CE080B5012001F0D6FB50
:1015000001F0D7FB01F0E8FB002801D1FFF7F0FF65
:10151000012001F0CCFB01BD80B501F0C5FC01BD8F
:1015200080B50021022014E080B502F09AFD01BDD3
:1015300080B502E080B5FFF7F3FFFFF7D9FF01BDEB
:1015400080B502F0C1FDFFF7D3FFFFF7E9FF0121EE
:10155000042002F0C3FE01BD80B500218020C00040
:10156000F7E730B58DB0564A0021012002F0A9FE00
:10157000544A0021022002F0A4FE534A0021042014
:1015800002F09FFE02F016FF02F09EFF0021C94309
:10159000884201D100F0C9FFFFF796FEFFF7A8FFD0
:1015A0004A4A00218020C00002F08BFE484A0021F8
:1015B0008020800002F085FE02F09EFFC823DB0041
:1015C00000200A9009900120089000200790012037
:1015D000069000200590049003900290072001904F
:1015E000009300220021002003F03CF90100394C57
:1015F00003D0200000F0C6FE03E02000443000F0DD
:10160000C1FE802252000820049004200390022092
:101610000290182001900420009000231100002067
:1016200001F00CFB002805D0010020007C3000F008
:10163000A9FE03E02000C83000F0A4FE0021012034
:1016400001F0F8FA002806D001008420400020189C
:1016500000F098FE04E0A6204000201800F092FE62
:1016600000200BA90870488008710BAA01210120F5
:1016700001F0D8FAC22149006518002804D0010001
:10168000280000F07FFE04E0E4204000201800F075
:1016900079FE0BAA0121002001F0C4FA002803D032
:1016A0000100280000F06EFE00F040FB0DB030BDE0
:1016B0002C0B00200C0400005404000094040000D3
:1016C000F9140410191504102915041055B105104A
:1016D000EB1D0410F40B0410F0B585B00600CE48E5
:1016E00003F02FF93078042802D0822802D0FEE1DE
:1016F000F51C00E0351D71780027C84C052908D07D
:10170000102900D1E2E13E2925D0FF2900D143E193
:10171000E9E1307971790906090C0843C0498989E2
:10172000884215D1BE48BF4981818773200000F0EF
:1017300029FE317970790006000C0143B27920004E
:101740002C3000F01FFE082002F0D8FD00F0EEFA69
:1017500000F09CFACBE1F178012900D1ADE002293B
:1017600000D1CAE0032914D0042900D1D9E00A2904
:101770000CD00C2900D18FE00D2900D1C3E027291E
:1017800000D1E3E0282900D1EBE0292900D185E050
:10179000FFE020006C3000F0F5FDF079317A0906A9
:1017A000090C084303F0D8F80022D24B03F0EEF8FE
:1017B000002280235B0303F0ABF9F079317A21D862
:1017C0000906090C0843F579317A0906090C0D431D
:1017D00003F0C2F80022C74B03F0D8F80090019143
:1017E000280003F0B9F80022C24B03F0CFF803F051
:1017F000A9F903F0C1F802000B000098019903F069
:101800002DFA1EE00906090C0843F579317A09061C
:10181000090C0D4303F0A0F80022B64B03F0B6F814
:1018200003F090F903F0A8F800900191280003F06C
:1018300093F80022B04B03F0A9F8009A019B03F043
:10184000AAF90022AD4B03F0A1F803F07BF9F27A7C
:10185000317B0906090C0A43737AB17A0906090C2F
:101860000B43F179357A2D062D0C29430A25554372
:10187000009506001D00080003F06EF800229D4B45
:1018800003F084F803F05EF901002B003200200021
:10189000A03000F077FD2AE1012054E0F07F761CB3
:1018A000F17F761E0906090C0843727FB17F090695
:1018B000090C0A43F37E317F0BE0F07C317D090691
:1018C000090C0843727CB17C0906090C0A43F37BBE
:1018D000317C0906090C0B437179B4792406240C78
:1018E0002143039002920193300009300090337A33
:1018F000F279307900F060F9F9E0F31DB279310046
:101900000E31707B05E033000833F27931001D3170
:10191000307F00F0C0F9002802D0012000F06CF9FF
:10192000E5E000BF76A000F02DFD002478A5F01DB5
:10193000015D280000F026FD641C072CF7DDACA03B
:1019400000F020FD082002F0D9FCD0E07479707915
:10195000B17940188442F8DAE0B202F093FE641CD8
:10196000F5E788204000201800F00CFD3400083412
:101970000025F0798542E8DAA31D6279E178707973
:1019800002F0F8FE607906214843241824346D1CC7
:10199000EFE700BF60A0A8E0287869780906090C85
:1019A0000843001FD1D0801E00D182E09149401A27
:1019B00069D0401E52D0401F39D0C01E4CD0C91E25
:1019C000401A00D07AE06E7BA87B0006000C06432C
:1019D000EB7A287B0006000C03436A7AA87A00069B
:1019E000000C0243E979287A0006000C0143A8782C
:1019F000EF783F063F0C3843012704972D79039574
:101A0000102502950195009601F0F3F800280BD0FF
:101A1000A020400035E000BF100B0020840504101A
:101A20002C0B0020FFFF0000C020400029E0E02038
:101A30004000201800F0A6FCA878012857D1E878CB
:101A4000002854D1F4204000201800F09BFC002115
:101A5000802002F043FC4AE0852011E091208000C4
:101A6000201800F08FFC8849AF48808901F0ADF85C
:101A7000002804D001009B208000201835E0A82019
:101A80008000201812E0B2208000201800F07AFCBC
:101A90002979002906D06A79BD208000201800F03D
:101AA00071FC02E023A000F06DFC51A000F06AFC84
:101AB0001DE0A97825A000F065FC12E0297868787F
:101AC0000006000C014300BF28A00EE0F17800BF23
:101AD0002CA000F057FCF078042808DA052003F069
:101AE00035F9FFF7E7FB00BF2EA000F04BFC05B077
:101AF000F0BD00000000F43F0000F4BF00005940BA
:101B00004C455F46656174757265733A200000004C
:101B100030782530325820004843495F4C455F4DAE
:101B20004554415F4556543A203078253032580AA2
:101B30000000000020202020202D205061697269C3
:101B40006E6720537563636573730A004143495F91
:101B500048414C5F46575F4552524F525F5653457E
:101B60005654203078253032580A00004843495FE7
:101B700056454E444F525F4556543A2030782530F2
:101B800034580A004843495F48415244574152453E
:101B90005F4552524F525F455654203078253032BF
:101BA000580A00004843495F4556454E543A203094
:101BB00078253032580A00007FB50E00089C9E4DF3
:101BC000280000F0DFFB2078029060780190A07878
:101BD0000090E378227961792800443000F0D2FB4C
:101BE0005148868100218020800002F077FB7FBD74
:101BF0000A000000FB0300007CB54B4E904C00280F
:101C000002D0012805D00DE0C82189000A00042572
:101C10000DE00025012000F0C2FF01002ED02000C1
:101C2000C03024E0002802D00128F3D073BD92B266
:101C3000019289B20091012301220021012000F0CC
:101C400092FF002804D00100200000F09BFB03E07D
:101C50002000383000F096FB0023002201210120F3
:101C600000F099FF002805D001002000683000F046
:101C700089FB73BDB5732000983002E0B573200076
:101C8000F43000F07FFB73BD07B2010080B5012086
:101C900002F034FB01BDF8B586B00024224E6F4639
:101CA00078730F006846027305930020012569468A
:101CB000497B8C4235DA395D049139194978FF291D
:101CC00029D10499062926DD39198978302922D1AC
:101CD0003919C97800291ED13919097902291AD16F
:101CE00039198979832916D16846007B3074062218
:101CF00005993000113000F0CDF8F573707C02903A
:101D0000B07C0190F07C0090337D727DB17D4D48B8
:101D100000F038FB012004996418641CA4B201008F
:101D2000C5D007B0F0BD00002C0B00201FB5464BFE
:101D300009220121012003F01DF80100404C07D0C9
:101D400090204000201800F01DFB00F0EEFB04E0A6
:101D5000B8204000201800F015FBA0200190009052
:101D6000002301220121012000F0FDFE002806D001
:101D70000100200000F006FB00F0D7FB03E020008C
:101D8000383000F0FFFA02200290019032200090DB
:101D9000002328222821012000F0EFFE002806D190
:101DA0000021DC204000201800F0ECFA07E00100E0
:101DB000FE204000201800F0E5FA00F0B6FB0023FA
:101DC00000220121022000F0E6FE002807D00100D9
:101DD0002000683000F0D6FA00F0A7FB1FBD90206D
:101DE0008000201800F0CEFA1FBD38B5082002F0A0
:101DF0008FFA124DA88900F011FF0100134C01D099
:101E0000200010E02000343000F0BCFA082002F07E
:101E100089FA00220021A88900F008FF002805D0D7
:101E200001002000603000F0ADFA31BD2000A83084
:101E300000F0A8FA31BD0000B80804102C0B0020F7
:101E400040090410BC0B04104C020020F40D0410D7
:101E5000002200BF094202D0491E4254FCD1704703
:101E600070B4103A03D378C9103A78C0FBD2530744
:101E700001D318C918C001D508C908C0D20704D3B6
:101E80000B880380891C801C002A01D50B78037005
:101E900070BC70478B0701D18307E1D0124205D097
:101EA0000B78491C0370401C521EF9D17047430047
:101EB000F0B597B00546C07A1224802800D95AE2BE
:101EC000298C172900D256E2F948821D914200D987
:101ED00051E2298A172900D24DE2814200D94AE213
:101EE000A87E002800D146E200F019FD00280BD0A2
:101EF000E87E002800D13EE2802800D93BE2287F1E
:101F0000401E0E2800D936E2EA4C342220462946EB
:101F100002F046FFE84814905320C043169000F0AA
:101F200086FC012804D0E07A002801D1149811E041
:101F30002546169C243400F07AFCE97A6143DE4A97
:101F400050431018441800F072FCE97A4143DB4812
:101F5000484320181630149000F069FC012811D174
:101F6000169B18464C30D34C2189414318463030DB
:101F7000A27A4243501819463431227B4A438018D2
:101F8000099002E000200990FC4CE089119002F0D9
:101F900077FF012801D000F093FD02F073FF0128C4
:101FA0000AD1169C243400F042FC6043F34CE17AE1
:101FB00041430839039101E000200390F0484C3080
:101FC000139000F07DFD012815D002F059FF012883
:101FD00011D02920205C00280DD12520205C00286C
:101FE00009D12620205C002802D0E5484C3001E0D1
:101FF000169810301390E2486C30129000F060FD9B
:10200000012815D002F03CFF012811D02920205CC6
:1020100000280DD12520205C002809D12620205C35
:10202000002802D0D6486C3001E016982830129073
:1020300000F046FD1090A07E0090E07F0F9000F031
:10204000F6FB0790E07F019002F01EFF0890E07F12
:10205000029002F01BFF002500F0E5FB0128284656
:10206000159549D1607F0A2800D30A20169D243592
:102070004543C03D002600F036FC01280E961BD1DA
:1020800000F0D5FB012802D01698403001E01698E8
:102090003430BB49E031A27F4A43101816994C31C5
:1020A000E27F9140461800F0C2FB012804D1169847
:1020B0003C30E17A41437618AF1900F030FC054618
:1020C00000F011FC06462E4000F0B1FB3040012824
:1020D0000E9808D1E07E401E03210143A07FB0226C
:1020E0004243D043401A3C1800F0EAFC6043A34C42
:1020F000A34908183030159D069000F098FB012880
:10210000284608D102F0C4FE0128284603D1222027
:10211000205C16994843059000F0E5FB012828460D
:1021200020D19748D430A17E414316983430E27ACA
:1021300042435518002600F0F2FB012810D100F0B0
:1021400076FB01280CD1169A10464430217F41437A
:1021500010464C30E27E424350188438A67E4643F7
:10216000A819159D0E9002F095FE0128284631D140
:1021700000F05DFB012802D0169E483604E0169858
:102180004C30E67A46430C3E2327E05D00250028CC
:10219000284605D000F04BFBE05D40420321884318
:1021A00080192426A15D169A50324A43871800F000
:1021B0003AFB01280CD100F083FC012808D100F083
:1021C00092FB012804D1A55D002D01D0169D3C3560
:1021D0007819159D0D9000F02AFB0128294609D198
:1021E00002F05AFE0128294604D116983430E17ACB
:1021F000414314390C9100F01AFB0128294608D1FB
:1022000002F04CFE0128294603D116983830E17AB5
:1022100041430B912620215C2520265C7218292041
:10222000205C0492002A14D002462820235C169DCC
:1022300028464C305843F83848432723E35C2C4663
:1022400040345C434E4B1B194C4C483373431D18B0
:102250001046159500280A900CD002462A20205CD2
:10226000474F3B46B03343432546C8375743FB18D7
:10227000483B03E02A20205C00232546039A2824BB
:102280002C5D6143091827242C5D664334186018BF
:1022900016D0169D2E46383666432C4620344C43C5
:1022A000A1192C46483444430E19143E09E0C04697
:1022B000FA0300005C0A002020FCFFFF70FDFFFF16
:1022C0000026079D149809990818169F3946303141
:1022D000119C6143401880181399401812994118B5
:1022E0004C373C460F9A94400919109A012A06D19E
:1022F000234C009A544361184524A40009191F4C2B
:10230000089A012D02D1019DAF40C919049D012AEF
:1023100005D11698001D029A904041186839069818
:10232000059A081880180E9940180D9940180C99B4
:1023300040180B9940180A99CD4202D016990818F6
:10234000443015994018C01880196168401803215D
:10235000C943E28DD21C0A40A38DDB1C0B409A18A6
:10236000238EDB1C0B40D118401A03D402F098FDD9
:10237000002400E08724204617B0F0BD5C0A00204E
:1023800090FEFFFF0EB4C0B5020003A8019000202C
:10239000009001AB0121044878440C3002F03CFE6F
:1023A000029906B0084700BFF916020081B06449DF
:1023B00001E081B063490A6802430A600968084085
:1023C0000090009801B070477CB503F0C9FD00F0A3
:1023D00073F800F097F80820FFF7E8FF0420FFF7F4
:1023E000E5FF00F065FC00BF60A000680090564C5F
:1023F000606C0125ED430126304008D1606A30430E
:102400006062606A284060620120FFF7D2FFC0204E
:10241000C0050090684603F0B5FD68460021002223
:1024200006C0606C304008D1606A06436662606A2C
:10243000054065620120FFF7BCFF44480068102892
:10244000FBD36846A02149000180002181700191E1
:1024500000F07DFC3E4D3F4828612800103003F01D
:1024600043FF002801D000F060F88020C001A16B7C
:102470000143A163A16B014000910099A169084348
:10248000A061A06934490140A1612068C005FCD564
:1024900032482860042068603148E860A86028005D
:1024A00002F024FA002801D000F03FF8002003F0E9
:1024B0008BFF04F028F8FCE780B588B0182102A84B
:1024C000FFF7C6FC68460021002206C003200290E8
:1024D0008020400203901020059002A804F076F8B6
:1024E000002801D000F021F8002000902020019069
:1024F0000021684604F092F9002801D000F015F898
:1025000009B000BD80B586B018216846FFF7A0FC71
:1025100002200090C0020590684604F01BFA0028D3
:1025200001D000F002F807B000BD72B6BFF34F8FC4
:102530000C480D490860BFF34F8F00BFFDE7000056
:1025400050004048600040481C004048101800609F
:10255000100B002000003048FFBFFFFF003000409C
:10256000FF0F00000400FA050CED00E00000000081
:1025700080B504F08FFA80BDF8B506000F0000208A
:102580003880154C200000F024FB010023D12000EE
:1025900000F023FB0400114DF00705D521002800B1
:1025A00000F01FFB010016D1280000F01EFB388050
:1025B00021002800243000F014FB01000BD1210081
:1025C0002800483000F00DFB010004D12100280054
:1025D0006C3000F006FBF2BD74030020C00F041045
:1025E00080B5022801D9122080BD04F077FA80BDA1
:1025F000FEB504000E0000201080029908800899A2
:1026000008800520204032D03D4F380000F0E1FA2C
:1026100001002DD13B4D280000F0E7FA0199088018
:102620002800243000F0E1FA02990880380000F018
:10263000D4FA0700E00706D539002800483000F03A
:10264000D0FA010014D12800483000F0CEFA0899E1
:102650000880022E06D1390028006C3000F0C1FA43
:10266000010005D129A20821002000F002F8002075
:10267000FEBD70B504000D001600224804E070B5E0
:1026800004000D001600204800F0AFFA33002A00C5
:102690002100401C80B200F001F870BDF3B581B09C
:1026A00017001D000024174E69460880242060434F
:1026B000301800F09AFA002804D0401C69460988B6
:1026C000884202D0641C042CF0D3042C09D0684644
:1026D0000389242044433419206A8188DA199142FD
:1026E00001DA1220FEBD29003A008068C018FFF709
:1026F000D1FB206A0178890700D547800020FEBD04
:1027000030030020A0020020C402002053544D33A7
:102710003257423080B504F03DFA80BD30B58BB001
:1027200018AC24780A9417AC2478099416AC247851
:10273000089415AC2478079414AC247806946D465C
:102740004C242C57059412AC24780494119C0394C7
:1027500010AC247802940FAC247801940E9C009461
:1027600004F07CFA0BB030BD80B504F009FB02BD6B
:102770001CB56C46247C009404F086FB16BD80B525
:1027800004F0CEFB02BD80B504F000FC02BD80B5B4
:1027900004F014FC02BD80B504F068FC02BD80B5F5
:1027A00004F09EFC02BD80B504F0BCFC01BD80B508
:1027B00004F0DCFC01BD80B504F0FAFC02BD80B57C
:1027C00004F00AFD02BD80B504F092FD01BD80B5A4
:1027D00004F0B4FD01BD80B504F0D8FD01BD80B5A5
:1027E00004F0DBFD01BD80B504F0D8FD02BD80B56D
:1027F00004F0E8FD02BD80B504F018FE02BD80B50E
:1028000004F03CFE01BD80B504F03EFE02BD80B583
:1028100004F064FE02BD80B504F082FE01BD80B507
:1028200004F092FE01BD80B504F0F8FE02BD80B553
:1028300004F0F6FE02BD80B504F0F4FE02BD80B5E2
:1028400004F00CFF02BD80B504F02DFF02BD80B581
:1028500004F03BFF02BD80B504F049FF02BD80B526
:1028600004F078FF02BD80B504F0ADFF02BD80B575
:1028700004F0B7FF02BD80B504F0C1FF02BD80B512
:1028800004F0CBFF02BD80B504F0D9FF02BD80B5D6
:1028900004F0E7FF02BD80B504F0EBFF02BD80B598
:1028A00004F0F6FF02BD80B505F02CF802BD80B53E
:1028B00005F062F802BD80B505F0B4F801BD80B541
:1028C00005F0E0F801BD80B505F064F901BD80B503
:1028D00005F074F902BD80B505F00AFB02BD80B5B4
:1028E00005F046FB01BD80B505F094FB02BD80B547
:1028F00005F092FB02BD80B505F0B4FB01BD80B5CB
:1029000005F02AFC02BD80B505F02EFD02BD80B5A4
:1029100005F04BFD01BD80B505F053FD01BD80B54F
:1029200005F071FD02BD80B505F070FD01BD80B5FB
:1029300005F09AFD02BD80B505F0D8FE01BD80B559
:1029400005F0F6FE01BD80B505F026FF01BD80B59E
:1029500005F036FF01BD80B505F046FF01BD80B52D
:1029600005F056FF02BD80B505F07CFF01BD80B5C6
:1029700006F0EEF801BD1CB56C46247C009406F010
:10298000F5F813BD80B506F019F901BD80B506F064
:102990002DF901BD80B506F09DF902BD80B506F0A8
:1029A000B7F902BD80B506F0CFF902BD80B506F0DB
:1029B000F5F902BD80B506F01FFA01BD80B506F03D
:1029C00051FA01BD80B506F075FA01BD1CB5059C34
:1029D00001946C46247C009406F0B8FA16BD80B5CC
:1029E00006F0AEFB01BD80B506F0F8FB01BD80B579
:1029F00006F04CFC01BD80B506F0B4FC01BD80B50D
:102A000006F0F8FC01BD80B506F010FD01BD80B5F3
:102A100006F07CFD02BD1CB56C46247C009406F0DB
:102A2000C0FD13BD80B506F0FFFD01BD80B506F009
:102A300057FE01BD80B506F05BFE01BD80B506F016
:102A40005FFE01BD80B506F063FE01BD80B506F0F6
:102A50009FFE02BD80B506F0AFFE01BD80B506F059
:102A60003FFF01BD1CB56C46A48A01946C46248AC4
:102A7000009406F059FF13BD80B507F023F801BD9F
:102A800080B507F0DCF801BD80B507F0DFF801BDC7
:102A900080B507F0F1F801BD80B507F027F901BD59
:102AA00080B507F05FF901BD80B507F09BF902BD65
:102AB00080B507F0CFF902BD80B507F0DFF901BDA1
:102AC00080B507F09BFA02BD18B587B010AC24782A
:102AD00006940FAC247805940EAC247804940DACC5
:102AE000247803940CAC247802940BAC24780194E1
:102AF0000AAC2478009407F083FA08B010BD80B5C2
:102B000007F0AEFA02BD80B507F0ECFA02BD80B561
:102B100007F098FB01BD80B507F072FC01BD80B5E0
:102B200007F094FC01BD80B507F052FD02BD80B5F1
:102B300007F086FD01BD80B507F0D2FD01BD80B56F
:102B400007F032FE01BD80B507F03EFE01BD80B545
:102B500007F05AFE01BD80B507F07AFE01BD80B5D1
:102B600007F022FF01BD1CB56C46A48A01946C4697
:102B7000248A009407F02CFF16BD1FB56C46248CE8
:102B800002946C46A48B01946C46248B009407F04D
:102B900031FF04B010BD80B507F040FF02BD80B525
:102BA00007F052FF02BD80B507F05EFF02BD1FB502
:102BB00008AC247802946C46247F01946C46247EF1
:102BC000009407F059FF04B010BD80B507F098FFDE
:102BD00002BD80B507F0A0FF02BD80B507F0A0FFE1
:102BE00002BD80B507F0A0FF02BD80B507F0A0FFD1
:102BF00002BD18B585B00CAC247804940BAC2478D5
:102C000003946C46248D02946C46A48C01946C460B
:102C1000248C009407F090FF06B010BD80B507F03B
:102C20009EFF02BD80B507F0A0FF02BD80B507F092
:102C3000E3FF02BD80B507F0F7FF02BD18B585B010
:102C40000CAC247804940BAC247803940AAC24785C
:102C5000029409AC2478019408AC2478009408F01C
:102C600001F806B010BDE0B501A9087001220846C0
:102C7000114608F079F8002800D08CBD01A8007832
:102C800008F090F88CBD1CB50446684608F0A6F81C
:102C90000020082806D06946095C225C0A432254B9
:102CA000401CF6E7204608F0D1F81CBD704770477D
:102CB000704780B508F0DAF880BD83008500070012
:102CC00007008300850005000700030003000F00D4
:102CD000050082008100050080B508F0FBF800289F
:102CE00004D104480068C07A002801D0002080BDCB
:102CF000032080BD5C0B0020010005D40121C0062B
:102D0000C00E8140604801607047C1680322914352
:102D100002220A43C260704701E0000000BFC168A0
:102D200003229143C160704701617047816A574A2D
:102D30000A408262704700697047816A802292056A
:102D40000A438262704780687047C0687047F1B577
:102D500001274F48C06B38434D49C8630846806B14
:102D6000384388631720FFF7C7FF1420FFF7C4FF1D
:102D700000984068002800D00120464D28700026A9
:102D8000000603D100988078002813D04248C1681B
:102D9000C907FBD517210160C1683943C16046608E
:102DA000C1683940FCD02800103000F0AFFAE86963
:102DB000286209E0C82040032862E8613748A8611A
:102DC000374828613748686100984068002802D178
:102DD000A020C0050DE000030A2108F09EF86860FD
:102DE000BC4C200000F01AFA01006868884202D347
:102DF000200000F013FA68602E7200980088290005
:102E000058310861A96900F007FBB34C002020701D
:102E100000212A005832183203C21D4800682900D8
:102E200058318862002000212A005832203203C223
:102E30002A00283203C234216854A84AA969686864
:102E400008F0C2F8286328782074A6602773667398
:102E5000E681290058314E72290058314E81AE6505
:102E6000EE65AB48A8646E6500F0DFF96A68002380
:102E700012184B412800403000F0ECFA01212800E4
:102E800000F072FAF1BD000000E100E0FFFFFFBFBB
:102E9000101800604807002004100060C2F52800E8
:102EA0008D5B0000ECEB6501F8B586B00024694647
:102EB0000C70EFF3108572B696480190407A0028A6
:102EC0000BD000F0B2F9944EB26DF36D8B4204D882
:102ED00001D3824201D20198447285F310888E4F4B
:102EE00038009130029028E0401C1CE00469057312
:102EF0008168002900D088472000F7D169460198F1
:102F0000406B00F025FB0199486368460078012872
:102F10000DD1EFF3108172B602980078421C029B2B
:102F20005B789A42E0D1029A107081F3108802987F
:102F300040780599401802994870029840780299A3
:102F400009780A1A02D28020400012180026002AAE
:102F50002AD005926F480190446B04940394002595
:102F600002E0260024696D1C002C0FD0207B002875
:102F7000F7D000F05AF902000B0003CC083C801A8D
:102F800099410029EDDB01DC0628EAD32800002561
:102F9000002802D03561049400E00395049801995B
:102FA000486303980028A8E7387A00287AD0704848
:102FB00000680124204074D03E726E48C178002918
:102FC00004D18178002901D0867057E03878002834
:102FD00010D03800103000F099F9B9693800583035
:102FE000006980B200F018FA0021380000F0BCF946
:102FF00034203C54EFF31080029072B65E480468AF
:10300000386A01905D4D2A00014638005830806AC8
:10301000201A07F0D9FF390028310CC90021801887
:1030200059413A005832183203C23878002816D174
:1030300038005830806A201A396B88420FD22A0033
:1030400001990020C04307F0BFFF324D290018311D
:103050000CC90021801859412A00183203C23800D7
:103060005830846238005830183003C83A0028328B
:1030700003C2F8693862029880F310886946380004
:10308000583000F0D7FA3800403000F0E2F800F095
:10309000CCF87A68002312184B413800403000F019
:1030A000D9F915E03878002812D000F0BEF83A00BF
:1030B00028320CCAFA2464030025A4185D418D420D
:1030C00006D801D3844203D23800403000F0B5F96D
:1030D00007B0F0BDFFEFFFFFCC0700202603000084
:1030E0007CB505004C4806680B4C6946200000F092
:1030F000F3F903C5083D214AE1690098801B07F0F8
:1031000063FF020003CD0023801A99417CBD0000BB
:103110003B340410A007002048070020F8B5030046
:10312000140000206A4610700D0000D00125434AAB
:10313000110060310D71250000D001250D701400C3
:103140002834C0CC9C1B0025A4197D419465D5650D
:103150004870C8700120887069461000583000F02F
:1031600069FA012000F044FA68460078F2BD0000D8
:1031700010100060D907002010180060350600000C
:1031800070B50320C04377490A6802400A600A68A4
:1031900010400860284801685A4A0A400260274CDB
:1031A00020005830002545724581EFF3108672B635
:1031B00000F03BF8A26DE36D121A8B418420205C75
:1031C0000021121A8B4186F31088002B04DC01DBEE
:1031D000012A01D2012070BD002B04DC01DB0F2A83
:1031E00001D2022070BD002070BDEFF3108072B6D6
:1031F000454909685B4A891C51601168032399435A
:1032000002230B43136080F310887047704700203F
:103210008F490870704700001400006080B56E4A46
:103220000649C96907F0D0FE02BD80B5694603486A
:1032300000F052F904BD0000281800604807002083
:1032400010B500F007F90400012000F0D1F9E0B258
:1032500010BDF8B59F4C21680E00002300250A0020
:1032600001E035003669002E07D08642F9D1376972
:103270008E4201D13A0000E02F616D462B7003733E
:103280002068904215D06946100000F061F9206076
:103290006846007800280DD0EFF3108072B661798F
:1032A0004A1CA3799A4200D0491C617180F31088AE
:1032B000F1BD2260F1BD18B50020009000980B48C8
:1032C0000168104A0A400260A0490A78531C4C78F1
:1032D000A34200D0521C0A700121C2690A43C26194
:1032E000C0690140009111BD00000000301800606D
:1032F000BC48816801220A43826000210160704756
:1033000000000000FFFFFFBF1018006070B5040050
:10331000B54D2800FFF717FD06002800FFF713FD45
:103320008642F6D1002EF4D0B04932124A43F3B2AD
:103330004B431912511810314911E16026602800E1
:10334000FFF703FD06002800FFF7FFFC8642F6D1D9
:10335000002EF4D0B011B149484380300012A06073
:10336000666070BD0C000060F8B505000F00AC4C45
:10337000607A7D214843C90007F0CCFD461CF6B2B7
:10338000A84AA9691B2007F01FFE2070607800F092
:103390002DF83D216854E078801900F027F8382195
:1033A00068542079801900F021F839216854607937
:1033B00000F01CF83A216854A07900F017F83B217E
:1033C0006854002F06D0E078801900F007F81B3011
:1033D0003C216854F1BD00003506000068214143DE
:1033E000090ADB225043000C0818704700B50200A0
:1033F0008D4840690021002307F018FE03220023B6
:1034000007F014FE8022D204002312184B41D20E82
:1034100058010243100000BD80B5824A07F0D4FD78
:103420008249884201DD080002E0102800DA1020FD
:103430000005000E7E49086001BD10B57A4C207869
:10344000002801D0FFF754FF0120207210BD0000BA
:10345000AB070020FEB500256C462570017B0029D6
:1034600001D00120FEBD0CC0083801210173194CA8
:1034700026680196070001E035003669002E08D065
:103480000CCE083E03CF083F8B42F5D301D88242D1
:10349000F2D338000661002D01D1019000E02861CF
:1034A0000199814213D1694600F052F820606846C4
:1034B000007800280BD0EFF3108072B661794A1CB7
:1034C000A3799A4200D0491C617180F31088684644
:1034D0000078FEBDD40700207FB504000D00EFF397
:1034E000108672B6206F616F02AA03C2BE48FFF752
:1034F00022FC03002B60BD4D02A803C8009001917F
:103500002A00E16980202058181A07F05DFD00218B
:10351000009A019B80185941A26FE36F99420FD81E
:1035200001D390420CD2009001912A00E169002061
:10353000C04307F049FD0021009A019B80185941C2
:10354000A067E16786F3108804B070BDD90700203A
:10355000F1B584B00F0004460020387000E0246903
:10356000002C3BD0207B0028F9D0EFF31080009096
:1035700072B6FFF75AFE0CCC083C121A8B4102A817
:103580000CC002A803C800291EDB01DC01281BD3E4
:10359000244A2548836902A803C8190007F014FDCE
:1035A0000500202D00D820258F4E3000FFF7C3FBEB
:1035B00040190830F0623000FFF7BFFB306B80210C
:1035C000C9050143316301E001203870009880F3A0
:1035D00010883878002801D0049800E0200005B059
:1035E000F0BD00000810006000100060F6BC08008C
:1035F00010B589490C009034002808D020780028A4
:103600000BD108004030FFF718FF012004E008004C
:103610004030FFF71EFE0020207010BD5307000051
:10362000C50000202603000048070020FF0F00000F
:1036300008180060F3B589B0002008700998807AF6
:10364000002800D1CDE0744C200028300CC8606800
:1036500000218018594106AA03C2EFF3108004909C
:1036600072B6FFF7E2FD02000B00099803C802AD35
:1036700003C502A803C80090019106A803C8C82684
:10368000B602002736184F4100980199B9420FD36E
:1036900001D8B0420CD306A803C8B926760000278B
:1036A00036184F419F4201D802D3964200D395E08D
:1036B000012600200A32434102A803C800254C38E5
:1036C000A9418B4201D802D3824200D382E00998FB
:1036D000027A02A803C805003C20205C0999097BF6
:1036E000012905D1002A01D0382106E0392104E062
:1036F000002A01D03A2100E03B21615C0091019059
:1037000002A92000FFF7E8FE2D1A444AA16928000B
:1037100007F05AFC0390C027FF050198A16E4018DE
:10372000C830A84203981AD23D490978401A009936
:10373000451A029840192C4948623800FFF7ECFA04
:103740003800FFF7EBFA2848806AB10701432648A2
:103750008162FFF7F2FA00983149097812E03D21C1
:10376000615C401A0099451A029841193800FFF728
:10377000DBFA1D48FFF7DAFA3800FFF7C6FA0098BF
:103780003D21615C40180299039A89182200683231
:1037900011622A18411D8A420AD23800FFF7BCFA8A
:1037A0003800FFF7BBFA1048FFF7C0FA012007E026
:1037B0000E4AE16907F008FC210068310877002013
:1037C0000A99087000200999887209994E7209981F
:1037D000C67203E0622165540A980670049880F36B
:1037E00010880BB0F0BD0000001800603506000026
:1037F00080B5FFF760FDFDF79DFE01BD81B00020A3
:10380000009000980748016801220A43026000689E
:10381000009001B070470000480700202603000018
:10382000C50000207400006001680022028142810E
:10383000828182730B78FF2B05D0FE2B09D103897F
:103840005B1C03810AE04268511A091F8181002034
:103850007047002B0DD143895B1C43814A88D21CE1
:10386000032313435B1CC9184A1D43689A42E1D3E2
:10387000EDE703207047F3B5079C0899250005D0B4
:103880006D466C80FE242C706C4600E044688568B0
:103890004668AE4217D22678FF2E14D0067B002E43
:1038A00004D0002606732678002E0ED14668648860
:1038B000E41C032727437F1CF4194460AC4202D266
:1038C0002678FF2EEFD10420F6BDFE2E01D0032076
:1038D000F6BD6E463679FF2E04D066786F463F7986
:1038E000BE42E3D14068001D106060881880002946
:1038F00001D0607808700020F6BD7FB515001C006F
:10390000099E002232800B9A01926A46128D009223
:1039100002AB03AAFFF7AFFF010013D16946098983
:103920008D4201D306200DE0089A481B904200DA30
:103930000200200003994919FEF7ACFA6846008995
:103940003080002004B070BDFEB5BB4D0D40491B5A
:103950006B4619700024070016000AE00422311992
:1039600001A8FEF797FA019A3919002007F078FBB1
:10397000241DAC42F2DB0020C0430190684602786F
:10398000711901A8FEF786FA019A7919002007F04B
:1039900067FBF7BD70B544688668B44202D22678EA
:1039A000FF2E01D1042070BD007B002801D1FE2E26
:1039B00001D0052070BD6588A94201D3062070BDE5
:1039C00010001A00231D591807F0C0FB002801D071
:1039D0000020C04370BD7CB5079C0025069E358045
:1039E000250005D06D466C80FE242C706C4600E0EE
:1039F000446845688668B54202D22678FF2E01D118
:103A0000042076BD007B002801D1FE2E01D00520C8
:103A100076BD6088814201D3062076BD401A984267
:103A200000DA030010001A002B1D5918FEF732FAB5
:103A3000608806990880002076BDF8B584B007003C
:103A40000E001500B44C254203D107F07FFB00287F
:103A500020D001A80C21FEF7FBF9CD483818C00A88
:103A60000290681E0443641C6003000E03906946C4
:103A700001A807F07BFB00240AE06010800F00190A
:103A80000321884332583919002007F0E9FA241D30
:103A9000AC42F2D305B0F0BD01210170002141809C
:103AA00081807047F1B588B00C0015001E00002021
:103AB0000090FF2229002000FEF7CCF9FE20694685
:103AC000087507946846458206960E9D009C05AED3
:103AD00019E06846008A6988401A401E032404439E
:103AE000641CA4B268886946098A0A1A521E032116
:103AF0001143491C89B28F4242DB01200022B942A6
:103B000028706A8040D06846408A071B3F1FBFB2BA
:103B10002878002826D0701C0390A888029004A85A
:103B2000019000970798001D03190022FF210898B3
:103B3000FFF7E3FE6946098AA98001000ED16846B5
:103B4000008A7080042205A907980019FEF7A2F9DF
:103B50007088C01C032101436418C1E706990C80DA
:103B600009B0F0BDA888019004A800903B00079818
:103B7000021969880898FFF72EFF0100A9D0EFE726
:103B800000212970C01968806846408A069908801B
:103B90000020E5E7F8B5AE4CA544AE490200142379
:103BA0005A438F187989002901D1002040E004A9E7
:103BB00000F013F9059D02A8FFF76EFF802636017D
:103BC00002A8009001AB320008A904A8FFF76AFF21
:103BD0000400042C06D0002C2AD168468088B0420C
:103BE000EED103E068468088002808D068468288C5
:103BF00008A92800FFF721FFAD19002CE0D008A884
:103C00000C21FEF725F9624828184003000E0990A0
:103C10000698401E711E0143491C481B4003000EBC
:103C20000A90694608A807F0A1FA3800FFF7FCFDE2
:103C300089498D44F0BD0000FCFF0000F8B5844CBC
:103C4000A54400216A4691710022002381490600A3
:103C50000BE0B0680C245C43005D1424604308183A
:103C60004089002800D001225B1C30798342F0DBC0
:103C7000002A25D080221201FF2108A807F0BEFAF1
:103C80000025802424010DE002A8FFF705FF02A80B
:103C9000009001ABE21B92B208A8C11904A8FFF77B
:103CA00001FF6D1C307985420CDAB0680C226A4342
:103CB000011D8F5804A9805C00F08FF80028E3D024
:103CC00000201BE0220008A93068FFF7B6FE614C17
:103CD000370069468D7900260CE0B8680C217143E5
:103CE000405C142148432018FFF79EFD010000D0DE
:103CF0000500761C38798642EFDB280056498D4452
:103D0000F0BD95498A79824201D102207047897CB1
:103D10008142FAD000207047FF070000F8B54C4CF4
:103D2000A54404000E0080221201FF2108A807F01C
:103D300065FA002568460471802424011CE00C27E4
:103D40006F43B068C05D6A461279904213D004A9EF
:103D500000F043F8B068C019476802A8FFF79CFE5E
:103D600002A8009001AB9B1CE21B92B208A8C119EB
:103D700004A8FFF797FE6D1C30798542DFDB220037
:103D800008A93068FFF759FE002033498D44F0BD83
:103D90000000FCEF10B500246F480C21614341186E
:103DA0008A792C4814235343C0180368002B10D180
:103DB000012A0EDC0A6802608B88D21842600989E9
:103DC0000182FFF731FD010004D1641C012CE3DD09
:103DD00001E0012010BD002010BD10B50200022A34
:103DE00001DB012010BD1B4B142462439A18136899
:103DF0004B6052688A6001220A7308700020487381
:103E000010BD7FB5694C0578142675436419A47BF1
:103E1000002C01D00A2008E003940294099C01942C
:103E20006C46248C0094FFF768FD04B070BD7CB52F
:103E3000A04C0578142675436419A47B002C01D08E
:103E40000A2076BD0194069C0094FFF7C4FD76BD60
:103E5000E0F7FFFFC40A002024080000FAB583B091
:103E600017000325791E03260E43761C0CE00C7800
:103E7000FF2C18D0FE2C01D0002C69D14A88D21C0E
:103E80002A43521C89184160826841684B1D934245
:103E9000EDD388490078142250430818408900283F
:103EA00054D1022055E00290501A834B984201D21F
:103EB000521A00E01A467F4C92B2B0B26B461B8D8C
:103EC000C018001D824239DB6846007B0191FE214B
:103ED0006A461170694648706846008D30184880FF
:103EE000009A0199002007F0BBF8049AB1B201983A
:103EF000001DFFF729FD0B9A6846018D0198B6B2A7
:103F00008019001DFFF720FD200008300299097874
:103F10001422514340180188491C018002980078FE
:103F200014214843201881896A46128DBA18521EFE
:103F30001543491B491F818100200AE0029800783F
:103F400014214843201840890028AAD00B2000E003
:103F5000032005B0F0BD00005010041010B504009F
:103F60006168A06881421ED20878FF281BD0FE2815
:103F700017D1FF22D243002007F072F84D4801000C
:103F80000831227814235A4389180A88521E0A805D
:103F900021781422514340184189491C4181002055
:103FA00010BD052010BD042010BD0000C40A002073
:103FB00078B585B004006946FFF7A3FE3D4D0228A1
:103FC0001ED1142044432C19256802A80C21FDF7AA
:103FD0003FFF3A4828184003000E03906068401ED7
:103FE00037490143491C481B4003000E049001A9B6
:103FF00002A807F0BBF82000FFF716FC00201BE02A
:10400000012818D100992000FFF788FE040010D184
:1040100000260AE0009880680C217143405C14215E
:1040200048432818FFF700FC761C00980079864268
:10403000F0DB200000E0012006B070BD1CB50400DC
:104040006946FFF75EFE022803D12000FFF7A2FDBC
:1040500016BD012803D10098FFF7F0FD16BD012021
:1040600016BD38B5174800214356DAB2114C142555
:10407000554364196589002D03D0A589248AA5427A
:1040800007D3521CD2B2022A00D100229A42EDD1AB
:1040900006E0531C5CB2022C00D10023190001E0A1
:1040A0000022D2430170100602D4D0B2FFF7C6FF3F
:1040B000002032BDC40A0020FFFF00000000FCEF1A
:1040C000FF07000033000020F0B583B004464348EA
:1040D0000460204607F078F90546204607F064F9A9
:1040E0000646684600F0C4FE0099091A4B0B3C498D
:1040F0000A681146D831002B02D11060012000E07F
:104100000020087037480068447B0021FF2C0AD04B
:104110002C206043344A12681018827C002A02D096
:10412000416AC068FFE70127002E05D0002D03D1AA
:1041300000292A4E08D109E0002D284E06D02B4A2E
:10414000914203D1002901D088470027306807F049
:1041500037F9002801D004251EE0306807F01AF96D
:10416000002801D0012517E0306807F017F9002872
:1041700001D0022510E0306807F02AF90525002853
:104180000AD1306807F028F9002805D1306807F017
:10419000EDF800281FD000250120A8401449096827
:1041A0000A6802430A60002007F07CFB00F05BFE17
:1041B000204607F089FB0A480468607D012808D181
:1041C000217C0F200840E268090907F03FFD00202C
:1041D000607503B0F0BD002FE8D1ECE7940B002030
:1041E0005C0B0020600B0020640B00202F290410C2
:1041F000A00B0020BCB55D4CA16900910840A061F6
:1042000035E0521CD300E51803000B402F681F4017
:10421000F7D02A68104001406868084002D10020A9
:10422000C04368606868084000F0A4F801006A684C
:104230000120884082436A606162EFF3108172B6A8
:10424000626A01209040C243206910402061022030
:10425000C300E318083B1D6815401D60401EF7D1E0
:1042600081F310884248616A890040588047236979
:10427000E2696069256AA16903400B4003D01540DB
:1042800001D10022BEE70020C0436062206A1040D6
:1042900014D102F03EF9EFF3108572B62169E0699E
:1042A00062690A40A169114004D1216A014001D12B
:1042B00002F030F985F3108807F0C9FC0098A0617E
:1042C000B3BD38B51400EFF3108572B600F052F8A4
:1042D000800027490C5085F3108831BD10B5EFF3ED
:1042E000108272B6214B1C6904431C61C900591825
:1042F0000B681843086082F3108810BDEFF310813B
:1043000072B61A4AD3691843D06181F31088704796
:10431000EFF3108172B6154AD3698343D36181F3F9
:1043200010887047F8B5114D696A00910022D24398
:10433000914201D1002701E001278F402E6A2862B7
:10434000040003E02100380007F082FCE869204007
:10435000F8D000986862EFF3108072B6E969A14363
:10436000E96180F310882E62F1BD0000A0030020F7
:10437000740800200021020C120401D11021000455
:10438000020E120601D108310002020F120701D1FC
:10439000091D00011F22511A02A2000F105C081A09
:1043A000C0B27047040302020101010100000000D5
:1043B0000000000010B5FFF7EDFC424C211D00206D
:1043C000FFF70BFD210014310120FFF706FD201D32
:1043D000206010BD3EB53B4D022802D12C001434A4
:1043E00000E02C1D2C6001936B461B8B00930B008F
:1043F00001002000FFF732FD002805D0022801D17E
:10440000002000E00120C0433EBDF8B584B00E009E
:1044100019002C4C022E03D125001435012301E094
:10442000251D00230700256028466D466A810391FB
:104430000A9D022F08D102A900912B00039A694618
:104440004989FFF7F4FC0FE0002F03D101001800A9
:10445000FFF7C3FC02A801900095039B68464289C0
:1044600031002068FFF7CDFC010001D1002005E0FC
:10447000042801D1022000E00120C04305B0F0BDB6
:1044800010B5140023000A0001000E480068FFF771
:1044900081FA002804D001D5200010BD0220C043BD
:1044A00010BD80B5022807D106490868143188423A
:1044B00007D0FFF753FD01BD032802D10020FFF70D
:1044C00077FD01BDEC0A00200120FFE709490860E3
:1044D000002070470020EFF3108172B6054A136880
:1044E000032B02D00120C04301E00123136081F3BC
:1044F000108870479C03002038B50024C34D3B2032
:104500006043281807F0A9FB641C042CF7DB31BDBD
:10451000F8B50C001600FF2909D00700042F01DBB5
:104520000220F2BD122007F0E9FB050001D10120B5
:10453000F2BD2900B5483B225743C01907F097FB4D
:10454000EE600A202872002028746C74F2BDF2B567
:1045500015001E0069460978042907DA07000009DA
:10456000801C103007F0CAFB040001D10020F2BD0E
:104570002100BA486A4612783B235A43801807F054
:1045800076FBE660FF2D01D1052000E00A202072B5
:10459000277465742000F2BD70B51C0013000A007A
:1045A0000100B020FFF7D3FF050001D1012070BD4D
:1045B000049EAC740024EC7407211430FDF748FC11
:1045C000300001D1EC7605E0012E01D1EE7601E05C
:1045D0000220E8762C77002070BD38B51D0013004E
:1045E0000A000100BF20FFF7B2FF040001D1012043
:1045F00032BD0B211230FDF72BFC280007F01EFC0A
:104600000B2803D2280007F019FC00E00B20020061
:10461000290020001230FDF73DFC002032BD10B50E
:104620001C0013000A0001003F20FFF790FF002844
:1046300001D1012010BD02998474220AC27401754F
:10464000002010BD10B51C0013000A00010010204E
:10465000FFF77DFF002801D1012010BD84740020E8
:1046600010BD10B51C0013000A0001002020FFF748
:104670006EFF002801D1012010BD02998474C1741D
:10468000002010BDF1B592B00024002712A80078D8
:1046900003286DDC6A46107501255C493B225043B6
:1046A00008180190019807F0D1FB009000260CE05B
:1046B000401E009908726946009807F012FB002C12
:1046C00003D0200007F0CDFB002400980199884218
:1046D00023D07F1CF8B2082803DD0098407CFF2817
:1046E0001BD10098007C0009801C029002982818B9
:1046F000312812D2029A0099103105A84019FDF70D
:10470000C9FB02982D18EDB20098007A0028CFD18D
:10471000009807F0C3FA009CCDE7012D01D10E727D
:1047200026E0681C48723420019988722A0005A985
:1047300001980B30FDF7AEFBAD1C0198057203A884
:1047400012A909780170467008218170C57001981E
:104750000930049003AA0121002007F086FB010024
:104760003F4802D0FDF70EFE02E04C30FDF70AFE96
:1047700013B0F0BDF0B585B005001700002004901F
:104780002C00042C40DA0293587834283CD16A4635
:10479000280000F03DF8002836D11C483B214C434E
:1047A00000190390039807F051FB01900298841CB4
:1047B00068464570029E049D1FE00198407C694652
:1047C000097888420FD10198C368002B03D02200DA
:1047D000684640789847019807F060FA019D207874
:1047E0000009801C241801A9019807F07AFA002D0D
:1047F00003D0280007F035FB002501980399884273
:1048000002D0F0198442D8D305B0F0BDF0050020E5
:1048100070B50023DB4304281DDA104C3B256843A8
:10482000201806000B36047AFE34E4B2751C08002A
:10483000190003E02B781B099B1CED1833199D42CE
:1048400009D2491C4BB28342F4D16878FF2802D0C8
:104850001070002070BD012070BD0000F005002028
:10486000DC0E0410F0B593B01F4615460E461290AC
:104870001C9C08461146224607F010FB002824D154
:1048800022980D901FAB0DCB11901E980F901D9884
:104890000E901B980C901A9919981097189F0892CF
:1048A00009930D9A0A920097019002910C98039037
:1048B00004940E9805900F980690119807901298FE
:1048C00031462A46109BFDF729FF13B0F0BD0300C7
:1048D000FFFFFFFFFFFFFFFFFFFFFFFFFFFF0100E5
:1048E00000000000FFFF01000000FFFF70B50500A1
:1048F00001D1012070BD286814490160144901608C
:1049000069684160A968816007F0DCFA0724060045
:104910002868C16821400AD007F0D4FA801B3128EA
:10492000F6D32868C0682040F2D0032070BDE96843
:1049300002698A4201D0016101E00649016000205C
:1049400070BD04490068016000207047CCCC0000B5
:1049500055550000AAAA0000010042221201D21EF1
:10496000004207D002D4521E0018FCD5C10A4005EF
:1049700012058918704700000100EED54042F44648
:10498000FFF7EBFF0122D20711436047F0B50E009D
:104990005E400125ED072E40B446AE0ADF184C18E4
:1049A000F44208D2F7420ED2640D01D07F0D12D12D
:1049B00000206146F0BD05D1F74201D87F0D05D139
:1049C0000020C143F0BDFBD1640DF9D00020C143EC
:1049D000490549088FE0E419C902DB0229432B434A
:1049E000DB0A460DC00231438E4630B487B295B221
:1049F0007D432E0CADB2140C7C43A419260C240468
:104A000025439CB27C43A419190C7943270CC9197E
:104A1000A4B20F043C43090C000C97B247432E0C80
:104A2000BE193543ADB2170C4743360CBF19A6B2B9
:104A3000BF193E043543240C3E0C36199FB2474340
:104A4000BF19BCB23E0C89191F0C47437F183E04A6
:104A50003443390C704680B297B247432E0CBE19CE
:104A60003543ADB2170C4743360CBF19A6B2BF1978
:104A70003E043543240C3E0C36199FB24743BF1900
:104A8000BCB23E0C89191F0C47437F183E043443C7
:104A9000390C77463F0C90B278432E0C80190604EF
:104AA000ADB22E43050CA0B22D18120C7A4350194A
:104AB000020C80B2240CA4189AB27A43121914047E
:104AC0002043120C89181B0C7B43C91830BCEF0A19
:104AD000394203D1B61940414941641E6F12BF0DDE
:104AE000E41B0BDBFF19BC4211DA24050027420846
:104AF000AE417841614166463143F0BD641C05D149
:104B0000401C6141CF0201D34908F4E750E75DE75B
:104B100030B4012464054D00EC420BD85D00EC423A
:104B200008D80C001C4364000443144304D28B4295
:104B300000D1824230BC7047FCD09942FAD19042F9
:104B4000F8E77047F4464A1805D200F00FF801D58F
:104B500080174008604700F009F80121C907884222
:104B600000D90800404260474A1812D2400DC902DD
:104B700008430121C9070843520D40210901521A77
:104B8000521C06D452421F3201D4D0407047C01785
:104B9000704700207047F0B40125ED070F005F401B
:104BA0004FD48B4200D1824205D984461000624620
:104BB0008C4619006346DF184C18640D7F0D3AD0FF
:104BC000661C760537D0E61B352E34DCDB022B4322
:104BD000DB0A0C0DC9022943C912202E0DDB170078
:104BE000203E06D01F00F741F3405F400026012A17
:104BF0007741C01871410DD217E01700F741F2401C
:104C00005740F3415A40B340F3405A4000268018C1
:104C100059410AD3A21C52050FD0C207012F72417D
:104C200017004008CB0718434908641C24054208B4
:104C3000AF4170416141F0BC7047641C2105002008
:104C4000F9E76B4010E06B40ABE7F742F3D1E94383
:104C5000F1E72442EFD100200021ECE7F0B4012578
:104C6000ED070F005F40EED40C00871A9C4105D27F
:104C7000C01BA141D219634169406B40AE0ADF18E5
:104C80004C18F442E1D2640D7F0DE2D0E61B362EC3
:104C9000D1DCDB022B43DB0AA4460C0DC9022943FD
:104CA000C90A012E28DC04D1D6075208DF073A438F
:104CB0005B08EF0A76429041994114D039423BD1CA
:104CC000B61940414941761C394204D1761C00187E
:104CD00049413942FAD0B9436746B74208D9A41BC3
:104CE00024052143A7E70042EAD13642E8D1A2E7F2
:104CF000E40AE10700209EE7202E0BDD203E1F0086
:104D0000F340F7415F40012A002257417E4298411B
:104D100091410BE01700F741F2405740F3415A40F0
:104D2000B340F3405A407E42904199410A0303D276
:104D3000641EB619404149410027641E24054208FB
:104D4000AE4178416141F0BC7047704738B505000D
:104D500007F0B8F804000020C043854202D00448A0
:104D600000782D1807F0AEF8001BA842FAD331BD29
:104D7000C80300207CB51C4615460E4601A90870E4
:104D8000084631461A4605F0EFFF002800D07CBDEA
:104D900001A8007831462A46234607F099F87CBDE1
:104DA00080B507F0B3F801BD80B50B0011001A0003
:104DB000FDF750F801BD80B506F0C8F902BD7FB51A
:104DC00004000D001600684607F006F968460178F1
:104DD000217041782970807830707FBD80B507F0F0
:104DE0004BF901BD80B507F089F902BD80B507F028
:104DF000A7F902BD80B507F0D7FA02BD80B507F06C
:104E00002BFB01BD80B507F02FFB01BD80B507F07E
:104E10003DFB02BD80B507F057FB02BD80B507F032
:104E200075FB02BD80B507F073FB02BD80B507F0CE
:104E300071FB01BD80B501F003FA02BD80B507F03A
:104E4000F4F802BD80B5FEF7F0F904BD80B5FEF7B9
:104E5000F7F902BD80B5FEF7FCF901BD80B5FEF79C
:104E60005DF9C0B202BD80B5FEF78AF9C0B202BDDD
:104E700080B5FEF735F904BD80B5FEF7B6F901BD82
:104E800000207047002070470020704700207047C6
:104E900000207047002070470020704700207047B6
:104EA000F0B597B00126B104544812910160BFF3E8
:104EB0004F8FBFF36F8F06F03AFAFFF7D4FF00244D
:104EC000E04306F022FAFFF7DBFF1190FFF7DAFF6D
:104ED0001090FDF7F5FD1390FFF7D6FF0F90FFF749
:104EE000D5FFFDF7A0FC0E90FFF7D2FF0790FDF76E
:104EF000FAFC0D90FDF713FD0C90FFF7CBFF0B9024
:104F0000FFF7CAFF0A90FDF792FC0990FFF7C6FF72
:104F1000089007F03DFB3621304607F03FFB38494B
:104F2000C97A34228154374D28600470286844704F
:104F3000286884702868E121C1700520C0012968B3
:104F400088803020088516AF15A914AA3846FFF7C7
:104F500036FF1498000239780901014315980003BF
:104F60000843001D296848851821304607F016FBC4
:104F700025490860047507F01BFB0898C0B2099921
:104F8000CCB20A99C9B20B9AD2B20C9BDBB20D9E7D
:104F9000F6B20E9FFFB2009701960293039204911E
:104FA000059406901198C0B21099CEB20F99CBB269
:104FB0003146139AFDF788FDFDF775FC012C01D1F0
:104FC000FDF739FC07F0FEFA28682C21405CC00789
:104FD0000FD1012C07D10798C0B2FDF768FCFDF78F
:104FE000A6FDFDF7A8FD304613993A46234607F083
:104FF00045FB06481299016017B0F0BD80E100E062
:105000005C0A00209C0B0020B80B002000E100E0AF
:105010000100202008437047FDB5B2B03A980491D2
:1050200002A93B22885400200D9024A8401C2F90F8
:105030000DE00498329A90470490002801D100F0C6
:10504000B7FE0D98401C0D903398401C3390339858
:105050000178002910D02529EBD100200790089075
:1050600009900A900B900C900021022401201490CA
:1050700008201290339D05E00D9800F09BFE08007B
:10508000149901436D1C28782028F8D023280BD0D0
:105090002B2804D02D2804D0302808D00AE0214342
:1050A000F0E708000421ECE708000821E9E7080020
:1050B0001021E6E72A280FD1349802681068121DE3
:1050C000349B1A600F90002804D542420F920800CA
:1050D000042101436D1C12E000200F90644A09E096
:1050E0000F9B934205DA9E00F3185B0018183038C6
:1050F0000F906D1C28780300303B0A2BF0D32878E2
:105100002E2803D00020C0430E9027E06D1C287885
:105110002A2808D1349800680268001D349B186062
:105120000E926D1C1AE02D2802D12D226D1C00E07C
:10513000002200200E900CE0002A09D10E9B4C4E5C
:10514000B34205DA9E00F3185B00181830380E9051
:105150006D1C28780300303B0A2BEDD302A8018791
:105160002E78310040487844FF30401E07F0E6FAC0
:10517000002801D06D1C00E0002602A83A21465408
:10518000405C682804D1287868280BD1622005E0AB
:105190006C2807D128786C2804D1712002A93A2202
:1051A00088546D1C15A80690287869460870681CFC
:1051B0003390684602781000253833D01C3800D16F
:1051C000CCE1001F022800D8C8E1133801D100F05B
:1051D00019FD093800D1C1E1801E01D100F0AFFDF9
:1051E000401E01D100F05CFD401E022800D8B5E150
:1051F000001F01D100F054FD401F00D108E1401E06
:1052000001D100F0FFFC401E00D1F0E0C01E0ED026
:10521000801E01D100F0F6FCC01E01D100F0F2FCAE
:1052200000F098FD14980790252015A97CE134988A
:1052300000680468001D349908600594002C00D0B3
:10524000C1E002A83B21405C002800D1B5E0002469
:10525000E44306487844143007F07AFA201A01D063
:1052600000F0A6FD00F083FD24BEFFFF58BEFFFF47
:10527000CBCCCC0C01236A4602A9280000F054FED6
:10528000002801D000F094FD641EF3D13295079DF3
:1052900015AC002D0FD0329E21780498B0470490B1
:1052A000002801D100F084FD0D98401C0D90641C75
:1052B0006D1EF1D132963020694608700A9C002C90
:1052C0000DDD329D01236A4602A9280000F02CFE64
:1052D000002801D000F06CFD641EF3D13295059CCE
:1052E000089D002D0FD0329E21780498B04704907D
:1052F000002801D100F05CFD0D98401C0D90641C4D
:105300006D1EF1D13296302769460F700B9C002C30
:105310000DDD329D01236A4602A9280000F004FE3B
:10532000002801D000F044FD641EF3D132950598A9
:1053300008994418099D002D0FD0329E21780498B9
:10534000B0470490002801D100F032FD0D98401CB8
:105350000D90641C6D1EF1D13296684607700C9C4E
:10536000002C0DDD329D01236A4602A9280000F0C1
:10537000DBFD002801D000F01BFD641EF3D1329547
:1053800002A83821405C400700D460E6202069462E
:1053900008700198002800DC59E6019C329D012329
:1053A0006A4602A9280000F0BFFD002801D000F0E5
:1053B000FFFC641EF3D1329549E61B4878446830FF
:1053C000059000F0D4FC0E9D002D03D5200006F0C2
:1053D00035FD09E02A000021200007F0DDF9002852
:1053E00001D0001B00E02800089000F0C0FC3498B9
:1053F00000680268001D349908600020C043002145
:10540000104002AA03C215A80590782100F093FC71
:1054100002A83B21415C002908D00024E4434B480A
:105420007844FF30293017E7B8BCFFFF3A21405CD1
:1054300062286AD0682819D06A2845D06C2806D01E
:1054400071284FD0742831D07A2821D06FE0349859
:1054500000680168001D349A106000297AD1002488
:10546000E4433B487844FF301738F5E63498006849
:105470000168001D349A1060002905D10024E4431E
:1054800033487844CA30E7E60D98088000F06FFC96
:10549000349800680168001D349A1060002959D1C1
:1054A0000024E4432A487844A630D5E634980068BE
:1054B0000168001D349A106000294BD10024E44398
:1054C000234878448A30C7E6349800680268001D93
:1054D00034990860002A13D10024E4431C4878441E
:1054E0006E30B9E6349800680268001D349908608F
:1054F000002A05D10024E443154878445230ABE635
:105500000D98C11703C200F032FC3498006801689E
:10551000001D349A1060002905D10024E4430C4892
:1055200078442C3098E60D98087000F020FC3498F0
:1055300000680168001D349A106000290AD1002417
:10554000E44303487844083086E600BF48BBFFFFC9
:105550005CBBFFFF0D98086000F009FC3498006800
:10556000C31D072083433498036003CB349D2B6015
:1055700002AB03C32023C80F04D007982D2115AB1D
:1055800019540DE002A8008F204204D007982B2167
:1055900015AB195404E0C00704D5079815A90B549E
:1055A000401C079015A80799401813901398059070
:1055B00024AD02A8C0C8684600782021014368468F
:1055C0008170807861280BD00E98002801D50620C4
:1055D00005E005D168468078672801D114980E90BF
:1055E00002A803C808004B005B150024E443A34253
:1055F0000ED109030CD003200890613A1A2A03D275
:105600001949794462310FE0184979445E310BE061
:10561000A3420ED100030CD103200890613A1A2A4C
:105620001DD313497944483103221398FCF732FC07
:105630009DE301AA02A803C807F0B9F802AA03C2B1
:105640006846807861281CD1059830210170811C42
:1056500005916946097861290ED178210DE0054947
:1056600079441031E0E700BF7CBAFFFF7CBAFFFF4E
:1056700080BAFFFF78BAFFFF582141700798801C5D
:10568000079002A803C82246530802400B4004D1E9
:10569000002A02D10024002652E168468078612861
:1056A00000D099E00E98002801D5212000E0401C90
:1056B00013901398401C2E903000390000220023D4
:1056C00007F08AF802A830C802D2802000064540C0
:1056D0000198001F019024A90A7024A8461C2E9846
:1056E000002832DD2E9F20002900002280235B034A
:1056F000FFF70EFA29D81C2207F087F804000D00E6
:10570000FFF720FA2E90FF1F002F09DDFFF734F975
:1057100002000B0020002900FFF7A0FA04000D0092
:10572000F01D07212E9A002A0ADD491E08D4401ECA
:1057300013071B0F03701211F5E7401E00220270C1
:10574000491EFAD5C61D002FCDDC24A82F99711A49
:1057500024AA551C139A0C00914200DD1400002C61
:1057600033D48C4205DA411C095D082901DB0F2185
:1057700000E00021220024AB9B1801E0641E5B1EA8
:10578000521E1E788E42F9D00F2904D1411C895C2B
:10579000491C401C8154002A04D524AD641C019886
:1057A000001D0190611E10D46A18684600781378B5
:1057B0003033DEB23A2E01DBC318C6331370491EF4
:1057C000521E0029F3D5694608700E98002800D4AF
:1057D000B5E0601E0E90B2E07F007F080198664938
:1057E0004843664905F096FB019007200199401A4D
:1057F000002805DD02003000390000F06FFB0AE0F0
:10580000424200205E4900F069FB02000B003000BC
:10581000390007F032F86A469278662A02D1019A76
:105820000A3200E006220E9B9A18142A00DD142288
:1058300024AB30241C705C1C02E030A803C8139A0F
:10584000002A3CDD30AB03C3139230A803C8FFF736
:105850008BF92E9006460834042530000A2105F005
:105860005CFB0F0030000A2105F057FB06003037C3
:10587000601E077030000A2105F04FFB0F0030005A
:105880000A2105F04AFB0600A41E303727706D1E62
:10589000E3D108341398083813900028CDDD2E98F2
:1058A000FFF75AF802000B0030A803C8FFF7D6F93B
:1058B0000022344BFFF76AF830AA03C2C5E72F98DD
:1058C000201A24A94D1C04E0401E0199491E019193
:1058D0006D1C29783029F7D069468978662902D16C
:1058E0000199491C06E069468978652901D1149916
:1058F00000E000210E9A5418A04200DA441E002C49
:105900001DD4844204DA285D342801DD392100E009
:1059100030212200681E831801E0641E5B1E521EA7
:105920001E788E42F9D0392902D1A95C491CA954AC
:10593000002A04D50500641C0198401C0190019EBA
:105940001395684600786946487007F00FF8406A7A
:105950000078694608700E9D20B2002804DC149C73
:10596000044878440E3013906846807866280BD13E
:10597000761C23E080B7FFFF97750000A08601002A
:105980000000F03F84D7974168468078672846D169
:1059900030B20321C943884247DBA84245DA761C6E
:1059A00002A8008F1299C0B2084203D120B2A842C7
:1059B00000DC050030B22D1A00D5002537B2002FCB
:1059C00000DDBAE00898411C08913021059A115475
:1059D000002D05DC02A8008F1299C0B2084206D043
:1059E0000898411C089169460978059A1154784233
:1059F000854200DA6E4236B270420B90AD1920B289
:105A0000854200DA2C0024B20994220013990598EB
:105A1000089BC018FCF73EFA281B0C90DAE0684699
:105A20004078612818D170201BE020B2A84206DA25
:105A300002A9098F129AC9B2114200D105006D1E48
:105A400000D5002568464078672802D16520694660
:105A500007E04520694604E068464078412801D1C6
:105A6000502048700898411C089113990978059AAC
:105A700011541398411C002D05DC02A8008F129AC6
:105A8000C0B2104219D00898421C08926A46127897
:105A9000059B1A54002D10DD641E20B2854200DAE9
:105AA0002C0022B20598089BC018FCF7F3F924B229
:105AB000089800190890281B0B9005980899401821
:105AC00069464978017031B2002903D42B21417015
:105AD000871C03E02D224270871C4E42002412AD29
