:020000041004E6
:1000000000000120C9DD051045E105104DE1051096
:1000100000000000000000000000000000000000E0
:1000200000000000000000000000000055E1051085
:10003000000000000000000057E1051059E1051024
:10004000835004108B52041047650410437E041043
:100050000000000000000000000000002F7F0410DE
:1000600061E10510C7830410638404107F920410BB
:10007000739304107DE1051000000000B1E105104C
:10008000B79904103F9D0410A1E105100000000085
:1000900099E10510000000000000000091E105104A
:1000A000639E0410A9E105104B9F04107FA5041066
:1000B000F7A604100000000000000000000000008F
:1000C000B40F00209E36000006000104000032003C
:1000D000F7000000FFFFFFFF6400011008000103AC
:1000E000F70001000001010202020200000100030A
:1000F000000400004572726F7220696E20424C4508
:100100005F535441434B5F496E697428292030780E
:10011000253032780D0A000020204661696C2020CD
:10012000203A206163695F68616C5F77726974650A
:100130005F636F6E6669675F6461746120636F6D92
:100140006D616E64202D20434F4E4649475F444108
:1001500054415F505542414444525F4F46465345D7
:10016000542C20726573756C743A203078253032C7
:10017000580A00002020537563636573733A206149
:1001800063695F68616C5F77726974655F636F6EE6
:100190006669675F6461746120636F6D6D616E6431
:1001A000202D20434F4E4649475F444154415F5004
:1001B0005542414444525F4F46465345540A00005D
:1001C00020204661696C2020203A206163695F68C5
:1001D000616C5F7365745F74785F706F7765725F71
:1001E0006C6576656C20636F6D6D616E642C20723A
:1001F0006573756C743A203078253032580A0000E7
:100200002020537563636573733A206163695F6887
:10021000616C5F7365745F74785F706F7765725F30
:100220006C6576656C20636F6D6D616E640A0000AD
:1002300020204661696C2020203A206163695F6755
:100240006174745F7372765F70726F66696C655FFC
:10025000696E697420636F6D6D616E642C207265C8
:1002600073756C743A203078253032580A000000DB
:100270002020537563636573733A206163695F6718
:100280006174745F7372765F70726F66696C655FBC
:10029000696E697420636F6D6D616E640A000000A1
:1002A00020204661696C2020203A206163695F67E5
:1002B00061705F696E697420636F6D6D616E642C2F
:1002C00020726573756C743A203078253032580A84
:1002D000000000002020537563636573733A20614A
:1002E00063695F6761705F696E697420636F6D6DCC
:1002F000616E640A0000000020205075626C696322
:1003000020426C7565746F6F746820416464726517
:1003100073733A20253032783A253032783A2530D6
:1003200032783A253032783A253032783A253032F0
:10033000780A000020204661696C2020203A20477E
:1003400061705F70726F66696C655F7365745F641E
:1003500065765F6E616D65202D2044657669636505
:10036000204E616D652C20726573756C743A203077
:1003700078253032580A0000202053756363657376
:10038000733A204761705F70726F66696C655F7366
:1003900065745F6465765F6E616D65202D204465D0
:1003A00076696365204E616D650A00002020466114
:1003B000696C2020203A204761705F70726F666917
:1003C0006C655F7365745F617070656172616E63A7
:1003D00065202D20417070656172616E63652C200F
:1003E000726573756C743A203078253032580A0083
:1003F0002020537563636573733A204761705F70A3
:10040000726F66696C655F7365745F61707065615A
:1004100072616E6365202D20417070656172616E3E
:1004200063650A0020204661696C2020203A20681C
:1004300063695F6C655F7365745F64656661756C45
:10044000745F70687920636F6D6D616E642C2072CB
:100450006573756C743A203078253032580A000084
:100460002020537563636573733A206863695F6C1A
:10047000655F7365745F64656661756C745F7068F1
:100480007920636F6D6D616E640A00002020466103
:10049000696C2020203A206163695F6761705F7337
:1004A00065745F696F5F6361706162696C697479BB
:1004B00020636F6D6D616E642C20726573756C7452
:1004C0003A203078253032580A0000002020537539
:1004D00063636573733A206163695F6761705F731B
:1004E00065745F696F5F6361706162696C6974797B
:1004F00020636F6D6D616E640A000000202046610C
:10050000696C2020203A206163695F6761705F73C6
:1005100065745F73656375726974795F726571750F
:100520006972656D656E747320636F6D6D616E6465
:100530002C20726573756C743A20307825303258EF
:100540000A0000002020537563636573733A2061CD
:1005500063695F6761705F7365745F73656375720C
:100560006974795F726571756972656D656E7473B2
:1005700020636F6D6D616E640A000000202046618B
:10058000696C2020203A206163695F6761705F6356
:100590006F6E6669677572655F66696C7465725FB8
:1005A0006163636570745F616E645F7265736F6CC5
:1005B00076696E675F6C69737420636F6D6D616ED1
:1005C000642C20726573756C743A20307825303253
:1005D000580A00002020537563636573733A2061E5
:1005E00063695F6761705F636F6E66696775726587
:1005F0005F66696C7465725F6163636570745F6187
:100600006E645F7265736F6C76696E675F6C697339
:100610007420636F6D6D616E640A00002020466176
:10062000696C2020203A206863695F6C655F7365A0
:10063000745F6576656E745F6D61736B20636F6D5B
:100640006D616E642C20726573756C743A2030781D
:10065000253032580A00000020205375636365730B
:10066000733A206863695F6C655F7365745F657674
:10067000656E745F6D61736B20636F6D6D616E6429
:100680000A00000020204661696C2020203A206189
:1006900063695F68616C5F7365745F726164696FE1
:1006A0005F61637469766974795F6D61736B2063F0
:1006B0006F6D6D616E642C20726573756C743A2079
:1006C00030782532580A0000202053756363657323
:1006D000733A206163695F68616C5F7365745F7210
:1006E0006164696F5F61637469766974795F6D6174
:1006F000736B20636F6D6D616E640A0D0000000006
:100700003E3E3D3D204843495F444953434F4E4E92
:10071000454354494F4E5F434F4D504C4554455F00
:100720004556545F434F44450A00000020202020D6
:10073000202D20436F6E6E656374696F6E20486173
:100740006E646C653A2020203078253032580A20BB
:10075000202020202D20526561736F6E3A202020CA
:10076000203078253032580A000000003E3E3D3DE2
:10077000204843495F4C455F434F4E4E45435449E3
:100780004F4E5F5550444154455F434F4D504C458B
:1007900054455F5355424556545F434F44450A0004
:1007A00020202020202D20436F6E6E656374696FBA
:1007B0006E20496E74657276616C3A202020256443
:1007C0002E25303264206D730A20202020202D2019
:1007D000436F6E6E656374696F6E206C6174656ED5
:1007E00063793A2020202025640A20202020202D13
:1007F000205375706572766973696F6E2054696DE8
:10080000656F75743A2020202564206D730A0000FE
:100810004843495F4C455F504552494F4449435F07
:100820004144564552544953494E475F53594E43EC
:100830005F5452414E534645525F524543454956D7
:1008400045445F56320A00004843495F4C455F50BB
:100850004552494F4449435F4144564552544953D8
:10086000494E475F53594E435F4C4F53540A000063
:100870003E3E3D3D204143495F4741505F50524F0E
:10088000435F434F4D504C4554455F565345565476
:100890005F434F44450A00003E3E3D3D20414349F1
:1008A0005F4741505F4B455950524553535F4E4F40
:1008B00054494649434154494F4E5F565345565457
:1008C0005F434F44450A00003E3E3D3D20414349C1
:1008D0005F4741505F504153534B45595F5245511B
:1008E0005F56534556545F434F44450A000000008D
:1008F0003D3D3E3E206163695F6761705F7061737B
:10090000736B65795F72657370203A204661696C1C
:100910002C20726561736F6E3A2030782530325822
:100920000A0000003D3D3E3E206163695F676170E3
:100930005F706173736B65795F72657370203A20C5
:10094000537563636573730A000000003E3E3D3DCE
:10095000204143495F4741505F4E554D4552494301
:100960005F434F4D50415249534F4E5F56414C5596
:10097000455F56534556545F434F44450A000000B7
:100980003D3D3E3E206163695F6761705F6E756DDE
:10099000657269635F636F6D70617269736F6E5FBB
:1009A00076616C75655F636F6E6669726D5F7965A0
:1009B000736E6F203A204661696C2C2072656173FA
:1009C0006F6E3A203078253032580A003D3D3E3E69
:1009D000206163695F6761705F6E756D65726963E1
:1009E0005F636F6D70617269736F6E5F76616C7556
:1009F000655F636F6E6669726D5F7965736E6F2098
:100A00003A20537563636573730A00003E3E3D3DB3
:100A1000204143495F4741505F50414952494E4749
:100A20005F434F4D504C4554455F56534556545FB8
:100A3000434F44450A00000020202020202D205054
:100A4000616972696E67204B4F0A20202020202D9B
:100A5000205374617475733A203078253032580A07
:100A600020202020202D20526561736F6E3A2030A7
:100A700078253032580A00003E3E3D3D20686369CB
:100A80005F6C655F636F6E6E656374696F6E5F63E5
:100A90006F6D706C6574655F6576656E74202D2072
:100AA000436F6E6E656374696F6E2068616E646C0F
:100AB000653A203078253034580A00002020202064
:100AC000202D20436F6E6E656374696F6E206573B1
:100AD0007461626C6973686564207769746820402A
:100AE0003A253032783A253032783A253032783A21
:100AF000253032783A253032783A253032780A007B
:100B000020202020202D20436F6E6E656374696F56
:100B10006E20496E74657276616C3A2020202564DF
:100B20002E25303264206D730A20202020202D20B5
:100B3000436F6E6E656374696F6E206C6174656E71
:100B400063793A2020202025640A20202020202DAF
:100B5000205375706572766973696F6E2054696D84
:100B6000656F75743A202564206D730A00000000DB
:100B70006863695F6C655F726561645F7068792046
:100B80006661696C7572653A20726561736F6E3D5E
:100B90003078253032580A003D3D3E3E206863697A
:100BA0005F6C655F7365745F706879205048592089
:100BB000506172616D202054583D2025642C2052D4
:100BC000583D202564202D20000000006163695FEE
:100BD0006761705F7465726D696E617465206661CE
:100BE000696C7572653A20726561736F6E3D30781D
:100BF000253032580A0000003D3D3E3E20616369C9
:100C00005F6761705F7465726D696E617465203ACB
:100C100020537563636573730A0000006163695F45
:100C2000676174745F636C745F65786368616E6735
:100C3000655F636F6E666967206661696C75726572
:100C40003A20726561736F6E3D3078253032580AF4
:100C5000000000003D3D3E3E206163695F676174B6
:100C6000745F636C745F65786368616E67655F630A
:100C70006F6E666967203A20537563636573730A04
:100C8000000000003D3D3E3E206163695F6761708A
:100C90005F7365745F6164766572746973696E67AA
:100CA0005F636F6E66696775726174696F6E202D20
:100CB000206661696C2C20726573756C743A203003
:100CC00078253032580A00003D3D3E3E2053756382
:100CD000636573733A206163695F6761705F736511
:100CE000745F6164766572746973696E675F636F60
:100CF0006E66696775726174696F6E0A0000000044
:100D00003D3D3E3E206163695F6761705F7365745E
:100D10005F6164766572746973696E675F6461743C
:100D200061204661696C65642C20726573756C7412
:100D30003A203078253032580A0000003D3D3E3ED2
:100D400020537563636573733A206163695F6761FC
:100D5000705F7365745F6164766572746973696EE0
:100D6000675F646174610A003D3D3E3E20616369D6
:100D70005F6761705F7365745F61647665727469E3
:100D800073696E675F656E61626C65204661696C50
:100D900065642C20726573756C743A203078253048
:100DA00032580A003D3D3E3E2053756363657373C0
:100DB0003A206163695F6761705F7365745F616446
:100DC000766572746973696E675F656E61626C6582
:100DD0000A00000044697361626C65206164766595
:100DE00072746973696E67202D206661696C2C20AE
:100DF000726573756C743A203078253032580A0069
:100E00003D3D3E3E2044697361626C6520616476BD
:100E10006572746973696E67202D2053756363650D
:100E200073730A006163695F6C326361705F636F43
:100E30006E6E656374696F6E5F706172616D65740B
:100E400065725F7570646174655F726571202D20D5
:100E50006661696C2C20726573756C743A20307809
:100E6000253032580A0000003D3D3E3E2061636956
:100E70005F6C326361705F636F6E6E656374696F20
:100E80006E5F706172616D657465725F75706461CB
:100E900074655F726571202D20537563636573738C
:100EA0000A0000006863695F6C655F7365745F6466
:100EB000656661756C745F706572696F6469635FA4
:100EC0006164766572746973696E675F73796E6366
:100ED0005F7472616E736665725F706172616D6579
:100EE00074657273206661696C7572653A2072650B
:100EF00061736F6E3D3078253032580A0000000073
:100F00003D3D3E3E206863695F6C655F7365745F5D
:100F100064656661756C745F706572696F6469633E
:100F20005F6164766572746973696E675F73796E09
:100F3000635F7472616E736665725F706172616D1A
:100F40006574657273203A20537563636573730A21
:100F5000000000006863695F6C655F7365745F70B3
:100F60006572696F6469635F73796E635F737562DD
:100F70006576656E74206661696C7572653A20727B
:100F80006561736F6E3D3078253032580A0000007D
:100F90003D3D3E3E206863695F6C655F7365745FCD
:100FA000706572696F6469635F73796E635F73758F
:100FB000626576656E74203A20537563636573735A
:100FC0000A0000006863695F6C655F7365745F7039
:100FD0006572696F6469635F616476657274697371
:100FE000696E675F726563656976655F656E61628C
:100FF0006C65206661696C7572653A207265617313
:101000006F6E3D3078253032580A00003D3D3E3E3F
:10101000206863695F6C655F7365745F7065726992
:101020006F6469635F6164766572746973696E6722
:101030005F726563656976655F656E61626C652088
:101040003A20537563636573730A00006163695FD7
:101050006761705F7465726D696E61746520666149
:10106000696C7572653A20726561736F6E3D307898
:10107000253032580A0000003D3D3E3E2061636944
:101080005F6761705F7465726D696E617465203A47
:1010900020537563636573730A000000456E642016
:1010A0006F662045534C5F50524F46494C455F4157
:1010B00064765061796C6F616452656365697665C9
:1010C000640A00006C6C5F7365745F706572696FB1
:1010D0006469635F6164766572746973696E675F82
:1010E000726573706F6E73655F646174615F707455
:1010F00072206661696C7572653A20726561736F02
:101100006E3D3078253032582C2053796E635F481D
:10111000616E646C65203078253034582C2052651F
:1011200071756573745F4576656E742025642C2037
:101130005375626576656E742025642C2052657344
:10114000706F6E73655F536C6F742025640A0000C6
:101150003D3D3E3E206C6C5F7365745F70657269E7
:101160006F6469635F6164766572746973696E67E1
:101170005F726573706F6E73655F646174615F70D9
:101180007472203A20537563636573730A0000001C
:1011900000000000020000003000002000000000FD
:1011A000080000000C030020000000000100000007
:1011B000180500200000FFFF0000000004000000F0
:1011C000B411041000000000050000006C0F0020A6
:1011D000000000000100000016C104100100000022
:1011E000030000007C0F002020000000FB349B5F08
:1011F0008000008000100000052A000010000000A0
:1012000001000000CC030020B81104100A00000007
:10121000FB349B5F8000008000100000292B000041
:10122000100000000000000000000000C4110410C5
:1012300002000000FB349B5F800000800010000073
:101240002A2B000010000000000000000000000039
:101250000000000002000000FB349B5F8000008063
:10126000001000003A2B00001000000000000000F9
:1012700000000000D011041096C298D84539A1F49E
:10128000A033EB2D817D0377F240A463E5E6BCF843
:1012900047422CE1F2D1176BF551BF376840B6CB0E
:1012A000CE5E316B5733CE2B169E0F7C4AEBE78E0A
:1012B0009B7F1AFEE242E34F00F00B100008000093
:1012C000AA02000000F80B10F8070100000000005F
:1012D00096C298D84539A1F4A033EB2D817D0377D0
:1012E000F240A463E5E6BCF847422CE1F2D1176B6B
:1012F000F551BF376840B6CBCE5E316B5733CE2B3E
:10130000169E0F7C4AEBE78E9B7F1AFEE242E34F6C
:10131000CAEBECEDEFF0F1F2F3F4F5F6F7F8F9FAC9
:10132000FAFCFDFDFEFEFFFF0000010203040506BE
:1013300008000000FDE0051009E105109BDF051025
:1013400051E0051009DE0510CFDE0510686A6C74E7
:101350007A4C00007072696E74665F733A20256E75
:1013600020646973616C6C6F776564007072696E7C
:1013700074663A2062616420256E20617267756D23
:10138000656E74007072696E74665F733A20626194
:101390006420257320617267756D656E74000000AE
:1013A000000000006E616E004E414E00696E6600E6
:1013B000494E460030002E00FB349B5F80000080C9
:1013C00000100000292B000010000000FB349B5F80
:1013D0008000008000100000052A000010000000BE
:1013E00002000000030000000300000006000000EF
:1013F00003000000030000003C000000700000003B
:1014000070000000D003000070000000C301000065
:1014100015E90510DFAF041043B30410A7C0041092
:10142000F3B60410752B0410E52B0410B93004102A
:10143000C1300410C9300410D1300410D930041068
:101440001DF105108130041069300410893004103A
:10145000972D0410052C04100F2F0410E52C0410F8
:10146000CBAE0410FD2B04105DED0510876D06104A
:10147000756A0610876F061099710610997106102B
:10148000AF720610876F06108974061089740610F3
:10149000897406108B6E06102F6A0610F369061009
:1014A000AF720610ED2B0410F52B041029780610EE
:1014B000317806102D7806103D2C0410452C0410B0
:1014C0004D2C0410552C04107D2C0410652C041098
:1014D0006D2C0410752C04105D2C0410852C041048
:1014E0008D2C0410952C04109D2C0410A52C041098
:1014F000BFF34F8FAA48C2490860BFF34F8F00BFA8
:10150000FDE70000F0B595B0062106A800F038FE12
:10151000002469468C81BB4E08A83100342200F0BB
:1015200037FE08A800F06AFE002806D0010030004F
:10153000343001F0CDF801F0E4F906A80121017082
:1015400002214170AA228270E122C27080220271BF
:10155000417106AA0621002001F000FA002805D0FA
:1015600001003000583001F0B3F803E03000B4302F
:1015700001F0AEF81821002001F0F4F9002806D09F
:10158000010080204000301801F0A2F804E0A02003
:101590004000301801F09CF805A9012001F0E6F99F
:1015A000002806D00100B8204000301801F090F863
:1015B00004E0D8204000301801F08AF80021002013
:1015C00001F008FA002806D00100F0204000301891
:1015D00001F07EF804E085208000301801F078F8F2
:1015E00003A8801C009004AB04AA921C00210920CF
:1015F00001F0F8F906A8017802914178019181780B
:101600000091C378027941798E208000301801F072
:101610005FF800207C4F01E0401CC0B23918097C03
:1016200000290DD00028F7D03A18D27B582AF3D1E0
:101630005829F1D139180F316846007E00F047FD76
:101640003D5D781C005D09280CD1601939180878B7
:10165000582807D1491E0878582803D16846007ECB
:1016600000F035FD6419641CA4B20F2CE8DB3A00CD
:1016700010320621002001F0F6F9002806D0010002
:101680009D208000301801F023F804E0AE20800097
:10169000301801F01DF803AA0221002001F0E9F939
:1016A000002806D00100BB208000301801F010F89F
:1016B00004E0CC208000301801F00AF80222022158
:1016C000002001F046FD002806D00100D92080004E
:1016D000301800F0FDFF04E0E8208000301800F032
:1016E000F7FF7B4D01240120287001F0FDFC00284C
:1016F00006D00100F3208000301800F0E9FF03E07D
:101700007448301800F0E4FF6C700820E870102076
:101710002871AC70002002901020019008200090E9
:10172000002301220121012001F0E2FC002805D064
:1017300001006948301800F0CBFF03E0674830181B
:1017400000F0C6FFA87800280ED0012001F00DFDA2
:10175000002805D001006248301800F0B9FF03E00E
:101760006048301800F0B4FF684600BF0DA10CC9F6
:101770000CC0684601F009FD002805D001005A4858
:10178000301800F0A5FF04E0B320C000301800F0CE
:101790009FFF00BF05A000F09BFF15B0F0BD00004B
:1017A0000400FA05FF80FFFF30FFFFFF3D3D3E3E96
:1017B00020456E6420424C455F496E697420667511
:1017C0006E6374696F6E0A0080B5012101203AE0F2
:1017D00080B5012001F0ECFC01F0EDFC01F0FEFC15
:1017E000002801D1FFF7F0FF3948807B042801D0A1
:1017F000052801D100F095FC012001F0DAFC01BDC3
:101800000CED00E0C00004108802002080B501F05B
:10181000DBFD01BD80B50021022014E080B502F09F
:101820006EFF01BD80B502E080B5FFF7F3FFFFF763
:10183000CBFF01BD80B502F095FFFFF7C5FFFFF7B5
:10184000E9FF0121042003F097F801BD10B5274AF4
:101850000021012003F083F8254A0021022003F033
:101860007EF8244A0021042003F079F803F0E6F81A
:1018700003F06EF90021C943884201D101F041F81B
:10188000FFF740FEFFF7A0FF114C0020A0731A489D
:10189000A0811A4A0021402003F061F8184A002173
:1018A000802003F05CF81748A061062003F08AF955
:1018B0000100154802D000F00BFF02E0443000F0B8
:1018C00007FF03F087F9012000F0D8FA10BD0000EF
:1018D000A80E00200C0400003C040000840400005A
:1018E000BC040000140500005C050000D1170410C2
:1018F0000D1804101D180410FFFF0000BF20041075
:1019000075DE0410AD20041084060410FEB5050039
:101910002878042802D0822802D0F7BDE81C00E015
:10192000281D009069780027AE4EAF4C052908D0DD
:10193000102900D1A6E13E2927D0FF2900D123E1BB
:10194000AAE1287969790906090C0843B189884216
:1019500018D1A648B081B07B022800D1B77320000F
:1019600000F0B6FE297968790006000C0143AA79D7
:1019700020002C3000F0ACFEB07B062802D0012005
:1019800000F07CFA00F087FBF7BDE978012900D16F
:10199000A7E003290FD00C2900D18FE0102900D136
:1019A000E5E0252900D1CFE0262900D1B7E029299B
:1019B00000D187E0E5E020006C3000F089FEE87996
:1019C000297A0906090C084303F066FA0022B44B91
:1019D00003F07CFA002280235B0303F039FBE879F3
:1019E000297A21D80906090C0843EE79297A0906D3
:1019F000090C0E4303F050FA0022A94B03F066FADB
:101A000000900191300003F047FA0022A44B03F04C
:101A10005DFA03F037FB03F04FFA02000B00009869
:101A2000019903F0BBFB1EE00906090C0843EE799F
:101A3000297A0906090C0E4303F02EFA0022984B6E
:101A400003F044FA03F01EFB03F036FA0090019114
:101A5000300003F021FA0022924B03F037FA009A8B
:101A6000019B03F038FB00228F4B03F02FFA03F0A9
:101A700009FBEA7A297B0906090C0A436B7AA97AE1
:101A80000906090C0B43E9792E7A3606360C3143E8
:101A90000A255543009506001D00080003F0FCF9D7
:101AA00000227F4B03F012FA03F0ECFA01002B0046
:101AB00032002000A03000F00BFEF7BD012002F044
:101AC0006BFFF7BDE87F6D1CE97F6D1E0906090CF1
:101AD00008436A7FA97F0906090C0A43EB7E297F28
:101AE0000BE0E87C297D0906090C08436A7CA97C87
:101AF0000906090C0A43EB7B297C0906090C0B43F8
:101B00006979AC792406240C214302900192009358
:101B10002B0009332A7A287900F03AF9F7BD88209A
:101B20004000201800F0D4FD2979002909D10620B1
:101B3000B073687AA97A0906090C084303F05FF8C4
:101B4000F7BD00BF59A0A8E0287B00280CD1687B16
:101B5000002809D0687AA97A0906090C08436A7B2B
:101B600029000E3103F081F800F0DBFAF7BDA42064
:101B70004000201800F0ACFDB773002000F07EF9A3
:101B8000F7BD00BF4DA088E0009908784A7812069A
:101B9000120C1043001FF3D0801E66D0AD49401ACE
:101BA0004CD0401E0FD0401F07D0801E22D0401EB8
:101BB00006D0491F401AE3D05CE0B82040003BE06B
:101BC000CC20400038E0E4204000201800F080FDE8
:101BD000A149B08901F09AFA002809D00100F82043
:101BE000400025E0A80E002000070410FFFF0000C1
:101BF000892020E093208000201800F069FD0098E3
:101C0000001D03F043FB010033A000F061FD0098CC
:101C1000001D03F03BFB010036A000F059FD01213F
:101C2000B08901F077FA002804D00100A0208000DC
:101C3000201832E0B3208000201813E0C320800079
:101C4000201800F045FD00980179002906D042795E
:101C5000CE208000201800F03BFD02E02BA000F019
:101C600037FD7EA000F034FDF7BD89782DA000F08F
:101C70002FFD0FE00098017842781206120C1143F4
:101C800030A00AE0E97800BF34A000F021FDE87838
:101C9000042804DAFFF72CFC38A000F019FDF7BD8A
:101CA0000000F43F0000F4BF000059405374617419
:101CB000757320253032580A000000004843495F00
:101CC0004C455F4D4554415F4556543A2030782588
:101CD0003032580A0000000020202020202D206EE5
:101CE000756D657269635F76616C7565203D202551
:101CF000640A000020202020202D204865785F768F
:101D0000616C7565203D2025780A00002020202088
:101D1000202D2050616972696E6720537563636579
:101D200073730A004143495F48414C5F46575F4522
:101D300052524F525F565345565420307825303218
:101D4000580A00004843495F56454E444F525F458C
:101D500056543A203078253034580A004843495FB9
:101D600048415244574152455F4552524F525F4598
:101D70005654203078253032580A00004843495FD5
:101D80004556454E543A203078253032580A0000E6
:101D9000F2B584B01C000A9D314800F099FC20780F
:101DA000029060780190A0780090E37822796179C0
:101DB0002C4800F08DFC280003F06EF802AA03C244
:101DC00002A80CC80020284903F080F804000D0088
:101DD00003F058F9019003F06FF806000F0020009F
:101DE0002900002280235B0303F032F904D832007B
:101DF0003B0003F0D3F909E002A80CC800201B49FE
:101E000003F064F832003B0003F065F90022184B40
:101E100003F05CF803F036F90C990B9B0A224A4355
:101E2000009202000199134800F052FC1248817B95
:101E3000012901D1032100E0022181736946098A49
:101E40008181103001F02BFD6846008A02F0D4FE3B
:101E500005B0F0BDFB03000007B201000A0000005E
:101E6000780A0410BC0A04100000F43F0000F4BF1C
:101E700000005940000B0410A80E0020F1B592B0EC
:101E8000A0200B90B427B24C8D20800020180F901A
:101E9000FC20400020180E90E620400020180D90F5
:101EA000C820400020180C90A42080002018019029
:101EB000992080002018009012A801780020A54DDC
:101EC0000A00052A45D801A39B5C9F440804168498
:101ED0003062042646E0C820C0000B90FA27FF00BD
:101EE00005263FE000260022002103F0DAF9010078
:101EF00000D18FE0AE73009800F0EAFB8DE0C827B8
:101F0000BF000B970026FA2040000290029880B292
:101F10000090B3B23A000B9989B2A88901F00EF98A
:101F2000002800D1B0E00100AD2080002018A6E01C
:101F30001321A88901F0D4F8002803D00100200063
:101F40005C309CE02000883000F0C2FB00F0A8F874
:101F50009FE0002906D00229C5D003D30429D5D09B
:101F600060D396E0062110A800F00AF900200A903C
:101F70000990012008900020079001200690002081
:101F800005900490039002900720019000970B9B0E
:101F900001220221002003F088F9002806D0010068
:101FA0008A204000201800F093FB05E0AE73AC20BF
:101FB0004000201800F08CFB674B0F22032100200B
:101FC00003F0A8F9002804D001000C9800F080FB71
:101FD00002E00D9800F07CFB10AA0121012003F023
:101FE00060F9002849D10F9800F072FB28001030EA
:101FF00001F055FC12A80078012801D1574904E0EE
:1020000012A80078002844D155492800103001F06A
:1020100023FC3EE0019800F05BFB2800103001F04B
:102020003EFC36E0062102A800F0AAF800220021BA
:10203000002003F036F9002805D0AE7301000098A7
:1020400000F046FB02E0019800F042FB424B0F22F9
:102050000321002003F05EF9002804D001000C9851
:1020600000F036FB02E00D9800F032FB02AA0121DD
:10207000012003F016F9002804D001000E9800F0AA
:1020800027FB06E00F9802E0BE208000201800F039
:102090001FFB13B0F0BD80B5012002F07DFC01BD37
:1020A00080B5012002F082FC01BD000080B500BFB8
:1020B0002FA000F00DFB00214020FFF7C4FB80B5EE
:1020C0000220FFF7DBFE00202249887320E002098E
:1020D0000007000F0A2A01DB373200E030320A70B5
:1020E0000A2801DB373000E030304870704780B597
:1020F00000218020FFF7A7FB80B58020C00119498F
:102100000A6802430A60096808400090009809E0E4
:10211000154803F02EF913480168144A0A4002607A
:1021200001BD80B5104803F024F901BD80B5094810
:10213000807B002802D0052808D101E0FFF7DCFFF2
:102140000220FFF79BFE0120FFF798FE01BD000073
:10215000700B0410A80E002088020020905F010080
:10216000A0BB0D0054004048200F0020FFBFFFFF20
:102170004164765F43616E63656C5F5265710A000E
:10218000002200BF094202D0491E4254FCD17047D0
:1021900070B4103A03D378C9103A78C0FBD2530711
:1021A00001D318C918C001D508C908C0D20704D383
:1021B0000B880380891C801C002A01D50B780370D2
:1021C00070BC70478B0701D18307E1D0124205D064
:1021D0000B78491C0370401C521EF9D170478300D4
:1021E0008500070007008300850005000700030045
:1021F00003000F000500820081000500F0B597B0D4
:102200000546C07A1224802800D95AE2298C172961
:1022100000D256E2F948821D914200D951E2298A42
:10222000172900D24DE2814200D94AE2A87E002857
:1022300000D146E200F09FFD00280BD0E87E002888
:1022400000D13EE2802800D93BE2287F401E0E28C4
:1022500000D936E2EA4C34222046294603F094F8AD
:10226000E84814905320C043169000F0DFFC01288A
:1022700004D0E07A002801D1149811E02546169C7C
:10228000243400F0D3FCE97A6143DE4A504310184D
:10229000441800F0CBFCE97A4143DB48484320185E
:1022A0001630149000F0C2FC012811D1169B18467C
:1022B0004C30D34C2189414318463030A27A4243F6
:1022C000501819463431227B4A438018099002E0A5
:1022D00000200990FC4CE089119000F09BFC012843
:1022E00001D000F05EFE00F099FC01280AD1169C96
:1022F000243400F09BFC6043F34CE17A41430839FD
:10230000039101E000200390F0484C30139000F05E
:1023100048FE012815D000F07DFC012811D02920AD
:10232000205C00280DD12520205C002809D1262022
:10233000205C002802D0E5484C3001E016981030AF
:102340001390E2486C30129000F02BFE012815D05B
:1023500000F060FC012811D02920205C00280DD15C
:102360002520205C002809D12620205C002802D0EE
:10237000D6486C3001E016982830129000F011FE1B
:102380001090A07E0090E07F0F9000F04FFC07902F
:10239000E07F019000F003FD0890E07F029000F0E4
:1023A00089FC002500F03EFC01282846159549D1FE
:1023B000607F0A2800D30A20169D24354543C03D7E
:1023C000002600F0C4FC01280E961BD100F02EFC64
:1023D000012802D01698403001E016983430BB49ED
:1023E000E031A27F4A43101816994C31E27F9140A8
:1023F000461800F01BFC012804D116983C30E17A05
:1024000041437618AF1900F0B6FC054600F09FFC7A
:1024100006462E4000F00AFC304001280E9808D1F4
:10242000E07E401E03210143A07FB0224243D043FF
:10243000401A3C1800F0B5FD6043A34CA3490818AE
:102440003030159D069000F0F1FB0128284608D198
:1024500003F012F80128284603D12220205C1699A7
:102460004843059000F073FC0128284620D1974886
:10247000D430A17E414316983430E27A4243551855
:10248000002600F078FC012810D100F0CFFB0128D5
:102490000CD1169A10464430217F414310464C30EF
:1024A000E27E424350188438A67E4643A819159D03
:1024B0000E9002F0E3FF0128284631D100F0B6FB70
:1024C000012802D0169E483604E016984C30E67A71
:1024D00046430C3E2327E05D00250028284605D012
:1024E00000F0A4FBE05D40420321884380192426CC
:1024F000A15D169A50324A43871800F093FB0128D9
:102500000CD100F04EFD012808D100F020FC01287C
:1025100004D1A55D002D01D0169D3C357819159D7F
:102520000D9000F083FB0128294609D102F0A8FF95
:102530000128294604D116983430E17A41431439F0
:102540000C9100F073FB0128294608D102F09AFF94
:102550000128294603D116983830E17A41430B917E
:102560002620215C2520265C72182920205C0492FC
:10257000002A14D002462820235C169D28464C30A1
:102580005843F83848432723E35C2C4640345C43E7
:102590004E4B1B194C4C483373431D181046159570
:1025A00000280A900CD002462A20205C474F3B4668
:1025B000B03343432546C8375743FB18483B03E035
:1025C0002A20205C00232546039A28242C5D6143A1
:1025D000091827242C5D66433418601816D0169D00
:1025E0002E46383666432C4620344C43A1192C46DF
:1025F000483444430E19143E09E0C046FA03000073
:102600001C0E002020FCFFFF70FDFFFF0026079D31
:10261000149809990818169F39463031119C614366
:102620004018801813994018129941184C373C46AD
:102630000F9A94400919109A012A06D1234C009A46
:10264000544361184524A40009191F4C089A012D10
:1026500002D1019DAF40C919049D012A05D11698E8
:10266000001D029A9040411868390698059A08188A
:1026700080180E9940180D9940180C9940180B9924
:1026800040180A99CD4202D016990818443015997D
:102690004018C0188019616840180321C943E28DB1
:1026A000D21C0A40A38DDB1C0B409A18238EDB1C26
:1026B0000B40D118401A03D402F0E6FE002400E0DB
:1026C0008724204617B0F0BD1C0E002090FEFFFFAF
:1026D0000EB4C0B5020003A801900020009001AB29
:1026E0000121044878440C3002F08AFF029906B0B8
:1026F000084700BFBD42020081B0874901E081B0B8
:1027000086490A6802430A600968084000900098F8
:1027100001B0704781B08249F3E700007CB503F057
:1027200013FF00F075F800F099F80820FFF7E4FFB8
:102730000420FFF7E1FF00F03DFD00BF86A0006828
:102740000090784C606C0125ED430126304008D1A3
:10275000606A30436062606A284060620120FFF76F
:10276000D9FFC020C0050090684603F0FFFE684610
:102770000021002206C0606C304008D1606A064328
:102780006662606A054065620120FFF7C3FF664824
:1027900000681028FBD36846A02149000180002171
:1027A0008170019100F063FD604D6148286128004F
:1027B000103004F08DF8002801D000F0A2F800F0ED
:1027C00060F88020C001A16B0143A163A16B0140AF
:1027D00000910099A1690843A061A0695549014091
:1027E000A1612068C005FCD55348286005206860B9
:1027F0005248E860A860280002F090FD002801D04F
:1028000000F07FF8002004F0D3F804F07FF9FCE733
:1028100080B588B0182102A8FFF7B2FC68460021F5
:10282000002206C003200290802040020390102066
:10283000059002A804F056FA002801D000F061F8D3
:1028400000200090202001900021684604F072FBD7
:10285000002801D000F055F809B000BD80B586B061
:1028600018216846FFF78CFC02200090C0020590FA
:10287000684604F0FBFB002801D000F042F807B0E6
:1028800000BD10B586B01020FFF739FF2020FFF7FC
:1028900036FF2B4C2B4820600720E0610420A0610C
:1028A0000220206280036062C020C003606180203B
:1028B000000320610120E060200004F0A8FC002853
:1028C00001D000F01EF80C200090002001900321A0
:1028D0000291039004901C4805901C480268174917
:1028E00013000B408B4206D0120B53425BB2049391
:1028F0000068014005916946200004F09FFD06B084
:1029000010BD72B6BFF34F8F114812490860BFF374
:102910004F8F00BFFDE7000050004048580040487E
:10292000600040481C00404810180060200F002044
:1029300000003048FFBFFFFF00300040FF0F0000E5
:10294000A80D002000600041550500001C1E00106D
:102950000400FA050CED00E00000000080B504F072
:102960003BFE80BD80B504F0EFFE80BDF8B50600EB
:102970000F0000203880154C200000F0CFFB010034
:1029800023D1200000F0CEFB0400114DF00705D547
:102990002100280000F0CAFB010016D1280000F039
:1029A000C9FB388021002800243000F0BFFB010063
:1029B0000BD121002800483000F0B8FB010004D101
:1029C000210028006C3000F0B1FBF2BDE8030020CC
:1029D000E811041080B5022801D9122080BD04F04E
:1029E000D7FE80BDFEB504000E00002010800299C5
:1029F0000880089908800520204032D03D4F3800DB
:102A000000F08CFB01002DD13B4D280000F092FB23
:102A1000019908802800243000F08CFB029908807E
:102A2000380000F07FFB0700E00706D539002800DA
:102A3000483000F07BFB010014D12800483000F042
:102A400079FB08990880022E06D1390028006C30E5
:102A500000F06CFB010005D129A20821002000F044
:102A600002F80020FEBD70B504000D0016002248DB
:102A700004E070B504000D001600204800F05AFB79
:102A800033002A002100401C80B200F001F870BD24
:102A9000F3B581B017001D000024174E6946088069
:102AA00024206043301800F045FB002804D0401C6F
:102AB00069460988884202D0641C042CF0D3042C97
:102AC00009D068460389242044433419206A818848
:102AD000DA19914201DA1220FEBD29003A0080681D
:102AE000C018FFF76FFB206A0178890700D547807F
:102AF0000020FEBDA40300201403002038030020A2
:102B000053544D333257423030B58BB018AC247823
:102B10000A9417AC2478099416AC2478089415AC60
:102B20002478079414AC247806946D464C242C57D2
:102B3000059412AC24780494119C039410AC24786E
:102B400002940FAC247801940E9C009404F07CFE57
:102B50000BB030BD80B504F009FF02BD80B504F0B4
:102B600023FF02BD80B504F0A3FF02BD80B504F0D1
:102B7000B7FF02BD80B504F0D5FF01BD80B504F0FC
:102B8000F5FF01BD80B505F013F802BD80B505F075
:102B900023F802BD80B505F0ABF801BD80B505F0A6
:102BA000CDF801BD80B505F0F1F801BD80B505F0A7
:102BB000F4F801BD80B505F0F1F802BD80B505F06F
:102BC00007F902BD80B505F02CF902BD80B505F00E
:102BD00039F902BD80B505F049F902BD80B505F0AF
:102BE00079F902BD80B505F09DF901BD80B505F00C
:102BF0009FF902BD80B505F0C5F902BD80B505F0AD
:102C0000E3F901BD80B505F0F3F901BD80B505F02C
:102C100059FA02BD80B505F057FA02BD80B505F03E
:102C200055FA02BD80B505F053FA02BD80B505F036
:102C300051FA02BD80B505F04FFA02BD80B505F02E
:102C400067FA02BD80B505F088FA02BD80B505F0CF
:102C500096FA02BD80B505F0A4FA02BD80B505F074
:102C6000D3FA02BD80B505F008FB02BD80B505F0C2
:102C700012FB02BD80B505F01CFB02BD80B505F05E
:102C800026FB02BD80B505F034FB02BD80B505F022
:102C900038FB02BD80B505F046FB02BD80B505F0EE
:102CA0004AFB02BD80B505F055FB02BD80B505F0BD
:102CB0008BFB02BD80B505F0C1FB02BD80B505F000
:102CC000BFFB02BD80B505F0CDFB01BD80B505F0B1
:102CD000DFFB01BD80B505F019FC02BD80B505F034
:102CE0006BFC02BD80B505F06FFC01BD1FB5089CF3
:102CF0000294079C0194069C009405F095FC04B096
:102D000010BD1CB5059C0194049C009405F0C6FD03
:102D100016BD1CB56C46247D01946C46247C009441
:102D200005F0D0FE16BD80B505F014FF01BD80B5DD
:102D300005F098FF01BD80B505F0A8FF02BD80B584
:102D400006F03EF902BD80B506F07AF901BD80B506
:102D500006F0C8F902BD80B506F0C6F901BD80B520
:102D600006F03CFA02BD80B506F059FA01BD80B507
:102D700006F061FA01BD80B506F07FFA02BD80B5AC
:102D800006F07EFA01BD80B506F09EFA01BD80B561
:102D900006F0E2FA01BD80B506F0ECFA01BD80B59F
:102DA00006F076FB02BD80B506F074FB01BD80B570
:102DB00006F09AFB01BD80B506F0B2FB01BD80B5FF
:102DC00006F0C4FB01BD80B506F0D8FB01BD80B59F
:102DD00006F0ECFB02BD80B506F02AFD01BD80B512
:102DE00006F048FD01BD80B506F078FD02BD80B556
:102DF00006F07CFD01BD80B506F08CFD01BD80B5FF
:102E000006F09CFD01BD80B506F0ACFD02BD80B5AD
:102E100006F0D2FD01BD80B506F044FF01BD1CB532
:102E20006C46247C009406F04BFF13BD80B506F081
:102E30006FFF01BD80B506F083FF01BD80B506F0D0
:102E4000F3FF02BD80B507F00DF802BD80B507F0B5
:102E500025F802BD80B507F04BF802BD80B507F03C
:102E600075F801BD80B507F0A7F801BD80B507F082
:102E7000CBF801BD1CB5059C01946C46247C0094E4
:102E800007F00EF916BD80B507F004FA01BD80B554
:102E900007F04EFA01BD80B507F0A2FA01BD80B57A
:102EA00007F00AFB01BD80B507F04EFB01BD80B500
:102EB00007F066FB01BD80B507F0D2FB02BD80B50F
:102EC00007F01AFC01BD80B507F072FC01BD80B5AA
:102ED00007F076FC01BD80B507F07AFC01BD80B536
:102EE00007F07EFC01BD80B507F082FC01BD80B516
:102EF00007F086FC01BD80B507F0C2FC02BD80B5BD
:102F000007F0D2FC01BD80B507F026FD01BD80B5FC
:102F100007F07CFD01BD80B507F00CFE01BD1CB5BE
:102F20006C46A48A01946C46248A009407F026FE1D
:102F300013BD80B507F0F0FE01BD80B507F0A9FF15
:102F400001BD80B507F0ACFF01BD80B507F0BEFF45
:102F500001BD80B508F004F802BD80B508F040F866
:102F600002BD80B508F046F802BD80B508F072F8E1
:102F700001BD80B508F0E4F801BD80B508F01AF98C
:102F800001BD80B508F052F901BD80B508F08EF999
:102F900002BD80B508F0C2F902BD80B508F0D2F9D3
:102FA00001BD80B508F08EFA02BD80B508F08CFA3C
:102FB00002BD80B508F09EFA02BD18B587B010AC0E
:102FC000247806940FAC247805940EAC24780494ED
:102FD0000DAC247803940CAC247802940BAC2478C8
:102FE00001940AAC2478009408F010FB08B010BDDE
:102FF00080B508F03BFB02BD80B508F039FB02BD8F
:1030000080B508F077FB02BD80B508F023FC02BD57
:1030100080B508F039FC01BD80B508F04DFC01BD5C
:1030200080B508F063FC01BD80B508F077FC02BDF7
:1030300080B508F09BFC01BD80B508F0C5FC01BD62
:1030400080B508F0E1FC01BD80B508F027FD01BDA9
:1030500080B508F043FD02BD80B508F05BFD02BD00
:1030600080B508F085FD01BD80B508F0BBFD01BD50
:1030700080B508F095FE01BD80B508F0A7FE01BD42
:1030800080B508F0C9FE01BD80B508F0C9FE01BDDC
:1030900080B508F087FF02BD80B508F0D9FF02BDFA
:1030A00080B509F001F802BD80B509F035F801BD21
:1030B00080B509F081F801BD80B509F0E1F801BDE6
:1030C00080B509F0EDF801BD80B509F009F901BD41
:1030D00080B509F029F901BD80B509F0D1F901BD2C
:1030E00080B509F0E1F902BD80B509F0E1F902BD52
:1030F0001FB508AC247802946C46247F01946C467A
:10310000247E009409F0DCF904B010BD80B509F00C
:103110001BFA02BD80B509F023FA02BD80B509F0A3
:1031200027FA02BD80B509F027FA02BD80B509F083
:1031300027FA02BD80B509F027FA02BD1CB56C461E
:10314000248A009409F024FA16BD80B509F02DFAFE
:1031500002BD80B509F051FA02BD80B509F051FAFF
:1031600002BD80B509F05CFA02BDE0B501A90870A6
:1031700001220846114609F066FA002800D08CBDED
:1031800001A8007809F07DFA8CBD1CB5044668469C
:1031900009F0A0FA0020082806D06946095C225CE4
:1031A0000A432254401CF6E7204609F0CBFA1CBD26
:1031B00070477047704780B509F0D4FA80BD0300AE
:1031C000FFFFFFFFFFFFFFFFFFFFFFFFFFFF01000C
:1031D00000000000FFFF01000000FFFF80B509F0C4
:1031E000F5FA002804D104480068C07A002801D00C
:1031F000002080BD032080BD540F0020010005D4B5
:103200000121C006C00E8140674801607047C16857
:103210000322914302220A43C260704709E0C0685A
:103220008007800F022801D10120704700207047DD
:1032300000BFC16803229143C160704701617047BC
:1032400000697047816A594A0A4082627047816A00
:103250004800C00F704700697047816A802292055C
:103260000A438262704780687047C0687047F1B552
:1032700001274F48C06B38434D49C8630846806BEF
:10328000384388631720FFF7B9FF1420FFF7B6FF14
:1032900000984068002800D00120464D2870002684
:1032A000000603D100988078002813D04248C168F6
:1032B000C907FBD517210160C1683943C160466069
:1032C000C1683940FCD02800103000F045FBE869A7
:1032D000286209E0C82040032862E8613748A861F5
:1032E000374828613748686100984068002802D153
:1032F000A020C0050DE000030A2109F08AFA6860E9
:10330000BC4C200000F096FA01006868884202D3A5
:10331000200000F08FFA68602E7200980088290063
:1033200058310861A96900F09DFBB34C0020207062
:1033300000212A005832183203C21D4800682900B3
:1033400058318862002000212A005832203203C2FE
:103350002A00283203C234216854A84AA96968683F
:1033600009F0AEFA286328782074A6602773667384
:10337000E681290058314E72290058314E81AE65E0
:10338000EE65AB48A8646E6500F05BFA6A680023DE
:1033900012184B412800403000F082FB0121280028
:1033A00000F008FBF1BD000000E100E0FFFFFFBFFF
:1033B00010180060700B002004100060C2F5280097
:1033C0008D5B0000ECEB6501F8B586B00024694622
:1033D0000C70EFF3108572B696480190407A002881
:1033E0000BD000F02EFA944EB26DF36D8B4204D8E0
:1033F00001D3824201D20198447285F310888E4F26
:1034000038009130029028E0401C1CE004690573EC
:103410008168002900D088472000F7D169460198CB
:10342000406B00F0BBFB01994863684600780128B7
:103430000DD1EFF3108172B602980078421C029B06
:103440005B789A42E0D1029A107081F3108802985A
:10345000407805994018029948700298407802997E
:1034600009780A1A02D28020400012180026002A89
:103470002AD005926F480190446B04940394002570
:1034800002E0260024696D1C002C0FD0207B002850
:10349000F7D000F0D6F902000B0003CC083C801AEC
:1034A00099410029EDDB01DC0628EAD3280000253C
:1034B000002802D03561049400E003950498019936
:1034C000486303980028A8E7387A00287AD0AE48E5
:1034D00000680124204074D03E72AC48C1780029B5
:1034E00004D18178002901D0867057E0387800280F
:1034F00010D03800103000F02FFAB9693800583079
:10350000006980B200F0AEFA0021380000F052FAF3
:1035100034203C54EFF31080029072B69C4804684B
:10352000386A01909B4D2A00014638005830806A65
:10353000201A09F0C5F9390028310CC9002180187A
:1035400059413A005832183203C23878002816D14F
:1035500038005830806A201A396B88420FD22A000E
:1035600001990020C04309F0ABF9324D2900183110
:103570000CC90021801859412A00183203C23800B2
:103580005830846238005830183003C83A00283266
:1035900003C2F8693862029880F3108869463800DF
:1035A000583000F06DFB3800403000F078F900F042
:1035B00048F97A68002312184B413800403000F077
:1035C0006FFA15E03878002812D000F03AF93A0086
:1035D00028320CCAFA2464030025A4185D418D42E8
:1035E00006D801D3844203D23800403000F04BFAB1
:1035F00007B0F0BDFFEFFFFFF40B00202603000033
:103600007CB505008A4806680B4C6946200000F02E
:1036100089FA03C5083D5F4AE1690098801B09F0FB
:103620004FF9020003CD0023801A99417CBD0000B0
:10363000873A0410C80B0020700B0020F8B586B044
:1036400052480290007802994978884236D1814DDB
:10365000287A002832D1032400F0F3F804AA03C228
:1036600003A800F0EBFB0100280068302A0061325B
:103670006123EB5C002B02D15378002B01D0012990
:1036800002D19278002A1BD0AA6DEB6D00920193B3
:1036900004A9C0C9027F002392197B41AE6E0027A6
:1036A000B6185F41002152364F41009A019BBB4240
:1036B00024D301D8B24221D3022405E0002037E010
:1036C00002291BD0012919D0426A002A2FD0107B71
:1036D00000282CD003CA083A0090019104A8C0C861
:1036E000A86E002180197941002352305941009E73
:1036F000019F8F4204D801D3864201D2012017E0F6
:10370000032C13D11069002810D1280040308242C8
:103710000CD1012002998870002000F08FFA8648B1
:1037200001688B4A0A400260032001E00224200065
:1037300007B0F0BDF8B50300140000206A46107011
:103740000D0000D00125434A110060310D712500A4
:1037500000D001250D7014002834C0CC9C1B00251E
:10376000A4197D419465D5654870C87001208870A2
:1037700069461000583000F083FA012000F05EFA2C
:1037800068460078F2BD000010100060010C0020B7
:10379000101800603506000070B50320C04384494E
:1037A0000A6802400A600A681040086028480168F8
:1037B000674A0A400260274C2000583000254572B5
:1037C0004581EFF3108672B600F03BF8A26DE36D11
:1037D000121A8B418420205C0021121A8B4186F33F
:1037E0001088002B04DC01DB012A01D2012070BD0E
:1037F000002B04DC01DB0F2A01D2022070BD002067
:1038000070BDEFF3108072B652490968684A891C8E
:10381000516011680323994302230B43136080F323
:1038200010887047704700209C490870704700005E
:103830001400006080B57B4A0649C96909F040F868
:1038400002BD80B56946034800F06CF904BD000074
:1038500028180060700B0020F8B504000D00FFF779
:10386000F0FF06000F00290D28030A22002309F0AB
:1038700048F88019794102000B00200000F010F98F
:103880000400012000F0DAF9E0B2F2BD10B500F05A
:1038900007F90400012000F0D1F9E0B210BDF8B53D
:1038A0009F4C21680E00002300250A0001E035002E
:1038B0003669002E07D08642F9D137698E4201D190
:1038C0003A0000E02F616D462B7003732068904230
:1038D00015D06946100000F061F920606846007854
:1038E00000280DD0EFF3108072B661794A1CA379DD
:1038F0009A4200D0491C617180F31088F1BD2260AA
:10390000F1BD18B50020009000980B480168104ADE
:103910000A400260A0490A78531C4C78A34200D0A8
:10392000521C0A700121C2690A43C261C069014088
:10393000009111BD0000000030180060BC48816893
:1039400001220A43826000210160704700000000EC
:10395000FFFFFFBF1018006070B50400B54D2800D0
:10396000FFF781FC06002800FFF77DFC8642F6D1B8
:10397000002EF4D0B04932124A43F3B24B4319122D
:10398000511810314911E16026602800FFF76DFCE5
:1039900006002800FFF769FC8642F6D1002EF4D01D
:1039A000B011B149484380300012A060666070BD1C
:1039B0000C000060F8B505000F00AC4C607A7D216A
:1039C0004843C90008F022FF461CF6B2A84AA9697C
:1039D0001B2008F075FF2070607800F02DF83D2165
:1039E0006854E078801900F027F83821685420796D
:1039F000801900F021F839216854607900F01CF832
:103A00003A216854A07900F017F83B216854002F40
:103A100006D0E078801900F007F81B303C2168548C
:103A2000F1BD00003506000068214143090ADB2290
:103A30005043000C0818704700B502008D484069DB
:103A40000021002308F09CFF0322002308F098FFC8
:103A50008022D204002312184B41D20E5801024397
:103A6000100000BD80B5824A08F02AFF82498842D2
:103A700001DD080002E0102800DA10200005000E29
:103A80007E49086001BD10B57A4C2078002801D02D
:103A9000FFF754FF0120207210BD0000D30B00205F
:103AA000FEB500256C462570017B002901D0012060
:103AB000FEBD0CC0083801210173194C266801961F
:103AC000070001E035003669002E08D00CCE083E14
:103AD00003CF083F8B42F5D301D88242F2D338009E
:103AE0000661002D01D1019000E028610199814219
:103AF00013D1694600F052F820606846007800282B
:103B00000BD0EFF3108072B661794A1CA3799A4208
:103B100000D0491C617180F3108868460078FEBDB2
:103B2000FC0B00207FB504000D00EFF3108672B689
:103B3000206F616F02AA03C2BE48FFF78CFB03002F
:103B40002B60BD4D02A803C8009001912A00E169D5
:103B500080202058181A08F0B3FE0021009A019B1B
:103B600080185941A26FE36F99420FD801D3904258
:103B70000CD2009001912A00E1690020C04308F0B6
:103B80009FFE0021009A019B80185941A067E167C0
:103B900086F3108804B070BD010C0020F1B584B02C
:103BA0000F0004460020387000E02469002C3BD050
:103BB000207B0028F9D0EFF31080009072B6FFF759
:103BC00040FE0CCC083C121A8B4102A80CC002A883
:103BD00003C800291EDB01DC01281BD3244A254829
:103BE000836902A803C8190008F06AFE0500202DA9
:103BF00000D820258F4E3000FFF72DFB40190830EC
:103C0000F0623000FFF729FB306B8021C9050143CA
:103C1000316301E001203870009880F31088387813
:103C2000002801D0049800E0200005B0F0BD00009D
:103C30000810006000100060F6BC080010B59C4938
:103C40000C009034002808D0207800280BD1080000
:103C50004030FFF718FF012004E008004030FFF774
:103C60001EFE0020207010BD53070000C50000207C
:103C700026030000700B0020FF0F000008180060F2
:103C8000F3B589B0002008700998807A002800D127
:103C9000CDE0874C200028300CC8606800218018D7
:103CA000594106AA03C2EFF31080049072B6FFF7E1
:103CB000C8FD02000B00099803C802AD03C502A8A5
:103CC00003C80090019106A803C8C826B6020027C1
:103CD00036184F4100980199B9420FD301D8B0422C
:103CE0000CD306A803C8B9267600002736184F4122
:103CF0009F4201D802D3964200D395E001260020CE
:103D00000A32434102A803C800254C38A9418B421E
:103D100001D802D3824200D382E00998027A02A835
:103D200003C805003C20205C0999097B012905D1C5
:103D3000002A01D0382106E0392104E0002A01D010
:103D40003A2100E03B21615C0091019002A9200032
:103D5000FFF7E8FE2D1A574AA169280008F0B0FDC8
:103D60000390C027FF050198A16E4018C830A842F3
:103D700003981AD250490978401A0099451A0298B6
:103D800040192C4948623800FFF748FA3800FFF71D
:103D90004FFA2848806AB107014326488162FFF73D
:103DA0005CFA00984449097812E03D21615C401AB0
:103DB0000099451A029841193800FFF73FFA1D484B
:103DC000FFF740FA3800FFF722FA00983D21615CC6
:103DD00040180299039A89182200683211622A1841
:103DE000411D8A420AD23800FFF718FA3800FFF75F
:103DF0001FFA1048FFF726FA012007E00E4AE16992
:103E000008F05EFD21006831087700200A990870EB
:103E100000200999887209994E720998C67203E0C8
:103E2000622165540A980670049880F310880BB0DC
:103E3000F0BD0000001800603506000038B5040031
:103E40001E4D2800FFF703FA002803D0686A20609F
:103E5000032032BDC025ED052800FFF7E0F900285A
:103E600005D02800FFF7ECF92060012032BDE8689A
:103E70008007800F032805D12800FFF7E1F92060B3
:103E8000022032BD002032BD80B5FFF73AFDFDF7BC
:103E9000CBFC01BD81B0002000900098084801686B
:103EA00001220A4302600068009001B070470000E0
:103EB000700B002026030000C500002000180060E1
:103EC0007400006001680022028142818281827355
:103ED0000B78FF2B05D0FE2B09D103895B1C0381D6
:103EE0000AE04268511A091F818100207047002BA7
:103EF0000DD143895B1C43814A88D21C03231343A1
:103F00005B1CC9184A1D43689A42E1D3EDE70320C0
:103F10007047F3B5079C0899250005D06D466C8065
:103F2000FE242C706C4600E0446885684668AE420A
:103F300017D22678FF2E14D0067B002E04D0002640
:103F400006732678002E0ED146686488E41C032789
:103F500027437F1CF4194460AC4202D22678FF2E1E
:103F6000EFD10420F6BDFE2E01D00320F6BD6E4633
:103F70003679FF2E04D066786F463F79BE42E3D192
:103F80004068001D106060881880002901D06078AA
:103F900008700020F6BD7FB515001C00099E0022A8
:103FA00032800B9A01926A46128D009202AB03AAEC
:103FB000FFF7AFFF010013D1694609898D4201D394
:103FC00006200DE0089A481B904200DA020020000B
:103FD00003994919FEF7F6F86846008930800020F9
:103FE00004B070BDFEB5BB4D0D40491B6B4619704A
:103FF0000024070016000AE00422311901A8FEF788
:10400000E1F8019A3919002008F0D4FC241DAC42D3
:10401000F2DB0020C043019068460278711901A8C4
:10402000FEF7D0F8019A7919002008F0C3FCF7BD1B
:1040300070B544688668B44202D22678FF2E01D15A
:10404000042070BD007B002801D1FE2E01D0052088
:1040500070BD6588A94201D3062070BD10001A000A
:10406000231D591808F01CFD002801D00020C04372
:1040700070BD7CB5079C0025069E3580250005D0C7
:104080006D466C80FE242C706C4600E044684568E8
:104090008668B54202D22678FF2E01D1042076BD73
:1040A000007B002801D1FE2E01D0052076BD60885E
:1040B000814201D3062076BD401A984200DA0300FF
:1040C00010001A002B1D5918FEF77CF8608806991D
:1040D0000880002076BDF8B584B007000E001500FA
:1040E000B44C254203D108F0DBFC002820D001A805
:1040F0000C21FEF745F8CD483818C00A0290681E1A
:104100000443641C6003000E0390694601A808F094
:10411000D7FC00240AE06010800F001903218843B7
:1041200032583919002008F045FC241DAC42F2D366
:1041300005B0F0BD012101700021418081807047F0
:10414000F1B588B00C0015001E0000200090FF2281
:1041500029002000FEF716F8FE206946087507942E
:104160006846458206960E9D009C05AE19E068469D
:10417000008A6988401A401E03240443641CA4B2C8
:1041800068886946098A0A1A521E03211143491C8C
:1041900089B28F4242DB01200022B94228706A8036
:1041A00040D06846408A071B3F1FBFB228780028CE
:1041B00026D0701C0390A888029004A80190009754
:1041C0000798001D03190022FF210898FFF7E3FE5E
:1041D0006946098AA98001000ED16846008A70806C
:1041E000042205A907980019FDF7ECFF7088C01C90
:1041F000032101436418C1E706990C8009B0F0BDA2
:10420000A888019004A800903B00079802196988CB
:104210000898FFF72EFF0100A9D0EFE700212970D1
:10422000C01968806846408A069908800020E5E742
:10423000F8B5AE4CA544AE49020014235A438F187A
:104240007989002901D1002040E004A900F013F988
:10425000059D02A8FFF76EFF8026360102A8009098
:1042600001AB320008A904A8FFF76AFF0400042C80
:1042700006D0002C2AD168468088B042EED103E0F7
:1042800068468088002808D06846828808A92800E7
:10429000FFF721FFAD19002CE0D008A80C21FDF795
:1042A0006FFF624828184003000E09900698401ED0
:1042B000711E0143491C481B4003000E0A906946C9
:1042C00008A808F0FDFB3800FFF7FCFD89498D4484
:1042D000F0BD0000FCFF0000F8B5844CA5440021AF
:1042E0006A46917100220023814906000BE0B06804
:1042F0000C245C43005D14246043081840890028A6
:1043000000D001225B1C30798342F0DB002A25D0EB
:1043100080221201FF2108A808F01AFC0025802441
:1043200024010DE002A8FFF705FF02A8009001ABF1
:10433000E21B92B208A8C11904A8FFF701FF6D1C87
:10434000307985420CDAB0680C226A43011D8F581F
:1043500004A9805C00F08FF80028E3D000201BE067
:10436000220008A93068FFF7B6FE614C37006946A5
:104370008D7900260CE0B8680C217143405C142153
:1043800048432018FFF79EFD010000D00500761C71
:1043900038798642EFDB280056498D44F0BD9549B7
:1043A0008A79824201D102207047897C8142FAD009
:1043B00000207047FF070000F8B54C4CA5440400EE
:1043C0000E0080221201FF2108A808F0C1FB002581
:1043D00068460471802424011CE00C276F43B068F8
:1043E000C05D6A461279904213D004A900F043F8E8
:1043F000B068C019476802A8FFF79CFE02A80090A9
:1044000001AB9B1CE21B92B208A8C11904A8FFF7DC
:1044100097FE6D1C30798542DFDB220008A93068E9
:10442000FFF759FE002033498D44F0BD0000FCEF3A
:1044300010B500246F480C21614341188A792C483B
:1044400014235343C0180368002B10D1012A0EDC3B
:104450000A6802608B88D218426009890182FFF7DE
:1044600031FD010004D1641C012CE3DD01E00120D9
:1044700010BD002010BD10B50200022A01DB012092
:1044800010BD1B4B142462439A1813684B6052688A
:104490008A6001220A7308700020487310BD7FB53E
:1044A000694C0578142675436419A47B002C01D04F
:1044B0000A2008E003940294099C01946C46248C21
:1044C0000094FFF768FD04B070BD7CB5A04C057882
:1044D000142675436419A47B002C01D00A2076BDF4
:1044E0000194069C0094FFF7C4FD76BDE0F7FFFF42
:1044F000F80E002024080000FAB583B01700032549
:10450000791E03260E43761C0CE00C78FF2C18D085
:10451000FE2C01D0002C69D14A88D21C2A43521C9F
:1045200089184160826841684B1D9342EDD38849E8
:1045300000781422504308184089002854D10220E2
:1045400055E00290501A834B984201D2521A00E073
:104550001A467F4C92B2B0B26B461B8DC018001D3C
:10456000824239DB6846007B0191FE216A46117068
:10457000694648706846008D30184880009A019955
:10458000002008F017FA049AB1B20198001DFFF755
:1045900029FD0B9A6846018D0198B6B28019001D5D
:1045A000FFF720FD200008300299097814225143BA
:1045B00040180188491C0180029800781421484362
:1045C000201881896A46128DBA18521E1543491B5C
:1045D000491F818100200AE0029800781421484395
:1045E000201840890028AAD00B2000E0032005B045
:1045F000F0BD0000B812041010B504006168A06896
:1046000081421ED20878FF281BD0FE2817D1FF2236
:10461000D243002008F0CEF94D480100083122783D
:1046200014235A4389180A88521E0A8021781422BA
:10463000514340184189491C4181002010BD05208B
:1046400010BD042010BD0000F80E002078B585B024
:1046500004006946FFF7A3FE3D4D02281ED1142039
:1046600044432C19256802A80C21FDF789FD3A481E
:1046700028184003000E03906068401E374901432C
:10468000491C481B4003000E049001A902A808F031
:1046900017FA2000FFF716FC00201BE0012818D1B4
:1046A00000992000FFF788FE040010D100260AE0E0
:1046B000009880680C217143405C142148432818FD
:1046C000FFF700FC761C009800798642F0DB2000A2
:1046D00000E0012006B070BD1CB504006946FFF77C
:1046E0005EFE022803D12000FFF7A2FD16BD0128BF
:1046F00003D10098FFF7F0FD16BD012016BD38B5B7
:10470000174800214356DAB2114C14255543641959
:104710006589002D03D0A589248AA54207D3521CA0
:10472000D2B2022A00D100229A42EDD106E0531CF7
:104730005CB2022C00D10023190001E00022D24318
:104740000170100602D4D0B2FFF7C6FF002032BDC0
:10475000F80E0020FFFF00000000FCEFFF07000044
:1047600033000020F0B583B004464348046020467F
:1047700008F0D4FA0546204608F0C0FA0646684616
:1047800000F072FE0099091A4B0B3C490A68114669
:10479000D831002B02D11060012000E00020087009
:1047A00037480068447B0021FF2C0AD02C2060434E
:1047B000344A12681018827C002A02D0416AC0680C
:1047C000FFE70127002E05D0002D03D100292A4E36
:1047D00008D109E0002D284E06D02B4A914203D182
:1047E000002901D088470027306808F093FA002894
:1047F00001D004251EE0306808F076FA002801D0C8
:10480000012517E0306808F073FA002801D002256E
:1048100010E0306808F086FA052500280AD13068D3
:1048200008F084FA002805D1306808F049FA002819
:104830001FD000250120A840144909680A680243D6
:104840000A60002008F0D8FC00F009FE204608F0BD
:10485000E5FC0A480468607D012808D1217C0F200E
:104860000840E268090908F09BFE0020607503B06B
:10487000F0BD002FE8D1ECE7840F0020540F00209A
:10488000580F00205C0F0020CF2D0410900F002047
:10489000BCB5584CA16900910840A06135E0521C9C
:1048A000D300E51803000B402F681F40F7D02A689B
:1048B000104001406868084002D10020C043686091
:1048C0006868084000F09AF801006A680120884092
:1048D00082436A606162EFF3108172B6626A0120FE
:1048E0009040C2432069104020610220C300E318B9
:1048F000083B1D6815401D60401EF7D181F31088EC
:104900003D48616A8900405880472369E2696069CF
:10491000256AA16903400B4003D0154001D1002254
:10492000BEE70020C0436062206A104014D102F04C
:10493000F3F8EFF3108572B62169E06962690A4005
:10494000A169114004D1216A014001D102F0E5F8CA
:1049500085F3108808F025FE0098A061B3BD38B536
:104960001400EFF3108572B600F048F88000224979
:104970000C5085F3108831BD10B5EFF3108272B67C
:104980001C4B1C6904431C61C90059180B6818436F
:10499000086082F3108810BDEFF3108172B6154ADB
:1049A000D3691843D06181F310887047F8B5114D71
:1049B000696A00910022D243914201D1002701E0AF
:1049C00001278F402E6A2862040003E0210038008E
:1049D00008F0E8FDE8692040F8D000986862EFF33D
:1049E000108072B6E969A143E96180F310882E62F4
:1049F000F1BD0000140400209C0C00200021020CDA
:104A0000120401D110210004020E120601D1083156
:104A10000002020F120701D1091D00011F22511AC5
:104A200002A2000F105C081AC0B270470403020211
:104A300001010101000000000000000010B5FFF7B7
:104A4000F7FC424C211D0020FFF715FD2100143119
:104A50000120FFF710FD201D206010BD3EB53B4D2D
:104A6000022802D12C00143400E02C1D2C6001938C
:104A70006B461B8B00930B0001002000FFF73CFDF1
:104A8000002805D0022801D1002000E00120C04309
:104A90003EBDF8B584B00E0019002C4C022E03D197
:104AA00025001435012301E0251D002307002560A2
:104AB00028466D466A8103910A9D022F08D102A9FA
:104AC00000912B00039A69464989FFF7FEFC0FE02D
:104AD000002F03D101001800FFF7CDFC02A80190C0
:104AE0000095039B6846428931002068FFF7D7FC98
:104AF000010001D1002005E0042801D1022000E0DE
:104B00000120C04305B0F0BD10B5140023000A0019
:104B100001000E480068FFF78BFA002804D001D589
:104B2000200010BD0220C04310BD80B5022807D16F
:104B3000064908681431884207D0FFF75DFD01BDC2
:104B4000032802D10020FFF781FD01BD840E002063
:104B50000120FFE719490860002070470120C04389
:104B600016490968012900D1002070470020EFF3A1
:104B7000108172B6114A1368012B02D00120C04384
:104B800001E00323136081F3108870470020EFF3E6
:104B9000108172B6094A1368032B02D00120C0436A
:104BA00001E00123136081F31088704780B50A008B
:104BB000034908F043FD02BD00000000100400207E
:104BC000D012041002490968488200207047C0468C
:104BD000540F002080B50023FA229200002101200A
:104BE000FEF7B3FA0100A64802D0FDF771FD01BD42
:104BF0005C30FDF76DFD01BDA2490880704770B5BE
:104C00000600A04C6680231D01220021FEF7A9FAB0
:104C100001009D4D03D02800FDF75AFD03E0280058
:104C20003C30FDF755FD01213000FEF796FA0028D3
:104C300005D0010028007030FDF74AFD03E0280090
:104C4000B830FDF745FD13212088FEF749FA00280A
:104C500005D001002800F830FDF73AFD70BD922024
:104C600040002818FDF734FD70BDF7B594B0002062
:104C700033E08648FDF72CFD2AE0694601200856FE
:104C80002A00010024D4C5B27E4C501C207234206E
:104C90006072D2B208A920000A30FDF793FA237996
:104CA000200008300290FFB2019700951A0014A866
:104CB0000188608808F0ECFE0028DAD0019521799F
:104CC000009114A90B88628801007148FDF700FD6E
:104CD000039806994018401C80B20390039816A9C7
:104CE0000978884200DBC5E015980399405C06907E
:104CF0001598401C0399405C3428E9D10698401E61
:104D00001599891C039A89180022D2436B461A70A0
:104D10005A7000250A785206520E5A4B1B799A4255
:104D2000D6D14A1C6B46D8700791019213E02770C8
:104D300002206070029D09E0FF2E07D01020207035
:104D40005048C0886070000AA070049D0198401C03
:104D5000059940180190AF1C019807996A46D278CE
:104D60008918491E884288D200780109491C05919A
:104D700001994E7869460978491C6A461170414983
:104D800049798E4202D0FF2EE0D104E0FF2E02D0FE
:104D900069460B785370E91CC9B20491FFB20297BF
:104DA00008A94C1900270028C6D0102836D0202882
:104DB00006D03F2818D0B02848D0BF281FD0B6E76B
:104DC0000198C07809F018F8002803D0FF2EBDD054
:104DD0002770AEE7FF2EB9D011202070019880789F
:104DE00060700198C078AFE7019801798278C07847
:104DF0000002104308F0FBFF002809D0E6E7019805
:104E0000811C0598401EC0B208F0DEFF0028DDD1ED
:104E1000FF2E9BD00F20207067708BE7FF2E95D060
:104E200001988678921CA11C300008F0EDFF002844
:104E3000CED16846807801010E200843207066704C
:104E40000006000F2D18AD1CEDB27FE701988078A9
:104E5000694688700198C17A007B0002084308F017
:104E600063FF0028B2D1FF2EEFD0012020706846EA
:104E700080785EE70748FDF72BFC17B0F0BD000017
:104E8000A40E0410C4020020540F0410501104108A
:104E9000C41004109C100410010042221201D21E02
:104EA000004207D002D4521E0018FCD5C10A4005AA
:104EB00012058918704700000100EED54042F44603
:104EC000FFF7EBFF0122D20711436047F0B50E0058
:104ED0005E400125ED072E40B446AE0ADF184C189F
:104EE000F44208D2F7420ED2640D01D07F0D12D1E8
:104EF00000206146F0BD05D1F74201D87F0D05D1F4
:104F00000020C143F0BDFBD1640DF9D00020C143A6
:104F1000490549088FE0E419C902DB0229432B4304
:104F2000DB0A460DC00231438E4630B487B295B2DB
:104F30007D432E0CADB2140C7C43A419260C240422
:104F400025439CB27C43A419190C7943270CC91939
:104F5000A4B20F043C43090C000C97B247432E0C3B
:104F6000BE193543ADB2170C4743360CBF19A6B274
:104F7000BF193E043543240C3E0C36199FB24743FB
:104F8000BF19BCB23E0C89191F0C47437F183E0461
:104F90003443390C704680B297B247432E0CBE1989
:104FA0003543ADB2170C4743360CBF19A6B2BF1933
:104FB0003E043543240C3E0C36199FB24743BF19BB
:104FC000BCB23E0C89191F0C47437F183E04344382
:104FD000390C77463F0C90B278432E0C80190604AA
:104FE000ADB22E43050CA0B22D18120C7A43501905
:104FF000020C80B2240CA4189AB27A431219140439
:105000002043120C89181B0C7B43C91830BCEF0AD3
:10501000394203D1B61940414941641E6F12BF0D98
:10502000E41B0BDBFF19BC4211DA24050027420800
:10503000AE417841614166463143F0BD641C05D103
:10504000401C6141CF0201D34908F4E750E75DE716
:1050500030B4012464054D00EC420BD85D00EC42F5
:1050600008D80C001C4364000443144304D28B4250
:1050700000D1824230BC7047FCD09942FAD19042B4
:10508000F8E7FEE7F4464A1805D200F00FF801D51C
:1050900080174008604700F009F80121C9078842DD
:1050A00000D90800404260474A1812D2400DC90298
:1050B00008430121C9070843520D40210901521A32
:1050C000521C06D452421F3201D4D0407047C01740
:1050D000704700207047F0B40125ED070F005F40D6
:1050E0004FD48B4200D1824205D9844610006246DB
:1050F0008C4619006346DF184C18640D7F0D3AD0BA
:10510000661C760537D0E61B352E34DCDB022B43DC
:10511000DB0A0C0DC9022943C912202E0DDB170032
:10512000203E06D01F00F741F3405F400026012AD1
:105130007741C01871410DD217E01700F741F240D6
:105140005740F3415A40B340F3405A40002680187C
:1051500059410AD3A21C52050FD0C207012F724138
:1051600017004008CB0718434908641C240542086F
:10517000AF4170416141F0BC7047641C21050020C3
:10518000F9E76B4010E06B40ABE7F742F3D1E9433E
:10519000F1E72442EFD100200021ECE7F0B4012533
:1051A000ED070F005F40EED40C00871A9C4105D23A
:1051B000C01BA141D219634169406B40AE0ADF18A0
:1051C0004C18F442E1D2640D7F0DE2D0E61B362E7E
:1051D000D1DCDB022B43DB0AA4460C0DC9022943B8
:1051E000C90A012E28DC04D1D6075208DF073A434A
:1051F0005B08EF0A76429041994114D039423BD185
:10520000B61940414941761C394204D1761C001838
:1052100049413942FAD0B9436746B74208D9A41B7D
:1052200024052143A7E70042EAD13642E8D1A2E7AC
:10523000E40AE10700209EE7202E0BDD203E1F0040
:10524000F340F7415F40012A002257417E429841D6
:1052500091410BE01700F741F2405740F3415A40AB
:10526000B340F3405A407E42904199410A0303D231
:10527000641EB619404149410027641E24054208B6
:10528000AE4178416141F0BC7047FEE7C378827857
:10529000417800781B021A430902120408431043A4
:1052A000704780B5FDF75AFC80BDF0B593B01F463E
:1052B00015460E4612901C9C08461146224608F0E0
:1052C000F7FD002824D122980D901FAB0DCB119033
:1052D0001E980F901D980E901B980C901A99199873
:1052E0001097189F089209930D9A0A9200970190BF
:1052F00002910C98039004940E9805900F980690D4
:1053000011980790129831462A46109BFDF7FCFB36
:1053100013B0F0BD80B5FDF71DFC80BD70B5050074
:1053200001D1012070BD2868144901601449016051
:1053300069684160A968816008F0CEFD0724060015
:105340002868C16821400AD008F0C6FD801B3128BA
:10535000F6D32868C0682040F2D0032070BDE96809
:1053600002698A4201D0016101E006490160002022
:1053700070BD04490068016000207047CCCC00007B
:1053800055550000AAAA000080B508F0ABFD01BD8C
:1053900080B50B0011001A00FCF7F4FE01BD80B5CA
:1053A00007F07EFB02BD7FB504000D0016006846C5
:1053B00008F0FEFD684601782170417829708078F8
:1053C00030707FBD80B5FFF7F1FB02BD80B508F0FE
:1053D00035F902BD80B508F03BFE01BD80B508F08F
:1053E00079FE02BD80B508F097FE02BD80B508F0D9
:1053F000C7FF02BD80B509F01BF801BD80B509F0FB
:105400001FF801BD80B509F02DF802BD80B509F087
:1054100047F802BD80B509F065F802BD80B509F016
:1054200063F802BD80B509F061F801BD80B501F0F7
:10543000FBF902BD80B508F0E4FD02BD80B5FEF7C2
:1054400000FA04BD80B5FEF721FA02BD80B5FEF773
:1054500026FA01BD80B5FEF76DF9C0B202BD80B578
:10546000FEF79AF9C0B202BD80B5FEF7C9F804BDD7
:1054700080B5FEF7C6F901BD0020704700207047D7
:105480000020704700207047F0B597B00126B104A6
:10549000544812910160BFF34F8FBFF36F8F07F035
:1054A000F0FBFFF7DCFF0024E04307F0D8FBFDF73B
:1054B000B1FB1190FDF7B2FB1090FDF772FD139058
:1054C000FDF76DFC0F90FDF7F5FBFDF7ABFB0E90C4
:1054D000FFF7D2FF0790FDF73AFC0D90FDF74BFC6C
:1054E0000C90FFF7CBFF0B90FFF7CAFF0A90FDF778
:1054F0009DFB0990FFF7C6FF089009F035F83621AB
:10550000304609F037F83849C97A34228154374D8A
:105510002860047028684470286884702868E12135
:10552000C1700520C001296888803020088516AF29
:1055300015A914AA3846FFF736FF149800023978E7
:1055400009010143159800030843001D2968488597
:105550001821304609F00EF825490860047509F055
:1055600013F80898C0B20999CCB20A99C9B20B9A3B
:10557000D2B20C9BDBB20D9EF6B20E9FFFB200972B
:105580000196029303920491059406901198C0B27B
:105590001099CEB20F99CBB23146139AFDF70DFD9B
:1055A000FDF784FB012C01D1FDF744FB08F0F6FF69
:1055B00028682C21405CC0070FD1012C07D1079827
:1055C000C0B2FDF787FBFDF76FFDFDF771FD3046BB
:1055D00013993A46234609F03DF8064812990160AE
:1055E00017B0F0BD80E100E01C0E00208C0F002001
:1055F000A80F002000E100E00100202008437047D0
:10560000FDB5B2B03A98049102A93B22885400201B
:105610000D9024A8401C2F900DE00498329A9047DA
:105620000490002801D100F0B7FE0D98401C0D90A9
:105630003398401C339033980178002910D02529E5
:10564000EBD100200790089009900A900B900C90E5
:10565000002102240120149008201290339D05E0BF
:105660000D9800F09BFE0800149901436D1C2878EA
:105670002028F8D023280BD02B2804D02D2804D0A4
:10568000302808D00AE02143F0E708000421ECE7C5
:1056900008000821E9E708001021E6E72A280FD1D1
:1056A000349802681068121D349B1A600F9000280D
:1056B00004D542420F920800042101436D1C12E000
:1056C00000200F90644A09E00F9B934205DA9E0088
:1056D000F3185B00181830380F906D1C2878030001
:1056E000303B0A2BF0D328782E2803D00020C0436B
:1056F0000E9027E06D1C28782A2808D1349800687D
:105700000268001D349B18600E926D1C1AE02D2853
:1057100002D12D226D1C00E0002200200E900CE032
:10572000002A09D10E9B4C4EB34205DA9E00F318B5
:105730005B00181830380E906D1C28780300303B41
:105740000A2BEDD302A801872E7831004048784417
:10575000FF30401E08F0DEFF002801D06D1C00E085
:10576000002602A83A214654405C682804D12878D3
:1057700068280BD1622005E06C2807D128786C28B6
:1057800004D1712002A93A2288546D1C15A80690F4
:10579000287869460870681C3390684602781000C3
:1057A000253833D01C3800D1CCE1001F022800D8A6
:1057B000C8E1133801D100F019FD093800D1C1E169
:1057C000801E01D100F0AFFD401E01D100F05CFD54
:1057D000401E022800D8B5E1001F01D100F054FDA1
:1057E000401F00D108E1401E01D100F0FFFC401E27
:1057F00000D1F0E0C01E0ED0801E01D100F0F6FCFA
:10580000C01E01D100F0F2FC00F098FD1498079042
:10581000252015A97CE1349800680468001D34999E
:1058200008600594002C00D0C1E002A83B21405C38
:10583000002800D1B5E00024E44306487844143041
:1058400008F072FF201A01D000F0A6FD00F083FDE1
:10585000FCBAFFFF30BBFFFFCBCCCC0C01236A4668
:1058600002A9280000F054FE002801D000F094FDA9
:10587000641EF3D13295079D15AC002D0FD0329EDA
:1058800021780498B0470490002801D100F084FDED
:105890000D98401C0D90641C6D1EF1D13296302085
:1058A000694608700A9C002C0DDD329D01236A4672
:1058B00002A9280000F02CFE002801D000F06CFDA9
:1058C000641EF3D13295059C089D002D0FD0329EA9
:1058D00021780498B0470490002801D100F05CFDC5
:1058E0000D98401C0D90641C6D1EF1D1329630272E
:1058F00069460F700B9C002C0DDD329D01236A461A
:1059000002A9280000F004FE002801D000F044FDA8
:10591000641EF3D13295059808994418099D002D0D
:105920000FD0329E21780498B0470490002801D10E
:1059300000F032FD0D98401C0D90641C6D1EF1D1DD
:105940003296684607700C9C002C0DDD329D0123B9
:105950006A4602A9280000F0DBFD002801D000F013
:105960001BFD641EF3D1329502A83821405C40072C
:1059700000D460E62020694608700198002800DC09
:1059800059E6019C329D01236A4602A9280000F0D5
:10599000BFFD002801D000F0FFFC641EF3D132955A
:1059A00049E61B4878446830059000F0D4FC0E9D11
:1059B000002D03D5200008F0DBFE09E02A000021BD
:1059C000200008F0DDFE002801D0001B00E02800C8
:1059D000089000F0C0FC349800680268001D3499FB
:1059E00008600020C0430021104002AA03C215A88D
:1059F0000590782100F093FC02A83B21415C00292E
:105A000008D00024E4434B487844FF30293017E79E
:105A100090B9FFFF3A21405C62286AD0682819D00B
:105A20006A2845D06C2806D071284FD0742831D010
:105A30007A2821D06FE0349800680168001D349AFC
:105A4000106000297AD10024E4433B487844FF30B9
:105A50001738F5E6349800680168001D349A106024
:105A6000002905D10024E44333487844CA30E7E6EE
:105A70000D98088000F06FFC349800680168001DE4
:105A8000349A1060002959D10024E4432A4878440C
:105A9000A630D5E6349800680168001D349A10607D
:105AA00000294BD10024E443234878448A30C7E6D8
:105AB000349800680268001D34990860002A13D1E8
:105AC0000024E4431C4878446E30B9E634980068FA
:105AD0000268001D34990860002A05D10024E443BF
