:020000041004E6
:1000000000000120FDA00610F5A40610FDA40610B6
:1000100000000000000000000000000000000000E0
:1000200000000000000000000000000005A5061010
:10003000000000000000000007A5061009A506103A
:100040007B9604101BA0041043B50410C7C904100C
:10005000000000000000000000000000F7D10410C4
:1000600011A50610DFD2041093D90410D7F40410A0
:1000700003F8041039A506100000000063A506105F
:1000800071A5061017FA041053A506100000000011
:100090004BA50610000000000000000043A506105C
:1000A0007F0005105BA506100F0405103305051031
:1000B0001B0605100000000000000000000000000A
:1000C0004572726F7220696E20424C455F535441F5
:1000D000434B5F496E697428292030782530327887
:1000E0000D0A000020204661696C2020203A206122
:1000F00063695F68616C5F77726974655F636F6E77
:100100006669675F6461746120636F6D6D616E64C1
:10011000202D20434F4E4649475F444154415F5094
:100120005542414444525F4F46465345542C207239
:100130006573756C743A203078253032580A0000A7
:100140002020537563636573733A206163695F6848
:10015000616C5F77726974655F636F6E6669675F14
:100160006461746120636F6D6D616E64202D204346
:100170004F4E4649475F444154415F5055424144C8
:1001800044525F4F46465345540A000020204661C2
:10019000696C2020203A206163695F68616C5F733D
:1001A00065745F74785F706F7765725F6C65766594
:1001B0006C20636F6D6D616E642C20726573756C5D
:1001C000743A203078253032580A000020205375C8
:1001D00063636573733A206163695F68616C5F7321
:1001E00065745F74785F706F7765725F6C65766554
:1001F0006C20636F6D6D616E640A000020204661A3
:10020000696C2020203A206863695F6C655F7772B3
:100210006974655F7375676765737465645F64654A
:100220006661756C745F646174615F6C656E677440
:100230006820636F6D6D616E642C20726573756CE0
:10024000743A203078253032580A00002020466168
:10025000696C2020203A206163695F676174745F74
:100260007372765F70726F66696C655F696E6974D0
:1002700020636F6D6D616E642C20726573756C7494
:100280003A203078253032580A000000202053757B
:1002900063636573733A206163695F676174745F58
:1002A0007372765F70726F66696C655F696E697490
:1002B00020636F6D6D616E640A000000202046614E
:1002C000696C2020203A206163695F6761705F6913
:1002D0006E697420636F6D6D616E642C207265733E
:1002E000756C743A203078253032580A00000000CE
:1002F0002020537563636573733A206163695F6798
:1003000061705F696E697420636F6D6D616E640A00
:100310000000000020205075626C696320426C75FB
:1003200065746F6F746820416464726573733A20FA
:10033000253032783A253032783A253032783A25ED
:100340003032783A253032783A253032780A000057
:1003500020204661696C2020203A204761705F7040
:10036000726F66696C655F7365745F6465765F6EF6
:10037000616D65202D20446576696365204E616D51
:10038000652C20726573756C743A20307825303294
:10039000580A00002020537563636573733A204741
:1003A00061705F70726F66696C655F7365745F64BE
:1003B00065765F6E616D65202D20446576696365A5
:1003C000204E616D650A000020204661696C202086
:1003D000203A204761705F70726F66696C655F7369
:1003E00065745F617070656172616E6365202D2058
:1003F000417070656172616E63652C207265737502
:100400006C743A203078253032580A002020537519
:1004100063636573733A204761705F70726F6669DA
:100420006C655F7365745F617070656172616E6346
:1004300065202D20417070656172616E63650A00F0
:1004400020204661696C2020203A206163695F6743
:1004500061705F7365745F696F5F6361706162692A
:100460006C69747920636F6D6D616E642C207265A8
:1004700073756C743A203078253032580A000000C9
:100480002020537563636573733A206163695F6706
:1004900061705F7365745F696F5F636170616269EA
:1004A0006C69747920636F6D6D616E640A00000081
:1004B00020204661696C2020203A206163695F67D3
:1004C00061705F7365745F73656375726974795F7A
:1004D000726571756972656D656E747320636F6D99
:1004E0006D616E642C20726573756C743A2030787F
:1004F000253032580A00000020205375636365736D
:10050000733A206163695F6761705F7365745F73DD
:10051000656375726974795F726571756972656D0D
:10052000656E747320636F6D6D616E640A00000008
:1005300020204661696C2020203A206163695F6752
:1005400061705F636F6E6669677572655F66696C1F
:100550007465725F6163636570745F616E645F721E
:1005600065736F6C76696E675F6C69737420636F17
:100570006D6D616E642C20726573756C743A2030F9
:1005800078253032580A0000202053756363657364
:10059000733A206163695F6761705F636F6E66695C
:1005A000677572655F66696C7465725F61636365C8
:1005B00070745F616E645F7265736F6C76696E678D
:1005C0005F6C69737420636F6D6D616E640A000007
:1005D000FF80FFFF30FFFFFF20204661696C202075
:1005E000203A206863695F6C655F7365745F657648
:1005F000656E745F6D61736B20636F6D6D616E64AA
:100600002C20726573756C743A203078253032581E
:100610000A0000002020537563636573733A2068F5
:1006200063695F6C655F7365745F6576656E745F43
:100630006D61736B20636F6D6D616E640A00000005
:100640003D3D3E3E20456E6420424C455F496E690B
:10065000742066756E6374696F6E0A0053657276F6
:100660006963657320616E642043686172616374BD
:100670006572697374696373206372656174696F0D
:100680006E0A0000456E64206F66205365727669BD
:1006900063657320616E6420436861726163746591
:1006A00072697374696373206372656174696F6ED4
:1006B0000A0000003E3E3D3D204843495F44495307
:1006C000434F4E4E454354494F4E5F434F4D504C60
:1006D0004554455F4556545F434F44450A0000006A
:1006E00020202020202D20436F6E6E656374696F7B
:1006F0006E2048616E646C653A2020203078253089
:1007000032580A20202020202D20526561736F6E00
:100710003A202020203078253032580A000000008E
:100720003E3E3D3D204843495F4C455F434F4E4E62
:10073000454354494F4E5F5550444154455F434FE4
:100740004D504C4554455F5355424556545F434FB9
:1007500044450A0020202020202D20436F6E6E6526
:100760006374696F6E20496E74657276616C3A20AD
:10077000202025642E25303264206D730A2020202D
:1007800020202D20436F6E6E656374696F6E206C40
:100790006174656E63793A2020202025640A202048
:1007A0002020202D205375706572766973696F6EF5
:1007B0002054696D656F75743A2020202564206D82
:1007C000730A00004843495F4C455F454E48414E1F
:1007D0004345445F434F4E4E454354494F4E5F435C
:1007E0004F4D504C4554455F5355424556545F4319
:1007F0004F44450A000000004843495F4C455F45AF
:100800004E48414E4345445F434F4E4E4543544945
:100810004F4E5F434F4D504C4554455F56325F53EA
:1008200055424556545F434F44450A004843495F8B
:100830004C455F504552494F4449435F41445645FA
:1008400052544953494E475F53594E435F545241A6
:100850004E534645525F52454345495645445F56BF
:10086000320A000053746174757320253032580ABF
:10087000000000004843495F4C455F504552494FD6
:100880004449435F4144564552544953494E475F9A
:1008900053594E435F4C4F53540A00004843495F3D
:1008A0004C455F4D4554415F4556543A20307825BC
:1008B0003032580A000000003E3E3D3D2041434991
:1008C0005F4C324341505F434F535F434F4E4E4561
:1008D0004354494F4E5F5245515F56534556545FFE
:1008E000434F44450A0000004368616E6E656C5FCB
:1008F000547970653A2025640A5350534D3A20309C
:1009000078253034580A506565725F4D54553A2049
:1009100025640A506565725F4D50533A2025640A7C
:100920004349445F436F756E743A2025640A0000A2
:10093000556E6578706563746564204C3243415030
:10094000206368616E6E656C207265717565737485
:100950000A000000556E6578706563746564205305
:1009600050534D0A000000003D3D3E3E206163694A
:100970005F6C326361705F636F735F636F6E6E6530
:100980006374696F6E5F72657370203A20466169A7
:100990006C2C20726561736F6E3A2030782530328E
:1009A000580A00003D3D3E3E206163695F6C326342
:1009B00061705F636F735F636F6E6E656374696FA1
:1009C0006E5F72657370203A20537563636573734D
:1009D0000A0000003E3E3D3D204143495F4C32430A
:1009E00041505F434F535F444953434F4E4E45433D
:1009F00054494F4E5F434F4D504C4554455F5653FD
:100A00004556545F434F44450A0000003E3E3D3D7D
:100A1000204143495F4C324341505F434F535F5342
:100A200044555F444154415F52585F5653455654B4
:100A30005F434F44450A00006163695F6C32636144
:100A4000705F636F735F7364755F646174615F652A
:100A50007874726163743A206661696C2C207265E7
:100A600061736F6E3A203078253032580A000000EA
:100A70003E3E3D3D204143495F4741505F50524F0C
:100A8000435F434F4D504C4554455F565345565474
:100A90005F434F44450A00003E3E3D3D20414349EF
:100AA0005F4741505F4B455950524553535F4E4F3E
:100AB00054494649434154494F4E5F565345565455
:100AC0005F434F44450A00003E3E3D3D20414349BF
:100AD0005F4741505F504153534B45595F52455119
:100AE0005F56534556545F434F44450A000000008B
:100AF0003D3D3E3E206163695F6761705F70617379
:100B0000736B65795F72657370203A204661696C1A
:100B10002C20726561736F6E3A2030782530325820
:100B20000A0000003D3D3E3E206163695F676170E1
:100B30005F706173736B65795F72657370203A20C3
:100B4000537563636573730A000000003E3E3D3DCC
:100B5000204143495F4741505F4E554D45524943FF
:100B60005F434F4D50415249534F4E5F56414C5594
:100B7000455F56534556545F434F44450A000000B5
:100B800020202020202D206E756D657269635F76B0
:100B9000616C7565203D2025640A0000202020201E
:100BA000202D204865785F76616C7565203D202595
:100BB000780A00003D3D3E3E206163695F676170D9
:100BC0005F6E756D657269635F636F6D7061726989
:100BD000736F6E5F76616C75655F636F6E66697269
:100BE0006D5F7965736E6F203A204661696C2C20C9
:100BF000726561736F6E3A203078253032580A0082
:100C00003D3D3E3E206163695F6761705F6E756D5B
:100C1000657269635F636F6D70617269736F6E5F38
:100C200076616C75655F636F6E6669726D5F79651D
:100C3000736E6F203A20537563636573730A000007
:100C40003E3E3D3D204143495F4741505F50414951
:100C500052494E475F56534556545F434F44450AE9
:100C6000000000003E3E3D3D204143495F4741506A
:100C70005F50414952494E475F434F4D504C455498
:100C8000455F56534556545F434F44450A000000A4
:100C900020202020202D2050616972696E67204B32
:100CA0004F0A20202020202D205374617475733A40
:100CB000203078253032580A20202020202D205244
:100CC0006561736F6E3A203078253032580A000023
:100CD00020202020202D2050616972696E672053EA
:100CE0007563636573730A004143495F48414C5F14
:100CF00046575F4552524F525F5653455654203027
:100D000078253032580A00004843495F56454E4422
:100D10004F525F4556543A203078253034580A00F7
:100D20004843495F48415244574152455F455252FA
:100D30004F525F455654203078253032580A000013
:100D40004843495F4556454E543A20307825303265
:100D5000580A00003E3E3D3D206863695F6C655F58
:100D6000636F6E6E656374696F6E5F636F6D706CD9
:100D70006574655F6576656E74202D20436F6E6EB9
:100D8000656374696F6E2068616E646C653A2030CB
:100D900078253034580A000020202020202D2043C0
:100DA0006F6E6E656374696F6E2065737461626CDB
:100DB0006973686564207769746820403A25303229
:100DC000783A253032783A253032783A2530327800
:100DD0003A253032783A253032780A002020202017
:100DE000202D20436F6E6E656374696F6E20496EAF
:100DF00074657276616C3A20202025642E2530328D
:100E000064206D730A20202020202D20436F6E6EF9
:100E1000656374696F6E206C6174656E63793A20E6
:100E200020202025640A20202020202D20537570AA
:100E30006572766973696F6E2054696D656F75743C
:100E40003A202564206D730A000000006863695F22
:100E50006C655F726561645F706879206661696C5A
:100E60007572653A20726561736F6E3D307825301A
:100E700032580A003D3D3E3E206863695F6C655F05
:100E8000726561645F706879202D205375636365B6
:100E900073730A003D3D3E3E205048592050617218
:100EA000616D202054583D2025642C2052583D204F
:100EB00025640A003D3D3E3E206863695F6C655FC6
:100EC0007365745F70687920504859205061726171
:100ED0006D202054583D2025642C2052583D20255B
:100EE00064202D20000000004661696C0A000000AB
:100EF000537563636573730A000000006163695F83
:100F00006761705F7465726D696E6174652066619A
:100F1000696C7572653A20726561736F6E3D3078E9
:100F2000253032580A0000003D3D3E3E2061636995
:100F30005F6761705F7465726D696E617465203A98
:100F400020537563636573730A0000006163695F12
:100F5000676174745F636C745F65786368616E6702
:100F6000655F636F6E666967206661696C7572653F
:100F70003A20726561736F6E3D3078253032580AC1
:100F8000000000003D3D3E3E206163695F67617483
:100F9000745F636C745F65786368616E67655F63D7
:100FA0006F6E666967203A20537563636573730AD1
:100FB000000000003D3D3E3E206163695F67617057
:100FC0005F7365745F6164766572746973696E6777
:100FD0005F636F6E66696775726174696F6E202DED
:100FE000206661696C2C20726573756C743A2030D0
:100FF00078253032580A00003D3D3E3E205375634F
:10100000636573733A206163695F6761705F7365DD
:10101000745F6164766572746973696E675F636F2C
:101020006E66696775726174696F6E0A0000000010
:101030003D3D3E3E206163695F6761705F7365742B
:101040005F6164766572746973696E675F64617409
:1010500061204661696C65642C20726573756C74DF
:101060003A203078253032580A0000003D3D3E3E9F
:1010700020537563636573733A206163695F6761C9
:10108000705F7365745F6164766572746973696EAD
:10109000675F646174610A003D3D3E3E20616369A3
:1010A0005F6761705F7365745F61647665727469B0
:1010B00073696E675F656E61626C65204661696C1D
:1010C00065642C20726573756C743A203078253015
:1010D00032580A003D3D3E3E20537563636573738D
:1010E0003A206163695F6761705F7365745F616413
:1010F000766572746973696E675F656E61626C654F
:101100000A00000044697361626C65206164766561
:1011100072746973696E67202D206661696C2C207A
:10112000726573756C743A203078253032580A0035
:101130003D3D3E3E2044697361626C65206164768A
:101140006572746973696E67202D205375636365DA
:1011500073730A006163695F6C326361705F636F10
:101160006E6E656374696F6E5F706172616D6574D8
:1011700065725F7570646174655F726571202D20A2
:101180006661696C2C20726573756C743A203078D6
:10119000253032580A0000003D3D3E3E2061636923
:1011A0005F6C326361705F636F6E6E656374696FED
:1011B0006E5F706172616D657465725F7570646198
:1011C00074655F726571202D205375636365737359
:1011D0000A0000008C1B00209A3700002600010442
:1011E00000003200F7000000FFFFFFFF3200011097
:1011F00008000103F70001000001010202020200E1
:1012000000010003000400000A0A57415443484407
:101210004F4720524553455421212121212121218D
:10122000210A0A000A0A53595354454D2052455386
:1012300045542121212121212121210A0A000000D8
:10124000427574746F6E20256420707265737365C7
:10125000640A000000100E00000000000000000002
:101260000000000020204661696C2020203A2061A7
:1012700063695F676174745F636F6E6669726D5FE7
:10128000696E6469636174696F6E20636F6D6D610F
:101290006E642C20726573756C743A2030782578F2
:1012A000200A00002020537563636573733A206140
:1012B00063695F676174745F636F6E6669726D5FA7
:1012C000696E6469636174696F6E20636F6D6D61CF
:1012D0006E640A0020204661696C2072656769733C
:1012E000746572696E67204449532068616E646C4E
:1012F0006572730A0000000020204661696C20209E
:10130000203A206163695F676174745F7372765F0E
:101310006164645F7365727669636520636F6D6D88
:10132000616E643A204449532C206572726F7220BA
:10133000636F64653A2030782578200A0000000049
:101340002020537563636573733A206163695F6737
:101350006174745F7372765F6164645F73657276E3
:1013600069636520636F6D6D616E643A2044495313
:10137000200A000002100400FB349B5F8000008004
:1013800000100000502A00001000000000000000C3
:101390000000000064020020FB349B5F800000809E
:1013A000001000000A1800001000000001000000FA
:1013B0000000000000000000010000007413041091
:1013C0005772697465206F6E204543500A00000013
:1013D0004143495F474154545F5352565F4154540F
:1013E0005249425554455F4D4F4449464945445F33
:1013F00056534556545F434F44452045534C5F5325
:101400004552564943455F434F4E54524F4C5F50EF
:101410004F494E545F4E4F544946595F44495341DA
:10142000424C45445F4556540A0000004143495F21
:10143000474154545F5352565F41545452494255A8
:1014400054455F4D4F4449464945445F56534556C0
:10145000545F434F44452045534C5F5345525649D2
:1014600043455F434F4E54524F4C5F504F494E548B
:101470005F4E4F544946595F454E41424C45445F8B
:101480004556540A000000002A2A2A2045534C5F82
:10149000616464726573733A203078253034580A79
:1014A0000000000020204661696C2020203A206165
:1014B00063695F676174745F636F6E6669726D5FA5
:1014C000696E6469636174696F6E20636F6D6D61CD
:1014D0006E642C20726573756C743A2030782578B0
:1014E000200A00002020537563636573733A2061FE
:1014F00063695F676174745F636F6E6669726D5F65
:10150000696E6469636174696F6E20636F6D6D618C
:101510006E640A002020424C454556545F52656770
:1015200069737465724761747445767448616E645A
:101530006C6572207265743A2030782578200A0034
:1015400020204661696C2020203A206163695F6732
:101550006174745F7372765F6164645F73657276E1
:1015600069636520636F6D6D616E643A2045534C0D
:101570002C206572726F7220636F64653A20307838
:101580002578200A000000002020537563636573EE
:10159000733A206163695F676174745F7372765F29
:1015A0006164645F7365727669636520636F6D6DF6
:1015B000616E643A2045534C200A000020204661A9
:1015C000696C2020203A206163695F676174745FF1
:1015D0007372765F6E6F7469667920434F4E545212
:1015E0004F4C5F504F494E5420636F6D6D616E6478
:1015F0002C206572726F7220636F64653A203078B8
:10160000253032580A00000020205375636365734B
:10161000733A206163695F676174745F7372765FA8
:101620006E6F7469667920434F4E54524F4C5F5031
:101630004F494E5420636F6D6D616E640A00000067
:101640000100000002000000761B002008102000AE
:10165000FB349B5F8000008000100000F62B000030
:10166000100000000000000000000000000000006A
:1016700008102000FB349B5F8000008000100000F9
:10168000F72B000010000000000000000000000028
:101690000000000008102000FB349B5F80000080E9
:1016A00000100000F82B00001000000000000000F7
:1016B000000000000000000008102000FB349B5FC9
:1016C0008000008000100000F92B000010000000D6
:1016D0000000000000000000000000001C102000BE
:1016E000FB349B5F8000008000100000FE2B000098
:1016F0001000000001000000780200209402002089
:1017000002100400FB349B5F80000080001000008A
:10171000FA2B000010000000000000000000000094
:101720000000000002100400FB349B5F800000807A
:1017300000100000FB2B0000100000000000000063
:10174000000000000000000002100400FB349B5F5A
:101750008000008000100000FC2B00001000000042
:101760000000000000000000000000000210040063
:10177000FB349B5F8000008000100000FD2B000008
:101780001000000000000000000000000000000049
:10179000FB349B5F800000800010000057180000A1
:1017A000100000000100000001000000A002002065
:1017B000090000004C1604102A2A2A20556E617375
:1017C000736F6369617465642053746174650A00A2
:1017D0006863695F6C655F7365745F646566617596
:1017E0006C745F706572696F6469635F616476656C
:1017F00072746973696E675F73796E635F74726127
:101800006E736665725F706172616D657465727327
:101810003A000000206661696C202830782530325B
:1018200078290A0020737563636573730A000000EA
:101830002A2A2A20436F6E6669677572696E67206F
:1018400053746174650A00002A2A2A20556E617358
:10185000736F636961746564207374617465206675
:10186000726F6D20436F6E6669677572696E67206F
:10187000737461746520666F72206C696E6B206C86
:101880006F7373200A0000002A2A2A20556E73798C
:101890006E6368726F6E697A6564207374617465D3
:1018A0002066726F6D20436F6E6669677572696E30
:1018B0006720737461746520666F72206C696E6B4B
:1018C000206C6F7373200A002A2A2A20556E7379C0
:1018D0006E6368726F6E697A656420737461746593
:1018E0002066726F6D205570646174696E67207335
:1018F0007461746520666F72206C696E6B206C6F0A
:101900007373200A000000002A2A2A20556E73797A
:101910006E6368726F6E697A656420737461746552
:1019200020666F722073796E63206C6F73740A0087
:101930002A2A2A2045534C5F4150505F436F6E74F2
:101940006578742E61705F73796E635F6B65795F24
:101950006D6174657269616C3A200A0025303258F5
:10196000000000000A2A2A2A2049563A200A0000CC
:101970002A2A2A2045534C5F4150505F436F6E74B2
:101980006578742E65736C5F726573705F6B6579D3
:101990005F6D6174657269616C3A200A0000000035
:1019A0002A2A2A205345542043757272656E744169
:1019B000627354696D653A2025640A006863695F43
:1019C0006C655F7365745F706572696F6469635F8E
:1019D00073796E635F7375626576656E743A000045
:1019E0006863695F6C655F7365745F706572696F6A
:1019F0006469635F6164766572746973696E675F59
:101A0000726563656976655F656E61626C653A00F3
:101A10002A2A2A2053796E6368726F6E697A656428
:101A20002053746174650A006163695F6761705F68
:101A30007465726D696E617465206661696C75723A
:101A4000653A20726561736F6E3D3078253032588B
:101A50000A0000003D3D3E3E206163695F676170A2
:101A60005F7465726D696E617465203A20537563A9
:101A7000636573732028424C455F4552524F525F55
:101A80005445524D494E415445445F52454D4F5483
:101A9000455F55534552290A0000000044656372B2
:101AA000797074696F6E206661696C2E0A0000009F
:101AB000456E64206F662045534C5F4150505F4136
:101AC00064765061796C6F616452656365697665AF
:101AD000640A000050494E4720636F6D6D616E646B
:101AE000205B6F70636F64653A2030782530327800
:101AF0005D200A004C454420434F4E54524F4C2029
:101B0000636F6D6D616E64205B6F70636F64653AC7
:101B1000203078253032785D200A00004C45442082
:101B200054494D454420434F4E54524F4C20636F0F
:101B30006D6D616E64205B6F70636F64653A203019
:101B400078253032785D200A00000000524541447B
:101B50002053454E534F52204441544120636F6DF2
:101B60006D616E64205B6F70636F64653A203078DE
:101B7000253032785D200A005458542056454E4492
:101B80004F5220636F6D6D616E64205B6F70636F89
:101B900064653A203078253032785D200A000000F4
:101BA00050524943452056454E444F5220636F6D75
:101BB0006D616E64205B6F70636F64653A2030788E
:101BC000253032785D200A00555044415445204369
:101BD0004F4D504C45544520636F6D6D616E6420D0
:101BE0005B6F70636F64653A203078253032785DC2
:101BF000200A0000554E4153534F4349415445205C
:101C000046524F4D20415020636F6D6D616E6420D0
:101C10005B6F70636F64653A203078253032785D91
:101C2000200A00005345525649434520524553452A
:101C30005420636F6D6D616E64205B6F70636F64C1
:101C4000653A203078253032785D200A00000000A7
:101C5000464143544F525920524553455420636FD7
:101C60006D6D616E64205B6F70636F64653A2030E8
:101C700078253032785D200A000000004449535036
:101C80004C415920494D41474520636F6D6D616E50
:101C900064205B6F70636F64653A20307825303262
:101CA000785D200A00000000524546524553482006
:101CB000444953504C415920636F6D6D616E6420EF
:101CC0005B6F70636F64653A203078253032785DE1
:101CD000200A0000444953504C41592054494D4575
:101CE0004420494D41474520636F6D6D616E64200E
:101CF0005B6F70636F64653A203078253032785DB1
:101D0000200A00006C6C5F7365745F706572696FA8
:101D10006469635F6164766572746973696E675F35
:101D2000726573706F6E73655F646174615F707408
:101D300072206661696C7572653A20726561736FB5
:101D40006E3D3078253032582C2053796E635F48D1
:101D5000616E646C65203078253034582C205265D3
:101D600071756573745F4576656E742025642C20EB
:101D70005375626576656E742025642C20526573F8
:101D8000706F6E73655F536C6F742025640A00007A
:101D90003D3D3E3E206C6C5F7365745F706572699B
:101DA0006F6469635F6164766572746973696E6795
:101DB0005F726573706F6E73655F646174615F708D
:101DC0007472203A20537563636573730A000000D0
:101DD000524553504F4E5345206F70636F64653AC0
:101DE00020307825303278200A000000556E737953
:101DF0006E6368726F6E697A65642073746174656E
:101E000020666F722074696D656F75740A0000003A
:101E10002A2A2A20556E6173736F63696174656441
:101E20002073746174650A0050656E64696E672082
:101E30004C454420636F6D6D616E642064656C6514
:101E40007465640A0000000050656E64696E672066
:101E5000446973706C617920636F6D6D616E64208D
:101E600064656C657465640A000000002A2A2A20F3
:101E70005570646174696E67207374617465207451
:101E800072616E736974696F6E2066726F6D205334
:101E9000796E6368726F6E697A65642073746174B9
:101EA000650A00002A2A2A205570646174696E67E9
:101EB000207374617465207472616E736974696FE4
:101EC0006E2066726F6D20556E73796E6368726FE7
:101ED0006E697A65642073746174650A000000009D
:101EE00048454C50000000004C697374206F662018
:101EF000636F6D6D616E64732075736566756C20BC
:101F0000666F722074657374733A200A00000000D3
:101F100020202D2041425354494D453A20476574B5
:101F20002043757272656E74204162736F6C7574B4
:101F3000652054696D650A0020202D205352564EAD
:101F400045454445443A205365742053657276698B
:101F50006365204E65656465642062697420746FF2
:101F60002054727565200A0020202D20554E5359AB
:101F70004E433A20536574205468652045534C20E5
:101F8000737461746520746F20556E73796E636825
:101F9000726F6E697A6564200A00000020202D208F
:101FA0004E4F444953504C41593A20456163682093
:101FB000646973706C6179206973206E6F7420643A
:101FC0006973706C6179696E6720616E20696D61FB
:101FD0006765200A0000000041425354494D450006
:101FE0002D2D3E204765742043757272656E7420F6
:101FF0004162736F6C7574652054696D653A202574
:10200000640A00005352564E4545444544000000C2
:102010002D2D3E20536574205365727669636520CB
:102020004E65656465642062697420746F20547223
:1020300075650A00554E53594E4300002D2D3E2024
:10204000536574205468652045534C207374617443
:102050006520746F20556E73796E6368726F6E6958
:102060007A65640A000000004F4B0D0A0000000072
:102070004552524F520D0A0043757272656E7420BC
:1020800074696D653A2025640A0000005265717517
:1020900065737465642074696D653A2025640A006F
:1020A00051756575652066756C6C0A0050656E64C7
:1020B000696E67204C454420636F6D6D616E6420CE
:1020C0007265706C616365640A00000054696D6537
:1020D0007220737461727465642E2050656E646939
:1020E0006E67204C454420557064617465206269B8
:1020F00074207365740A000050656E64696E672011
:102100004C45442055706461746520626974207286
:10211000657365740A000000446973706C6179200E
:10212000496E6465783A202564202D20496D6167E9
:102130006520496E6465783A2025640A0000000035
:1021400050656E64696E6720446973706C617920B4
:10215000636F6D6D616E64207265706C6163656440
:102160000A00000054696D657220737461727465B1
:10217000642E2050656E64696E6720446973706CCC
:10218000617920557064617465206269742073659B
:10219000740A000050656E64696E6720446973704C
:1021A0006C61792055706461746520626974207275
:1021B000657365740A000000526566726573682075
:1021C000446973706C617920436F6D6D616E64203A
:1021D0002D20496E6465783A2025640A00000000CD
:1021E0004C454420496E6465783A20307825303279
:1021F00078200A004C454420436F6D706F6E656E09
:10220000743A20307825303278205B4272696768F2
:10221000746E6573733A2025645D0A004C45442052
:10222000466C617368696E67205061747465726E84
:102230003A2030782530327825303278253032789F
:102240002530327825303278200A00004C45442071
:10225000466C617368696E67205061747465726E54
:10226000204F464620506572696F643A20307825C9
:10227000303278200A0000004C454420466C6173DF
:1022800068696E67205061747465726E204F4E20CD
:10229000506572696F643A2020307825303278209A
:1022A0000A0000004C454420526570656174733A21
:1022B0002020307825303478205B52657065617459
:1022C00020747970653A202564202D205265706550
:1022D0006174206475726174696F6E3A203078257C
:1022E0003034785D0A0000004C4544204F46460AD1
:1022F000000000004C4544204F4E0A004C4544204D
:1023000025642025730A00004C454420696E6163F2
:10231000746976650A000000496D616765206E6F1B
:102320007420617661696C61626C652E0A00000040
:10233000446973706C617920496E6465783A202530
:1023400064202D20496D61676520496E6465783A87
:102350002025640A000000004E6F20696D616765EA
:1023600020646973706C617965642E0A0000000056
:102370005265667265736820446973706C61792078
:10238000436F6D6D616E64202D20496E6465783AEF
:102390002025640A0000000053656E736F7220727E
:1023A0006561642074696D656F75740A00000000D2
:1023B00053544D33325742300000000002000000F9
:1023C0007A1B00200000000008000000C00200206E
:1023D0000000000001000000720500200000FFFF67
:1023E0000000000004000000DC23041000000000D6
:1023F00003000000101B002000000000010000008E
:10240000F20D051001000000020000007C1B0020FE
:1024100020000000FB349B5F800000800010000063
:10242000052A00001000000001000000A4030020A5
:10243000E02304100A000000FB349B5F8000008052
:1024400000100000292B0000100000000000000018
:1024500000000000EC23041002000000FB349B5F2E
:1024600080000080001000002A2B000010000000F7
:10247000000000000000000000000000020000005A
:10248000FB349B5F80000080001000003A2B0000AE
:10249000100000000000000000000000F8230410FD
:1024A00096C298D84539A1F4A033EB2D817D0377EE
:1024B000F240A463E5E6BCF847422CE1F2D1176B89
:1024C000F551BF376840B6CBCE5E316B5733CE2B5C
:1024D000169E0F7C4AEBE78E9B7F1AFEE242E34F8B
:1024E00000010000000000000001000000000000EA
:1024F00000010000000000000100000000000000DA
:10250000FFFFFFFFFFFFFFFFFFFFFFFF00000000D7
:10251000000000000000000001000000FFFFFFFFBE
:10252000020000000500000003000000FEFFFFFFA6
:10253000F9FFFFFFFBFFFFFFFCFFFFFFFCFFFFFFBB
:102540000300000000000000000000000000000088
:10255000000000000000000000000000000000007B
:102560004B60D2273E3CCE3BF6B053CCB0061D6547
:10257000BC86987655BDEBB3E7933AAAD835C65AD0
:102580000000000000F00B1000080000AA0200008C
:1025900000F80B10F807010000000000A001000087
:1025A000000000005265616420434343206572725D
:1025B0006F720A0020204661696C2072656769733A
:1025C000746572696E67204F54532068616E646C45
:1025D0006572730A0000000020204661696C2020AB
:1025E000203A206163695F676174745F7372765F1C
:1025F0006164645F7365727669636520636F6D6D96
:10260000616E643A204F54532C206572726F7220B1
:10261000636F64653A2030782578200A0000000056
:102620002020537563636573733A206163695F6744
:102630006174745F7372765F6164645F73657276F0
:1026400069636520636F6D6D616E643A204F54530A
:10265000200A000000000000020000007E1B002095
:102660000000000002000000801B00200210040097
:10267000FB349B5F8000008000100000BD2A00003A
:10268000100000000000000000000000000000003A
:1026900002100400FB349B5F8000008000100000EB
:1026A000BE2A000010000000000000000000000032
:1026B0000000000002100400FB349B5F80000080DB
:1026C00000100000BF2A0000100000000000000001
:1026D000000000000000000002100400FB349B5FBB
:1026E0008000008000100000C02A000010000000E0
:1026F00000000000000000000000000002100400C4
:10270000FB349B5F8000008000100000C32A0000A3
:1027100010000000000000000000000000000000A9
:1027200002100400FB349B5F80000080001000005A
:10273000C42A00001000000000000000000000009B
:102740000000000028100400FB349B5F8000008024
:1027500000100000C52A0000100000000100000069
:10276000E80300200000000028100400FB349B5FF9
:102770008000008000100000C62A00001000000049
:102780000100000004040020000000004F54503AF3
:1027900020616C6C20696D6167657320657261737F
:1027A00065642E0A00000000496D6167652025649C
:1027B000000000004F54535F4F41435057726974FB
:1027C000650A00004F54503A2057726974696E6769
:1027D00020466C61736820506167650A0000000044
:1027E0004F54535F4150505F4C32434150436861F6
:1027F0006E6E656C4F70656E6564206369643A2027
:1028000025640A004F54535F4150505F4C3243419E
:10281000504368616E6E656C436C6F7365640A004B
:102820004F54503A2052656365697665642053447D
:102830005520286C656E6774683A2025642062799B
:10284000746573290A0000004F54503A204C61739C
:102850007420646174612072656365697665640AD9
:102860000000000054696D656F75740A0000000077
:1028700000000000000000000100000096C298D88F
:102880004539A1F4A033EB2D817D0377F240A46399
:10289000E5E6BCF847422CE1F2D1176BF551BF37A2
:1028A0006840B6CBCE5E316B5733CE2B169E0F7C75
:1028B0004AEBE78E9B7F1AFEE242E34FCAEBECED58
:1028C000EFF0F1F2F3F4F5F6F7F8F9FAFAFCFDFDA2
:1028D000FEFEFFFF0000010203040506CAEBECED5B
:1028E000EFF0F1F2F3F4F5F6F7F8F9FAFAFCFDFD82
:1028F000FEFEFFFF000001020304050608000000C1
:1029000095A40610A1A4061065A30610FDA3061049
:1029100007A20610A7A2061004030202010101018A
:10292000000000000000000000020406080A0C0E6F
:1029300000020406010002000400060008000A006C
:102940000C00100020004000800000010101010384
:10295000070100000804020408010101686A6C74A0
:102960007A4C00007072696E74665F733A20256E4F
:1029700020646973616C6C6F776564007072696E56
:1029800074663A2062616420256E20617267756DFD
:10299000656E74007072696E74665F733A2062616E
:1029A0006420257320617267756D656E7400000088
:1029B000000000006E616E004E414E00696E6600C0
:1029C000494E46003000CA2AFB349B5F80000080DD
:1029D00000100000292B000010000000FB349B5F5A
:1029E0008000008000100000052A00001000000098
:1029F00002000000030000000300000006000000C9
:102A000003000000030000003C0000007000000014
:102A100070000000D003000070000000C30100003F
:102A200069AD061023460410654604108D46041057
:102A30007F4604109D43041079440410D94D0410BE
:102A4000E74D0410F54D0410034E0410114E041010
:102A5000DDB30610894D0410634D0410974D04102A
:102A6000F14804107B0C0510A7440410894B041096
:102A7000F346041001470410CDB10610B52307102A
:102A800011220710B5250710C7270710C727071001
:102A9000DD280710B5250710B72A0710B72A071039
:102AA000B72A0710B9240710CB2107108F21071070
:102AB000DD2807108744041097440410572E071090
:102AC0005F2E07105B2E0710E5440410F544041038
:102AD00005450410154504106545041035450410DE
:102AE000454504105545041025450410754504104E
:102AF0008545041095450410A5450410B5450410FE
:102B000000B5BFF34F8F0348CA490860BFF34F8F2A
:102B100000BFFDE70400FA0580B501F0CBF801F035
:102B20008BF90021C943884201D101F025FB01BD89
:102B3000F8B596B0002069460873062421000020ED
:102B4000009007AD009A280001F01CFB6846047451
:102B5000802080006946C88109A89649342201F086
:102B60003BFB09A801F06EFB06003000C0B2002854
:102B700006D03100C9B2904801F09AFB01F0FCFA8E
:102B800007AC0120207000206070AA20A070E12016
:102B9000E070802020710220607107AA06210020C9
:102BA00001F09AFB05002800C0B2002805D02900DA
:102BB000C9B2A14801F07CFB02E0A04801F078FB1B
:102BC0001821002001F08CFB07003800C0B200285B
:102BD00005D03900C9B29A4801F06AFB02E0994871
:102BE00001F066FB9849FB2002F025FA0600300050
:102BF000C0B2002804D03100C9B2944801F058FB9B
:102C000006A9012002F07EFA05002800C0B20028C3
:102C100005D02900C9B28E4801F04AFB02E08D4878
:102C200001F046FB0026300009210143684641734C
:102C300000216846007B02F0C1FA07003800C0B2EC
:102C4000002805D03900C9B2A44801F031FB02E0E8
:102C5000A34801F02DFB04A8801C009005AB05AA39
:102C6000921C6846017B6846407B02F0AFFA050083
:102C70002078029060780190A0780090E378227923
:102C80006179984801F014FB974C07A9200000F0E7
:102C90007DFF07AA0F21954800F09CFF2200062126
:102CA000002002F0DCFA04002000C0B2002805D0A9
:102CB0002100C9B28E4801F0FBFA02E08D4801F014
:102CC000F7FA03AA921C0221002002F0DBFA0500A9
:102CD0002800C0B2002805D02900C9B2864801F0FA
:102CE000E7FA02E0854801F0E3FA854C0320207002
:102CF000207802F09EF807003800C0B2002805D006
:102D00003900C9B27F4801F0D3FA02E07E4801F0F1
:102D1000CFFA66701020E07020710120A0700220B0
:102D2000029020790190E0780090002302226178DF
:102D3000A07802F085F805002800C0B2002805D070
:102D40002900C9B2714801F0B3FA02E0704801F0FD
:102D5000AFFAA078002810D0012002F015FB050082
:102D60002800C0B2002805D02900C9B2694801F086
:102D70009FFA02E0684801F09BFA01A867490CC974
:102D80000CC00839083801A802F00EFB040020002E
:102D9000C0B2002805D02100C9B2614801F088FA0C
:102DA00002E0604801F084FA5F4801F081FA17B050
:102DB000F0BD0000D4110410C000041080B5012142
:102DC000012002F0CCFB01BD80B5012002F046FCE1
:102DD00002F047FC012002F042FC01BD80B502F088
:102DE0006BFD01BD80B50021022002F0B8FB01BDE2
:102DF00080B504F04CFB01BD80B50121042002F038
:102E0000AEFB01BD80B5FFF7EDFF01BD10B50400BD
:102E1000200004F08DFBFFF7E5FFFFF7EDFF3848DA
:102E2000817B042902D0807B052801D100F010FFAE
:102E300010BD00000CED00E0E4000410400104109F
:102E40008C010410CC01041048080000FC0104109F
:102E50004C0204108C02041080B50021402002F0C6
:102E60007EFB01BD80B5FFF7A9FF01BD10B52F4A5C
:102E70000021012002F063FB2D4A0021022002F014
:102E80005EFB2C4A0021042002F059FBFFF744FEB0
:102E9000FFF74EFE1A4C0020A0732748A081274A56
:102EA0000021402002F04BFB2548A06125A4200012
:102EB00001F0FEF9244801F0FBF904F0E5FB05F010
:102EC00071FF05F087FF214801F0F2F9200001F0C1
:102ED000EFF9012000F02AFD10BD0000BC02041033
:102EE000F0020410140304104C02002054020020CD
:102EF0005003041094030410C80304100C040410BD
:102F0000081100204004041080040410B0040410D0
:102F1000F80404103005041088050410D0050410CE
:102F2000D80504101406041040060410C92D04101E
:102F3000DD2D0410F12D0410FFFF0000898704101F
:102F4000413B04100A0000005C06041084060410D3
:102F5000F1B588B08620694608740898007804287E
:102F600004D008980078822800D04FE30898401CCD
:102F7000069008980078042803D10698801C0790D2
:102F800003E00898401CC01C0790069800780528AC
:102F900008D0102800D128E33E2839D0FF2800D1DE
:102FA000B6E12EE30698841C6178A0780006000C38
:102FB0000143D248828989B2914213D1D04981819B
:102FC000817B022901D100218173CE4801F070F983
:102FD0006178A0780006000C0143E27889B2CA4803
:102FE00001F066F900F0A2FD6078A1780906090CED
:102FF000084380B204F0A7FBC44801210170617846
:10300000A2781206120C1143418005F0BBFEFDE2CE
:103010000698801C059005980078012800D104E1ED
:10302000032812D00A2800D1A8E00C2800D1A0E083
:10303000102800D150E1252800D137E1262800D101
:103040001BE1292800D1C1E051E10598441CC74883
:1030500001F02EF9E07821790906090C084380B2C5
:1030600006F012F90022C24B06F028F90022802354
:103070005B0306F0E5F92BD8E07821790906090C05
:103080000843E57821790906090C0D4380B206F062
:10309000FBF80022B64B06F011F906000F00ADB2A6
:1030A000280006F0F1F80022B14B06F007F906F00F
:1030B000E1F906F0F9F802000B003000390006F0E3
:1030C00065FA0022D84B06F0F9F806F0D3F928E0AB
:1030D000E07821790906090C0843E5782179090689
:1030E000090C0D4380B206F0CFF80022A04B06F089
:1030F000E5F806F0BFF906F0D7F806000F00ADB20C
:10310000280006F0C1F80022D44B06F0D7F83200B0
:103110003B0006F0D8F90022C34B06F0CFF806F0CA
:10312000A9F9E279217A0906090C0A436379A179A0
:103130000906090C0B43E17825792D062D0C29434E
:1031400092B20A25554300959BB2020016001D005D
:10315000080080B206F098F80022854B06F0AEF821
:1031600006F088F901002B003200CF4801F0A0F8EA
:10317000C2E00598441C00F0D9FCBDE00598441C51
:10318000D34801F095F8E07E217F0906090C084339
:10319000627EA17E0906090C0A43E37D217E0906B1
:1031A000090C0B436178A5782D062D0C2943544D4D
:1031B000039580B2029092B201929BB20093631D7C
:1031C000227989B2207800F043FA95E00598441CF2
:1031D000CC4801F06DF8E07F641CE17F641E0906B5
:1031E000090C0843E27E217F0906090C0A43637E2D
:1031F000A17E0906090C0B43E57D217E0906090C19
:103200000D436178A6783606360C314380B20390C0
:1032100092B202929BB20193ADB20095631D2279E6
:1032200089B2207800F014FA66E00598441CA8489A
:1032300001F03EF8E07B217C0906090C0843627B23
:10324000A17B0906090C0A43E37A217B0906090CD4
:103250000B436178A5782D062D0C2943284D039545
:1032600080B2029092B201929BB20093631D2279C8
:1032700089B2207800F0ECF93EE00598441CC5487E
:1032800001F016F8207800280BD106201B4988731E
:103290006079A1790906090C084380B204F09CFB0F
:1032A00003E02178CA4801F003F825E00598441CA2
:1032B000207A00280DD1607A00280AD06079A1799F
:1032C0000906090C0843627A21000A3180B204F031
:1032D000E5FB00F0BDFC0FE00598441CCC4800F075
:1032E000E7FF00200549887304F06AFA04E00598B6
:1032F0000178C84800F0DCFF88E100BF0811002019
:10330000FFFF0000B4060410E006041030000020A7
:1033100007980390039908784A781206120C104314
:1033200080B2001F00D1CDE0801E00D146E1BA4935
:10333000401A00D120E1401E00D1CBE0401F00D157
:10334000BAE0801E00D1DFE0401E00D1BBE0401E8D
:1033500000D103E1B149401A0CD0001F77D00938E1
:1033600000D17DE0401E08D034E100BF20070410EA
:103370000000F43F0398801C36E10398861CA8489F
:1033800000F096FF307A717A0906090C0843B37988
:10339000F1790906090C0B43327971790906090C98
:1033A0000A43317B019180B200909BB292B2B17816
:1033B0009C4800F07DFF307B022802DAB0780028BC
:1033C00004D0994800F074FF04240DE0307971793D
:1033D0000906090C084380B2252804D0934800F060
:1033E00067FF022400E00024307871780906090C98
:1033F00008438F4D290028310291012101912100BC
:1034000089B20091F723F522F17880B201F0E0FD56
:1034100007003800C0B2002808D03900C9B285487A
:1034200000F046FFF2E000BF00005940824800F083
:103430003FFF200080B2002808D13078717809065B
:10344000090C0843298D80B205F01EFECCE07B48B4
:1034500000F02EFF05F026FEC6E000BF0000F4BF1E
:10346000774800F025FF0398861CB178F0780006B5
:10347000000C0143307872781206120C1043714C24
:1034800001AA00922300F52289B280B201F0C2FDA8
:1034900005002800C0B2002808D02900C9B26A4837
:1034A00000F006FFB2E000BF540704102100684698
:1034B000808805F01BFE97E0644800F0F9FE039851
:1034C000801C91E090E0B24800F0F2FE8CE000BF7A
:1034D000C4070410AF4800F0EBFEAF4954488089A0
:1034E00001F0D1FC694608746846007C002805D0CC
:1034F0006846017CA94800F0DBFE02E0A84800F025
:10350000D7FE71E0F8070410A64800F0D1FE03983A
:10351000001D06F0B3F80100A34800F0C9FE0398AF
:10352000001D06F0ABF80100A04800F0C1FE012428
:103530002100C9B23E48808901F0AEFC694608749A
:103540006846007C002805D06846017C984800F059
:10355000AFFE02E0974800F0ABFE45E0964800F071
:10356000A7FE0398841C207861780906090C08439B
:1035700080B205F057F837E0904800F099FE0398C4
:10358000841CA078002807D0E278A1788C4800F04D
:103590008FFE04E02C0804108A4800F089FE8AA0FF
:1035A00000F086FEA078002807D12078617809060F
:1035B000090C084380B204F0B8F815E00398841CA5
:1035C0002178824800F074FEFFF79AFA0CE000BF01
:1035D000640804100398017842781206120C114313
:1035E00089B27B4800F064FE10E00698841C2178C4
:1035F000784800F05DFE2078042801DAFFF780FAB1
:1036000004E006980178BC4800F052FE09B0F0BD15
:10361000740804109C080410FB030000F50300006C
:10362000B8080410E8080410300904105409041004
:103630000811002068090410A4090410D40904101A
:103640000C0A041032110020380A0410700A041009
:10365000F5B583B00F001D000A9E390089B2A74856
:1036600000F026FE2878029068780190A8780090F3
:10367000EB782A796979A24800F01AFE300080B20E
:1036800005F002FE00229F4B05F018FE0022802369
:103690005B0305F0D5FE22D8300080B205F0F4FDC2
:1036A0000022984B05F00AFE00900191300080B294
:1036B00005F0EAFD0022934B05F000FE05F0DAFE6E
:1036C00005F0F2FD02000B000098019905F05EFF85
:1036D00000228D4B05F0F2FD05F0CCFE1FE030001E
:1036E00080B205F0D1FD0022864B05F0E7FD05F024
:1036F000C1FE05F0D9FD00900191300080B205F0C7
:10370000C3FD0022814B05F0D9FD009A019B05F015
:10371000DAFE00227C4B05F0D1FD05F0ABFE6946D8
:10372000098E0A224A43009269468B8D020001925B
:103730001C00300080B205F0A7FD0022714B05F09F
:10374000BDFD05F097FE01002300019A704800F0CE
:10375000AFFD704CA07B012802D10320A07301E0D3
:103760000220A073A7812B006846027C6846818EE8
:10377000380080B203F0B8FF67480021017047802D
:1037800005F000FB2000103002F0FCFA05B0F0BD9F
:10379000980A0410C80A041007B20100F00A0410C5
:1037A000240B04104C0B0410800B04109C0B041011
:1037B000B40B0410000C0410400C0410640C041032
:1037C000900C0410D00C04100A000000E80C041047
:1037D000080D0410200D04107CB506003000C0B2A6
:1037E000002803D0022873D05CD384E0494C01AA9E
:1037F00001A9491CA08901F038FC05002800C0B2CD
:10380000002805D02900C9B2444800F051FD48E025
:10381000434800F04DFD68460279684641794148C9
:1038200000F046FD6846407902281FD168460079BD
:1038300002281BD1012201213B4800F039FD002064
:103840000090012301220021A08901F019FC05004C
:103850002800C0B2002803D0AE4800F029FD20E0C7
:10386000AD4800F025FD00F066F91AE002220221C1
:103870002D4800F01DFD00200090022302220021AF
:10388000A08901F0FDFB05002800C0B2002803D08C
:10389000A04800F00DFD04E09F4800F009FD00F095
:1038A0004AF928E013211B48808901F0B8FA050085
:1038B0002800C0B2002805D02900C9B2974800F0FE
:1038C000F7FC04E0964800F0F3FC00F034F912E055
:1038D0001048808901F058FB05002800C0B200287C
:1038E00005D02900C9B28F4800F0E2FC02E08E4802
:1038F00000F0DEFCFFE773BD400D0410540D041012
:10390000980D04100000F43F000059400000F4BF7F
:10391000DC0D041008110020300000204C0E0410B3
:10392000740E0410940E0410B40E0410F0B591B08F
:103930000700A0200D90B4210C913A00D2B2002AC9
:103940000DD0012A06D0022A12D0042A13D0052A4B
:103950001BD030E00D900C9104200B902BE0C82080
:10396000C0000D90FA20C0000C9005200B9022E0C2
:1039700000200B901FE0C82080000D900C900020CC
:103980000B90FA2040000E9015E01321BB4880896F
:1039900001F045FA04002000C0B2002805D0210043
:1039A000C9B25E4800F084FC04E05D4800F080FC91
:1039B00000F0C1F8FFE73800C0B20028012808D99C
:1039C000801E6DD0801E00D184E0801E00D19DE05D
:1039D0009DE0062100220FAD280000F0D3FB00205F
:1039E0000A900020099001200890002007900120F3
:1039F00006900020059000200490002003900020F5
:103A00000290072001900C9800900D9B1322022138
:103A1000002005F03EFE06003000C0B2002805D0B0
:103A20003100C9B2964800F043FC05E00B98934979
:103A30008873944800F03CFC934B0F220321002034
:103A400005F05CFE05002800C0B2002805D0290062
:103A5000C9B28E4800F02CFC02E08D4800F028FC32
:103A60000FAA0121012005F04DFE04002000C0B284
:103A7000002805D02100C9B2864800F019FC0EE0EC
:103A8000854800F015FC854D280002F07BF93800D0
:103A9000C0B2012803D18249280002F040F936E083
:103AA00000220021002005F02DFE04002000C0B2FD
:103AB000002808D00B98714988732100C9B2794851
:103AC00000F0F6FB02E0784800F0F2FB734802F0E9
:103AD00059F91CE00E9880B200900B9B9BB20C9A97
:103AE00092B20D9989B26548808901F05EFA0400AE
:103AF0002000C0B2002805D02100C9B26B4800F0F8
:103B0000D7FB02E06A4800F0D3FB00E0FFE711B00A
:103B1000F0BD0000E80E0410F00E0410FC0E0410BE
:103B2000280F04104C0F0410840F041080B50120DE
:103B300001F027FD01BD80B5012001F03BFD01BD75
:103B400010B504000220FFF7F1FE0020FFF7EEFEA3
:103B500010BD10B50200D2B2120903071B0F1400EA
:103B6000E4B20A2C03DB140037340C7002E01400BA
:103B700030340C701C00E4B20A2C03DB1C00373418
:103B80004C7002E01C0030344C7010BD70B5040065
:103B90000E0000252800C0B2205C002819D02800A3
:103BA000C0B2002813D02800C0B22018401E0078F0
:103BB00058280CD12800C0B2205C582807D1280012
:103BC000C0B22118491E3078FFF7C3FF01E06D1C19
:103BD000E0E770BDF7B504000E00002528003100B5
:103BE000C9B280B289B2884230D2280080B2205C4B
:103BF0000700280080B2201840786946087068469F
:103C0000007809281DD1280080B23900C9B24018B7
:103C1000205C582814D1280080B23900C9B240185D
:103C20002018401E007858280AD1280080B2390098
:103C3000C9B240182118491E02980078FFF789FF81
:103C4000FFE73800C0B22D186D1CC7E7F7BD7047FD
:103C5000704780B50948817B002902D0817B052906
:103C60000AD1807B002801D1FFF7F1FF0220FFF786
:103C70005DFE0120FFF75AFE01BD00000811002083
:103C8000B40F0410F80F0410540200203010041078
:103C90006C10041098100410D41004101811002097
:103CA000905F01000411041030110410541104102D
:103CB0009811041010B503F0FFF95C4C21000020AE
:103CC00003F0C6FA5A49012003F0C2FA59480460C9
:103CD00010BDFEB504000F0016001D002000C0B28C
:103CE000022803D152485349086002E04F48514925
:103CF000086001956846008C00903B00320092B24B
:103D00002100C9B24B48006803F006FB010008001F
:103D1000C0B2002801D1002008E00800C0B202288B
:103D200002D10020C04301E00120C043FEBDF3B535
:103D300083B017001E000A9D6846007C022804D14B
:103D40003B483C490860012403E038483949086091
:103D500000246846007B02280CD102A800902B00AA
:103D60009BB23200390089B23248006803F0B4FADD
:103D7000010018E06846007B002805D12D48016845
:103D80002000C0B203F064FA02A80190280080B2BB
:103D9000009033003A0092B26846017C25480068E2
:103DA00003F073FA01000800C0B2002801D100201E
:103DB00008E00800C0B2042802D10220C04301E09C
:103DC0000120C04305B0F0BD70B506000D00140021
:103DD00023009BB22A00310089B21648006802F025
:103DE000BAFD0100002901D1002006E0002902D51A
:103DF000A4B2200001E00220C04370BD10B5040051
:103E00002000C0B2022808D10A480168084A91423D
:103E10000AD0006803F0B4FA06E02000C0B203281C
:103E200002D1002003F0B2FA10BD0000B81A002041
:103E3000C81A0020081B002001201F49086000202C
:103E4000704700B50120C0431B490968012901D111
:103E50000021080040B200BD00B50020EFF3108142
:103E600072B6154A1368012B03D00122D243100009
:103E700001E00323136081F3108840B200BD00B558
:103E80000020EFF3108172B60B4A1368032B03D0A6
:103E90000122D243100001E00123136081F3108856
:103EA00040B200BD38B505000C00220003492800CF
:103EB00005F09FFC32BD0000480400207C2804105F
:103EC00000B5BFF34F8F9D489D490860BFF34F8FEA
:103ED00000BFFDE79B4800680005000D704799484A
:103EE0000068010B49B2484240B270470069704710
:103EF00081B095490A6802430A600968014000914F
:103F0000009901B0704781B090490A6802430A6085
:103F1000096801400091009901B0704781B08C4957
:103F20000A6802430A60096801400091009901B0E3
:103F3000704700B5864909680140814201D10120DE
:103F400000E0002000BD83490A6802430A60704710
:103F500080490A6882430A60704780B505F05AFEBE
:103F600000F012F800F03AF800F098F800F057F876
:103F700000F06EF800F048F800F0A2F8002005F01C
:103F8000B9FE05F087FFFCE738B588B0182100249A
:103F9000220002AD280000F0F5F8082122006D464D
:103FA000280000F0EFF803200290802040020390E8
:103FB0001020059002A806F007F9002801D000F0B3
:103FC000DBF80094202001900021684606F0FAF901
:103FD000002801D000F0D0F809B030BD10B586B08F
:103FE000182100226C46200000F0CCF8022000903E
:103FF000802040010590684606F0C6FA002801D0EE
:1040000000F0BAF806B010BD80B5534853490160BE
:1040100006F074FB002801D000F0AEF801BD80B5B9
:104020004F48006800900120FFF783FF002808D167
:104030000120FFF788FF0120FFF78AFF0120FFF72B
:104040006DFFC020C0050090684606F0AFFC01BDC2
:104050003EB50821002422006D46280000F092F8A9
:104060000120FFF766FF002808D10120FFF76BFF52
:104070000120FFF76DFF0120FFF750FF3948FFF7E0
:1040800035FF1028FAD36846A0214900018021009D
:1040900081700194684601F06EFB37BD18B585B09C
:1040A0000820FFF725FF0420FFF722FF01F0D8FAD0
:1040B000142100226C46200000F064F806B010BD08
:1040C00010B586B01020FFF71EFF2020FFF71BFF62
:1040D000254C264820600720E0610420A0610220D2
:1040E0002062802000026062C020C00360618020E6
:1040F000000320610120E060200006F091FF00280D
:1041000001D000F039F80C2000900020019003212C
:1041100002910390049016480590FFF7DBFE1549C5
:10412000884205D0FFF7DBFE0490FFF7D3FE059031
:104130006946200007F08CF806B010BD0400FA05AF
:104140000CED00E01C1E0010500040485800404894
:104150006000404840004048E81A00200000304815
:104160008025041000180060A018002000600041A5
:1041700055050000FF0F000080B572B6FFF7A0FEE6
:1041800001BD2E001206130A1A43130C1A4300BF76
:10419000094205D0830707D00270401C491EF9D19F
:1041A000704700000022FFE71300103906D330B437
:1041B0001400150010393CC0FCD230BC490700D3B4
:1041C0000CC000D504C0890002D30280801C0029E5
:1041D00000D502707047430070B4103A03D378C919
:1041E000103A78C0FBD2530701D318C918C001D5C3
:1041F00008C908C0D20704D30B880380891C801C1F
:10420000002A01D50B78037070BC70478B0701D171
:104210008307E1D0124205D00B78491C0370401C83
:10422000521EF9D170478300850007000700830004
:10423000850005000700030003000F000500820051
:1042400081000500B0B50546C07A1224802829D81F
:10425000298C172926D31448821D914222D8298AF5
:1042600017291FD381421DD8A87E00281AD000F03C
:10427000D5FA002808D0E87E002813D0802811D86D
:10428000287F401E0E280DD808483422294607F002
:1042900091F807F057F9002803D407F087FB0024B2
:1042A00000E087242046B0BDFA0300001419002066
:1042B0000EB4C0B5020003A801900020009001AB2D
:1042C0000121044878440C3007F0DAFB029906B06B
:1042D000084700BF5DDE020080B508F075FB80BDB9
:1042E00080B508F04FFC80BDF0B58BB007000E0024
:1042F00015001C001AA800780A9019A800780990E7
:1043000018A80078089017A80078079016A80078D9
:104310000690694654200856059014A80078049029
:104320001398039012A80078029011A800780190C9
:104330001098009023002A0092B23100C9B23800D0
:10434000C0B208F043FC0BB0F0BDF8B507000E009A
:1043500015001C0023002A0092B23100C9B23800B7
:10436000C0B208F0D1FCF2BD70B506000D0014001B
:1043700022002900C9B23000C0B208F0E9FC70BDCB
:1043800038B505000C002100C9B22800C0B208F001
:1043900065FD32BD80B508F079FD02BD10B50400A1
:1043A000200080B208F094FD10BD38B505000C0067
:1043B000210089B22800C0B208F0B0FD31BD38B587
:1043C00005000C002100C9B2280008F0CBFD32BD69
:1043D00038B505000C002100C9B2280008F0D6FD50
:1043E00032BD10B504002000C0B208F05BFE10BD65
:1043F00010B504002000C0B208F07AFE10BD38B538
:1044000005000C002100C9B22800C0B208F098FED7
:1044100031BD10B50400200080B208F098FE10BD38
:1044200038B505000C002100280008F091FE32BDCF
:1044300070B506000D00140022002900C9B230003A
:10444000C0B208F09FFE70BD10B504002000C0B2DD
:1044500008F0C1FE10BD10B50400200008F0CCFE2D
:1044600010BD80B508F0E4FE02BD10B504002000C8
:10447000C0B208F009FF10BD10B50400200080B2E2
:1044800008F028FF10BD38B505000C0021002800F9
:1044900008F026FF32BD38B505000C0021002800C9
:1044A00008F048FF32BD10B50400200080B208F0CB
:1044B00071FF10BD80B508F0D5FF02BD80B508F0D2
:1044C000D3FF02BD80B508F0D1FF02BD80B508F072
:1044D000CFFF02BD80B508F0CDFF02BD80B508F06A
:1044E000CBFF02BD38B505000C002100280008F004
:1044F000DFFF32BD38B505000C002100280009F0AF
:1045000007F832BD38B505000C002100280009F07D
:104510001BF832BD38B505000C002100280009F059
:104520002FF832BD38B505000C002100280009F035
:1045300067F832BD38B505000C002100280009F0ED
:10454000A5F832BD38B505000C002100280009F09F
:10455000CDF832BD38B505000C002100280009F067
:10456000E3F832BD38B505000C002100280009F041
:10457000F7F832BD38B505000C002100280009F01D
:104580000DF932BD38B505000C002100280009F0F6
:104590001BF932BD38B505000C002100280009F0D8
:1045A00031F932BD38B505000C002100280009F0B2
:1045B0003FF932BD38B505000C002100280009F094
:1045C00053F932BD80B509F095F902BD10B504006C
:1045D000200009F0C9F910BD80B509F0C7F902BD86
:1045E00010B504002000C0B209F0C2F910BD38B502
:1045F00005000C0021002800C0B209F0CBF931BD44
:1046000038B505000C0021002800C0B209F0DAF925
:1046100031BD80B509F016FA02BD80B509F014FA73
:1046200002BD10B50400200080B209F05FFA10BD91
:1046300010B50400200080B209F024FB10BD10B5B5
:104640000400200009F056FB10BD10B50400200046
:10465000C0B209F0A5FB10BD10B50400200009F0A0
:10466000B5FB10BD10B50400200080B209F01EFC9F
:1046700010BD10B50400200009F008FD10BD10B5F4
:104680000400200080B209F077FD10BD10B50400D1
:10469000200080B209F094FE10BD10B50400200087
:1046A000C0B209F0CBFE10BDFEB507000E0015002C
:1046B0001C0009A80078019008A800780090230049
:1046C000DBB22A00D2B23100C9B23800C0B209F060
:1046D0000BFFF7BD38B505000C002100280009F0DC
:1046E000B3FF31BD10B504002000C0B209F0F4FFE3
:1046F00010BD10B50400200080B209F0F5FF10BD18
:1047000010B50400200080B20AF00AF810BDFEB512
:1047100007000E0015001C000A98029009980190ED
:10472000089800902300DBB22A00D2B23100C9B24F
:1047300038000AF011F8FEBDFEB507000E001500A6
:104740001C00099801900898009023002A00D2B21A
:104750003100C9B238000AF05DF9FEBDFEB50700B0
:104760000E0015001C0009A80078019008A8007828
:10477000009023002A00D2B23100C9B238000AF0FA
:104780007FFAFEBDF8B507000E0015001C002300DF
:104790002A00D2B23100C9B23800C0B20AF0D2FA4F
:1047A000F1BD80B50AF058FB01BD10B50400200032
:1047B0000AF066FB10BD38B505000C00210028008A
:1047C0000AF0F8FC32BD70B506000D00140022009E
:1047D0002900C9B230000AF02DFD70BD80B50AF085
:1047E0007BFD02BD10B5040020000AF077FD10BD6E
:1047F00038B505000C00210028000AF0EBFD32BDA1
:1048000038B505000C00210028000AF004FE31BD77
:1048100010B5040020000AF00AFE10BD80B50AF0B1
:1048200029FE02BDF8B507000E0015001C0023008C
:10483000DBB22A00D2B23100C9B23800C0B20AF0ED
:104840001BFEF1BD10B504002000C0B20AF030FE1E
:1048500010BDF8B507000E0015001C00069800906A
:1048600023009BB22A00310038000AF035FEF1BD6A
:1048700038B505000C002100C9B228000AF0ECFE92
:1048800031BD80B50AF0BEFF01BD38B505000C0092
:104890002100C9B228000AF0BDFF31BDF8B50700FC
:1048A0000E0015001C0023002A00310038000AF019
:1048B000D5FFF2BDF8B507000E0015001C0023005F
:1048C0002A00D2B23100C9B23800C0B20BF012F8DF
:1048D000F2BD10B504002000C0B20BF045F810BDC9
:1048E00038B505000C00210028000BF087F831BD19
:1048F00010B50400200080B20BF08EF810BD80B51A
:104900000BF01EF902BD38B505000C002100C9B23C
:1049100028000BF017F931BD80B50BF03DF901BD52
:1049200080B50BF055F901BD80B50BF067F901BDFD
:1049300010B5040020000BF079F910BD10B504008B
:104940002000C0B20BF08AF910BD10B504002000A1
:104950000BF08EF910BD80B50BF0CEFA01BD70B52D
:1049600006000D0014002200D2B22900C9B23000A6
:10497000C0B20BF0E3FA70BD80B50BF013FB02BDC3
:1049800010B5040020000BF015FB10BD10B504009D
:1049900020000BF023FB10BD10B5040020000BF02D
:1049A00031FB10BD10B5040020000BF03FFB10BD23
:1049B00010B5040020000BF063FB10BD80B50BF0B8
:1049C000D9FC01BDF8B507000E0015001C006846B3
:1049D000007E00902300DBB22A00D2B23100C9B2BF
:1049E0003800C0B20BF0D4FCF1BD10B504002000BB
:1049F000C0B20BF0F5FC10BD38B505000C0021006D
:104A0000C9B228000BF004FD31BD70B506000D00E1
:104A10001400220029003000C0B20BF06DFD70BD03
:104A200010B504002000C0B20BF084FD10BD10B51D
:104A3000040020000BF09AFD10BD38B505000C00F5
:104A40002100C9B228000BF0BBFD32BD38B505000E
:104A50000C00210028000BF0E1FD31BD10B5040071
:104A600020000BF00DFE10BD38B505000C00210034
:104A7000C9B228000BF038FE31BD10B5040020008B
:104A80000BF07EFE10BD10B5040020000BF07FFE81
:104A900010BDFEB507000E0015001C00099801901E
:104AA00008A8007800902300DBB22A00310038000B
:104AB0000BF074FEFEBD70B506000D001400220060
:104AC000D2B2290030000BF063FF70BD10B50400B6
:104AD0002000C0B20BF0AAFF10BD38B505000C00D5
:104AE0002100C9B22800C0B20BF0F8FF31BD70B58B
:104AF00006000D0014002200D2B22900C9B2300015
:104B00000CF058F870BD10B5040020000CF09AF8B5
:104B100010BDF8B507000E0015001C002300DBB225
:104B20002A00D2B23100C9B238000CF0A7F8F1BDAA
:104B300038B505000C00210028000CF00FF932BD3B
:104B400010B5040020000CF055F910BD10B504009C
:104B50002000C0B20CF080F910BD10B50400200098
:104B6000C0B20CF0ABF910BD10B5040020000CF081
:104B7000BBF910BD10B5040020000CF00DFA10BDFB
:104B800080B50CF063FA01BD10B50400200080B2BE
:104B90000CF064FA10BD10B5040020000CF0EEFA21
:104BA00010BD10B504002000C0B20CF031FB10BDE8
:104BB00080B50CF07BFB01BD80B50CF07FFB02BD26
:104BC00010B504002000C0B20CF082FB10BD10B57F
:104BD00004002000C0B20CF0ABFB10BD70B50600A5
:104BE0000D0014002200290030000CF01BFC70BDE9
:104BF00010B5040020000CF04FFC10BD38B50500C6
:104C00000C00210028000CF083FC31BD10B504001D
:104C100020000CF0B7FC10BD38B505000C002100D9
:104C2000280080B20CF0E6FC32BD10B50400200074
:104C30000CF0F4FC10BD80B50CF0B0FD02BD10B559
:104C4000040020000CF0ACFD10BDF8B507000E000C
:104C500015001C0023009BB22A0092B2310089B2D9
:104C6000380080B20CF0B6FDF2BDF0B587B0070099
:104C70000E0015001C0012A80078069011A80078FC
:104C8000059010A8007804900FA8007803900EA853
:104C9000007802900DA8007801900CA80078009090
:104CA0002300DBB22A00D2B23100C9B23800C0B250
:104CB0000CF01CFE07B0F0BD10B5040020000CF095
:104CC00043FE10BD10B5040020000CF081FE10BDA5
:104CD00010B5040020000CF02BFF10BD10B504002F
:104CE00020000CF03FFF10BD10B5040020000CF0B8
:104CF00051FF10BD10B5040020000CF065FF10BD81
:104D000010B5040020000CF077FF10BD10B50400B2
:104D100020000CF099FF10BD10B5040020000CF02D
:104D2000C1FF10BD10B5040020000CF0DBFF10BD6A
:104D300010B504002000C0B20DF01EF810BD10B573
:104D4000040020000DF038F810BD10B5040020005C
:104D50000DF04EF810BD10B5040020000DF076F8EF
:104D600010BD10B50400200080B20DF0A9F810BDF0
:104D700010B5040020000DF085F910BD10B5040039
:104D800020000DF097F910BD10B50400200080B28E
:104D90000DF0B8F910BD10B50400200080B20DF080
:104DA000B5F910BD10B5040020000DF075FA10BD66
:104DB00010B5040020000DF0C5FA10BD10B50400B8
:104DC00020000DF0EBFA10BD80B50DF01FFB01BD0A
:104DD00080B50DF06BFB01BD10B50400200080B262
:104DE0000DF0C8FB10BD10B50400200080B20DF01E
:104DF000D3FB10BD10B50400200080B20DF0EEFB17
:104E000010BD10B50400200080B20DF00BFC10BDE9
:104E100010B50400200080B20DF0BEFC10BD38B506
:104E200005000C002100C9B2280080B20DF0CAFCB8
:104E300032BD10B504002000C0B20DF0C7FC10BD9B
:104E4000FEB507000E0015001C000AA800780290AD
:104E500009A80078019008A8007800902300DBB230
:104E60002A00D2B23100C9B23800C0B20DF0B6FC8F
:104E7000FEBD38B505000C002100C9B2280080B283
:104E80000DF0F0FC32BD38B505000C002100280003
:104E900080B20DF0EFFC32BD38B505000C002100EA
:104EA000C9B2280080B20DF0F1FC32BD80B50DF022
:104EB000F5FC02BDF8B507000E0015001C0023002C
:104EC0002A003100C9B23800C0B20DF0ECFCF2BDCE
:104ED00038B505000C0021002800C0B20DF0EDFC33
:104EE00032BD10B5040020000DF0F5FC10BD10B56A
:104EF000040020000DF0F3FC10BD38B505000C00D7
:104F0000210089B228000DF0EEFC32BD10B504007E
:104F100020000DF0ECFC10BDFEB507000E001500E2
:104F20001C00099801906846008C00902300DBB2B9
:104F30002A0092B2310089B2380080B20DF0DBFC59
:104F4000FEBDFEB507000E0015001C00099801907B
:104F50006846008C00902300DBB22A0092B2310038
:104F600089B2380080B20DF0D5FCFEBDF8B507005F
:104F70000E0015001C0023002A00310089B2380001
:104F800080B20DF0D0FCF2BD10B50400200080B25C
:104F90000DF0CDFC10BD38B505000C00210089B224
:104FA000280080B20DF0C7FC32BDF8B507000E0036
:104FB00015001C006846008B009023009BB22A005D
:104FC00092B2310089B2380080B20DF0B8FCF2BD67
:104FD000FEB507000E0015001C000A98029009A8F3
:104FE000007801906846008C009023009BB22A0054
:104FF00092B23100C9B2380080B20DF0ADFCFEBDF6
:1050000038B505000C00210089B2280080B20DF0EF
:10501000F7FC32BDF8B507000E0015001C0006981D
:10502000009023002A0092B2310089B2380080B289
:105030000DF0EAFCF2BD38B505000C00210089B284
:10504000280080B20DF0E6FC32BDF8B507000E0076
:1050500015001C002300DBB22A0092B2310089B295
:105060003800C0B20DF0DAFCF2BD70B506000D00DC
:10507000140022002900300080B20DF0E5FC70BD64
:10508000F8B507000E0015001C006846008B009064
:105090002300DBB22A00D2B23100C9B2380080B29C
:1050A0000DF0DBFCF2BD10B50400200080B20DF065
:1050B000DFFC10BD38B505000C002100C9B2280086
:1050C00080B20DF0E2FC32BDF8B507000E0015000D
:1050D0001C0023002A00D2B2310089B2380080B20D
:1050E0000DF0E2FCF2BD0300FFFFFFFFFFFFFFFF3B
:1050F000FFFFFFFFFFFF010000000000FFFF0100B6
:105100000000FFFFF1B50F0000203880264C200082
:10511000FFF7E7FE05002800C0B2002802D02800F3
:10512000C0B240E02000FFF7E2FE040068460078CD
:10513000C0070CD5210089B21C48FFF7DEFE050030
:105140002800C0B2002802D02800C0B22BE01748C7
:10515000FFF7DCFE3880210089B21548FFF7CDFE4D
:1051600006003000C0B2002802D03000C0B21AE001
:10517000210089B20F48FFF7C0FE05002800C0B229
:10518000002802D02800C0B20DE0210089B20A48F0
:10519000FFF7B3FE01000800C0B2002802D00800EB
:1051A000C0B200E00020F2BDC003002010240410B3
:1051B00034240410582404107C24041080B50228E0
:1051C00001D9122080BD0DF083FC80BDFFB581B0F8
:1051D0000A9F002503980580049805803D80684655
:1051E000007905210140002936D0634E3000FFF7D9
:1051F00078FE6946087068460078002802D0684644
:1052000000782AE05D4C2000FFF780FE03990880BB
:1052100020002430FFF77AFE049908803000FFF761
:1052200066FE694648803D806846007A02280ED1B5
:105230006846418820006C30FFF75FFE69460870C1
:1052400068460078002802D06846007805E04C4A9D
:105250000821002000F003F8002005B0F0BDF8B5EB
:1052600007000E0015004548FFF750FE0400641CBF
:105270002B00320092B2390089B2200080B200F0D7
:1052800014F8F2BDF8B507000E0015003D48FFF711
:105290003DFE0400641C2B00320092B2390089B23A
:1052A000200080B200F001F8F2BDFBB584B015001B
:1052B00000242000C0B2052816D230482100C9B20F
:1052C000242251434018FFF721FE694608806846B2
:1052D0000088002806D068460088401C6946098A74
:1052E000884201D0641CE4E72000C0B2052801D147
:1052F00012203FE0214E2000C0B224214843301844
:10530000006A80886946898A2A0092B28918884290
:1053100001DA12202EE02000C0B2242148433018C8
:10532000006A002801D1122024E0280080B20290F7
:10533000069801902000C0B2242148433018006A2A
:1053400080686946898A4718029A01993800FEF7F1
:105350005DFF2000C0B2242148433018006A007865
:10536000800706D52000C0B2242148433018006AC7
:105370004580002007B0F0BD7C030020C80200205B
:10538000B0230410EC020020E0B501A9087001224E
:10539000084611460DF0F6FB002800D08CBD01A890
:1053A00000780DF00DFC8CBD1CB5044668460DF070
:1053B00023FC0020082806D06946095C225C0A43C9
:1053C0002254401CF6E720460DF04EFC1CBD7047F1
:1053D000F1B588B072480068069071480068089975
:1053E00001406F4801606C48006802906D48006899
:1053F00001906A48006800906B4800680490684F0C
:1054000002980099014038680840002869D0019846
:1054100004990140002964D100247B4DE000285804
:105420000099014038680840002801D1641CF4E765
:10543000E000285800990140386808400390E000D7
:105440002818406803990140002904D10020C04376
:10545000E10069184860554F0399E000281840683A
:10546000084000F0D3F838600121E00028184268B5
:105470003B68080098408243E00028184260EFF340
:105480001080059072B6444802683B680800984056
:105490008243414802600226002E0DD0F0002818F9
:1054A000083802683B68080098408243F0002818DA
:1054B00008380260761EEFE7059880F310883C48B4
:1054C0003968890040588047334800680290354861
:1054D00000680190314800680090334800680490EB
:1054E0008DE70020C043314908602F4C01982168A6
:1054F000014000291FD104F0D3FCEFF3108572B6F0
:1055000025480068029027480068019023480068F9
:10551000009002980099014038680840002806D1A0
:10552000019821680140002901D104F0BAFC85F3FB
:1055300010880DF0A9FB0698386009B0F0BDF8B5E9
:1055400004000F001500EFF3108672B6200000F083
:105550005DF8800016490D5086F31088F1BD30B417
:10556000EFF3108272B60C4B1C6804431C60264B90
:10557000CC001C590443CD005C5182F3108830BC30
:105580007047EFF3108172B6064A13680343136045
:1055900081F3108870470000341B00204C04002069
:1055A00050040020381B00203C1B0020401B002022
:1055B000EC150020FEB50400244E306800903068E1
:1055C0000021C943884201D1002502E0012530684D
:1055D00085401F4F386801903C601E48016821409B
:1055E000002904D1210028000DF04FFBF5E70099B8
:1055F0003160EFF3108172B60268A243026081F35A
:10560000108801983860F7BDD81A002010B5010045
:1056100000200A00130C1B04002B02D110231800D9
:105620001204130E1B06002B01D108301202130FB7
:105630001B07002B01D1001D1201074B140F1B5D2E
:10564000C0181F23181AC0B210BD0000401B002054
:105650003C1B0020381B002018290410704770479D
:10566000704780B500200DF017FB80BD00B501002C
:1056700049B2002905D40121C206D20E91408C4ABC
:10568000116000BDC1680322914302220A43C26037
:105690007047C16803229143C160704700B5C0687C
:1056A0008007800F022801D1012000E0002000BD0A
:1056B000C16803229143C160704700B5C06880078C
:1056C000800F032801D1012000E0002000BD01610E
:1056D000704700697047816A8022D2050A4382625E
:1056E0007047816A734A0A4082627047816A080083
:1056F0004000C00F7047016B8022D2050A4302634D
:105700007047016B6B4A0A40026370470A00D2B2CD
:105710008260704741627047406A7047C16270475B
:1057200000697047816A802292050A43826270474D
:105730007047816C01220A4382647047C16C012268
:105740000A43C2647047C16C0800C007C00F7047AD
:105750004160704700218160704780687047C06871
:105760007047016901220A4302617047016908001C
:10577000C007C00F7047F1B5BC48FFF7DFFFBB485B
:10578000FFF7D7FF1720FFF771FF1420FFF76EFF19
:1057900000984068002801D0012000E00020B44CAF
:1057A00020702078002803D100988078002802D04B
:1057B00000F038FB09E0C82040032062E061B248F5
:1057C000A061B2482061B24860610098406800283A
:1057D00005D1A020C00500F087FA606014E0251D07
:1057E0000098406800030A210DF0B5FA2860A94E20
:1057F000300000F079FA6168814201D2606802E00D
:10580000300000F071FA286000252800207200980E
:105810000088A066A169A06E80B200F0E9FB2800B4
:105820008421605400260027266767678F48FFF7AA
:1058300077FF80216050A667E76720002830C0C04E
:105840000838280034216054934AA16960680DF03B
:10585000D9FA20632078942160548C2025500120AF
:1058600090216054280093216054280091216054B5
:105870002800922160542800612160542800622190
:105880006054280063216054A665E7658348A064DE
:10589000656500F032FA6268002312184B4120005F
:1058A000403000F0D9FB0121200000F02FFBF1BDBA
:1058B00000E100E0FFFFFFBFFEB500206946087071
:1058C000EFF31080029072B6694C6120205C0028D2
:1058D0000BD000F012FAA26DE36D8B4205D801D314
:1058E000824202D2002061216054029880F3108825
:1058F0002500913528789221615C884204D328786C
:105900009221615C401A06E028789221615C401A7D
:10591000802149004018002847D028789221615CF6
:10592000884206D328789221615C401A6946487003
:1059300005E028789221615C401A6946487001A907
:105940008C20205800F0C4FC8C216050019F002F57
:105950000AD03E6900203873B868002802D03800A9
:10596000B96888473700F2E7B14E6946306800F001
:10597000F3FB30606846007801280FD1EFF3108008
:1059800072B62978491C9222A25C914201D12978F1
:1059900001E02978491C297080F31088A548017816
:1059A0006A46527889180170A2E7207A002843D00D
:1059B000A148FFF7DBFE002857D000210800207225
:1059C0009420205C002806D1200093300278002A21
:1059D00001D001701CE000F0ACFC26008C3669465A
:1059E000306800F0B9FB30606846007801280FD1BC
:1059F000EFF3108072B62978491C9222A25C914282
:105A000001D1297801E02978491C297080F3108898
:105A100069462000583000F0F9FC25004035280088
:105A200000F0B0F900F069F96268002312184B41E8
:105A3000280000F011FB18E02078002815D000F0B5
:105A40005CF9220028320CCAFA2676030027B61821
:105A50005F418F4209D801D3864206D240342000EC
:105A600000F090F9200000F0DEFAF7BD00180060A9
:105A7000C014002010B5040021009A48006800F00E
:105A8000D1FD10BD00000000C2F528008D5B0000B4
:105A9000ECEB6501FFEFFFFF260300002760041019
:105AA000F8B586B000F0D5FD002801D1002080E0D7
:105AB000032600F022F904AA03C2083A02A800F063
:105AC000D8FD07005D4A6120105C002803D16220E8
:105AD000105C002803D03800C0B2012803D1632035
