:020000041004E6
:1000000000000120F99D0610F1A10610F9A10610CB
:1000100000000000000000000000000000000000E0
:1000200000000000000000000000000001A2061017
:10003000000000000000000003A2061005A2061048
:1000400007980410A7A10410F3B60410FBCB04100A
:100050000000000000000000000000003BD404107D
:100060000DA2061027D50410E3DB04101BF60410C4
:100070007BF6041035A206100000000067A20610EF
:1000800075A2061083F904104FA2061000000000AC
:1000900047A20610000000005FA206103FA2061053
:1000A00097FB041057A2061073FF0410E704051015
:1000B0001F0C051000000000000000000000000000
:1000C0004572726F7220696E20424C455F535441F5
:1000D000434B5F496E697428292030782530327887
:1000E0000D0A000020204661696C2020203A206122
:1000F00063695F68616C5F77726974655F636F6E77
:100100006669675F6461746120636F6D6D616E64C1
:10011000202D20434F4E4649475F444154415F5094
:100120005542414444525F4F46465345542C207239
:100130006573756C743A203078253032580A0000A7
:100140002020537563636573733A206163695F6848
:10015000616C5F77726974655F636F6E6669675F14
:100160006461746120636F6D6D616E64202D204346
:100170004F4E4649475F444154415F5055424144C8
:1001800044525F4F46465345540A000020204661C2
:10019000696C2020203A206163695F68616C5F733D
:1001A00065745F74785F706F7765725F6C65766594
:1001B0006C20636F6D6D616E642C20726573756C5D
:1001C000743A203078253032580A000020205375C8
:1001D00063636573733A206163695F68616C5F7321
:1001E00065745F74785F706F7765725F6C65766554
:1001F0006C20636F6D6D616E640A000020204661A3
:10020000696C2020203A206863695F6C655F7772B3
:100210006974655F7375676765737465645F64654A
:100220006661756C745F646174615F6C656E677440
:100230006820636F6D6D616E642C20726573756CE0
:10024000743A203078253032580A00002020466168
:10025000696C2020203A206163695F676174745F74
:100260007372765F70726F66696C655F696E6974D0
:1002700020636F6D6D616E642C20726573756C7494
:100280003A203078253032580A000000202053757B
:1002900063636573733A206163695F676174745F58
:1002A0007372765F70726F66696C655F696E697490
:1002B00020636F6D6D616E640A000000202046614E
:1002C000696C2020203A206163695F6761705F6913
:1002D0006E697420636F6D6D616E642C207265733E
:1002E000756C743A203078253032580A00000000CE
:1002F0002020537563636573733A206163695F6798
:1003000061705F696E697420636F6D6D616E640A00
:100310000000000020205075626C696320426C75FB
:1003200065746F6F746820416464726573733A20FA
:10033000253032783A253032783A253032783A25ED
:100340003032783A253032783A253032780A000057
:1003500020204661696C2020203A204761705F7040
:10036000726F66696C655F7365745F6465765F6EF6
:10037000616D65202D20446576696365204E616D51
:10038000652C20726573756C743A20307825303294
:10039000580A00002020537563636573733A204741
:1003A00061705F70726F66696C655F7365745F64BE
:1003B00065765F6E616D65202D20446576696365A5
:1003C000204E616D650A000020204661696C202086
:1003D000203A204761705F70726F66696C655F7369
:1003E00065745F617070656172616E6365202D2058
:1003F000417070656172616E63652C207265737502
:100400006C743A203078253032580A002020537519
:1004100063636573733A204761705F70726F6669DA
:100420006C655F7365745F617070656172616E6346
:1004300065202D20417070656172616E63650A00F0
:1004400020204661696C2020203A206163695F6743
:1004500061705F7365745F696F5F6361706162692A
:100460006C69747920636F6D6D616E642C207265A8
:1004700073756C743A203078253032580A000000C9
:100480002020537563636573733A206163695F6706
:1004900061705F7365745F696F5F636170616269EA
:1004A0006C69747920636F6D6D616E640A00000081
:1004B00020204661696C2020203A206163695F67D3
:1004C00061705F7365745F73656375726974795F7A
:1004D000726571756972656D656E747320636F6D99
:1004E0006D616E642C20726573756C743A2030787F
:1004F000253032580A00000020205375636365736D
:10050000733A206163695F6761705F7365745F73DD
:10051000656375726974795F726571756972656D0D
:10052000656E747320636F6D6D616E640A00000008
:1005300020204661696C2020203A206163695F6752
:1005400061705F636F6E6669677572655F66696C1F
:100550007465725F6163636570745F616E645F721E
:1005600065736F6C76696E675F6C69737420636F17
:100570006D6D616E642C20726573756C743A2030F9
:1005800078253032580A0000202053756363657364
:10059000733A206163695F6761705F636F6E66695C
:1005A000677572655F66696C7465725F61636365C8
:1005B00070745F616E645F7265736F6C76696E678D
:1005C0005F6C69737420636F6D6D616E640A000007
:1005D000FF80FFFF30FFFFFF20204661696C202075
:1005E000203A206863695F6C655F7365745F657648
:1005F000656E745F6D61736B20636F6D6D616E64AA
:100600002C20726573756C743A203078253032581E
:100610000A0000002020537563636573733A2068F5
:1006200063695F6C655F7365745F6576656E745F43
:100630006D61736B20636F6D6D616E640A00000005
:100640003D3D3E3E20456E6420424C455F496E690B
:10065000742066756E6374696F6E0A0053657276F6
:100660006963657320616E642043686172616374BD
:100670006572697374696373206372656174696F0D
:100680006E0A0000456E64206F66205365727669BD
:1006900063657320616E6420436861726163746591
:1006A00072697374696373206372656174696F6ED4
:1006B0000A0000003E3E3D3D204843495F44495307
:1006C000434F4E4E454354494F4E5F434F4D504C60
:1006D0004554455F4556545F434F44450A0000006A
:1006E00020202020202D20436F6E6E656374696F7B
:1006F0006E2048616E646C653A2020203078253089
:1007000034580A20202020202D20526561736F6EFE
:100710003A202020203078253032580A000000008E
:100720003E3E3D3D204843495F4C455F434F4E4E62
:10073000454354494F4E5F5550444154455F434FE4
:100740004D504C4554455F5355424556545F434FB9
:1007500044450A0020202020202D20436F6E6E6526
:100760006374696F6E20496E74657276616C3A20AD
:10077000202025642E25303264206D730A2020202D
:1007800020202D20436F6E6E656374696F6E206C40
:100790006174656E63793A2020202025640A202048
:1007A0002020202D205375706572766973696F6EF5
:1007B0002054696D656F75743A2020202564206D82
:1007C000730A00004843495F4C455F454E48414E1F
:1007D0004345445F434F4E4E454354494F4E5F435C
:1007E0004F4D504C4554455F5355424556545F4319
:1007F0004F44450A000000004843495F4C455F45AF
:100800004E48414E4345445F434F4E4E4543544945
:100810004F4E5F434F4D504C4554455F56325F53EA
:1008200055424556545F434F44450A004843495F8B
:100830004C455F504552494F4449435F41445645FA
:1008400052544953494E475F53594E435F545241A6
:100850004E534645525F52454345495645445F56BF
:10086000320A000053746174757320253032580ABF
:10087000000000004843495F4C455F504552494FD6
:100880004449435F4144564552544953494E475F9A
:1008900053594E435F4C4F53540A00004843495F3D
:1008A0004C455F4D4554415F4556543A20307825BC
:1008B0003032580A000000003E3E3D3D2041434991
:1008C0005F4C324341505F434F535F434F4E4E4561
:1008D0004354494F4E5F5245515F56534556545FFE
:1008E000434F44450A0000004368616E6E656C5FCB
:1008F000547970653A2025640A5350534D3A20309C
:1009000078253034580A506565725F4D54553A2049
:1009100025640A506565725F4D50533A2025640A7C
:100920004349445F436F756E743A2025640A0000A2
:10093000556E6578706563746564204C3243415030
:10094000206368616E6E656C207265717565737485
:100950000A000000556E6578706563746564205305
:1009600050534D0A000000003D3D3E3E206163694A
:100970005F6C326361705F636F735F636F6E6E6530
:100980006374696F6E5F72657370203A20466169A7
:100990006C2C20726561736F6E3A2030782530328E
:1009A000580A00003D3D3E3E206163695F6C326342
:1009B00061705F636F735F636F6E6E656374696FA1
:1009C0006E5F72657370203A20537563636573734D
:1009D0000A0000003E3E3D3D204143495F4C32430A
:1009E00041505F434F535F444953434F4E4E45433D
:1009F00054494F4E5F434F4D504C4554455F5653FD
:100A00004556545F434F44450A0000003E3E3D3D7D
:100A1000204143495F4C324341505F434F535F5342
:100A200044555F444154415F52585F5653455654B4
:100A30005F434F44450A00006163695F6C32636144
:100A4000705F636F735F7364755F646174615F652A
:100A50007874726163743A206661696C2C207265E7
:100A600061736F6E3A203078253032580A000000EA
:100A70003E3E3D3D204143495F4741505F50524F0C
:100A8000435F434F4D504C4554455F565345565474
:100A90005F434F44450A00003E3E3D3D20414349EF
:100AA0005F4741505F4B455950524553535F4E4F3E
:100AB00054494649434154494F4E5F565345565455
:100AC0005F434F44450A00003E3E3D3D20414349BF
:100AD0005F4741505F504153534B45595F52455119
:100AE0005F56534556545F434F44450A000000008B
:100AF0003D3D3E3E206163695F6761705F70617379
:100B0000736B65795F72657370203A204661696C1A
:100B10002C20726561736F6E3A2030782530325820
:100B20000A0000003D3D3E3E206163695F676170E1
:100B30005F706173736B65795F72657370203A20C3
:100B4000537563636573730A000000003E3E3D3DCC
:100B5000204143495F4741505F4E554D45524943FF
:100B60005F434F4D50415249534F4E5F56414C5594
:100B7000455F56534556545F434F44450A000000B5
:100B800020202020202D206E756D657269635F76B0
:100B9000616C7565203D2025640A0000202020201E
:100BA000202D204865785F76616C7565203D202595
:100BB000780A00003D3D3E3E206163695F676170D9
:100BC0005F6E756D657269635F636F6D7061726989
:100BD000736F6E5F76616C75655F636F6E66697269
:100BE0006D5F7965736E6F203A204661696C2C20C9
:100BF000726561736F6E3A203078253032580A0082
:100C00003D3D3E3E206163695F6761705F6E756D5B
:100C1000657269635F636F6D70617269736F6E5F38
:100C200076616C75655F636F6E6669726D5F79651D
:100C3000736E6F203A20537563636573730A000007
:100C40003E3E3D3D204143495F4741505F50414951
:100C500052494E475F56534556545F434F44450AE9
:100C6000000000003E3E3D3D204143495F4741506A
:100C70005F50414952494E475F434F4D504C455498
:100C8000455F56534556545F434F44450A000000A4
:100C900020202020202D2050616972696E67204B32
:100CA0004F0A20202020202D205374617475733A40
:100CB000203078253032580A20202020202D205244
:100CC0006561736F6E3A203078253032580A000023
:100CD00020202020202D2050616972696E672053EA
:100CE0007563636573730A003E3E3D3D2041434991
:100CF0005F474154545F5352565F524541445F56DB
:100D0000534556545F434F44450A000048616E64A2
:100D10006C65203078253034580A00004143495F23
:100D200048414C5F46575F4552524F525F565345BC
:100D30005654203078253032580A00004843495F25
:100D400056454E444F525F4556543A203078253030
:100D500034580A004843495F48415244574152457C
:100D60005F4552524F525F455654203078253032FD
:100D7000580A00004843495F4556454E543A2030D2
:100D800078253032580A00003D3D3E3E20636F6EAC
:100D90006E656374696F6E5F636F6D706C657465AB
:100DA0005F6576656E74204661696C2C20537461B2
:100DB0007475733A203078253032580A00000000EC
:100DC0003E3E3D3D206863695F6C655F636F6E6E9C
:100DD000656374696F6E5F636F6D706C6574655F7A
:100DE0006576656E74202D20436F6E6E6563746941
:100DF0006F6E2068616E646C653A203078253034FF
:100E0000580A000020202020202D20436F6E6E65A0
:100E10006374696F6E2065737461626C6973686571
:100E200064207769746820403A253032783A25305A
:100E300032783A253032783A253032783A253032D5
:100E4000783A253032780A0020202020202D2043B7
:100E50006F6E6E656374696F6E20496E746572762D
:100E6000616C3A20202025642E25303264206D7379
:100E70000A20202020202D20436F6E6E6563746948
:100E80006F6E206C6174656E63793A202020202596
:100E9000640A20202020202D205375706572766909
:100EA00073696F6E2054696D656F75743A2025649F
:100EB000206D730A000000006863695F6C655F72F3
:100EC0006561645F706879206661696C7572653A06
:100ED00020726561736F6E3D3078253032580A009C
:100EE0003D3D3E3E206863695F6C655F726561648D
:100EF0005F706879202D20537563636573730A00F2
:100F00003D3D3E3E2050485920506172616D202089
:100F100054583D2025642C2052583D2025640A0059
:100F20003D3D3E3E206863695F6C655F7365745F3D
:100F30007068792050485920506172616D202054AA
:100F4000583D2025642C2052583D202564202D201A
:100F5000000000004661696C0A000000537563637D
:100F60006573730A000000006163695F6761705F09
:100F70007465726D696E617465206661696C757205
:100F8000653A20726561736F6E3D30782530325856
:100F90000A0000003D3D3E3E206163695F6761706D
:100FA0005F7465726D696E617465203A2053756374
:100FB000636573730A0000006163695F676174743D
:100FC0005F636C745F65786368616E67655F636FAC
:100FD0006E666967206661696C7572653A20726534
:100FE00061736F6E3D3078253032580A0000000082
:100FF0003D3D3E3E206163695F676174745F636C71
:10100000745F65786368616E67655F636F6E66695C
:1010100067203A20537563636573730A000000000C
:101020003D3D3E3E206163695F6761705F7365743B
:101030005F6164766572746973696E675F636F6E12
:1010400066696775726174696F6E202D20666169CB
:101050006C2C20726573756C743A203078253032B0
:10106000580A00003D3D3E3E20537563636573732F
:101070003A206163695F6761705F7365745F616483
:10108000766572746973696E675F636F6E666967B0
:1010900075726174696F6E0A000000003D3D3E3E4E
:1010A000206163695F6761705F7365745F61647617
:1010B0006572746973696E675F646174612046610B
:1010C000696C65642C20726573756C743A20307895
:1010D000253032580A0000003D3D3E3E20537563E6
:1010E000636573733A206163695F6761705F7365FD
:1010F000745F6164766572746973696E675F646159
:1011000074610A003D3D3E3E206163695F67617026
:101110005F7365745F6164766572746973696E6725
:101120005F656E61626C65204661696C65642C2048
:10113000726573756C743A203078253032580A0025
:101140003D3D3E3E20537563636573733A20616392
:10115000695F6761705F7365745F616476657274FF
:101160006973696E675F656E61626C650A00000095
:1011700044697361626C6520616476657274697339
:10118000696E67202D206661696C2C20726573750D
:101190006C743A203078253032580A003D3D3E3E8E
:1011A0002044697361626C6520616476657274695C
:1011B00073696E67202D20537563636573730A002E
:1011C0006163695F6C326361705F636F6E6E6563EC
:1011D00074696F6E5F706172616D657465725F7561
:1011E00070646174655F726571202D206661696C41
:1011F0002C20726573756C743A2030782530325823
:101200000A0000003D3D3E3E206163695F6C326331
:1012100061705F636F6E6E656374696F6E5F70613E
:1012200072616D657465725F7570646174655F721B
:101230006571202D20537563636573730A00000088
:101240007C1B00209E3A00002600010400003200B2
:10125000F7000000FFFFFFFF32000110080001034C
:10126000F700010000010102020202000001000378
:10127000000400000A0A5741544348444F47205293
:10128000455345542121212121212121210A0A00F0
:101290000A0A53595354454D205245534554212170
:1012A000212121212121210A0A00000042757474A4
:1012B0006F6E20256420707265737365640A000088
:1012C00000100E0000000000000000000000000000
:1012D00020204661696C2020203A206163695F67A5
:1012E0006174745F636F6E6669726D5F696E646965
:1012F000636174696F6E20636F6D6D616E642C2025
:10130000726573756C743A2030782578200A000075
:101310002020537563636573733A206163695F6767
:101320006174745F636F6E6669726D5F696E646924
:10133000636174696F6E20636F6D6D616E640A0026
:1013400020204661696C20726567697374657269F3
:101350006E67204449532068616E646C6572730A3D
:101360000000000020204661696C2020203A2061A6
:1013700063695F676174745F7372765F6164645FF1
:101380007365727669636520636F6D6D616E643A33
:10139000204449532C206572726F7220636F64651C
:1013A0003A2030782578200A00000000202053756C
:1013B00063636573733A206163695F676174745F27
:1013C0007372765F6164645F7365727669636520CA
:1013D000636F6D6D616E643A20444953200A0000CA
:1013E00002100400FB349B5F8000008000100000AE
:1013F000502A000010000000000000000000000063
:1014000064020020FB349B5F80000080001000001D
:101410000A18000010000000010000000000000099
:101420000000000001000000E0130410577269740E
:1014300065206F6E204543500A0000004143495F1C
:10144000474154545F5352565F4154545249425598
:1014500054455F4D4F4449464945445F56534556B0
:10146000545F434F44452045534C5F5345525649C2
:1014700043455F434F4E54524F4C5F504F494E547B
:101480005F4E4F544946595F44495341424C45448D
:101490005F4556540A0000004143495F4741545498
:1014A0005F5352565F4154545249425554455F4D23
:1014B0004F4449464945445F56534556545F434F50
:1014C00044452045534C5F534552564943455F437D
:1014D0004F4E54524F4C5F504F494E545F4E4F54F5
:1014E0004946595F454E41424C45445F4556540A72
:1014F000000000002A2A2A2045534C5F6164647270
:101500006573733A203078253034580A00000000A3
:1015100020204661696C2020203A206163695F6762
:101520006174745F636F6E6669726D5F696E646922
:10153000636174696F6E20636F6D6D616E642C20E2
:10154000726573756C743A2030782578200A000033
:101550002020537563636573733A206163695F6725
:101560006174745F636F6E6669726D5F696E6469E2
:10157000636174696F6E20636F6D6D616E640A00E4
:101580002020424C454556545F5265676973746527
:10159000724761747445767448616E646C6572203C
:1015A0007265743A2030782578200A002020466140
:1015B000696C2020203A206163695F676174745F01
:1015C0007372765F6164645F7365727669636520C8
:1015D000636F6D6D616E643A2045534C2C206572CB
:1015E000726F7220636F64653A2030782578200A24
:1015F000000000002020537563636573733A206117
:1016000063695F676174745F7372765F6164645F5E
:101610007365727669636520636F6D6D616E643AA0
:101620002045534C200A000020204661696C202090
:10163000203A206163695F676174745F7372765FDB
:101640006E6F7469667920434F4E54524F4C5F5011
:101650004F494E5420636F6D6D616E642C2065722E
:10166000726F7220636F64653A203078253032588B
:101670000A0000002020537563636573733A20618C
:1016800063695F676174745F7372765F6E6F7469AC
:10169000667920434F4E54524F4C5F504F494E5441
:1016A00020636F6D6D616E640A0000000100000030
:1016B00002000000661B002008102000FB349B5F26
:1016C0008000008000100000F62B000010000000D9
:1016D00000000000000000000000000008102000D2
:1016E000FB349B5F8000008000100000F72B00009F
:1016F00010000000000000000000000000000000DA
:1017000008102000FB349B5F800000800010000068
:10171000F82B000010000000000000000000000096
:101720000000000008102000FB349B5F8000008058
:1017300000100000F92B0000100000000000000065
:1017400000000000000000001C102000FB349B5F24
:101750008000008000100000FE2B00001000000040
:101760000100000078020020940200200210040012
:10177000FB349B5F8000008000100000FA2B00000B
:101780001000000000000000000000000000000049
:1017900002100400FB349B5F8000008000100000FA
:1017A000FB2B000010000000000000000000000003
:1017B0000000000002100400FB349B5F80000080EA
:1017C00000100000FC2B00001000000000000000D2
:1017D000000000000000000002100400FB349B5FCA
:1017E0008000008000100000FD2B000010000000B1
:1017F000000000000000000000000000FB349B5FC0
:101800008000008000100000571800001000000049
:101810000100000001000000A002002009000000FB
:10182000B81604102A2A2A20556E6173736F6369F3
:10183000617465642053746174650A006863695F4C
:101840006C655F7365745F64656661756C745F7009
:101850006572696F6469635F6164766572746973E8
:10186000696E675F73796E635F7472616E736665CC
:10187000725F706172616D65746572733A00000029
:10188000206661696C2028307825303278290A007A
:1018900020737563636573730A0000002A2A2A2087
:1018A000436F6E6669677572696E67205374617401
:1018B000650A00002A2A2A20556E6173736F6369D6
:1018C000617465642073746174652066726F6D2045
:1018D000436F6E6669677572696E672073746174B1
:1018E0006520666F72206C696E6B206C6F7373205D
:1018F0000A0000002A2A2A20556E73796E636872E6
:101900006F6E697A65642073746174652066726FA6
:101910006D20436F6E6669677572696E67207374B8
:1019200061746520666F72206C696E6B206C6F73DA
:1019300073200A002A2A2A20556E73796E63687212
:101940006F6E697A65642073746174652066726F66
:101950006D205570646174696E672073746174657D
:1019600020666F72206C696E6B206C6F7373200A37
:10197000000000002A2A2A20556E73796E6368726F
:101980006F6E697A656420737461746520666F7226
:101990002073796E63206C6F73740A002A2A2A20E0
:1019A00045534C5F4150505F436F6E746578742EA1
:1019B00061705F73796E635F6B65795F6D6174658C
:1019C0007269616C3A200A0025303258000000002C
:1019D0000A2A2A2A2049563A200A00002A2A2A20BE
:1019E00045534C5F4150505F436F6E746578742E61
:1019F00065736C5F726573705F6B65795F6D617441
:101A0000657269616C3A200A000000002A2A2A20C7
:101A10005345542043757272656E74416273546904
:101A20006D653A2025640A006863695F6C655F73C1
:101A300065745F706572696F6469635F73796E6303
:101A40005F7375626576656E743A00006863695FFE
:101A50006C655F7365745F706572696F6469635FFD
:101A60006164766572746973696E675F72656365D8
:101A70006976655F656E61626C653A002A2A2A2084
:101A800053796E6368726F6E697A6564205374610E
:101A900074650A006163695F6761705F7465726D88
:101AA000696E617465206661696C7572653A207251
:101AB0006561736F6E3D3078253032580A00000042
:101AC0003D3D3E3E206163695F6761705F74657292
:101AD0006D696E617465203A205375636365737335
:101AE0002028424C455F4552524F525F5445524D5B
:101AF000494E415445445F52454D4F54455F5553FF
:101B00004552290A000000004465637279707469C7
:101B10006F6E206661696C2E0A000000456E6420BD
:101B20006F662045534C5F4150505F416476506171
:101B3000796C6F616452656365697665640A00005B
:101B400050494E4720636F6D6D616E64205B6F700E
:101B5000636F64653A203078253032785D200A0062
:101B60004C454420434F4E54524F4C20636F6D6D93
:101B7000616E64205B6F70636F64653A2030782516
:101B80003032785D200A00004C45442054494D45D0
:101B90004420434F4E54524F4C20636F6D6D616E25
:101BA00064205B6F70636F64653A20307825303253
:101BB000785D200A00000000524541442053454E04
:101BC000534F52204441544120636F6D6D616E64E8
:101BD000205B6F70636F64653A203078253032780F
:101BE0005D200A005458542056454E444F522063FD
:101BF0006F6D6D616E64205B6F70636F64653A201A
:101C00003078253032785D200A0000005052494378
:101C1000452056454E444F5220636F6D6D616E6492
:101C2000205B6F70636F64653A20307825303278BE
:101C30005D200A0055504441544520434F4D504CBF
:101C400045544520636F6D6D616E64205B6F7063FA
:101C50006F64653A203078253032785D200A0000C4
:101C6000554E4153534F43494154452046524F4DE1
:101C700020415020636F6D6D616E64205B6F7063F7
:101C80006F64653A203078253032785D200A000094
:101C90005345525649434520524553455420636F9E
:101CA0006D6D616E64205B6F70636F64653A2030A8
:101CB00078253032785D200A000000004641435408
:101CC0004F525920524553455420636F6D6D616EDC
:101CD00064205B6F70636F64653A20307825303222
:101CE000785D200A00000000444953504C415920BF
:101CF000494D41474520636F6D6D616E64205B6F98
:101D000070636F64653A203078253032785D200A40
:101D10000000000052454652455348204449535064
:101D20004C415920636F6D6D616E64205B6F706311
:101D30006F64653A203078253032785D200A0000E3
:101D4000444953504C41592054494D454420494D34
:101D500041474520636F6D6D616E64205B6F7063FA
:101D60006F64653A203078253032785D200A0000B3
:101D70006C6C5F7365745F706572696F6469635FD3
:101D80006164766572746973696E675F726573709A
:101D90006F6E73655F646174615F707472206661F9
:101DA000696C7572653A20726561736F6E3D30784B
:101DB000253032582C2053796E635F48616E646C15
:101DC00065203078253034582C2052657175657344
:101DD000745F4576656E742025642C2053756265AA
:101DE00076656E742025642C20526573706F6E7357
:101DF000655F536C6F742025640A00003D3D3E3ED4
:101E0000206C6C5F7365745F706572696F64696381
:101E10005F6164766572746973696E675F7265731A
:101E2000706F6E73655F646174615F707472203A85
:101E300020537563636573730A0000005245535065
:101E40004F4E5345206F70636F64653A203078259C
:101E5000303278200A000000556E73796E63687224
:101E60006F6E697A656420737461746520666F7241
:101E70002074696D656F75740A0000002A2A2A2093
:101E8000556E6173736F6369617465642073746107
:101E900074650A0050656E64696E67204C45442085
:101EA000636F6D6D616E642064656C657465640A52
:101EB0000000000050656E64696E672044697370AD
:101EC0006C617920636F6D6D616E642064656C6513
:101ED0007465640A000000002A2A2A205570646193
:101EE00074696E67207374617465207472616E73B7
:101EF0006974696F6E2066726F6D2053796E6368C6
:101F0000726F6E697A65642073746174650A00008B
:101F10002A2A2A205570646174696E67207374617F
:101F20007465207472616E736974696F6E20667275
:101F30006F6D20556E73796E6368726F6E697A6526
:101F4000642073746174650A0000000048454C50B9
:101F5000000000004C697374206F6620636F6D6D24
:101F6000616E64732075736566756C20666F722090
:101F700074657374733A200A0000000020202D203D
:101F800041425354494D453A204765742043757288
:101F900072656E74204162736F6C7574652054694C
:101FA0006D650A0020202D205352564E454544456C
:101FB000443A205365742053657276696365204EF8
:101FC00065656465642062697420746F205472755D
:101FD00065200A0020202D20554E53594E433A20AB
:101FE000536574205468652045534C2073746174A4
:101FF0006520746F20556E73796E6368726F6E69B9
:102000007A6564200A00000020202D204E4F4449AC
:1020100053504C41593A204561636820646973709C
:102020006C6179206973206E6F7420646973706CC1
:102030006179696E6720616E20696D616765200A4C
:102040000000000041425354494D45002D2D3E20D3
:102050004765742043757272656E74204162736FB8
:102060006C7574652054696D653A2025640A00001A
:102070005352564E45454445440000002D2D3E2008
:102080005365742053657276696365204E65656497
:1020900065642062697420746F20547275650A004B
:1020A000554E53594E4300002D2D3E20536574204C
:1020B0005468652045534C20737461746520746FB7
:1020C00020556E73796E6368726F6E697A65640A03
:1020D000000000004F4B0D0A000000004552524F17
:1020E000520D0A0043757272656E742074696D65D5
:1020F0003A2025640A0000005265717565737465A5
:10210000642074696D653A2025640A00517565750F
:10211000652066756C6C0A0050656E64696E672098
:102120004C454420636F6D6D616E64207265706C08
:10213000616365640A00000054696D657220737400
:1021400061727465642E2050656E64696E67204C00
:10215000454420557064617465206269742073651C
:10216000740A000050656E64696E67204C45442017
:10217000557064617465206269742072657365745A
:102180000A000000446973706C617920496E6465CF
:10219000783A202564202D20496D61676520496EBD
:1021A0006465783A2025640A0000000050656E647A
:1021B000696E6720446973706C617920636F6D6D1F
:1021C000616E64207265706C616365640A00000072
:1021D00054696D657220737461727465642E205049
:1021E000656E64696E6720446973706C617920550F
:1021F000706461746520626974207365740A0000FC
:1022000050656E64696E6720446973706C617920F3
:1022100055706461746520626974207265736574B9
:102220000A00000052656672657368204469737025
:102230006C617920436F6D6D616E64202D20496E55
:102240006465783A2025640A000000004C4544206B
:10225000496E6465783A20307825303278200A005B
:102260004C454420436F6D706F6E656E743A20303C
:102270007825303278205B4272696768746E6573C6
:10228000733A2025645D0A004C454420466C617316
:1022900068696E67205061747465726E3A20307898
:1022A0002530327825303278253032782530327832
:1022B00025303278200A00004C454420466C61737A
:1022C00068696E67205061747465726E204F46466F
:1022D00020506572696F643A20307825303278205A
:1022E0000A0000004C454420466C617368696E67C3
:1022F000205061747465726E204F4E205065726973
:102300006F643A2020307825303278200A000000AF
:102310004C454420526570656174733A20203078D2
:1023200025303478205B5265706561742074797053
:10233000653A202564202D20526570656174206403
:1023400075726174696F6E3A203078253034785D2B
:102350000A0000004C4544204F46460A0000000099
:102360004C4544204F4E0A004C454420256420250E
:10237000730A00004C454420696E61637469766598
:102380000A000000496D616765206E6F74206176F8
:1023900061696C61626C652E0A00000044697370AB
:1023A0006C617920496E6465783A202564202D207F
:1023B000496D61676520496E6465783A2025640A35
:1023C000000000004E6F20696D61676520646973CD
:1023D000706C617965642E0A0000000052656672B7
:1023E00065736820446973706C617920436F6D6D0B
:1023F000616E64202D20496E6465783A2025640A58
:102400000000000053656E736F7220726561642076
:1024100074696D656F75740A00000000C800C8001B
:102420000100000000590000704C430053544D332C
:102430003257423000000000020000006A1B0020FA
:102440000000000008000000B002002000000000B2
:1024500001000000620500200000FFFF00000000F6
:1024600004000000582404100000000003000000D5
:10247000FC1A002000000000010000003A150510C1
:1024800001000000020000006C1B00202000000082
:10249000FB349B5F8000008000100000052A0000D4
:1024A0001000000001000000940300205C240410D0
:1024B0000A000000FB349B5F8000008000100000D9
:1024C000292B0000100000000000000000000000A8
:1024D0006824041002000000FB349B5F8000008031
:1024E000001000002A2B0000100000000000000077
:1024F000000000000000000002000000FB349B5FB1
:1025000080000080001000003A2B00001000000046
:1025100000000000000000007424041096C298D847
:102520004539A1F4A033EB2D817D0377F240A463FC
:10253000E5E6BCF847422CE1F2D1176BF551BF3705
:102540006840B6CBCE5E316B5733CE2B169E0F7CD8
:102550004AEBE78E9B7F1AFEE242E34F0001000048
:102560000000000000010000000000000001000069
:10257000000000000100000000000000FFFFFFFF5E
:10258000FFFFFFFFFFFFFFFF000000000000000053
:102590000000000001000000FFFFFFFF020000003C
:1025A0000500000003000000FEFFFFFFF9FFFFFF32
:1025B000FBFFFFFFFCFFFFFFFCFFFFFF030000002E
:1025C000000000000000000000000000000000000B
:1025D0000000000000000000000000004B60D22757
:1025E0003E3CCE3BF6B053CCB0061D65BC8698761B
:1025F00055BDEBB3E7933AAAD835C65A00000000A0
:1026000000F00B1000080000AA02000000F80B10F8
:10261000F807010000000000A00100000000000019
:102620005265616420434343206572726F720A00F1
:1026300020204661696C20726567697374657269F0
:102640006E67204F54532068616E646C6572730A24
:102650000000000020204661696C2020203A2061A3
:1026600063695F676174745F7372765F6164645FEE
:102670007365727669636520636F6D6D616E643A30
:10268000204F54532C206572726F7220636F646503
:102690003A2030782578200A000000002020537569
:1026A00063636573733A206163695F676174745F24
:1026B0007372765F6164645F7365727669636520C7
:1026C000636F6D6D616E643A204F5453200A0000B1
:1026D00000000000020000006E1B0020000000004F
:1026E00002000000701B002002100400FB349B5FFE
:1026F0008000008000100000BD2A000010000000D3
:1027000000000000000000000000000002100400B3
:10271000FB349B5F8000008000100000BE2A000098
:102720001000000000000000000000000000000099
:1027300002100400FB349B5F80000080001000004A
:10274000BF2A000010000000000000000000000090
:102750000000000002100400FB349B5F800000803A
:1027600000100000C02A000010000000000000005F
:10277000000000000000000002100400FB349B5F1A
:102780008000008000100000C32A0000100000003C
:102790000000000000000000000000000210040023
:1027A000FB349B5F8000008000100000C42A000002
:1027B0001000000000000000000000000000000009
:1027C00028102400FB349B5F800000800010000074
:1027D000C52A00001000000001000000D8030020FE
:1027E0000000000028102400FB349B5F8000008064
:1027F00000100000C62A00001000000001000000C8
:10280000F4030020000000004F54503A20616C6C2B
:1028100020696D61676573206572617365642E0A56
:1028200000000000496D616765202564000000001C
:102830004F54535F4F41435057726974650A00000B
:102840004F54503A2057726974696E6720466C6124
:10285000736820506167650A000000004F54535FA1
:102860004150505F4C324341504368616E6E656C1D
:102870004F70656E6564206369643A2025640A00C0
:102880004F54535F4150505F4C3243415043686155
:102890006E6E656C436C6F7365640A004F54503AFA
:1028A0002052656365697665642053445520286C21
:1028B000656E6774683A20256420627974657329AF
:1028C0000A0000004F54503A204C61737420646138
:1028D00074612072656365697665640A00000000B2
:1028E00054696D656F75740A0000000000000000F7
:1028F000000000000100000096C298D84539A1F4FC
:10290000A033EB2D817D0377F240A463E5E6BCF8AC
:1029100047422CE1F2D1176BF551BF376840B6CB77
:10292000CE5E316B5733CE2B169E0F7C4AEBE78E73
:102930009B7F1AFEE242E34FC4E9EAEBECEEEFF0D4
:10294000F1F2F3F3F4F5F6F7F8F9FAFBFCFDFDFE0E
:10295000FF00020304050506C4E8E9EAEBEDEEEF2B
:10296000F0F1F2F3F4F5F6F7F8F9FAFBFCFCFDFEF2
:10297000FF000102030405060700000091A10610F4
:102980009DA1061061A00610F9A00610039F061075
:10299000A39F0610040302020101010100000000D0
:1029A0000000000000020406080A0C0E00020406E3
:1029B000010002000400060008000A000C001000DC
:1029C0002000400080000001010101030701000018
:1029D0000804020408010101686A6C747A4C000062
:1029E0007072696E74665F733A20256E2064697335
:1029F000616C6C6F776564007072696E74663A2002
:102A000062616420256E20617267756D656E740069
:102A10007072696E74665F733A2062616420257318
:102A200020617267756D656E740000000000000023
:102A30006E616E004E414E00696E6600494E460062
:102A40003000CA2AFB349B5F800000800010000029
:102A5000292B000010000000FB349B5F80000080E9
:102A600000100000052A0000100000000000000017
:102A700000000000000000000000000069E70610F0
:102A8000000000000200000003000000030000003E
:102A90000600000003000000030000003C000000EE
:102AA0007000000070000000D00300007000000003
:102AB000C301000051A306106F480410B148041070
:102AC000D9480410CB480410E9450410C546041049
:102AD000FD4F04100B50041019500410275004101F
:102AE00035500410C5A90610AD4F0410874F0410CF
:102AF000BB4F04103D4B04101F120510F346041089
:102B0000A34D04103F490410712707104D490410CC
:102B1000B5A70610C92B0710252A0710C92D0710C5
:102B2000DB2F0710DB2F0710F1300710C92D07101E
:102B3000CB320710CB320710CB320710CD2C071049
:102B4000DF290710A3290710F1300710000000004B
:102B50006F3B071095FC06103F3B0710873B0710A3
:102B60001DFB0610D3460410E34604105B36071025
:102B7000633607105F3607103147041041470410D1
:102B80005147041061470410B147041081470410F5
:102B900091470410A147041071470410C147041065
:102BA000D1470410E1470410F14704100148041014
:102BB00067360710A9360710EDE806100000000080
:102BC000B7360710D9E7061085FA0610413A071004
:102BD0004DEF0610193A0710B93A0710DD36071005
:102BE000A33C0710AD3C0710F50207106D0307105A
:102BF000C93C0710B33B0710274207107542071066
:102C0000F14107100000000091420710673F0710D4
:102C1000FF410710414207108540071000000000E7
:102C200000000000DD3C071000000000E343071037
:102C3000AD070710000000006D6A0610A7420710DC
:102C400000000000DD110710F7440710000000002D
:102C50000345071000000000000000005512071097
:102C60006D0C0710FB44071025450710EF430710B4
:102C7000000000002F4607107D1507108B45071038
:102C80000000000000000000000000005F46071088
:102C900055460710000000006946071073450710ED
:102CA00000000000D1460710C746071000000000D2
:102CB000DB4607107F45071000B5BFF34F8F034871
:102CC000CA490860BFF34F8F00BFFDE70400FA0553
:102CD00080B501F015F901F0D5F90021C94388420A
:102CE00001D101F06FFB01BDF8B596B00020694637
:102CF0000873062421000020009007AD009A2800E8
:102D000001F066FB68460474802080006946C88133
:102D100009A89649342201F085FB09A801F0B8FB07
:102D200006003000C0B2002806D03100C9B2904879
:102D300001F0E4FB01F046FB07AC0120207000200D
:102D40006070AA20A070E120E07080202071022035
:102D5000607107AA0621002001F0E4FB05002800AD
:102D6000C0B2002805D02900C9B2A14801F0C6FBB5
:102D700002E0A04801F0C2FB1821002001F0D6FBC0
:102D800007003800C0B2002805D03900C9B29A48FF
:102D900001F0B4FB02E0994801F0B0FB9849FB2038
:102DA00002F05BFA06003000C0B2002804D0310007
:102DB000C9B2944801F0A2FB06A9012002F0B4FABE
:102DC00005002800C0B2002805D02900C9B28E48ED
:102DD00001F094FB02E08D4801F090FB00263000EA
:102DE000092101436846417300216846007B02F0D7
:102DF000F7FA07003800C0B2002805D03900C9B280
:102E0000A74801F07BFB02E0A64801F077FB04A88D
:102E1000801C009005AB05AA921C6846017B6846A1
:102E2000407B02F0E5FA050020780290607801907E
:102E3000A0780090E378227961799B4801F05EFBED
:102E40009A4C07A9200000F0C7FF07AA0F21984855
:102E500000F0E6FF22000621002002F012FB040031
:102E60002000C0B2002805D02100C9B2914801F06D
:102E700045FB02E0904801F041FB03AA921C0221AD
:102E8000002002F011FB05002800C0B2002805D088
:102E90002900C9B2894801F031FB02E0884801F0FD
:102EA0002DFB884C03202070207802F0D4F8070016
:102EB0003800C0B2002805D03900C9B2824801F0FC
:102EC0001DFB02E0814801F019FB66701020E070E4
:102ED00020710120A0700220029020790190E078FA
:102EE0000090002302226178A07802F0BBF8050070
:102EF0002800C0B2002805D02900C9B2744801F0EA
:102F0000FDFA02E0734801F0F9FAA078002810D029
:102F1000012002F04BFB05002800C0B2002805D0BC
:102F20002900C9B26C4801F0E9FA02E06B4801F0EF
:102F3000E5FA01A86A490CC90CC00839083801A88B
:102F400002F044FB04002000C0B2002805D021009C
:102F5000C9B2644801F0D2FA02E0634801F0CEFA47
:102F6000624801F0CBFA17B0F0BD00004012041027
:102F7000C000041080B50121012002F002FC01BD57
:102F800080B5012002F07CFC02F07DFC012002F003
:102F900078FC01BD80B502F09BFD01BD80B500212C
:102FA000022002F0EEFB01BD80B504F086FB01BDFE
:102FB00080B50121042002F0E4FB01BD80B5FFF7DC
:102FC000EDFF01BD10B50400200004F0C7FBFFF7C2
:102FD000E5FFFFF7EDFF3B48817B042902D0807BB2
:102FE000052801D100F05AFF10BD00000CED00E0F3
:102FF000E4000410400104108C010410CC01041002
:1030000048080000FC0104104C0204108C0204105B
:1030100010B50400200004F0F5FB10BD80B50021C0
:10302000402002F0AEFB01BD80B5FFF7A3FF01BD5C
:1030300010B52F4A0021012002F093FB2D4A0021F8
:10304000022002F08EFB2C4A0021042002F089FBB2
:10305000FFF73EFEFFF748FE1A4C0020A0732748FA
:10306000A081274A0021402002F07BFB2548A06177
:1030700025A4200001F042FA244801F03FFA04F0B0
:10308000C5FB05F051FF05F067FF214801F036FA56
:10309000200001F033FA012000F06EFD10BD0000A9
:1030A000BC020410F0020410140304104C020020AF
:1030B000540200205003041094030410C8030410A9
:1030C0000C040410F81000204004041080040410C4
:1030D000B0040410F804041030050410880504102E
:1030E000D0050410D805041014060410400604107E
:1030F000812F0410952F0410A92F0410FFFF00004A
:103100000D8904108D3D04100A0000005C060410B7
:1031100084060410F1B588B08620694608740898C2
:103120000078042804D008980078822800D082E330
:103130000898401C069008980078042803D1069847
:10314000801C079003E00898401CC01C079006985C
:103150000078052808D0102800D158E33E2839D03F
:10316000FF2800D1B6E161E30698841C6178A0785D
:103170000006000C0143D248828989B2914213D1E2
:10318000D0498181817B022901D100218173CE4800
:1031900001F0B4F96178A0780006000C0143E278F0
:1031A00089B2CA4801F0AAF900F0E6FD6078A1787A
:1031B0000906090C084380B204F087FBC4480121CA
:1031C00001706178A2781206120C1143418005F05B
:1031D0009BFE30E30698801C059005980078012836
:1031E00000D104E1032812D00A2800D1A8E00C285D
:1031F00000D1A0E0102800D150E1252800D137E10E
:10320000262800D11BE1292800D1C1E051E1059811
:10321000441CC94801F072F9E07821790906090CCB
:10322000084380B206F0F6F80022C44B06F00CF911
:10323000002280235B0306F0C9F92BD8E0782179BE
:103240000906090C0843E57821790906090C0D43A4
:1032500080B206F0DFF80022B84B06F0F5F8060061
:103260000F00ADB2280006F0D5F80022B34B06F0EF
:10327000EBF806F0C5F906F0DDF802000B003000AF
:10328000390006F049FA0022CA4B06F0DDF806F0D4
:10329000B7F928E0E07821790906090C0843E578B8
:1032A00021790906090C0D4380B206F0B3F800221B
:1032B000A24B06F0C9F806F0A3F906F0BBF8060029
:1032C0000F00ADB2280006F0A5F80022D64B06F09C
:1032D000BBF832003B0006F0BCF90022B54B06F00B
:1032E000B3F806F08DF9E279217A0906090C0A4350
:1032F0006379A1790906090C0B43E17825792D063C
:103300002D0C294392B20A25554300959BB2020029
:1033100016001D00080080B206F07CF80022874BE2
:1033200006F092F806F06CF901002B003200BF485D
:1033300001F0E4F8C2E00598441C00F01DFDBDE07A
:103340000598441CD44801F0D9F8E07E217F090695
:10335000090C0843627EA17E0906090C0A43E37D3D
:10336000217E0906090C0B436178A5782D062D0CEA
:103370002943544D039580B2029092B201929BB2C0
:103380000093631D227989B2207800F081FA95E0DC
:103390000598441CCD4801F0B1F8E07F641CE17F42
:1033A000641E0906090C0843E27E217F0906090C08
:1033B0000A43637EA17E0906090C0B43E57D217E4D
:1033C0000906090C0D436178A6783606360C3143A0
:1033D00080B2039092B202929BB20193ADB200957B
:1033E000631D227989B2207800F052FA66E00598D0
:1033F000441CA94801F082F8E07B217C0906090CF5
:103400000843627BA17B0906090C0A43E37A217B0E
:103410000906090C0B436178A5782D062D0C29436C
:10342000284D039580B2029092B201929BB2009314
:10343000631D227989B2207800F02AFA3EE00598CF
:10344000441CC64801F05AF8207800280BD1062009
:103450001B4988736079A1790906090C084380B279
:1034600004F07CFB03E02178C64801F047F825E032
:103470000598441C207A00280DD1607A00280AD0D3
:103480006079A1790906090C0843627A21000A31A2
:1034900080B204F0C5FB00F001FD0FE00598441C6C
:1034A000B94801F02BF800200549887304F04AFA66
:1034B00004E005980178CF4801F020F8BBE100BF97
:1034C000F8100020FFFF0000B4060410E00604100E
:1034D0003000002007980390039908784A78120674
:1034E000120C104380B2001F00D1D0E0801E00D12A
:1034F00076E1CD49401A00D122E1401E00D1CDE055
:10350000401F00D1BDE0801E00D1E1E0401E00D18F
:10351000BEE0401E00D105E1C849401A10D0001F8E
:103520007BD0093800D183E0401E0CD0C449401A3A
:1035300000D12BE160E100BF200704100000F43F40
:103540000398801C62E10398861CBE4800F0D6FFF9
:10355000307A717A0906090C0843B379F1790906C2
:10356000090C0B43327971790906090C0A43317B46
:10357000019180B200909BB292B2B178B24800F053
:10358000BDFF307B022802DAB078002804D0AF48B3
:1035900000F0B4FF042410E0307971790906090CB9
:1035A000084380B2252807D0A94800F0A7FF0224CD
:1035B00003E000BF0000594000243078717809060C
:1035C000090C0843BB4D29002831029101210191CA
:1035D000210089B20091F723F522F17880B201F041
:1035E00009FE07003800C0B2002805D03900C9B272
:1035F000984800F083FF1EE1974800F07FFF20000D
:1036000080B2002808D1307871780906090C084387
:10361000298D80B205F0FAFDF8E0904800F06EFFC9
:1036200005F004FEF2E000BF0000F4BF54070410F0
:103630008B4800F063FF0398861CB178F078000691
:10364000000C0143307872781206120C1043854C3E
:1036500001AA00922300F52289B280B201F0ECFDAC
:1036600005002800C0B2002805D02900C9B27E4854
:1036700000F044FFDFE021006846808805F0FCFD93
:10368000C4E07A4800F03AFF0398801CBEE0BDE039
:10369000774800F033FFB9E0C4070410754800F024
:1036A0002DFF75498348808901F0FFFC6946087445
:1036B0006846007C002805D06846017C6F4800F011
:1036C0001DFF02E06E4800F019FF9FE0F8070410AC
:1036D0006C4800F013FF0398001D06F095F80100F8
:1036E000694800F00BFF0398001D06F08DF80100FB
:1036F000664800F003FF01242100C9B26D488089AB
:1037000001F0DCFC694608746846007C002805D09E
:103710006846017CB64800F0F1FE02E0B54800F0D2
:10372000EDFE73E0B44800F0E9FE0398841C2078B5
:1037300061780906090C084380B205F035F865E0A8
:10374000AE4800F0DBFE0398841CA078002807D068
:10375000E278A178AA4800F0D1FE04E02C08041019
:10376000A84800F0CBFEA8A000F0C8FEA078002872
:1037700007D1207861780906090C084380B204F06B
:1037800096F843E064080410740804109F4800F0A1
:10379000B5FE0398851C0824297968790006000C79
:1037A000014389B29A4800F0A9FE2A796879000697
:1037B000000C0243A978E8780006000C0143287841
:1037C0006B781B061B0C1843002301930023009306
:1037D0002300DBB292B289B280B201F0C4FC15E0E2
:1037E0000398841C21788B4800F088FEFFF764FA68
:1037F0000CE000BF9C080410039801784278120680
:10380000120C114389B2844800F078FE13E0069848
:10381000841C2178814800F071FE2078042801DAA8
:10382000FFF74AFA07E000BFFB03000006980178A3
:10383000C34800F063FE09B0F0BD00BFF50300000F
:103840000B040000B8080410E80804103009041044
:103850005409041068090410A4090410D4090410C0
:103860000C0A041022110020380A0410700A0410F7
:10387000980A0410C80A041007B20100F00A0410E4
:10388000240B04104C0B0410800B04109C0B041030
:10389000F5B583B00F001D000A9E6846007B002826
:1038A0000AD06846017BA74800F028FE00200149A5
:1038B00088739AE0F8100020390089B2A24800F01D
:1038C0001DFE2878029068780190A8780090EB7827
:1038D0002A7969799D4800F011FE300080B205F028
:1038E00099FD00229A4B05F0AFFD002280235B0377
:1038F00005F06CFE22D8300080B205F08BFD00226E
:10390000934B05F0A1FD00900191300080B205F0CD
:1039100081FD00228E4B05F097FD05F071FE05F04C
:1039200089FD02000B000098019905F0F5FE0022C8
:10393000884B05F089FD05F063FE1FE0300080B282
:1039400005F068FD0022824B05F07EFD05F058FE73
:1039500005F070FD00900191300080B205F05AFD35
:1039600000227D4B05F070FD009A019B05F071FE71
:103970000022784B05F068FD05F042FE6946098E8D
:103980000A224A43009269468B8D020001921C0074
:10399000300080B205F03EFD00226D4B05F054FD75
:1039A00005F02EFE01002300019A6C4800F0A6FDF0
:1039B0006B4CA07B012802D10320A07301E0022000
:1039C000A073A7812B006846027C6846818E380070
:1039D00080B203F04BFF634800210170478005F07F
:1039E00093FA2000103002F0B6FA05B0F0BD0000E6
:1039F000B40B0410000C0410400C0410640C0410F0
:103A0000900C0410D00C04100A000000E80C041004
:103A10000C0D04101C0D04103C0D0410540D04106A
:103A20007CB506003000C0B2002803D0022873D055
:103A30005CD384E04A4C01AA01A9491CA08901F089
:103A400026FC05002800C0B2002805D02900C9B214
:103A5000454800F053FD48E0444800F04FFD6846FB
:103A6000027968464179424800F048FD684640794D
:103A700002281FD16846007902281BD101220121AA
:103A80003C4800F03BFD0020009001230122002172
:103A9000A08901F007FC05002800C0B2002803D06F
:103AA000AF4800F02BFD20E0AE4800F027FD00F00D
:103AB00068F91AE0022202212E4800F01FFD0020C2
:103AC0000090022302220021A08901F0EBFB0500F7
:103AD0002800C0B2002803D0A14800F00FFD04E088
:103AE000A04800F00BFD00F04CF928E013211C4821
:103AF000808901F0A6FA05002800C0B2002805D090
:103B00002900C9B2984800F0F9FC04E0974800F099
:103B1000F5FC00F036F912E01148808901F046FB0F
:103B200005002800C0B2002805D02900C9B290487D
:103B300000F0E4FC02E08F4800F0E0FCFFE773BD1A
:103B4000740D0410880D0410C00D0410040E041030
:103B50000000F43F000059400000F4BF480E04107C
:103B6000F810002030000020B80E0410E00E041001
:103B7000000F0410200F0410F0B591B00700A02032
:103B80000D90B4210C913A00D2B2002A0DD0012A36
:103B900006D0022A12D0042A13D0052A1BD030E006
:103BA0000D900C9104200B902BE0C820C0000D90CC
:103BB000FA20C0000C9005200B9022E000200B9012
:103BC0001FE0C82080000D900C9000200B90FA2080
:103BD00040000E9015E01321BB48808901F031FAB6
:103BE00004002000C0B2002805D02100C9B25E4800
:103BF00000F084FC04E05D4800F080FC00F0C1F8B7
:103C0000FFE73800C0B20028012808D9801E6DD017
:103C1000801E00D184E0801E00D19DE09DE0062141
:103C200000220FAD280000F0D3FB00200A900020F6
:103C300009900120089000200790012006900020A4
:103C4000059000200490002003900020029007209F
:103C500001900C9800900D9B13220221002005F08A
:103C6000DEFD06003000C0B2002805D03100C9B228
:103C7000964800F043FC05E00B98934988739448FC
:103C800000F03CFC934B0F220321002005F0FCFDCB
:103C900005002800C0B2002805D02900C9B28E480E
:103CA00000F02CFC02E08D4800F028FC0FAA012156
:103CB000012005F0EDFD04002000C0B2002805D071
:103CC0002100C9B2864800F019FC0EE0854800F0DA
:103CD00015FC854D280002F03EF93800C0B20128DD
:103CE00003D18249280002F003F936E000220021C6
:103CF000002005F0CDFD04002000C0B2002805D052
:103D00002100C9B27A4800F0F9FB05E00B986E4932
:103D10008873784800F0F2FB734802F01CF91CE04D
:103D20000E9880B200900B9B9BB20C9A92B20D99A8
:103D300089B26548808901F04AFA04002000C0B2C7
:103D4000002805D02100C9B26B4800F0D7FB02E083
:103D50006A4800F0D3FB00E0FFE711B0F0BD0000BF
:103D6000540F04105C0F0410680F0410940F04101B
:103D7000B80F0410F00F041080B5012001F013FDFE
:103D800001BD80B5012001F027FD01BD10B5040083
:103D90000220FFF7F1FE0020FFF7EEFE10BD10B588
:103DA0000200D2B2120903071B0F1400E4B20A2C5E
:103DB00003DB140037340C7002E0140030340C7054
:103DC0001C00E4B20A2C03DB1C0037344C7002E008
:103DD0001C0030344C7010BD70B504000E0000257E
:103DE0002800C0B2205C002819D02800C0B20028EA
:103DF00013D02800C0B22018401E007858280CD1DB
:103E00002800C0B2205C582807D12800C0B2211871
:103E1000491E3078FFF7C3FF01E06D1CE0E770BD7D
:103E2000F7B504000E00002528003100C9B280B2A9
:103E300089B2884230D2280080B2205C0700280076
:103E400080B22018407869460870684600780928D2
:103E50001DD1280080B23900C9B24018205C582812
:103E600014D1280080B23900C9B240182018401E71
:103E7000007858280AD1280080B23900C9B2401809
:103E80002118491E02980078FFF789FFFFE73800E4
:103E9000C0B22D186D1CC7E7F7BD7047704780B5DD
:103EA0000948817B002902D0817B05290AD1807BCA
:103EB000002801D1FFF7F1FF0220FFF75DFE01208E
:103EC000FFF75AFE01BD0000F8100020201004107A
:103ED00064100410540200209C100410D810041028
:103EE000041104104011041008110020905F01001B
:103EF000701104109C110410C0110410041204105D
:103F000010B503F0EFF95C4C2100002003F0B6FA85
:103F10005A49012003F0B2FA5948046010BDFEB5B9
:103F200004000F0016001D002000C0B2022803D1BB
:103F300052485349086002E04F48514908600195D2
:103F40006846008C00903B00320092B22100C9B25A
:103F50004B48006803F0F6FA01000800C0B20028E0
:103F600001D1002008E00800C0B2022802D10020E0
:103F7000C04301E00120C043FEBDF3B583B017008C
:103F80001E000A9D6846007C022804D13B483C493B
:103F90000860012403E03848394908600024684675
:103FA000007B02280CD102A800902B009BB23200AB
:103FB000390089B23248006803F0A4FA010018E021
:103FC0006846007B002805D12D4801682000C0B25A
:103FD00003F054FA02A80190280080B20090330048
:103FE0003A0092B26846017C2548006803F063FA03
:103FF00001000800C0B2002801D1002008E008003C
:10400000C0B2042802D10220C04301E00120C04315
:1040100005B0F0BD70B506000D00140023009BB282
:104020002A00310089B21648006802F0AAFD01009A
:10403000002901D1002006E0002902D5A4B2200009
:1040400001E00220C04370BD10B504002000C0B2E2
:10405000022808D10A480168084A91420AD000683B
:1040600003F0A4FA06E02000C0B2032802D1002029
:1040700003F0A2FA10BD0000B01A0020C01A002000
:10408000F41A002001201F4908600020704700B585
:104090000120C0431B490968012901D10021080002
:1040A00040B200BD00B50020EFF3108172B6154A92
:1040B0001368012B03D00122D243100001E0032337
:1040C000136081F3108840B200BD00B50020EFF30B
:1040D000108172B60B4A1368032B03D00122D2431E
:1040E000100001E00123136081F3108840B200BD8D
:1040F00038B505000C0022000349280005F03FFCFC
:1041000032BD000038040020F828041000B5BFF3C9
:104110004F8F9D489D490860BFF34F8F00BFFDE75B
:104120009B4800680005000D704799480068010B26
:1041300049B2484240B270470069704781B0954922
:104140000A6802430A60096801400091009901B0C1
:10415000704781B090490A6802430A6009680140CB
:104160000091009901B0704781B08C490A68024300
:104170000A60096801400091009901B0704700B5DC
:10418000864909680140814201D1012000E00020F8
:1041900000BD83490A6802430A60704780490A6883
:1041A00082430A60704780B505F0FAFD00F012F80E
:1041B00000F03AF800F098F800F057F800F06EF8C8
:1041C00000F048F800F0A2F8002005F059FE05F0D4
:1041D00027FFFCE738B588B018210024220002AD83
:1041E000280000F0F5F8082122006D46280000F0B4
:1041F000EFF80320029080204002039010200590E9
:1042000002A806F0A7F8002801D000F0DBF800941F
:10421000202001900021684606F09AF9002801D07C
:1042200000F0D0F809B030BD10B586B018210022DA
:104230006C46200000F0CCF8022000908020400165
:104240000590684606F066FA002801D000F0BAF83A
:1042500006B010BD80B553485349016006F014FB09
:10426000002801D000F0AEF801BD80B54F480068CD
:1042700000900120FFF783FF002808D10120FFF7FD
:1042800088FF0120FFF78AFF0120FFF76DFFC020A4
:10429000C0050090684606F04FFC01BD3EB5082100
:1042A000002422006D46280000F092F80120FFF75C
:1042B00066FF002808D10120FFF76BFF0120FFF700
:1042C0006DFF0120FFF750FF3948FFF735FF102839
:1042D000FAD36846A0214900018021008170019431
:1042E000684601F05AFB37BD18B585B00820FFF7C6
:1042F00025FF0420FFF722FF01F0C4FA1421002259
:104300006C46200000F064F806B010BD10B586B011
:104310001020FFF71EFF2020FFF71BFF254C26482B
:1043200020600720E0610420A0610220206280203C
:1043300000026062C020C003606180200003206131
:104340000120E060200006F043FF002801D000F0CB
:1043500039F80C2000900020019003210291039075
:10436000049016480590FFF7DBFE1549884205D0FA
:10437000FFF7DBFE0490FFF7D3FE059069462000AF
:1043800007F03EF806B010BD0400FA050CED00E0A1
:104390001C1E001050004048580040486000404833
:1043A00040004048E01A002000003048FC2504107E
:1043B00000180060981800200060004155050000BA
:1043C000FF0F000080B572B6FFF7A0FE01BD2E0002
:1043D0001206130A1A43130C1A4300BF094205D0F0
:1043E000830707D00270401C491EF9D170470000B6
:1043F0000022FFE71300103906D330B41400150073
:1044000010393CC0FCD230BC490700D30CC000D5E9
:1044100004C0890002D30280801C002900D50270EC
:104420007047430070B4103A03D378C9103A78C08B
:10443000FBD2530701D318C918C001D508C908C059
:10444000D20704D30B880380891C801C002A01D565
:104450000B78037070BC70478B0701D18307E1D0E4
:10446000124205D00B78491C0370401C521EF9D132
:104470007047830085000700070083008500050062
:104480000700030003000F00050082008100050003
:10449000B0B50546C07A1224802829D8298C17295E
:1044A00026D31448821D914222D8298A17291FD366
:1044B00081421DD8A87E00281AD000F0D5FA002825
:1044C00008D0E87E002813D0802811D8287F401E0D
:1044D0000E280DD808483422294607F043F807F083
:1044E00009F9002803D407F07BFB002400E08724AF
:1044F0002046B0BDFA0300000C1900200EB4C0B570
:10450000020003A801900020009001AB01210448A3
:1045100078440C3007F0CEFB029906B0084700BF84
:104520002DE4020080B508F069FB80BD80B508F07D
:104530004BFC80BDF0B58BB007000E0015001C00D1
:104540001AA800780A9019A80078099018A800788D
:10455000089017A80078079016A80078069069467A
:1045600054200856059014A80078049013980390DE
:1045700012A80078029011A800780190109800907D
:1045800023002A0092B23100C9B23800C0B208F04C
:104590003FFC0BB0F0BDF8B507000E0015001C0085
:1045A00023002A0092B23100C9B23800C0B208F02C
:1045B000CDFCF2BD70B506000D00140022002900EC
:1045C000C9B23000C0B208F0E5FC70BD38B50500D6
:1045D0000C002100C9B22800C0B208F061FD32BD54
:1045E00080B508F075FD02BD10B50400200080B252
:1045F00008F090FD10BD38B505000C00210089B20F
:104600002800C0B208F0ACFD31BD38B505000C0083
:104610002100C9B2280008F0C7FD32BD38B5050039
:104620000C002100C9B2280008F0D2FD32BD10B53F
:1046300004002000C0B208F057FE10BD10B5040001
:104640002000C0B208F076FE10BD38B505000C00A1
:104650002100C9B22800C0B208F094FE31BD10B5E7
:104660000400200080B208F094FE10BD38B50500AB
:104670000C002100280008F08DFE32BD70B5060048
:104680000D00140022002900C9B23000C0B208F0A9
:104690009BFE70BD10B504002000C0B208F0BDFE46
:1046A00010BD10B50400200008F0C8FE10BD80B594
:1046B00008F0E2FE02BD10B504002000C0B208F010
:1046C00007FF10BD10B50400200080B208F026FFDF
:1046D00010BD38B505000C002100280008F024FFAB
:1046E00032BD38B505000C002100280008F046FF57
:1046F00032BD10B50400200080B208F06FFF10BD7D
:1047000080B508F0D5FF02BD80B508F0D3FF02BD2B
:1047100080B508F0D1FF02BD80B508F0CFFF02BD23
:1047200080B508F0CDFF02BD80B508F0CBFF02BD1B
:1047300038B505000C002100280008F0DFFF32BD6D
:1047400038B505000C002100280009F009F832BD39
:1047500038B505000C002100280009F01DF832BD15
:1047600038B505000C002100280009F031F832BDF1
:1047700038B505000C002100280009F069F832BDA9
:1047800038B505000C002100280009F0A7F832BD5B
:1047900038B505000C002100280009F0CFF832BD23
:1047A00038B505000C002100280009F0E5F832BDFD
:1047B00038B505000C002100280009F0F9F832BDD9
:1047C00038B505000C002100280009F00FF932BDB2
:1047D00038B505000C002100280009F01DF932BD94
:1047E00038B505000C002100280009F033F932BD6E
:1047F00038B505000C002100280009F041F932BD50
:1048000038B505000C002100280009F055F932BD2B
:1048100080B509F097F902BD10B50400200009F039
:10482000CBF910BD80B509F0C9F902BD10B504007F
:104830002000C0B209F0C4F910BD38B505000C0065
:1048400021002800C0B209F0CDF931BD38B505000E
:104850000C0021002800C0B209F0DCF931BD80B5A0
:1048600009F018FA02BD80B509F016FA02BD10B5BC
:104870000400200080B209F061FA10BD10B50400F8
:10488000200080B209F026FB10BD10B50400200006
:1048900009F058FB10BD10B504002000C0B209F0AB
:1048A000A7FB10BD10B50400200009F0B7FB10BD38
:1048B00010B50400200080B209F020FC10BD10B536
:1048C0000400200009F00AFD10BD10B5040020000E
:1048D00080B209F079FD10BD10B50400200080B24F
:1048E00009F096FE10BD10B504002000C0B209F01A
:1048F000CDFE10BDFEB507000E0015001C0009A876
:104900000078019008A8007800902300DBB22A000C
:10491000D2B23100C9B23800C0B209F00DFFF7BD04
:1049200038B505000C002100280009F0B5FF31BDA5
:1049300010B504002000C0B209F0F6FF10BD10B59C
:104940000400200080B209F0F7FF10BD10B504008C
:10495000200080B20AF00CF810BDFEB507000E0072
:1049600015001C000A980290099801900898009080
:104970002300DBB22A00D2B23100C9B238000AF0FB
:1049800013F8FEBDFEB507000E0015001C000998C7
:1049900001900898009023002A00D2B23100C9B2D9
:1049A00038000AF03BF9FEBDFEB507000E00150009
:1049B0001C0009A80078019008A800780090230046
:1049C0002A00D2B23100C9B238000AF03FFAFEBD67
:1049D000F8B507000E0015001C0023002A00D2B213
:1049E0003100C9B23800C0B20AF086FAF1BD80B514
:1049F0000AF018FB01BD10B5040020000AF026FBE8
:104A000010BD38B505000C00210028000AF098FC04
:104A100032BD70B506000D00140022002900C9B295
:104A200030000AF0CFFC70BD80B50AF01DFD02BD5C
:104A300010B5040020000AF019FD10BD38B50500BE
:104A40000C00210028000AF08DFD32BD38B50500AC
:104A50000C00210028000AF0A6FD31BD10B50400AD
:104A600020000AF0ACFD10BD80B50AF0D4FD02BDF7
:104A7000F8B507000E0015001C002300DBB22A0069
:104A8000D2B23100C9B23800C0B20AF0C7FDF1BDE0
:104A900010B504002000C0B20AF0DCFD10BDF8B56E
:104AA00007000E0015001C000698009023009BB222
:104AB0002A00310038000AF0E1FDF1BD38B50500EB
:104AC0000C002100C9B228000AF096FE31BD80B565
:104AD0000AF058FF01BD38B505000C002100C9B22D
:104AE00028000AF057FF31BDF8B507000E00150089
:104AF0001C0023002A00310038000AF06FFFF2BDCD
:104B0000F8B507000E0015001C0023002A00D2B2E1
:104B10003100C9B23800C0B20AF0ACFFF2BD10B526
:104B200004002000C0B20AF0DFFF10BD38B5050058
:104B30000C00210028000BF021F831BD10B5040055
:104B4000200080B20BF028F810BD80B50BF0B8F84B
:104B500002BD38B505000C002100C9B228000BF0D9
:104B6000B1F831BD80B50BF0D7F801BD80B50BF0C1
:104B7000EFF801BD80B50BF001F901BD10B50400DF
:104B800020000BF013F910BD10B504002000C0B2D6
:104B90000BF024F910BD80B50BF02AF901BD70B5FA
:104BA00006000D0014002200D2B22900C9B2300064
:104BB000C0B20BF039F970BD80B50BF06DF902BDD4
:104BC00010B5040020000BF06FF910BD10B5040003
:104BD00020000BF07DF910BD10B5040020000BF093
:104BE0008BF910BD10B5040020000BF099F910BD31
:104BF00010B5040020000BF0BDF910BD80B50BF01E
:104C000093FB01BDF8B507000E0015001C006846B7
:104C1000007E00902300DBB22A00D2B23100C9B27C
:104C20003800C0B20BF08EFBF1BD10B504002000BF
:104C3000C0B20BF0B1FB10BD38B505000C0021006F
:104C4000C9B228000BF0BEFB31BD70B506000D00E7
:104C50001400220029003000C0B20BF027FC70BD08
:104C600010B504002000C0B20BF03EFC10BD10B522
:104C7000040020000BF054FC10BD38B505000C00FA
:104C80002100C9B228000BF075FC32BD38B5050013
:104C90000C00210028000BF0B7FC31BD10B504005A
:104CA00020000BF0E5FC10BD38B505000C0021001C
:104CB000C9B228000BF00EFD31BDFEB507000E0095
:104CC00015001C000998019008A8007800902300A6
:104CD000DBB22A00310038000BF046FDF7BD70B59D
:104CE00006000D0014002200D2B2290030000BF0A3
:104CF00019FE70BD10B504002000C0B20BF056FEC6
:104D000010BD38B505000C002100C9B22800C0B2A2
:104D10000BF0ACFE31BD70B506000D001400220092
:104D2000D2B22900C9B230000BF012FF70BD10B52D
:104D3000040020000BF056FF10BDF8B507000E0070
:104D400015001C002300DBB22A00D2B23100C9B228
:104D500038000BF065FFF1BD38B505000C002100EF
:104D600028000BF0CDFF32BD10B5040020000CF080
:104D700021F810BD10B504002000C0B20CF025F8D9
:104D800010BD10B5040020000CF036F810BD10B5B1
:104D9000040020000CF088F810BD80B50CF0DEF89F
:104DA00001BD10B50400200080B20CF0DFF810BD8A
:104DB00010B5040020000CF069F910BD10B5040016
:104DC0002000C0B20CF0ACF910BD80B50CF0F8F9C1
:104DD00001BD80B50CF0FCF902BD38B505000C0032
:104DE0002100C9B22800C0B20CF0FCF932BD10B5E8
:104DF00004002000C0B20CF013FA10BD70B506001C
:104E00000D0014002200290030000CF083FA70BD60
:104E100010B5040020000CF0C5FA10BD38B505002F
:104E20000C00210028000CF001FB31BD10B504007E
:104E300020000CF037FB10BD38B505000C00210038
:104E4000280080B20CF066FB32BD38B505000C00BE
:104E5000210028000CF072FB32BD80B50CF0F0FB95
:104E600002BD10B5040020000CF0ECFB10BDF8B53D
:104E700007000E0015001C0023009BB22A0092B20E
:104E8000310089B2380080B20CF0F8FBF2BDF0B509
:104E900087B007000E0015001C0012A800780690CD
:104EA00011A80078059010A8007804900FA8007849
:104EB00003900EA8007802900DA8007801900CA82D
:104EC000007800902300DBB22A00D2B23100C9B2D0
:104ED0003800C0B20CF05EFC07B0F0BD10B50400A5
:104EE00020000CF085FC10BD10B5040020000CF073
:104EF000D1FC10BD10B5040020000CF07BFD10BDEE
:104F000010B5040020000CF08FFD10BD10B504009A
:104F100020000CF0A1FD10BD10B5040020000CF025
:104F2000B5FD10BD10B5040020000CF0C7FD10BD8C
:104F300010B5040020000CF0E7FD10BD10B5040012
:104F400020000CF00FFE10BD10B5040020000CF086
:104F500027FE10BD10B504002000C0B20CF06AFEA0
:104F600010BD10B5040020000CF084FE10BD10B57B
:104F7000040020000CF09AFE10BD10B504002000C3
:104F80000CF0C2FE10BD10B50400200080B20CF081
:104F9000F5FE10BD10B5040020000CF0D1FF10BDCF
:104FA00010B5040020000CF0E3FF10BD10B50400A4
:104FB000200080B20DF004F810BD10B504002000F0
:104FC00080B20DF001F810BD10B5040020000DF006
:104FD000C1F810BD10B5040020000DF011F910BD8E
:104FE00010B5040020000DF037F910BD80B50DF0AC
:104FF0006BF901BD80B50DF0B5F901BD10B5040028
:10500000200080B20DF012FA10BD10B5040020008F
:1050100080B20DF01DFA10BD10B50400200080B262
:105020000DF038FA10BD10B50400200080B20DF06C
:1050300055FA10BD10B50400200080B20DF008FB39
:1050400010BD38B505000C002100C9B2280080B29F
:105050000DF014FB32BD10B504002000C0B20DF0FD
:1050600011FB10BDFEB507000E0015001C000AA8BC
:105070000078029009A80078019008A800780090B4
:105080002300DBB22A00D2B23100C9B23800C0B26C
:105090000DF000FBFEBD38B505000C002100C9B2C3
:1050A000280080B20DF03AFB32BD38B505000C0087
:1050B0002100280080B20DF039FB32BD38B5050063
:1050C0000C002100C9B2280080B20DF03BFB32BDBC
:1050D00080B50DF03FFB02BDF8B507000E001500CE
:1050E0001C0023002A003100C9B23800C0B20DF004
:1050F00036FBF2BD38B505000C0021002800C0B217
:105100000DF037FB32BD10B5040020000DF03FFB61
:1051100010BD10B5040020000DF03DFB10BD38B5EA
:1051200005000C00210089B228000DF038FB32BDCB
:1051300010B5040020000DF036FB10BDFEB50700D1
:105140000E0015001C00099801906846008C009024
:105150002300DBB22A0092B2310089B2380080B25B
:105160000DF025FBFEBDFEB507000E0015001C006E
:10517000099801906846008C00902300DBB22A0059
:1051800092B2310089B2380080B20DF01FFBFEBD33
:10519000F8B507000E0015001C0023002A0031009E
:1051A00089B2380080B20DF01AFBF2BD10B50400D0
:1051B000200080B20DF017FB10BD38B505000C00C3
:1051C000210089B2280080B20DF011FB32BDF8B584
:1051D00007000E0015001C006846008B009023009D
:1051E0009BB22A0092B2310089B2380080B20DF031
:1051F00002FBF2BDFEB507000E0015001C000A9868
:10520000029009A8007801906846008C0090230065
:105210009BB22A0092B23100C9B2380080B20DF0C0
:10522000F7FAFEBD38B505000C00210089B2280050
:1052300080B20DF041FB32BDF8B507000E0015003D
:105240001C000698009023002A0092B2310089B217
:10525000380080B20DF034FBF2BD38B505000C000B
:10526000210089B2280080B20DF030FB32BDF8B5C4
:1052700007000E0015001C002300DBB22A0092B2CA
:10528000310089B23800C0B20DF024FBF2BD70B518
:1052900006000D00140022002900300080B20DF03D
:1052A0002FFB70BDF8B507000E0015001C00684606
:1052B000008B00902300DBB22A00D2B23100C9B2C9
:1052C000380080B20DF025FBF2BD10B504002000BF
:1052D00080B20DF029FB10BD38B505000C0021008F
:1052E000C9B2280080B20DF02CFB32BDF8B5070022
:1052F0000E0015001C0023002A00D2B2310089B232
:10530000380080B20DF02CFBF2BD0300FFFFFFFF61
:10531000FFFFFFFFFFFFFFFFFFFF01000000000096
:10532000FFFF01000000FFFFF1B50F0000203880F3
:10533000264C2000FFF7E7FE05002800C0B2002839
:1053400002D02800C0B240E02000FFF7E2FE0400D7
:1053500068460078C0070CD5210089B21C48FFF7C9
:10536000DEFE05002800C0B2002802D02800C0B22E
:105370002BE01748FFF7DCFE3880210089B2154882
:10538000FFF7CDFE06003000C0B2002802D030008A
:10539000C0B21AE0210089B20F48FFF7C0FE050035
:1053A0002800C0B2002802D02800C0B20DE02100C1
:1053B00089B20A48FFF7B3FE01000800C0B2002816
:1053C00002D00800C0B200E00020F2BDB00300200F
:1053D0008C240410B0240410D4240410F8240410E5
:1053E00080B5022801D9122080BD0DF0CDFA80BD14
:1053F000FFB581B00A9F00250398058004980580B9
:105400003D806846007905210140002936D0634E71
:105410003000FFF778FE694608706846007800287B
:1054200002D0684600782AE05D4C2000FFF780FE3D
:105430000399088020002430FFF77AFE0499088041
:105440003000FFF766FE694648803D806846007A76
:1054500002280ED16846418820006C30FFF75FFEBD
:105460006946087068460078002802D068460078CF
:1054700005E04C4A0821002000F003F8002005B0A8
:10548000F0BDF8B507000E0015004548FFF750FEC7
:105490000400641C2B00320092B2390089B2200053
:1054A00080B200F014F8F2BDF8B507000E00150048
:1054B0003D48FFF73DFE0400641C2B00320092B211
:1054C000390089B2200080B200F001F8F2BDFBB5CE
:1054D00084B0150000242000C0B2052816D2304840
:1054E0002100C9B2242251434018FFF721FE69462A
:1054F000088068460088002806D068460088401C5E
:105500006946098A884201D0641CE4E72000C0B2E1
:10551000052801D112203FE0214E2000C0B22421F5
:1055200048433018006A80886946898A2A0092B206
:105530008918884201DA12202EE02000C0B224210E
:1055400048433018006A002801D1122024E02800C6
:1055500080B20290069801902000C0B224214843F6
:105560003018006A80686946898A4718029A01994A
:105570003800FEF771FF2000C0B2242148433018E4
:10558000006A0078800706D52000C0B22421484375
:105590003018006A4580002007B0F0BD6C03002081
:1055A000B80200202C240410DC020020E0B501A980
:1055B00008700122084611460DF040FA002800D07C
:1055C0008CBD01A800780DF057FA8CBD1CB50446BF
:1055D00068460DF06DFA0020082806D06946095C7F
:1055E000225C0A432254401CF6E720460DF098FA4C
:1055F0001CBD7047F1B588B07248006806907148CC
:105600000068089901406F4801606C48006802908A
:105610006D48006801906A48006800906B48006817
:105620000490684F029800990140386808400028AB
:1056300069D0019804990140002964D100247B4D70
:10564000E00028580099014038680840002801D13E
:10565000641CF4E7E00028580099014038680840CD
:105660000390E0002818406803990140002904D104
:105670000020C043E10069184860554F0399E000DD
:1056800028184068084000F0D3F838600121E00095
:10569000281842683B68080098408243E0002818B8
:1056A0004260EFF31080059072B6444802683B6890
:1056B000080098408243414802600226002E0DD027
:1056C000F0002818083802683B68080098408243B8
:1056D000F000281808380260761EEFE7059880F37E
:1056E00010883C4839688900405880473348006832
:1056F00002903548006801903148006800903348B6
:10570000006804908DE70020C043314908602F4CA9
:1057100001982168014000291FD104F087FCEFF3B4
:10572000108572B6254800680290274800680190ED
:1057300023480068009002980099014038680840AA
:10574000002806D1019821680140002901D104F008
:105750006EFC85F310880DF0F3F90698386009B0F7
:10576000F0BDF8B504000F001500EFF3108672B617
:10577000200000F05DF8800016490D5086F3108877
:10578000F1BD30B4EFF3108272B60C4B1C680443C9
:105790001C60264BCC001C590443CD005C5182F3A5
:1057A000108830BC7047EFF3108172B6064A136858
:1057B0000343136081F3108870470000201B002012
:1057C0003C04002040040020241B0020281B002053
:1057D0002C1B0020E4150020FEB50400244E306888
:1057E000009030680021C943884201D1002502E0C1
:1057F0000125306885401F4F386801903C601E4885
:1058000001682140002904D1210028000DF099F9F8
:10581000F5E700993160EFF3108172B60268A24398
:10582000026081F3108801983860F7BDD01A00201B
:1058300010B5010000200A00130C1B04002B02D13C
:10584000102318001204130E1B06002B01D1083080
:105850001202130F1B07002B01D1001D1201074B71
:10586000140F1B5DC0181F23181AC0B210BD000012
:105870002C1B0020281B0020241B0020942904102E
:1058800070477047704780B500200DF061F980BD0A
:1058900000B5010049B2002905D40121C206D20E8B
:1058A00091408A4A116000BDC168032291430222DF
:1058B0000A43C2607047C16803229143C1607047C8
:1058C00000B5C0688007800F022801D1012000E0E8
:1058D000002000BDC16803229143C160704700B53C
:1058E000C0688007800F032801D1012000E000205C
:1058F00000BD0161704700697047816A8022D2054E
:105900000A4382627047816AC14A0A4082627047D4
:10591000816A08004000C00F7047016B8022D205E9
:105920000A4302637047016BB94A0A400263704739
:105930000A00D2B28260704741627047406A704785
:10594000C162704700697047816A802292050A43EC
:10595000826270477047816C01220A4382647047FB
:10596000C16C01220A43C2647047C16C0800C007C1
:10597000C00F7047416070470021816070478068A8
:105980007047C0687047016901220A43026170478D
:1059900001690800C007C00F7047F1B5A248FFF7C2
:1059A000DFFFA148FFF7D7FF1720FFF771FF142093
:1059B000FFF76EFF00984068002801D0012000E04A
:1059C00000209A4C20702078002803D1009880781D
:1059D000002802D000F020FB09E0C820400320622C
:1059E000E0619348A061934820619348606100980A
:1059F0004068002805D1A020C00500F05CFA606076
:105A000014E0251D0098406800030A210DF0FFF8FE
:105A100028608A4E300000F04EFA6168814201D25F
:105A2000606802E0300000F046FA28600025280097
:105A3000207300980088A066A169A06E80B200F073
:105A4000CFFB28008C21605400260027266767675B
:105A50007548FFF777FFA06720008030C0C0083886
:105A6000280030216054764AA16960680DF026F95B
:105A7000A06020789C21605494202550012098211A
:105A8000605428009B21605428009921605428000C
:105A90009A216054280061216054280062216054DA
:105AA000280063216054A665E765AC48A06465657D
:105AB00000F00AFA6268002312184B4120004030BF
:105AC00000F0C2FB012000F01BFBF1BD00E100E093
:105AD000FEB5002069460870544C27009A3725000F
