:020000041004E6
:1000000000000120416006108D6406109564061002
:1000100000000000000000000000000000000000E0
:100020000000000000000000000000009D640610B9
:1000300000000000000000009F640610A16406108C
:10004000DB8C04107F9604109FAB041023C00410B7
:1000500000000000000000000000000007C90410BC
:10006000A9640610EFC90410B3D00410DBDF04103C
:10007000F3E20410D164061000000000FB640610D7
:1000800009650610EBE30410EB64061000000000A5
:10009000E36406100000000000000000DB640610AE
:1000A00053EA0410F3640610E3ED041007EF0410A4
:1000B000EFEF04100000000000000000000000004E
:1000C0004572726F7220696E20424C455F535441F5
:1000D000434B5F496E697428292030782530327887
:1000E0000D0A000020204661696C2020203A206122
:1000F00063695F68616C5F77726974655F636F6E77
:100100006669675F6461746120636F6D6D616E64C1
:10011000202D20434F4E4649475F444154415F5094
:100120005542414444525F4F46465345542C207239
:100130006573756C743A203078253032580A0000A7
:100140002020537563636573733A206163695F6848
:10015000616C5F77726974655F636F6E6669675F14
:100160006461746120636F6D6D616E64202D204346
:100170004F4E4649475F444154415F5055424144C8
:1001800044525F4F46465345540A000020204661C2
:10019000696C2020203A206163695F68616C5F733D
:1001A00065745F74785F706F7765725F6C65766594
:1001B0006C20636F6D6D616E642C20726573756C5D
:1001C000743A203078253032580A000020205375C8
:1001D00063636573733A206163695F68616C5F7321
:1001E00065745F74785F706F7765725F6C65766554
:1001F0006C20636F6D6D616E640A000020204661A3
:10020000696C2020203A206163695F676174745FC4
:100210007372765F70726F66696C655F696E697420
:1002200020636F6D6D616E642C20726573756C74E4
:100230003A203078253032580A00000020205375CB
:1002400063636573733A206163695F676174745FA8
:100250007372765F70726F66696C655F696E6974E0
:1002600020636F6D6D616E640A000000202046619E
:10027000696C2020203A206163695F6761705F6963
:100280006E697420636F6D6D616E642C207265738E
:10029000756C743A203078253032580A000000001E
:1002A0002020537563636573733A206163695F67E8
:1002B00061705F696E697420636F6D6D616E640A51
:1002C0000000000020205075626C696320426C754C
:1002D00065746F6F746820416464726573733A204B
:1002E000253032783A253032783A253032783A253E
:1002F0003032783A253032783A253032780A0000A8
:1003000020204661696C2020203A204761705F7090
:10031000726F66696C655F7365745F6465765F6E46
:10032000616D65202D20446576696365204E616DA1
:10033000652C20726573756C743A203078253032E4
:10034000580A00002020537563636573733A204791
:1003500061705F70726F66696C655F7365745F640E
:1003600065765F6E616D65202D20446576696365F5
:10037000204E616D650A000020204661696C2020D6
:10038000203A204761705F70726F66696C655F73B9
:1003900065745F617070656172616E6365202D20A8
:1003A000417070656172616E63652C207265737552
:1003B0006C743A203078253032580A00202053756A
:1003C00063636573733A204761705F70726F66692B
:1003D0006C655F7365745F617070656172616E6397
:1003E00065202D20417070656172616E63650A0041
:1003F00020204661696C2020203A206163695F6794
:1004000061705F7365745F696F5F6361706162697A
:100410006C69747920636F6D6D616E642C207265F8
:1004200073756C743A203078253032580A00000019
:100430002020537563636573733A206163695F6756
:1004400061705F7365745F696F5F6361706162693A
:100450006C69747920636F6D6D616E640A000000D1
:1004600020204661696C2020203A206163695F6723
:1004700061705F7365745F73656375726974795FCA
:10048000726571756972656D656E747320636F6DE9
:100490006D616E642C20726573756C743A203078CF
:1004A000253032580A0000002020537563636573BD
:1004B000733A206163695F6761705F7365745F732E
:1004C000656375726974795F726571756972656D5E
:1004D000656E747320636F6D6D616E640A00000059
:1004E00020204661696C2020203A206163695F67A3
:1004F00061705F636F6E6669677572655F66696C70
:100500007465725F6163636570745F616E645F726E
:1005100065736F6C76696E675F6C69737420636F67
:100520006D6D616E642C20726573756C743A203049
:1005300078253032580A00002020537563636573B4
:10054000733A206163695F6761705F636F6E6669AC
:10055000677572655F66696C7465725F6163636518
:1005600070745F616E645F7265736F6C76696E67DD
:100570005F6C69737420636F6D6D616E640A000057
:10058000FF80FFFF30FFFFFF20204661696C2020C5
:10059000203A206863695F6C655F7365745F657698
:1005A000656E745F6D61736B20636F6D6D616E64FA
:1005B0002C20726573756C743A203078253032586F
:1005C0000A0000002020537563636573733A206846
:1005D00063695F6C655F7365745F6576656E745F94
:1005E0006D61736B20636F6D6D616E640A00000056
:1005F0003D3D3E3E20456E6420424C455F496E695C
:10060000742066756E6374696F6E0A005365727646
:100610006963657320616E6420436861726163740D
:100620006572697374696373206372656174696F5D
:100630006E0A0000456E64206F662053657276690D
:1006400063657320616E64204368617261637465E1
:1006500072697374696373206372656174696F6E24
:100660000A0000003E3E3D3D204843495F44495357
:10067000434F4E4E454354494F4E5F434F4D504CB0
:100680004554455F4556545F434F44450A000000BA
:1006900020202020202D20436F6E6E656374696FCB
:1006A0006E2048616E646C653A20202030782530D9
:1006B00032580A20202020202D20526561736F6E51
:1006C0003A202020203078253032580A00000000DF
:1006D0003E3E3D3D204843495F4C455F434F4E4EB3
:1006E000454354494F4E5F5550444154455F434F35
:1006F0004D504C4554455F5355424556545F434F0A
:1007000044450A0020202020202D20436F6E6E6576
:100710006374696F6E20496E74657276616C3A20FD
:10072000202025642E25303264206D730A2020207D
:1007300020202D20436F6E6E656374696F6E206C90
:100740006174656E63793A2020202025640A202098
:100750002020202D205375706572766973696F6E45
:100760002054696D656F75743A2020202564206DD2
:10077000730A00004843495F4C455F454E48414E6F
:100780004345445F434F4E4E454354494F4E5F43AC
:100790004F4D504C4554455F5355424556545F4369
:1007A0004F44450A000000004843495F4C455F45FF
:1007B0004E48414E4345445F434F4E4E4543544996
:1007C0004F4E5F434F4D504C4554455F56325F533B
:1007D00055424556545F434F44450A004843495FDC
:1007E0004C455F504552494F4449435F414456454B
:1007F00052544953494E475F53594E435F545241F7
:100800004E534645525F52454345495645445F560F
:10081000320A000053746174757320253032580A0F
:10082000000000004843495F4C455F504552494F26
:100830004449435F4144564552544953494E475FEA
:1008400053594E435F4C4F53540A00004843495F8D
:100850004C455F4D4554415F4556543A203078250C
:100860003032580A000000003E3E3D3D20414349E1
:100870005F4741505F50524F435F434F4D504C458F
:1008800054455F56534556545F434F44450A000054
:100890003E3E3D3D204143495F4741505F4B4559F6
:1008A00050524553535F4E4F544946494341544972
:1008B0004F4E5F56534556545F434F44450A000020
:1008C0003E3E3D3D204143495F4741505F504153CB
:1008D000534B45595F5245515F56534556545F43FC
:1008E0004F44450A000000003D3D3E3E20616369E3
:1008F0005F6761705F706173736B65795F72657359
:1009000070203A204661696C2C20726561736F6EAD
:100910003A203078253032580A0000003D3D3E3EF6
:10092000206163695F6761705F706173736B657984
:100930005F72657370203A20537563636573730A41
:10094000000000003E3E3D3D204143495F4741508D
:100950005F4E554D455249435F434F4D50415249BB
:10096000534F4E5F56414C55455F56534556545F65
:10097000434F44450A00000020202020202D206EF7
:10098000756D657269635F76616C7565203D2025C4
:10099000640A000020202020202D204865785F7602
:1009A000616C7565203D2025780A00003D3D3E3E86
:1009B000206163695F6761705F6E756D6572696301
:1009C0005F636F6D70617269736F6E5F76616C7576
:1009D000655F636F6E6669726D5F7965736E6F20B8
:1009E0003A204661696C2C20726561736F6E3A2003
:1009F0003078253032580A003D3D3E3E2061636923
:100A00005F6761705F6E756D657269635F636F6D5F
:100A100070617269736F6E5F76616C75655F636F2D
:100A20006E6669726D5F7965736E6F203A205375DB
:100A300063636573730A00003E3E3D3D20414349B8
:100A40005F4741505F50414952494E475F565345B9
:100A500056545F434F44450A000000003E3E3D3D72
:100A6000204143495F4741505F50414952494E47F9
:100A70005F434F4D504C4554455F56534556545F68
:100A8000434F44450A00000020202020202D205004
:100A9000616972696E67204B4F0A20202020202D4B
:100AA000205374617475733A203078253032580AB7
:100AB00020202020202D20526561736F6E3A203057
:100AC00078253032580A000020202020202D205088
:100AD000616972696E6720537563636573730A0099
:100AE0004143495F48414C5F46575F4552524F5220
:100AF0005F5653455654203078253032580A00004E
:100B00004843495F56454E444F525F4556543A203C
:100B10003078253034580A004843495F48415244F0
:100B2000574152455F4552524F525F45565420300F
:100B300078253032580A00004843495F4556454EF3
:100B4000543A203078253032580A00003E3E3D3D70
:100B5000206863695F6C655F636F6E6E656374695F
:100B60006F6E5F636F6D706C6574655F6576656EE3
:100B700074202D20436F6E6E656374696F6E2068FC
:100B8000616E646C653A203078253034580A000074
:100B900020202020202D20436F6E6E656374696FC6
:100BA0006E2065737461626C69736865642077692F
:100BB000746820403A253032783A253032783A2528
:100BC0003032783A253032783A253032783A25304A
:100BD00032780A0020202020202D20436F6E6E6581
:100BE0006374696F6E20496E74657276616C3A2029
:100BF000202025642E25303264206D730A202020A9
:100C000020202D20436F6E6E656374696F6E206CBB
:100C10006174656E63793A2020202025640A2020C3
:100C20002020202D205375706572766973696F6E70
:100C30002054696D656F75743A202564206D730AC0
:100C4000000000006863695F6C655F726561645FE6
:100C5000706879206661696C7572653A20726561A9
:100C6000736F6E3D3078253032580A003D3D3E3E70
:100C7000206863695F6C655F726561645F70687945
:100C8000202D20537563636573730A003D3D3E3E1E
:100C90002050485920506172616D202054583D20E9
:100CA00025642C2052583D2025640A003D3D3E3EDF
:100CB000206863695F6C655F7365745F7068792035
:100CC00050485920506172616D202054583D2025B4
:100CD000642C2052583D202564202D200000000067
:100CE0004661696C0A000000537563636573730A9B
:100CF000000000006163695F6761705F7465726D19
:100D0000696E617465206661696C7572653A2072FE
:100D10006561736F6E3D3078253032580A000000EF
:100D20003D3D3E3E206163695F6761705F7465723F
:100D30006D696E617465203A2053756363657373E2
:100D40000A0000006163695F676174745F636C74BB
:100D50005F65786368616E67655F636F6E6669671C
:100D6000206661696C7572653A20726561736F6E99
:100D70003D3078253032580A000000003D3D3E3EAF
:100D8000206163695F676174745F636C745F657829
:100D90006368616E67655F636F6E666967203A209E
:100DA000537563636573730A000000003D3D3E3E6A
:100DB000206163695F6761705F7365745F6164760A
:100DC0006572746973696E675F636F6E6669677574
:100DD000726174696F6E202D206661696C2C2072BF
:100DE0006573756C743A203078253032580A0000EB
:100DF0003D3D3E3E20537563636573733A206163E6
:100E0000695F6761705F7365745F61647665727452
:100E10006973696E675F636F6E6669677572617427
:100E2000696F6E0A000000003D3D3E3E206163692F
:100E30005F6761705F7365745F6164766572746922
:100E400073696E675F64617461204661696C656493
:100E50002C20726573756C743A20307825303258C6
:100E60000A0000003D3D3E3E205375636365737389
:100E70003A206163695F6761705F7365745F616485
:100E8000766572746973696E675F646174610A0084
:100E90003D3D3E3E206163695F6761705F736574CD
:100EA0005F6164766572746973696E675F656E61B0
:100EB000626C65204661696C65642C20726573758F
:100EC0006C743A203078253032580A003D3D3E3E61
:100ED00020537563636573733A206163695F67616B
:100EE000705F7365745F6164766572746973696E4F
:100EF000675F656E61626C650A000000446973613A
:100F0000626C65206164766572746973696E6720CE
:100F10002D206661696C2C20726573756C743A20A3
:100F20003078253032580A003D3D3E3E20446973FA
:100F300061626C65206164766572746973696E675D
:100F4000202D20537563636573730A006163695FC5
:100F50006C326361705F636F6E6E656374696F6E30
:100F60005F706172616D657465725F7570646174E4
:100F7000655F726571202D206661696C2C20726539
:100F800073756C743A203078253032580A000000AE
:100F90003D3D3E3E206163695F6C326361705F631B
:100FA0006F6E6E656374696F6E5F706172616D659F
:100FB0007465725F7570646174655F726571202D10
:100FC00020537563636573730A000000FC100020F2
:100FD000F63600001300010400003200F7000000A4
:100FE000FFFFFFFF6400011008000103F70001008C
:100FF00000010102020202000001000300040000DF
:101000000A0A5741544348444F47205245534554D8
:101010002121212121212121210A0A000A0A5359D3
:101020005354454D2052455345542121212121211E
:101030002121210A0A000000427574746F6E202578
:101040006420707265737365640A000000100E00FE
:1010500000000000000000000000000020204661A9
:10106000696C2020203A206163695F676174745F56
:10107000636F6E6669726D5F696E646963617469DE
:101080006F6E20636F6D6D616E642C207265737579
:101090006C743A2030782578200A0000202053759F
:1010A00063636573733A206163695F676174745F3A
:1010B000636F6E6669726D5F696E6469636174699E
:1010C0006F6E20636F6D6D616E640A002020466153
:1010D000696C2020203A206163695F676174745FE6
:1010E0007372765F6164645F7365727669636520AD
:1010F000636F6D6D616E643A204449532C206572B4
:10110000726F7220636F64653A2030782578200A08
:10111000000000002020537563636573733A2061FB
:1011200063695F676174745F7372765F6164645F43
:101130007365727669636520636F6D6D616E643A85
:1011400020444953200A000020204661696C207227
:1011500065676973746572696E67204449532068D6
:10116000616E646C6572730A000000000210040076
:10117000FB349B5F8000008000100000502A0000BC
:101180001000000000000000000000009802002095
:10119000FB349B5F80000080001000000A180000F4
:1011A000100000000100000000000000000000002E
:1011B000010000006C1104105772697465206F6E95
:1011C000204543500A0000004143495F47415454C1
:1011D0005F5352565F4154545249425554455F4DF6
:1011E0004F4449464945445F56534556545F434F23
:1011F00044452045534C5F534552564943455F4350
:101200004F4E54524F4C5F504F494E545F4E4F54C7
:101210004946595F44495341424C45445F45565401
:101220000A0000004143495F474154545F535256FE
:101230005F4154545249425554455F4D4F444946CD
:101240004945445F56534556545F434F44452045F6
:10125000534C5F534552564943455F434F4E54529A
:101260004F4C5F504F494E545F4E4F544946595F63
:10127000454E41424C45445F4556540A000000002B
:101280002A2A2A2045534C5F616464726573733A5D
:10129000203078253034580A0000000020204661B4
:1012A000696C2020203A206163695F676174745F14
:1012B000636F6E6669726D5F696E6469636174699C
:1012C0006F6E20636F6D6D616E642C207265737537
:1012D0006C743A2030782578200A0000202053755D
:1012E00063636573733A206163695F676174745FF8
:1012F000636F6E6669726D5F696E6469636174695C
:101300006F6E20636F6D6D616E640A002020424C29
:10131000454556545F5265676973746572476174D9
:101320007445767448616E646C6572207265743AB7
:101330002030782578200A0020204661696C202022
:10134000203A206163695F676174745F7372765FCE
:101350006164645F7365727669636520636F6D6D48
:10136000616E643A2045534C2C206572726F722076
:10137000636F64653A2030782578200A0000000009
:101380002020537563636573733A206163695F67F7
:101390006174745F7372765F6164645F73657276A3
:1013A00069636520636F6D6D616E643A2045534CCF
:1013B000200A000020204661696C2020203A20612C
:1013C00063695F676174745F7372765F6E6F74696F
:1013D000667920434F4E54524F4C5F504F494E5404
:1013E00020636F6D6D616E642C206572726F722068
:1013F000636F64653A203078253032580A00000067
:101400002020537563636573733A206163695F6776
:101410006174745F7372765F6E6F7469667920436E
:101420004F4E54524F4C5F504F494E5420636F6D96
:101430006D616E640A0000000100000002000000FF
:10144000DE10002008102000FB349B5F800000802D
:1014500000100000F62B000010000000000000004B
:10146000000000000000000008102000FB349B5F1B
:101470008000008000100000F72B0000100000002A
:101480000000000000000000000000000810200024
:10149000FB349B5F8000008000100000F82B0000F0
:1014A000100000000000000000000000000000002C
:1014B00008102000FB349B5F8000008000100000BB
:1014C000F92B0000100000000000000000000000E8
:1014D000000000001C102000FB349B5F8000008097
:1014E00000100000FE2B00001000000001000000B2
:1014F000C0020020DC02002002100400FB349B5FCD
:101500008000008000100000FA2B00001000000096
:1015100000000000000000000000000002100400B5
:10152000FB349B5F8000008000100000FB2B00005C
:10153000100000000000000000000000000000009B
:1015400002100400FB349B5F80000080001000004C
:10155000FC2B000010000000000000000000000054
:101560000000000002100400FB349B5F800000803C
:1015700000100000FD2B0000100000000000000023
:101580000000000000000000FB349B5F8000008032
:1015900000100000571800001000000001000000BB
:1015A00000000000000000000900000044140410C6
:1015B00045534C5F534552564943455F434F4E5444
:1015C000524F4C5F504F494E545F4E4F544946590D
:1015D0005F454E41424C45445F4556540A00000069
:1015E00045534C5F534552564943455F434F4E5414
:1015F000524F4C5F504F494E545F4E4F54494659DD
:101600005F44495341424C45445F4556540A0000EB
:101610002A2A2A20556E6173736F63696174656449
:101620002053746174650A006863695F6C655F7359
:1016300065745F64656661756C745F706572696F0F
:101640006469635F6164766572746973696E675F0C
:1016500073796E635F7472616E736665725F7061D9
:1016600072616D65746572733A000000206661698D
:101670006C2028307825303278290A002073756371
:10168000636573730A0000002A2A2A20436F6E667E
:1016900069677572696E672053746174650A00002A
:1016A0002A2A2A20556E6173736F636961746564B9
:1016B0002073746174652066726F6D20436F6E666F
:1016C00069677572696E6720737461746520666FEF
:1016D00072206C696E6B206C6F7373200A000000BF
:1016E0002A2A2A20556E73796E6368726F6E697A42
:1016F00065642073746174652066726F6D20436F3A
:101700006E6669677572696E6720737461746520AF
:10171000666F72206C696E6B206C6F7373200A00A9
:101720002A2A2A20556E73796E6368726F6E697A01
:1017300065642073746174652066726F6D205570E6
:10174000646174696E6720737461746520666F727A
:10175000206C696E6B206C6F7373200A00000000B0
:101760002A2A2A20556E73796E6368726F6E697AC1
:10177000656420737461746520666F722073796E7E
:1017800063206C6F73740A002A2A2A2045534C5F29
:101790004150505F436F6E746578742E61705F7353
:1017A000796E635F6B65795F6D6174657269616C99
:1017B0003A200A0025303258000000000A2A2A2A5E
:1017C0002049563A200A00002A2A2A2045534C5F15
:1017D0004150505F436F6E746578742E65736C5F13
:1017E000726573705F6B65795F6D61746572696155
:1017F0006C3A200A000000002A2A2A20534554206F
:1018000043757272656E7441627354696D653A20F6
:1018100025640A006863695F6C655F7365745F7057
:101820006572696F6469635F73796E635F73756214
:101830006576656E743A00006863695F6C655F7316
:1018400065745F706572696F6469635F6164766512
:1018500072746973696E675F726563656976655FE7
:10186000656E61626C653A002A2A2A2053796E639C
:1018700068726F6E697A65642053746174650A00DA
:101880006163695F6761705F7465726D696E6174D1
:1018900065206661696C7572653A20726561736F67
:1018A0006E3D3078253032580A0000003D3D3E3E06
:1018B000206163695F6761705F7465726D696E61F5
:1018C0007465203A20537563636573732028424C16
:1018D000455F4552524F525F5445524D494E415417
:1018E00045445F52454D4F54455F55534552290A73
:1018F0000000000044656372797074696F6E206641
:1019000061696C2E0A000000456E64206F662045F8
:10191000534C5F4150505F4164765061796C6F6108
:101920006452656365697665640A000050494E47F4
:1019300020636F6D6D616E64205B6F70636F6465B3
:101940003A203078253032785D200A004C4544201A
:10195000434F4E54524F4C20636F6D6D616E642047
:101960005B6F70636F64653A203078253032785D44
:10197000200A0000524541442053454E534F522007
:101980004441544120636F6D6D616E64205B6F70E4
:10199000636F64653A203078253032785D200A0024
:1019A0005458542056454E444F5220636F6D6D611C
:1019B0006E64205B6F70636F64653A203078253009
:1019C00032785D200A0000005052494345205645B8
:1019D0004E444F5220636F6D6D616E64205B6F707B
:1019E000636F64653A203078253032785D200A00D4
:1019F00055504441544520434F4D504C455445208B
:101A0000636F6D6D616E64205B6F70636F64653AC8
:101A1000203078253032785D200A0000554E415341
:101A2000534F43494154452046524F4D2041502089
:101A3000636F6D6D616E64205B6F70636F64653A98
:101A4000203078253032785D200A00005345525608
:101A500049434520524553455420636F6D6D616E77
:101A600064205B6F70636F64653A20307825303294
:101A7000785D200A00000000464143544F5259202F
:101A8000524553455420636F6D6D616E64205B6FEA
:101A900070636F64653A203078253032785D200AB3
:101AA00000000000444953504C415920494D4147E2
:101AB0004520636F6D6D616E64205B6F70636F6452
:101AC000653A203078253032785D200A0000000029
:101AD0005245465245534820444953504C415920A1
:101AE000636F6D6D616E64205B6F70636F64653AE8
:101AF000203078253032785D200A00004449535068
:101B00004C41592054494D454420494D41474520B9
:101B1000636F6D6D616E64205B6F70636F64653AB7
:101B2000203078253032785D200A00004C45442072
:101B300054494D454420434F4E54524F4C20636FFF
:101B40006D6D616E64205B6F70636F64653A203009
:101B500078253032785D200A000000006C6C5F73DD
:101B600065745F706572696F6469635F61647665EF
:101B700072746973696E675F726573706F6E736597
:101B80005F646174615F707472206661696C757204
:101B9000653A20726561736F6E3D3078253032583A
:101BA0002C2053796E635F48616E646C65203078D9
:101BB000253034582C20526571756573745F4576F5
:101BC000656E742025642C205375626576656E748D
:101BD0002025642C20526573706F6E73655F536CA3
:101BE0006F742025640A00003D3D3E3E206C6C5F12
:101BF0007365745F706572696F6469635F61647651
:101C00006572746973696E675F726573706F6E7306
:101C1000655F646174615F707472203A205375630C
:101C2000636573730A000000524553504F4E53458D
:101C3000206F70636F64653A2030782530327820E9
:101C40000A000000556E73796E6368726F6E697A70
:101C5000656420737461746520666F722074696DA9
:101C6000656F75740A0000002A2A2A20556E737366
:101C70006F63696174656420737461746520666F55
:101C8000722074696D656F75740A00002A2A2A2013
:101C90005570646174696E67207374617465207433
:101CA00072616E736974696F6E2066726F6D205316
:101CB000796E6368726F6E697A656420737461749B
:101CC000650A00002A2A2A205570646174696E67CB
:101CD000207374617465207472616E736974696FC6
:101CE0006E2066726F6D20556E73796E6368726FC9
:101CF0006E697A65642073746174650A000000007F
:101D00002A2A2A20556E6173736F63696174656452
:101D100020737461746520627920636F6D6D616EEC
:101D200064732028556E6173736F636961746564B1
:101D30002066726F6D204150206F7220466163747F
:101D40006F727920526573657429200A00000000C3
:101D500048454C50000000004C697374206F6620A9
:101D6000636F6D6D616E64732075736566756C6C01
:101D700020666F722074657374733A200A00000045
:101D800020202D2041425354494D453A2047657447
:101D90002043757272656E74204162736F6C757446
:101DA000652054696D650A0020202D205352564E3F
:101DB00045454445443A205365742053657276691D
:101DC0006365204E65656465642062697420746F84
:101DD0002054727565200A0020202D20554E53593D
:101DE0004E433A20536574205468652045534C2077
:101DF000737461746520746F20556E73796E6368B7
:101E0000726F6E697A6564200A00000020202D2020
:101E10004E4F444953504C41593A20456163682024
:101E2000646973706C6179206973206E6F742064CB
:101E30006973706C6179696E6720616E20696D618C
:101E40006765200A0000000041425354494D450097
:101E50002D2D3E204765742043757272656E742087
:101E60004162736F6C7574652054696D653A202505
:101E7000640A00005352564E454544454400000054
:101E80002D2D3E205365742053657276696365205D
:101E90004E65656465642062697420746F205472B5
:101EA00075650A00554E53594E4300002D2D3E20B6
:101EB000536574205468652045534C2073746174D5
:101EC0006520746F20556E73796E6368726F6E69EA
:101ED0007A65640A000000004E4F444953504C415B
:101EE000590000002D2D3E20456163682064697310
:101EF000706C6179206973206E6F742064697370EF
:101F00006C6179696E6720616E20696D616765201B
:101F10000A0000004F4B0D0A000000004552524FCE
:101F2000520D0A004C454420496E6465783A2030D1
:101F30007825303278200A004C454420436F6D707C
:101F40006F6E656E743A20307825303278205B42AF
:101F500072696768746E6573733A2025645D0A0060
:101F60004C454420466C617368696E67205061740B
:101F70007465726E3A2030782530327825303278A8
:101F8000253032782530327825303278200A00002A
:101F90004C454420466C617368696E6720506174DB
:101FA0007465726E204F464620506572696F643AC0
:101FB00020307825303278200A0000004C4544203B
:101FC000466C617368696E67205061747465726EE7
:101FD000204F4E20506572696F643A20203078257A
:101FE000303278200A0000004C454420526570656C
:101FF0006174733A2020307825303478205B526544
:102000007065617420747970653A202564202D20F4
:10201000526570656174206475726174696F6E3A9F
:10202000203078253034785D0A0000004C4544208B
:102030004F46460A000000004C4544204F4E0A001F
:10204000446973706C617920496E6465783A202523
:1020500064202D20496D61676520496E6465783A7A
:102060002025640A0000000053656E736F722072B1
:102070006561642074696D656F75740A0000000005
:102080002A2A2A204745542043757272656E74418E
:10209000627354696D653A2025640A004162736F6A
:1020A0006C7574652054696D653A2025640A0000DA
:1020B00050656E64696E67204C45442055706461BC
:1020C0007465206269742069732073657420746F6D
:1020D00020547275650A00004C454420436F6D70B2
:1020E0006F6E656E743A20307825303278200A00A1
:1020F0002A2A2A2050656E64696E6720636F6D6DB1
:10210000616E64206973207265706C616365642020
:10211000627920746865206E65776C7920726563DA
:102120006569766564210A0050656E64696E672092
:102130004C4544205570646174652062697420695F
:10214000732073657420746F2046616C73650A0098
:10215000446973706C617920496E6465783A203007
:102160007825303278200A00496D61676520496E14
:102170006465783A20307825303278200A000000F3
:1021800052455345542053657276696365204E6508
:102190006564656420626974206F662074686520D8
:1021A0004261736963205374617465207265737052
:1021B0006F6E736520746F2046414C534521200A91
:1021C0000000000053455420536572766963652012
:1021D0004E656564656420626974206F662074686A
:1021E0006520426173696320537461746520726570
:1021F00073706F6E736520746F20545255452120A3
:102200000A00000052656672657368204469737045
:102210006C617920436F6D6D616E64202D20496E75
:102220006465783A2025640A0000000045534C5F3D
:102230004445564943455F50726F636573730A00A6
:1022400053544D333257423000000000020000006A
:10225000E410002000000000080000001803002027
:1022600000000000010000006A0500200000FFFFE0
:1022700000000000040000006C22041000000000B8
:1022800005000000581000200000000001000000C0
:102290002A04051001000000030000007410002053
:1022A00020000000FB349B5F8000008000100000D5
:1022B000052A00001000000001000000FC030020BF
:1022C000702204100A000000FB349B5F8000008035
:1022D00000100000292B000010000000000000008A
:1022E000000000007C22041002000000FB349B5F11
:1022F00080000080001000002A2B00001000000069
:1023000000000000000000000000000002000000CB
:10231000FB349B5F80000080001000003A2B00001F
:1023200010000000000000000000000088220410DF
:1023300096C298D84539A1F4A033EB2D817D03775F
:10234000F240A463E5E6BCF847422CE1F2D1176BFA
:10235000F551BF376840B6CBCE5E316B5733CE2BCD
:10236000169E0F7C4AEBE78E9B7F1AFEE242E34FFC
:10237000000100000000000000010000000000005B
:10238000000100000000000001000000000000004B
:10239000FFFFFFFFFFFFFFFFFFFFFFFF0000000049
:1023A000000000000000000001000000FFFFFFFF30
:1023B000020000000500000003000000FEFFFFFF18
:1023C000F9FFFFFFFBFFFFFFFCFFFFFFFCFFFFFF2D
:1023D00003000000000000000000000000000000FA
:1023E00000000000000000000000000000000000ED
:1023F0004B60D2273E3CCE3BF6B053CCB0061D65B9
:10240000BC86987655BDEBB3E7933AAAD835C65A41
:102410000000000000F00B1000080000AA020000FD
:1024200000F80B10F80701000000000096C298D8D1
:102430004539A1F4A033EB2D817D0377F240A463ED
:10244000E5E6BCF847422CE1F2D1176BF551BF37F6
:102450006840B6CBCE5E316B5733CE2B169E0F7CC9
:102460004AEBE78E9B7F1AFEE242E34FCAEBECEDAC
:10247000EFF0F1F2F3F4F5F6F7F8F9FAFAFCFDFDF6
:10248000FEFEFFFF0000010203040506CAEBECEDAF
:10249000EFF0F1F2F3F4F5F6F7F8F9FAFAFCFDFDD6
:1024A000FEFEFFFF00000102030405060800000015
:1024B0002D64061039640610ED6206108D63061057
:1024C0007361061029620610040302020101010172
:1024D000000000000000000000020406080A0C0EC4
:1024E00000020406010002000400060008000A00C1
:1024F0000C001000200040008000000101010103D9
:10250000070100000804020408010101686A6C74F4
:102510007A4C00007072696E74665F733A20256EA3
:1025200020646973616C6C6F776564007072696EAA
:1025300074663A2062616420256E20617267756D51
:10254000656E74007072696E74665F733A206261C2
:102550006420257320617267756D656E74000000DC
:10256000000000006E616E004E414E00696E660014
:10257000494E460030002E00FB349B5F80000080F7
:1025800000100000292B000010000000FB349B5FAE
:102590008000008000100000052A000010000000EC
:1025A000020000000300000003000000060000001D
:1025B00003000000030000003C0000007000000069
:1025C00070000000D003000070000000C301000094
:1025D000F16C0610B7F7041077F904107B000510B2
:1025E00017FD0410E1400410BD4104103F4A0410DF
:1025F0004D4A04105B4A0410694A0410774A0410DB
:1026000065730610EF490410C9490410FD49041010
:1026100033450410F9410410F347041081430410BA
:102620003FF60410EB410410557106106DE30610DF
:10263000C9E106106DE506107FE706107FE706107A
:1026400095E806106DE506106FEA06106FEA0610B1
:102650006FEA061071E4061083E1061047E10610E8
:1026600095E80610CB410410DB4104100FEE061074
:1026700017EE061013EE06103742041047420410FE
:102680005742041067420410B742041087420410F6
:1026900097420410A742041077420410C742041066
:1026A000D7420410E7420410F74204100743041015
:1026B00000B5BFF34F8FA148AE490860BFF34F8FFD
:1026C00000BFFDE780B501F047F801F007F90021F0
:1026D000C943884201D101F0A1FA01BDF8B596B015
:1026E0000025280069460873062421002A0007AE49
:1026F000300001F099FA6846047428006946C881E0
:1027000009A89D49342201F0C7FA09A801F0FAFA94
:1027100007003800C0B2002806D03900C9B2974877
:1027200001F026FB01F07AFA07AC012020702800A6
:102730006070AA20A070E120E0708020207102204B
:10274000607107AA0621002001F026FB0600300078
:10275000C0B2002805D03100C9B2894801F008FB99
:1027600002E0884801F004FB1821002001F018FB6A
:1027700007003800C0B2002805D03900C9B282482D
:1027800001F0F6FA02E0814801F0F2FA06A9012010
:1027900001F00AFB06003000C0B2002805D031006D
:1027A000C9B27B4801F0E4FA02E07A4801F0E0FAAD
:1027B0002800092101436846417300216846007BD7
:1027C00001F04EFB07003800C0B2002805D03900E8
:1027D000C9B2A44801F0CCFA02E0A34801F0C8FA5B
:1027E00004A8801C009005AB05AA921C6846017BDA
:1027F0006846407B01F03CFB060020780290607840
:102800000190A0780090E37822796179974801F0EF
:10281000AFFA974C07A9200000F004FF07AA0F2188
:10282000944800F023FF22000621002001F069FBFC
:1028300004002000C0B2002805D02100C9B28E4893
:1028400001F096FA02E08D4801F092FA03AA921C78
:102850000221002001F068FB06003000C0B2002811
:1028600005D03100C9B2864801F082FA02E08548FD
:1028700001F07EFA844C03202070207802F00CF9DD
:1028800007003800C0B2002805D03900C9B27F481F
:1028900001F06EFA02E07E4801F06AFA65701020DD
:1028A000E07020710120A070022002902079019038
:1028B000E0780090002302226178A07802F0F3F81B
:1028C00005002800C0B2002805D02900C9B271480F
:1028D00001F04EFA02E0704801F04AFAA0780028B0
:1028E00010D0012002F0E7F905002800C0B200284E
:1028F00005D02900C9B2694801F03AFA02E06848F7
:1029000001F036FA684667490CC90CC00839083826
:10291000684602F0E0F904002000C0B2002805D0AB
:102920002100C9B2604801F023FA02E05F4801F0DB
:102930001FFA5F4801F01CFA17B0F0BD0400FA0559
:1029400080B50121012002F0A0FA01BD80B501206F
:1029500002F01AFB02F01BFB4B48817B042902D0DA
:10296000807B052801D100F0C5FE012002F00DFB9F
:1029700001BD00000CED00E0CC0F0410C0000410FD
:10298000E4000410400104108C010410CC01041078
:10299000FC0104103C02041080B502F025FC01BDCE
:1029A00080B50021022002F070FA01BD80B504F06C
:1029B00006FA01BD80B50121042002F066FA01BDCE
:1029C00080B5FFF7EDFF01BD10B50400200004F055
:1029D00047FAFFF7E5FFFFF7EDFF10BD80B50021D7
:1029E000802002F052FA01BD80B5FFF7A9FF01BDBA
:1029F00010B5304A0021012002F037FA2E4A00219A
:102A0000022002F032FA2D4A0021042002F02DFAB1
:102A1000FFF758FEFFF762FE1B4C0020A07328480A
:102A2000A081284A0021402002F01FFA264A0021F6
:102A3000802002F01AFA2548A06125A4200001F0A8
:102A400097F9244801F094F904F0F6FA05F008FC2F
:102A5000214801F08DF9200001F08AF9012000F0F1
:102A6000B1FC10BD6C020410A0020410C4020410DA
:102A70008002002088020020000304104403041098
:102A800078030410BC030410E80E0020F0030410C7
:102A90003004041060040410A8040410E0040410BE
:102AA000380504108005041088050410C4050410BE
:102AB000F00504104D29041099290410AD290410C3
:102AC000FFFF000081880410C9810410D93504106B
:102AD0000A0000000C06041034060410F1B588B09A
:102AE00086206946087408980078042804D008985D
:102AF0000078822800D0C2E20898401C069008980E
:102B00000078042803D10698801C079003E00898F9
:102B1000401CC01C079006980078052808D0102893
:102B200000D19BE23E2845D0FF2800D1D2E1A1E2AE
:102B30000698841C6178A0780006000C0143DB48ED
:102B4000828989B291421CD100210A00D84B1A70A7
:102B5000D84A8281827B022A00D18173D64801F053
:102B600007F96178A0780006000C0143E27889B289
:102B7000D24801F0FDF805F059FE002801D005F01B
:102B800064FA00F01FFDCE4801252900017061782C
:102B9000A2781206120C1143418004F036FAC9489B
:102BA00005706178A2781206120C1143418005F07D
:102BB00047FB64E20698801C059005980078012880
:102BC00000D107E1032812D00A2800D1ABE00C287D
:102BD00000D1A3E0102800D15AE1252800D13DE121
:102BE000262800D11EE1292800D1C4E06CE1059817
:102BF000441CD94801F0BCF8E07821790906090C99
:102C0000084380B205F070FE0022D44B05F086FE2A
:102C1000002280235B0305F043FF2BD8E078217965
:102C20000906090C0843E57821790906090C0D43CA
:102C300080B205F059FE0022C84B05F06FFE060079
:102C40000F00ADB2280005F04FFE0022C34B05F087
:102C500065FE05F03FFF05F057FE02000B00300057
:102C6000390005F0C3FF0022BD4B05F057FE05F00B
:102C700031FF28E0E07821790906090C0843E5785E
:102C800021790906090C0D4380B205F02DFE0022C2
:102C9000B24B05F043FE05F01DFF05F035FE0600C2
:102CA0000F00ADB2280005F01FFE0022D04B05F04A
:102CB00035FE32003B0005F036FF0022A84B05F040
:102CC0002DFE05F007FFE279217A0906090C0A4377
:102CD0006379A1790906090C0B43E17825792D0662
:102CE0002D0C294392B20A25554300959BB2020050
:102CF00016001D00080080B205F0F6FD0022974B7B
:102D000005F00CFE05F0E6FE01002B003200D14874
:102D100001F02EF8012066490870DAE00598441C9D
:102D200000F050FCD5E00598441CCB4801F020F899
:102D3000E07E217F0906090C0843627EA17E090618
:102D4000090C0A43E37D217E0906090C0B436178D7
:102D5000A5782D062D0C2943564D039580B202907F
:102D600092B201929BB20093631D227989B22078BE
:102D700000F0A6F9ADE00598441CC24800F0F8FF49
:102D8000E07F641CE17F641E0906090C0843E27EB3
:102D9000217F0906090C0A43637EA17E0906090CFE
:102DA0000B43E57D217E0906090C0D436178A67869
:102DB0003606360C314380B2039092B202929BB237
:102DC0000193ADB20095631D227989B2207800F09D
:102DD00077F97EE00598441C9F4800F0C9FFE07B2E
:102DE000217C0906090C0843627BA17B0906090CBA
:102DF0000A43E37A217B0906090C0B436178A57825
:102E00002D062D0C29432B4D039580B2029092B2D2
:102E100001929BB20093631D227989B2207800F061
:102E20004FF956E00598441C974800F0A1FF207820
:102E300000280ED106201D4988736079A179090602
:102E4000090C084380B204F081FA01208F49087010
:102E500003E021788E4800F08BFF3AE00598441C8F
:102E600005F088F8032810D0207A00280DD1607A68
:102E700000280AD06079A1790906090C0843627A12
:102E800021000A3180B204F0BDFA00F033FC20E0EA
:102E90000598441C7F4800F06BFF0025280003497B
:102EA000887304F036F97948057012E0E80E0020C6
:102EB000E8100020FFFF00006406041090060410D4
:102EC000300000206010002005980178724800F062
:102ED0004FFFD4E0079C207861780906090C08436D
:102EE00080B2001F1AD0801E00D1A0E06B49401AAA
:102EF0006DD0401E17D0401F0BD0801E32D0401E18
:102F00000DD0401E56D06649401A00D097E0A01C54
:102F10009EE0644800F02CFFA01C99E098E0624815
:102F200000F026FF94E0614800F022FF604961480C
:102F3000808901F0DBFD694608746846007C002842
:102F400005D06846017C5C4800F012FF02E05B4857
:102F500000F00EFF7CE000BFD00604100000F43F3C
:102F600000005940B14800F003FF201D05F0B6FEF7
:102F70000100AF4800F0FCFE201D05F0AFFE01008F
:102F8000AC4800F0F5FE01252900C9B24948808906
:102F900001F0B5FD694608746846007C002805D03C
:102FA0006846017CA44800F0E3FE02E0A34800F07C
:102FB000DFFE4DE0A24800F0DBFEA51C2878697812
:102FC0000906090C084380B204F0DAFF40E09D488E
:102FD00000F0CEFEA01C009000988078002809D058
:102FE0000098C27800988178974800F0C1FE04E00C
:102FF0000000F4BF954800F0BBFE95A000F0B8FEBD
:1030000000988078002809D1009908784A7812063B
:10301000120C104380B204F045F807E006250026A4
:103020008C4F32002900380000F0FEFD10E0A51C96
:103030002978894800F09CFEFFF73AFB08E02178E8
:1030400060780006000C014389B2844800F090FECD
:1030500015E000BF04070410740704100698841CD0
:1030600021787F4800F084FE2078042801DAFFF7F9
:103070001FFB04E006980178C24800F079FE09B011
:10308000F0BD0000A8070410DC070410E7100020C2
:1030900014080410240804104C080410FB0300005A
:1030A000F50300006808041090080410C00804101C
:1030B00007B20100E80E0020E80804101C09041003
:1030C000F7B584B01D000C9F0120AF490870684619
:1030D000818AAE4800F04CFE287802906878019012
:1030E000A8780090EB782A796979A94800F040FE29
:1030F000380080B205F0F8FB0022A64B05F00EFC6C
:10310000002280235B0305F0CBFC22D8380080B27C
:1031100005F0EAFB00229F4B05F000FC00900191B6
:10312000380080B205F0E0FB00229A4B05F0F6FB78
:1031300005F0D0FC05F0E8FB02000B0000980199B7
:1031400005F054FD0022944B05F0E8FB05F0C2FCAD
:103150001FE0380080B205F0C7FB00228D4B05F060
:10316000DDFB05F0B7FC05F0CFFB009001913800C6
:1031700080B205F0B9FB0022884B05F0CFFB009A26
:10318000019B05F0D0FC0022834B05F0C7FB05F046
:10319000A1FC6946098F0A224A43009269468B8E38
:1031A000020016001C00380080B205F09DFB0022D2
:1031B000784B05F0B3FB05F08DFC010023003200D5
:1031C000774800F0D5FD774CA07B012802D1032081
:1031D000A07301E00220A0736846808AA0810620C7
:1031E000019000951B4E019A0099300000F06EFD91
:1031F0006846007E6C4908706C4800260670694677
:10320000898A418003F001FF694806706946898A0E
:10321000418005F015F82000103002F04BFA6846A6
:10322000808F04F079FE07B0F0BD0000440904105F
:103230007809041094090410AC090410F80904106A
:10324000380A04105C0A0410880A0410C80A041022
:103250000A00000040100020E00A0410000B0410D7
:10326000180B04107CB506003000C0B2002803D053
:10327000022873D05CD384E04A4C01AA01A9491CFE
:10328000A08901F0DAFC05002800C0B2002805D0B2
:103290002900C9B2474800F06BFD48E0464800F0FD
:1032A00067FD6846027968464179444800F060FD50
:1032B0006846407902281FD16846007902281BD150
:1032C000012201213E4800F053FD0020009001231F
:1032D00001220021A08901F0BBFC05002800C0B23A
:1032E000002803D0B14800F043FD20E0B04800F0D2
:1032F0003FFD00F06CF91AE002220221304800F094
:1033000037FD00200090022302220021A08901F055
:103310009FFC05002800C0B2002803D0A34800F09D
:1033200027FD04E0A24800F023FD00F050F928E05A
:1033300013211C48808901F0A5FB05002800C0B2BC
:10334000002805D02900C9B29A4800F011FD04E018
:10335000994800F00DFD00F03AF912E0114880891B
:1033600001F037FC05002800C0B2002805D0290074
:10337000C9B2924800F0FCFC02E0914800F0F8FC71
:10338000FFE773BD380B0410E81000204C0B04104D
:10339000900B04100000F43F000059400000F4BFFF
:1033A000D40B0410E80E0020E610002030000020AE
:1033B00060100020440C04106C0C04108C0C0410E1
:1033C000AC0C0410F0B591B00700A0200D90B42112
:1033D0000C913A00D2B2002A0DD0012A06D0022A5E
:1033E00012D0042A13D0052A1BD030E00D900C9186
:1033F00004200B902BE0C820C0000D90FA20C000E4
:103400000C9005200B9022E000200B901FE0C820BC
:1034100080000D900C9000200B90FA2040000E9040
:1034200015E01321BE48808901F02CFB0400200028
:10343000C0B2002805D02100C9B25E4800F098FC57
:1034400004E05D4800F094FC00F0C1F8FFE73800AC
:10345000C0B20028012808D9801E6DD0801E00D17E
:1034600084E0801E00D19DE09DE0062100220FAD8A
:10347000280000F0D9FB00200A90002009900120CC
:103480000890002007900120069000200590002061
:1034900004900020039000200290072001900C98D7
:1034A00000900D9B13220221002005F022FC060053
:1034B0003000C0B2002805D03100C9B2994800F0F0
:1034C00057FC05E00B9896498873974800F050FC2C
:1034D000964B0F220321002005F040FC0500280038
:1034E000C0B2002805D02900C9B2914800F040FCC4
:1034F00002E0904800F03CFC0FAA0121012005F0F9
:1035000031FC04002000C0B2002805D02100C9B25F
:10351000894800F02DFC0EE0884800F029FC884D19
:10352000280002F0C7F83800C0B2012803D185494D
:10353000280002F08CF836E000220021002005F07F
:1035400011FC04002000C0B2002808D00B98744978
:1035500088732100C9B27C4800F00AFC02E07B4875
:1035600000F006FC764802F0A5F81CE00E9880B248
:1035700000900B9B9BB20C9A92B20D9989B268484D
:10358000808901F037FB04002000C0B2002805D07C
:103590002100C9B26E4800F0EBFB02E06D4800F07C
:1035A000E7FB00E0FFE711B0F0BD0000E00C041005
:1035B000E80C0410F40C0410200D0410440D041049
:1035C0007C0D041080B5012001F071FC01BD80B5B7
:1035D000012001F085FC01BD10B504000220FFF7B9
:1035E000F1FE0020FFF7EEFE10BD10B50200D2B2D2
:1035F000120903071B0F1400E4B20A2C03DB1400AA
:1036000037340C7002E0140030340C701C00E4B24B
:103610000A2C03DB1C0037344C7002E01C003034F1
:103620004C7010BD70B504000E0000252800C0B21B
:10363000205C002819D02800C0B2002813D0280030
:10364000C0B22018401E007858280CD12800C0B203
:10365000205C582807D12800C0B22118491E3078B4
:10366000FFF7C3FF01E06D1CE0E770BDF7B5040094
:103670000E00002528003100C9B280B289B288420C
:1036800030D2280080B2205C0700280080B22018C9
:103690004078694608706846007809281DD12800DE
:1036A00080B23900C9B24018205C582814D12800D3
:1036B00080B23900C9B240182018401E007858283E
:1036C0000AD1280080B23900C9B240182118491E19
:1036D00002980078FFF789FFFFE73800C0B22D1885
:1036E0006D1CC7E7F7BD80B50021402001F0CDFB80
:1036F00001BD7047704780B50948817B002902D021
:10370000817B05290AD1807B002801D1FFF7F1FFD9
:103710000220FFF757FE0120FFF754FE01BD000015
:10372000E80E0020AC0D0410F00D041088020020FB
:10373000280E0410640E0410900E0410CC0E041019
:10374000F80E0020905F0100FC0E0410280F0410FA
:103750004C0F0410900F041010B503F045F95C4CA9
:103760002100002003F00CFA5A49012003F008FA66
:103770005948046010BDFEB504000F0016001D007E
:103780002000C0B2022803D152485349086002E029
:103790004F485149086001956846008C00903B00F5
:1037A000320092B22100C9B24B48006803F04CFAD3
:1037B00001000800C0B2002801D1002008E0080084
:1037C000C0B2022802D10020C04301E00120C04362
:1037D000FEBDF3B583B017001E000A9D6846007C4D
:1037E000022804D13B483C490860012403E03848E2
:1037F0003949086000246846007B02280CD102A8E1
:1038000000902B009BB23200390089B23248006828
:1038100003F0FAF9010018E06846007B002805D1A2
:103820002D4801682000C0B203F0AAF902A8019057
:10383000280080B2009033003A0092B26846017CC2
:103840002548006803F0B9F901000800C0B200285B
:1038500001D1002008E00800C0B2042802D10220F3
:10386000C04301E00120C04305B0F0BD70B50600C3
:103870000D00140023009BB22A00310089B21648C3
:10388000006802F000FD0100002901D1002006E0DF
:10389000002902D5A4B2200001E00220C04370BD7F
:1038A00010B504002000C0B2022808D10A480168FF
:1038B000084A91420AD0006803F0FAF906E02000B5
:1038C000C0B2032802D1002003F0F8F910BD0000B7
:1038D000EC0F0020FC0F00206410002001201F4985
:1038E00008600020704700B50120C0431B490968EB
:1038F000012901D10021080040B200BD00B500201F
:10390000EFF3108172B6154A1368012B03D0012220
:10391000D243100001E00323136081F3108840B20A
:1039200000BD00B50020EFF3108172B60B4A13689A
:10393000032B03D00122D243100001E001231360C6
:1039400081F3108840B200BD38B505000C0022009C
:103950000349280005F07DFA32BD00004004002034
:103960002C24041000B5BFF34F8F9D489D4908607B
:10397000BFF34F8F00BFFDE79B4800680005000DB7
:10398000704799480068010B49B2484240B27047FD
:103990000069704781B095490A6802430A60096866
:1039A00001400091009901B0704781B090490A68C8
:1039B00002430A60096801400091009901B0704714
:1039C00081B08C490A6802430A600968014000918D
:1039D000009901B0704700B58649096801408142ED
:1039E00001D1012000E0002000BD83490A680243A4
:1039F0000A60704780490A6882430A60704780B550
:103A000005F038FC00F012F800F03AF800F098F8F1
:103A100000F057F800F06EF800F048F800F0A2F857
:103A2000002005F097FC05F067FDFCE738B588B08D
:103A300018210024220002AD280000F0F5F808212A
:103A400022006D46280000F0EFF80320029080204D
:103A5000400203901020059002A805F0E7FE002820
:103A600001D000F0DBF8009420200190002168468E
:103A700005F0DAFF002801D000F0D0F809B030BD21
:103A800010B586B0182100226C46200000F0CCF85A
:103A900002200090802040010590684606F0A6F8BC
:103AA000002801D000F0BAF806B010BD80B5534828
:103AB0005349016006F050F9002801D000F0AEF83B
:103AC00001BD80B54F48006800900120FFF783FFDB
:103AD000002808D10120FFF788FF0120FFF78AFFA7
:103AE0000120FFF76DFFC020C0050090684606F07A
:103AF0008BFA01BD3EB50821002422006D46280046
:103B000000F092F80120FFF766FF002808D101209D
:103B1000FFF76BFF0120FFF76DFF0120FFF750FF5C
:103B20003948FFF735FF1028FAD36846A02149002D
:103B30000180210081700194684601F0B2FA37BD1E
:103B400018B585B00820FFF725FF0420FFF722FFF6
:103B500001F01CFA142100226C46200000F064F8E9
:103B600006B010BD10B586B01020FFF71EFF202054
:103B7000FFF71BFF254C264820600720E06104204A
:103B8000A06102202062802000026062C020C00389
:103B900060618020000320610120E060200006F0C9
:103BA0006DFD002801D000F039F80C2000900020B5
:103BB0000190032102910390049016480590FFF7AD
:103BC000DBFE1549884205D0FFF7DBFE0490FFF7C6
:103BD000D3FE05906946200006F068FE06B010BDD1
:103BE0000400FA050CED00E01C1E001050004048D7
:103BF00058004048600040484000404828100020DD
:103C0000000030481024041000180060D80D002077
:103C10000060004155050000FF0F000080B572B63E
:103C2000FFF7A0FE01BD43001206130A1A43130C4E
:103C30001A4300BF094205D0830707D00270401C19
:103C4000491EF9D1704700000022FFE71300103928
:103C500006D330B41400150010393CC0FCD230BC7F
:103C6000490700D30CC000D504C0890002D30280EC
:103C7000801C002900D50270704783008500070072
:103C800007008300850005000700030003000F0004
:103C9000050082008100050070B4103A03D378C992
:103CA000103A78C0FBD2530701D318C918C001D508
:103CB00008C908C0D20704D30B880380891C801C64
:103CC000002A01D50B78037070BC70478B0701D1B7
:103CD0008307E1D0124205D00B78491C0370401CC9
:103CE000521EF9D170470300FFFFFFFFFFFFFFFFE8
:103CF000FFFFFFFFFFFF010000000000FFFF0100CA
:103D00000000FFFFB0B50546C07A1224802829D8EC
:103D1000298C172926D31448821D914222D8298A3A
:103D200017291FD381421DD8A87E00281AD000F081
:103D3000B5FB002808D0E87E002813D0802811D8D1
:103D4000287F401E0E280DD808483422294606F048
:103D50005FFE06F025FF002803D407F055F9002484
:103D600000E087242046B0BDFA0300004C0E00207E
:103D70000EB4C0B5020003A801900020009001AB72
:103D80000121044878440C3007F0A8F9029906B0E4
:103D9000084700BF71A3020080B508F043F980BD59
:103DA00080B508F01DFA80BDF1B50F000020388005
:103DB000264C200000F0C8FE05002800C0B20028F4
:103DC00002D02800C0B240E0200000F0C3FE040092
:103DD00068460078C0070CD5210089B21C4800F065
:103DE000BFFE05002800C0B2002802D02800C0B2E3
:103DF0002BE0174800F0BDFE3880210089B215483D
:103E000000F0AEFE06003000C0B2002802D0300044
:103E1000C0B21AE0210089B20F4800F0A1FE0500EF
:103E20002800C0B2002802D02800C0B20DE0210056
:103E300089B20A4800F094FE01000800C0B20028D0
:103E400002D00800C0B200E00020F2BD180400203B
:103E5000A0220410C4220410E82204100C23041031
:103E600080B5022801D9122080BD08F0DDF980BD9F
:103E7000FFB581B00A9F002503980580049805804E
:103E80003D806846007905210140002936D0634E07
:103E9000300000F059FE6946087068460078002836
:103EA00002D0684600782AE05D4C200000F061FEF8
:103EB000039908802000243000F05BFE04990880FC
:103EC000300000F047FE694648803D806846007A31
:103ED00002280ED16846418820006C3000F040FE78
:103EE0006946087068460078002802D06846007865
:103EF00005E04C4A0821002000F003F8002005B03E
:103F0000F0BDF8B507000E001500454800F031FE81
:103F10000400641C2B00320092B2390089B22000E8
:103F200080B200F014F8F2BDF8B507000E001500DD
:103F30003D4800F01EFE0400641C2B00320092B2CB
:103F4000390089B2200080B200F001F8F2BDFBB563
:103F500084B0150000242000C0B2052816D23048D5
:103F60002100C9B224225143401800F002FE6946E4
:103F7000088068460088002806D068460088401CF3
:103F80006946098A884201D0641CE4E72000C0B277
:103F9000052801D112203FE0214E2000C0B224218B
:103FA00048433018006A80886946898A2A0092B29C
:103FB0008918884201DA12202EE02000C0B22421A4
:103FC00048433018006A002801D1122024E028005C
:103FD00080B20290069801902000C0B2242148438C
:103FE0003018006A80686946898A4718029A0199E0
:103FF0003800FFF76BFE2000C0B224214843301880
:10400000006A0078800706D52000C0B2242148430A
:104010003018006A4580002007B0F0BDD4030020AE
:10402000200300204022041044030020F0B58BB090
:1040300007000E0015001C001AA800780A9019A8A5
:104040000078099018A80078089017A800780790C1
:1040500016A800780690694654200856059014A8C2
:10406000007804901398039012A80078029011A889
:10407000007801901098009023002A0092B231003D
:10408000C9B23800C0B208F029F90BB0F0BDF8B5DC
:1040900007000E0015001C0023002A0092B2310018
:1040A000C9B23800C0B208F0B7F9F2BD70B5060069
:1040B0000D00140022002900C9B23000C0B208F07F
:1040C000CFF970BD38B505000C002100C9B2280039
:1040D000C0B208F04BFA32BD80B508F05FFA02BDFD
:1040E00010B50400200080B208F07AFA10BD38B58F
:1040F00005000C00210089B22800C0B208F096FA31
:1041000031BD38B505000C002100C9B2280008F007
:10411000B1FA32BD38B505000C002100C9B2280043
:1041200008F0BCFA32BD10B504002000C0B208F09F
:1041300041FB10BD10B504002000C0B208F060FBC8
:1041400010BD38B505000C002100C9B22800C0B26E
:1041500008F07EFB31BD10B50400200080B208F0ED
:104160007EFB10BD38B505000C002100280008F0CA
:1041700077FB32BD70B506000D0014002200290047
:10418000C9B23000C0B208F085FB70BD10B50400A4
:104190002000C0B208F0A7FB10BD10B5040020003D
:1041A00008F0B2FB10BD80B508F0CAFB02BD10B527
:1041B00004002000C0B208F0EFFB10BD10B50400F1
:1041C000200080B208F00EFC10BD38B505000C00D0
:1041D0002100280008F00CFC32BD38B505000C00A9
:1041E0002100280008F02EFC32BD10B5040020008C
:1041F00080B208F049FC10BD10B50400200080B268
:1042000008F056FC10BD80B508F0BCFC02BD80B5BE
:1042100008F0BAFC02BD80B508F0B8FC02BD80B55C
:1042200008F0B6FC02BD80B508F0B4FC02BD80B554
:1042300008F0B2FC02BD38B505000C0021002800D2
:1042400008F0C6FC32BD38B505000C00210028007E
:1042500008F0EEFC32BD38B505000C002100280046
:1042600008F002FD32BD38B505000C002100280021
:1042700008F016FD32BD38B505000C0021002800FD
:1042800008F04EFD32BD38B505000C0021002800B5
:1042900008F08CFD32BD38B505000C002100280067
:1042A00008F0B4FD32BD38B505000C00210028002F
:1042B00008F0CAFD32BD38B505000C002100280009
:1042C00008F0DEFD32BD38B505000C0021002800E5
:1042D00008F0F4FD32BD38B505000C0021002800BF
:1042E00008F002FE32BD38B505000C0021002800A0
:1042F00008F018FE32BD38B505000C00210028007A
:1043000008F026FE32BD38B505000C00210028005B
:1043100008F03AFE32BD80B508F07CFE02BD10B553
:104320000400200008F0B0FE10BD80B508F0AEFE1D
:1043300002BD10B504002000C0B208F0A9FE10BDF7
:1043400038B505000C0021002800C0B208F0B2FE0C
:1043500031BD38B505000C0021002800C0B208F0BE
:10436000C1FE31BD10B504002000C0B208F0FAFE55
:1043700010BD10B504002000C0B208F049FF10BD08
:1043800010B50400200080B208F04AFF10BDFEB551
:1043900007000E0015001C000A9802900998019071
:1043A000089800902300DBB22A00D2B23100C9B2D3
:1043B000380008F053FFFEBDFEB507000E001500E3
:1043C0001C00099801900898009023002A00D2B29E
:1043D0003100C9B2380009F09FF8FEBDFEB50700F4
:1043E0000E0015001C0009A80078019008A80078AC
:1043F000009023002A00D2B23100C9B2380009F07F
:10440000C1F9FEBDF8B507000E0015001C00230021
:104410002A00D2B23100C9B23800C0B209F014FA91
:10442000F1BD80B509F09AFA01BD10B50400200075
:1044300009F0A8FA10BD38B505000C0021002800CD
:1044400009F03AFC32BD70B506000D0014002200E0
:104450002900C9B2300009F06FFC70BD80B509F0C9
:10446000BDFC02BD10B50400200009F0B9FC10BD70
:1044700038B505000C002100280009F02DFD32BDE3
:1044800038B505000C002100280009F046FD31BDBB
:1044900010B50400200009F04CFD10BD80B509F0F6
:1044A0006BFD02BDF8B507000E0015001C002300CF
:1044B000DBB22A00D2B23100C9B23800C0B209F072
:1044C0005DFDF1BD10B504002000C0B209F072FD21
:1044D00010BDF8B507000E0015001C0006980090EE
:1044E00023009BB22A003100380009F077FDF1BDAE
:1044F00038B505000C002100C9B2280009F024FEDF
:1045000031BD38B505000C002100C9B2280009F002
:10451000F1FE31BD10B504002000C0B209F00EFF5D
:1045200010BD38B505000C002100280009F050FF2F
:1045300031BD10B50400200080B209F057FF10BD56
:1045400080B509F0E7FF02BD38B505000C00210079
:10455000C9B2280009F0E0FF31BD80B50AF006F8C5
:1045600001BD80B50AF01EF801BD80B50AF030F833
:1045700001BD10B5040020000AF042F810BD10B5CE
:1045800004002000C0B20AF053F810BD10B50400BA
:1045900020000AF057F810BD80B50AF097F901BD68
:1045A00070B506000D0014002200D2B22900C9B275
:1045B0003000C0B20AF0ACF970BD80B50AF0DCF989
:1045C00002BD10B5040020000AF0DEF910BD10B5E0
:1045D000040020000AF0ECF910BD10B50400200022
:1045E0000AF0FAF910BD10B5040020000AF008FA2C
:1045F00010BD10B5040020000AF02CFA10BD80B5E3
:104600000AF0A2FB01BDF8B507000E0015001C0062
:104610006846007E00902300DBB22A00D2B231004F
:10462000C9B23800C0B20AF09DFBF1BD10B504005C
:104630002000C0B20AF0BEFB10BD38B505000C006A
:104640002100C9B228000AF0CDFB31BD70B50600CB
:104650000D001400220029003000C0B20AF036FC20
:1046600070BD10B504002000C0B20AF04DFC10BDB2
:1046700010B5040020000AF063FC10BD38B5050039
:104680000C002100C9B228000AF084FC32BD38B504
:1046900005000C00210028000AF0AAFC31BD10B56D
:1046A000040020000AF0DAFC10BD38B505000C004B
:1046B0002100C9B228000AF0F9FC31BD10B5040090
:1046C00020000AF03FFD10BD10B5040020000AF0E4
:1046D00040FD10BDFEB507000E0015001C00099836
:1046E000019008A8007800902300DBB22A00310076
:1046F00038000AF035FDFEBD70B506000D0014004F
:104700002200D2B2290030000AF024FE70BD10B59C
:1047100004002000C0B20AF06BFE10BD38B50500E1
:104720000C002100C9B22800C0B20AF0B9FE31BDA8
:1047300070B506000D0014002200D2B22900C9B2E3
:1047400030000AF019FF70BD10B5040020000AF017
:104750005BFF10BDF8B507000E0015001C0023001C
:10476000DBB22A00D2B23100C9B238000AF068FFC9
:10477000F1BD38B505000C00210028000AF0D0FF7B
:1047800032BD10B5040020000BF016F810BD10B5B6
:1047900004002000C0B20BF041F810BD80B50BF052
:1047A0006FF801BD80B50BF073F801BD80B50BF05B
:1047B00077F801BD80B50BF07BF801BD80B50BF03B
:1047C0007FF801BD80B50BF083F801BD10B5040082
:1047D0002000C0B20BF0BCF810BD10B504002000E2
:1047E0000BF0CAF810BD10B5040020000BF01CF946
:1047F00010BD10B50400200080B20BF06FF910BDA1
:1048000010B5040020000BF0FDF910BD10B5040038
:104810002000C0B20BF040FA10BD80B50BF07CFA5E
:1048200002BD10B504002000C0B20BF07FFA10BD2D
:1048300010B504002000C0B20BF0A8FA10BD70B58E
:1048400006000D0014002200290030000BF014FBBC
:1048500070BD10B5040020000BF048FB10BD38B54A
:1048600005000C00210028000BF07CFB31BD10B5C9
:10487000040020000BF0B6FB10BD38B505000C009D
:104880002100280080B20BF0E5FB32BD10B504001A
:1048900020000BF0F3FB10BD80B50BF0AFFC02BDA8
:1048A00038B505000C00210028000BF0A9FC32BD32
:1048B000F8B507000E0015001C0023009BB22A006B
:1048C00092B2310089B2380080B20BF0AFFCF2BD79
:1048D000F0B587B007000E0015001C0012A8007884
:1048E000069011A80078059010A8007804900FA8F1
:1048F000007803900EA8007802900DA8007801902F
:104900000CA8007800902300DBB22A00D2B231005C
:10491000C9B23800C0B20BF015FD07B0F0BD10B53C
:10492000040020000BF03EFD10BD10B50400200077
:104930000BF07CFD10BD10B5040020000BF026FE2E
:1049400010BD10B5040020000BF03AFE10BD10B5EC
:10495000040020000BF04CFE10BD10B50400200038
:104960000BF060FE10BD10B5040020000BF072FECD
:1049700010BD10B5040020000BF094FE10BD10B562
:10498000040020000BF0BCFE10BD10B50400200098
:104990000BF0D6FE10BD10B504002000C0B20BF025
:1049A00019FF10BD10B5040020000BF033FF10BD3F
:1049B00010B5040020000BF049FF10BD10B5040035
:1049C00020000BF071FF10BD10B50400200080B274
:1049D0000BF0A4FF10BD10B5040020000CF080F80F
:1049E00010BD10B5040020000CF092F810BD10B5F9
:1049F0000400200080B20CF0B3F810BD10B5040024
:104A0000200080B20CF0B0F810BD10B504002000FA
:104A10000CF070F910BD10B5040020000CF0C0F9C6
:104A200010BD10B5040020000CF0F2F910BD80B5E7
:104A30000CF026FA01BD80B50CF072FA01BD10B57C
:104A40000400200080B20CF0CFFA10BD10B50400B5
:104A5000200080B20CF0DAFA10BD10B5040020007E
:104A600080B20CF0F5FA10BD10B50400200080B241
:104A70000CF012FB10BD10B50400200080B20CF049
:104A8000C5FB10BD38B505000C002100C9B22800D7
:104A900080B20CF0D1FB32BD10B504002000C0B2D2
:104AA0000CF0CEFB10BDFEB507000E0015001C007B
:104AB0000AA80078029009A80078019008A8007858
:104AC00000902300DBB22A00D2B23100C9B2380014
:104AD000C0B20CF0BDFBFEBD38B505000C002100D6
:104AE000C9B2280080B20CF0F7FB32BD38B5050022
:104AF0000C002100280080B20CF0F6FB32BD38B566
:104B000005000C002100C9B2280080B20CF0F8FBAF
:104B100032BD80B50CF0FCFB02BDF8B507000E00FD
:104B200015001C0023002A003100C9B23800C0B2B1
:104B30000CF0F3FBF2BD38B505000C002100280095
:104B4000C0B20CF0F4FB32BD10B5040020000CF034
:104B5000FCFB10BD10B5040020000CF0FAFB10BDEA
:104B600038B505000C00210089B228000CF0F5FBD7
:104B700032BD10B5040020000CF0F3FB10BDFEB5F3
:104B800007000E0015001C00099801906846008C73
:104B900000902300DBB22A0092B2310089B23800C3
:104BA00080B20CF0E2FBFEBDFEB507000E00150062
:104BB0001C00099801906846008C00902300DBB22D
:104BC0002A0092B2310089B2380080B20CF0DCFBCE
:104BD000FEBD10B50400200080B20CF0DEFB10BD5D
:104BE00038B505000C00210089B2280080B20CF015
:104BF000D8FB32BDF8B507000E0015001C00684652
:104C0000008B009023009BB22A0092B2310089B23F
:104C1000380080B20CF0C9FBF2BDF8B507000E00F9
:104C200015001C002300DBB22A0092B2310089B2C9
:104C30003800C0B20CF0C6FBF2BD70B506000D0026
:104C4000140022002900300080B20CF0D1FB70BDAE
:104C5000F8B507000E0015001C006846008B009098
:104C60002300DBB22A00D2B23100C9B2380080B2D0
:104C70000CF0C7FBF2BD10B50400200080B20CF0B0
:104C8000CBFB10BD38B505000C002100C9B22800CF
:104C900080B20CF0CEFB32BDF8B507000E00150057
:104CA0001C0023002A00D2B2310089B2380080B241
:104CB0000CF0CEFBF2BDE0B501A908700122084658
:104CC00011460CF0D8FB002800D08CBD01A800785C
:104CD0000CF0EFFB8CBD1CB5044668460CF006FCDE
:104CE0000020082806D06946095C225C0A43225449
:104CF000401CF6E720460CF031FC1CBDF1B588B035
:104D000072480068069071480068089901406F4831
:104D100001606C48006802906D48006801906A4824
:104D2000006800906B4800680490684F02980099F2
:104D3000014038680840002869D001980499014072
:104D4000002964D100247B4DE000285800990140DF
:104D500038680840002801D1641CF4E7E0002858B6
:104D600000990140386808400390E0002818406826
:104D700003990140002904D10020C043E1006918D3
:104D80004860554F0399E00028184068084000F03B
:104D9000D3F838600121E000281842683B68080019
:104DA00098408243E00028184260EFF3108005909D
:104DB00072B6444802683B68080098408243414804
:104DC00002600226002E0DD0F00028180838026874
:104DD0003B68080098408243F000281808380260B9
:104DE000761EEFE7059880F310883C483968890003
:104DF0004058804733480068029035480068019069
:104E00003148006800903348006804908DE7002026
:104E1000C043314908602F4C0198216801400029A6
:104E20001FD104F06FFBEFF3108572B625480068C0
:104E3000029027480068019023480068009002987B
:104E40000099014038680840002806D1019821687F
:104E50000140002901D104F056FB85F310880CF0C5
:104E60008DFB0698386009B0F0BDF8B504000F005E
:104E70001500EFF3108672B6200000F05DF8800098
:104E800016490D5086F31088F1BD30B4EFF310824F
:104E900072B60C4B1C6804431C60264BCC001C599A
:104EA0000443CD005C5182F3108830BC7047EFF3AF
:104EB000108172B6064A13680343136081F31088A9
:104EC000704700009C10002044040020480400208B
:104ED000A0100020A4100020A81000209C0B00208F
:104EE000FEB50400244E3068009030680021C943AC
:104EF000884201D1002502E00125306885401F4F1E
:104F0000386801903C601E4801682140002904D1A6
:104F1000210028000CF033FBF5E700993160EFF336
:104F2000108172B60268A243026081F31088019872
:104F30003860F7BD0C10002010B5010000200A00F9
:104F4000130C1B04002B02D1102318001204130EA3
:104F50001B06002B01D108301202130F1B07002B78
:104F600001D1001D1201074B140F1B5DC0181F2338
:104F7000181AC0B210BD0000A8100020A410002014
:104F8000A0100020C824041070477047704780B5F7
:104F90000CF0FCFA80BD704700B5010049B2002951
:104FA00005D40121C206D20E91408D4A116000BD88
:104FB000C1680322914302220A43C2607047C1685C
:104FC00003229143C160704700B5C0688007800F1D
:104FD000022801D1012000E0002000BDC1680322A9
:104FE0009143C160704700B5C0688007800F0328F7
:104FF00001D1012000E0002000BD0161704700697F
:105000007047816A8022D2050A4382627047816AB2
:10501000744A0A4082627047816A08004000C00FEB
:105020007047016B8022D2050A4302637047016B0F
:105030006C4A0A40026370470A00D2B2826070472D
:1050400041627047406A7047C162704700697047AB
:10505000816A802292050A43826270477047816CA0
:1050600001220A4382647047C16C01220A43C26470
:105070007047C16C0800C007C00F7047416070479F
:1050800000218160704780687047C068704701697F
:1050900001220A430261704701690800C007C00F7E
:1050A0007047F1B5BD48FFF7DFFFBC48FFF7D7FFFA
:1050B0001720FFF771FF1420FFF76EFF009840687C
:1050C000002801D0012000E00020B54C207020789D
:1050D000002803D100988078002802D000F03AFB25
:1050E00009E0C82040032062E061B348A061B348F2
:1050F0002061B348606100984068002805D1A02075
:10510000C00500F089FA606014E0251D0098406831
:1051100000030A210CF087FA2860AA4E300000F044
:105120007BFA6168814201D2606802E0300000F0E1
:1051300073FA28606420A06000252800207300987E
:105140000088A066A169A06E80B200F0E9FB28008B
:105150008421605400260027266767678F48FFF781
:1051600075FF80216050A667E76720002830C0C027
:105170000838280034216054934AA16960680CF013
:10518000A9FA20632078942160548C2025500120B6
:10519000902160542800932160542800912160548C
:1051A0002800922160542800612160542800622167
:1051B0006054280063216054A665E7658348A064B5
:1051C000656500F032FA6268002312184B41200036
:1051D000403000F0D8FB0121200000F02FFBF1BD92
:1051E00000E100E0FFFFFFBFFEB500206946087048
:1051F000EFF31080029072B6694C6120205C0028A9
:105200000BD000F012FAA26DE36D8B4205D801D3EA
:10521000824202D2002061216054029880F31088FB
:105220002500913528789221615C884204D3287842
:105230009221615C401A06E028789221615C401A54
:10524000802149004018002847D028789221615CCD
:10525000884206D328789221615C401A69464870DA
:1052600005E028789221615C401A6946487001A9DE
:105270008C20205800F0C4FC8C216050019F002F2E
:105280000AD03E6900203873B868002802D0380080
:10529000B96888473700F2E7B14E6946306800F0D8
:1052A000F3FB30606846007801280FD1EFF31080DF
:1052B00072B62978491C9222A25C914201D12978C8
:1052C00001E02978491C297080F31088A5480178ED
:1052D0006A46527889180170A2E7207B002843D0E3
:1052E000A148FFF7D9FE002857D0002108002073FD
:1052F0009420205C002806D1200093300278002AF8
:1053000001D001701CE000F0ACFC26008C36694630
:10531000306800F0B9FB30606846007801280FD192
:10532000EFF3108072B62978491C9222A25C914258
:1053300001D1297801E02978491C297080F310886F
:1053400069462000583000F0F9FC2500403528005F
:1053500000F0B0F900F069F96268002312184B41BF
:10536000280000F010FB18E02078002815D000F08D
:105370005CF9220028320CCAFA2676030027B618F8
:105380005F418F4209D801D3864206D240342000C3
:1053900000F090F9200000F0DEFAF7BD0018006080
:1053A000700A002010B5040021009A48006800F03F
:1053B000D1FD10BD00000000C2F528008D5B00008B
:1053C000ECEB6501FFEFFFFF2603000057590410C7
:1053D000F8B586B000F0D5FD002801D1002080E0AE
:1053E000032600F022F904AA03C2083A02A800F03A
:1053F000D8FD07005D4A6120105C002803D16220BF
:10540000105C002803D03800C0B2012803D163200B
:10541000105C00281ED0906DD16D0090019104A801
:1054200030C808388420105C002100196941946E4E
:10543000002524184D41002052344541009801991F
:10544000A94204D801D3A04201D2012049E00220A0
:10545000060009E03800C0B2022803D03800C0B20C
:10546000012801D101203CE013008C33186800288A
:1054700035D01868007B002831D0186803C8009028
:10548000019104A803C804000D00906E00210019CA
:105490006941002452306141009C019D8D4204D835
:1054A00001D3844201D201201BE03000C0B20328A6
:1054B00013D11868006900280FD118681100403115
:1054C00088420AD1012093215054002000F05EFB55
:1054D0004248FFF7ACFD032003E002200600300045
:1054E000C0B207B0F0BDF5B583B00F000024684628
:1054F00004723800C0B2002801D0012000E0200072
:105500001A4D642168546846007C002801D00120AF
:1055100000E02000602168548D4E2800283003C828
:1055200000900191039A2800283003C8101A002126
:10553000009A019B8018594103C6083E61202C54F3
:1055400063202C5401206221685402A9300000F02D
:10555000F5FB012000F01AFB6846007A05B0F0BDAB
:10556000FC0A0020020B002000100060700A0020DE
:1055700070B5C024E4052000FFF721FD2000FFF7EF
:105580002DFD1648FFF743FD0024AB4D61202C5440
:1055900062202C5463202C54EFF3108672B600F076
:1055A00044F8AA6DEB6D121A8B418420285C00210F
:1055B000121A8B4186F31088002B04DC01DB012AD0
:1055C00001D2012007E0002B04DC01DB0F2A01D20D
:1055D000022000E02000C0B270BD00000018006092
:1055E00070B5EFF3108672B67148FFF72FFD040017
:1055F000C025ED052100891C2800FFF7FEFC2800CE
:10560000FFF7D6FC86F3108870BD70470020B149C3
:10561000087070471400006010B50400634A8648A3
:10562000C16920000CF056F810BD80B5694682486B
:1056300000F0E2F904BD00B5801A99410A22002366
:105640000CF06AF8000B0A051043090B00BDF2B517
:1056500082B00700029C0025FFF7E7FF0090019150
:10566000200029000903020D114300030A22002330
:105670000CF06BF8009A019B8018594102000B0056
:10568000380000F080F90600012000F07FFAF6B241
:105690003000FEBDF8B5070014001D0022002B00ED
:1056A000380000F070F90600012000F06FFAF6B241
:1056B0003000F2BDF8B50600874C27008C3731006A
:1056C000386800F087FA05000020694608703073DA
:1056D0003868A8421BD06946280000F0D5F9386028
:1056E00068460078002813D0EFF3108072B62100CE
:1056F00091310A78521C9223E35C9A4201D10A78D4
:1057000001E00A78521C0A7080F3108800E03D60C6
:10571000F1BD1CB5002000900098254C2000FFF73B
:1057200086FC6D48010091310A78521C9223C05CBE
:10573000824201D1087801E00878401C08702000FE
:10574000FFF792FC2000FFF794FC009013BD0000CF
:10575000C80A002010B5C84C2000FFF79DFC0028A7
:10576000F9D017212000FFF789FC334C20001030BE
:1057700000F00EF8E069206210BD000010B5BE4CCC
:105780002000FFF784FC2000FFF77AFC10BD00002A
:1057900010B50400FFF7F2FFB748FFF77DFC0028C3
:1057A000FAD0200000F006F810BD00003506000019
:1057B00000180060F1B584B0AF4C2000FFF763FC27
:1057C00005002000FFF75FFC854201D1002D04D1C8
:1057D0002000FFF758FC0500F3E7A84F28120290BD
:1057E000E8B2019002987843019979430912401870
:1057F000103040110499C86004980560A0480090DA
:105800002000FFF742FC06002000FFF73EFC864226
:1058100001D1002E04D12000FFF737FC0600F3E78A
:10582000B011009941430A0080321212049B9A6021
:10583000049A566005B0F0BD700A0020F8B5050066
:105840000F0090480078C0B27D214843FA218900BA
:105850000BF0E6FE0400641CB84AA9691B200BF09B
:1058600039FFB7490870B7480078C0B200F03FF878
:105870003D216854B44E30782100C9B2401800F080
:1058800036F838216854B1480078C0B22100C9B256
:10589000401800F02CF839216854AD480078C0B2A7
:1058A00000F025F83A216854C6480078C0B200F0EC
:1058B0001EF83B2168543800C0B2002808D0307868
:1058C0002100C9B2401800F009F81B303C2168548F
:1058D000F1BD0000D30A0020700A002001006820FA
:1058E0004843DB224A43000A120C8018704738B53F
:1058F0000400B54840690021220000230BF00CFF92
:10590000032200230BF008FF02000B008020C004DC
:10591000002180185941C00E4D012843C90E32BDE7
:1059200070B506000C00854A2100300080B20BF0F3
:10593000D1FE050080204001854201DBA34805001F
:10594000102D01DA1020050028110100C9B2A0486D
:10595000FFF772FB70BD38B505009B4C207B00281B
:1059600006D12078002801D0FFF708FF012020731E
:10597000FFF75BFEA268002312184B412000403065
:1059800000F001F831BDF8B5040016001F0000203A
:1059900069460870207B002801D0012028E0C0C49F
:1059A000083C01202073134D2100286800F0D2F834
:1059B000A0421BD16946200000F066F828606846C6
:1059C0000078002812D0EFF3108072B67E4B1900D9
:1059D00091310A78521C92255B5D9A4201D10A7876
:1059E00001E00A78521C0A7080F31088684600783B
:1059F000F2BD0000FC0A0020F2B584B00600EFF30F
:105A00001080019072B6306F716F02AA03C2083A1B
:105A10006F48FFF71BFB0499086004980068802119
:105A20007158401A0090C34F02A830C808383A0095
:105A3000F16900980BF04EFE002100196941040045
:105A40000D00B06FF16F8D420DD801D384420AD2A0
:105A50003A00F1690020C0430BF03CFE0021001920
:105A6000694104000D00B467F567019880F3108860
:105A70002000290005B0F0BD00100060F6BC080051
:105A800053070000CE000020F8B584B006000D00DA
:105A90003400009600202870002C26D0207B00289F
:105AA00021D0EFF3108772B6FFF7BFFD02000B00A5
:105AB00003CC083C801A994102AA03C2083A02A802
:105AC00003C800290ADB01DC012807D301210A00F1
:105AD00002A803C8110000F010F801E001202870AE
