:020000041004E6
:1000000000000120A5CE06102DDD061035DD0610FE
:1000100000000000000000000000000000000000E0
:100020000000000000000000000000003DDD0610A0
:1000300000000000000000003FDD061041DD06105A
:10004000DB1F0510E3210510033805100F580510BC
:10005000000000000000000000000000FB58051038
:1000600049DD0610935D05102F5E05104B6C0510E1
:100070003F6D051065DD06100000000099DD0610DB
:10008000837305100B77051089DD06100000000052
:1000900081DD0610000000000000000079DD061080
:1000A0002F78051091DD0610177905104B7F05108C
:1000B000C3800510000000000000000000000000E8
:1000C000201700209E3600000600010400003200C8
:1000D000F7000000FFFFFFFF6400011008000103AC
:1000E000F70001000001010202020200000100030A
:1000F000000400004572726F7220696E20424C4508
:100100005F535441434B5F496E697428292030780E
:10011000253032780D0A000020204661696C2020CD
:10012000203A206163695F68616C5F77726974650A
:100130005F636F6E6669675F6461746120636F6D92
:100140006D616E64202D20434F4E4649475F444108
:1001500054415F505542414444525F4F46465345D7
:10016000542C20726573756C743A203078253032C7
:10017000580A00002020537563636573733A206149
:1001800063695F68616C5F77726974655F636F6EE6
:100190006669675F6461746120636F6D6D616E6431
:1001A000202D20434F4E4649475F444154415F5004
:1001B0005542414444525F4F46465345540A00005D
:1001C00020204661696C2020203A206163695F68C5
:1001D000616C5F7365745F74785F706F7765725F71
:1001E0006C6576656C20636F6D6D616E642C20723A
:1001F0006573756C743A203078253032580A0000E7
:100200002020537563636573733A206163695F6887
:10021000616C5F7365745F74785F706F7765725F30
:100220006C6576656C20636F6D6D616E640A0000AD
:1002300020204661696C2020203A206163695F6755
:100240006174745F7372765F70726F66696C655FFC
:10025000696E697420636F6D6D616E642C207265C8
:1002600073756C743A203078253032580A000000DB
:100270002020537563636573733A206163695F6718
:100280006174745F7372765F70726F66696C655FBC
:10029000696E697420636F6D6D616E640A000000A1
:1002A00020204661696C2020203A206163695F67E5
:1002B00061705F696E697420636F6D6D616E642C2F
:1002C00020726573756C743A203078253032580A84
:1002D000000000002020537563636573733A20614A
:1002E00063695F6761705F696E697420636F6D6DCC
:1002F000616E640A0000000020205075626C696322
:1003000020426C7565746F6F746820416464726517
:1003100073733A20253032783A253032783A2530D6
:1003200032783A253032783A253032783A253032F0
:10033000780A000020204661696C2020203A20477E
:1003400061705F70726F66696C655F7365745F641E
:1003500065765F6E616D65202D2044657669636505
:10036000204E616D652C20726573756C743A203077
:1003700078253032580A0000202053756363657376
:10038000733A204761705F70726F66696C655F7366
:1003900065745F6465765F6E616D65202D204465D0
:1003A00076696365204E616D650A00002020466114
:1003B000696C2020203A204761705F70726F666917
:1003C0006C655F7365745F617070656172616E63A7
:1003D00065202D20417070656172616E63652C200F
:1003E000726573756C743A203078253032580A0083
:1003F0002020537563636573733A204761705F70A3
:10040000726F66696C655F7365745F61707065615A
:1004100072616E6365202D20417070656172616E3E
:1004200063650A0020204661696C2020203A20681C
:1004300063695F6C655F7365745F64656661756C45
:10044000745F70687920636F6D6D616E642C2072CB
:100450006573756C743A203078253032580A000084
:100460002020537563636573733A206863695F6C1A
:10047000655F7365745F64656661756C745F7068F1
:100480007920636F6D6D616E640A00002020466103
:10049000696C2020203A206163695F6761705F7337
:1004A00065745F696F5F6361706162696C697479BB
:1004B00020636F6D6D616E642C20726573756C7452
:1004C0003A203078253032580A0000002020537539
:1004D00063636573733A206163695F6761705F731B
:1004E00065745F696F5F6361706162696C6974797B
:1004F00020636F6D6D616E640A000000202046610C
:10050000696C2020203A206163695F6761705F73C6
:1005100065745F73656375726974795F726571750F
:100520006972656D656E747320636F6D6D616E6465
:100530002C20726573756C743A20307825303258EF
:100540000A0000002020537563636573733A2061CD
:1005500063695F6761705F7365745F73656375720C
:100560006974795F726571756972656D656E7473B2
:1005700020636F6D6D616E640A000000202046618B
:10058000696C2020203A206163695F6761705F6356
:100590006F6E6669677572655F66696C7465725FB8
:1005A0006163636570745F616E645F7265736F6CC5
:1005B00076696E675F6C69737420636F6D6D616ED1
:1005C000642C20726573756C743A20307825303253
:1005D000580A00002020537563636573733A2061E5
:1005E00063695F6761705F636F6E66696775726587
:1005F0005F66696C7465725F6163636570745F6187
:100600006E645F7265736F6C76696E675F6C697339
:100610007420636F6D6D616E640A00002020466176
:10062000696C2020203A206863695F6C655F7365A0
:10063000745F6576656E745F6D61736B20636F6D5B
:100640006D616E642C20726573756C743A2030781D
:10065000253032580A00000020205375636365730B
:10066000733A206863695F6C655F7365745F657674
:10067000656E745F6D61736B20636F6D6D616E6429
:100680000A00000020204661696C2020203A206189
:1006900063695F68616C5F7365745F726164696FE1
:1006A0005F61637469766974795F6D61736B2063F0
:1006B0006F6D6D616E642C20726573756C743A2079
:1006C00030782532580A0000202053756363657323
:1006D000733A206163695F68616C5F7365745F7210
:1006E0006164696F5F61637469766974795F6D6174
:1006F000736B20636F6D6D616E640A0D0000000006
:100700003E3E3D3D204843495F444953434F4E4E92
:10071000454354494F4E5F434F4D504C4554455F00
:100720004556545F434F44450A00000020202020D6
:10073000202D20436F6E6E656374696F6E20486173
:100740006E646C653A2020203078253032580A20BB
:10075000202020202D20526561736F6E3A202020CA
:10076000203078253032580A000000003E3E3D3DE2
:10077000204843495F4C455F434F4E4E45435449E3
:100780004F4E5F5550444154455F434F4D504C458B
:1007900054455F5355424556545F434F44450A0004
:1007A00020202020202D20436F6E6E656374696FBA
:1007B0006E20496E74657276616C3A202020256443
:1007C0002E25303264206D730A20202020202D2019
:1007D000436F6E6E656374696F6E206C6174656ED5
:1007E00063793A2020202025640A20202020202D13
:1007F000205375706572766973696F6E2054696DE8
:10080000656F75743A2020202564206D730A0000FE
:100810004843495F4C455F504552494F4449435F07
:100820004144564552544953494E475F53594E43EC
:100830005F5452414E534645525F524543454956D7
:1008400045445F56320A00004843495F4C455F50BB
:100850004552494F4449435F4144564552544953D8
:10086000494E475F53594E435F4C4F53540A000063
:100870003E3E3D3D204143495F4741505F50524F0E
:10088000435F434F4D504C4554455F565345565476
:100890005F434F44450A00003E3E3D3D20414349F1
:1008A0005F4741505F4B455950524553535F4E4F40
:1008B00054494649434154494F4E5F565345565457
:1008C0005F434F44450A00003E3E3D3D20414349C1
:1008D0005F4741505F504153534B45595F5245511B
:1008E0005F56534556545F434F44450A000000008D
:1008F0003D3D3E3E206163695F6761705F7061737B
:10090000736B65795F72657370203A204661696C1C
:100910002C20726561736F6E3A2030782530325822
:100920000A0000003D3D3E3E206163695F676170E3
:100930005F706173736B65795F72657370203A20C5
:10094000537563636573730A000000003E3E3D3DCE
:10095000204143495F4741505F4E554D4552494301
:100960005F434F4D50415249534F4E5F56414C5596
:10097000455F56534556545F434F44450A000000B7
:100980003D3D3E3E206163695F6761705F6E756DDE
:10099000657269635F636F6D70617269736F6E5FBB
:1009A00076616C75655F636F6E6669726D5F7965A0
:1009B000736E6F203A204661696C2C2072656173FA
:1009C0006F6E3A203078253032580A003D3D3E3E69
:1009D000206163695F6761705F6E756D65726963E1
:1009E0005F636F6D70617269736F6E5F76616C7556
:1009F000655F636F6E6669726D5F7965736E6F2098
:100A00003A20537563636573730A00003E3E3D3DB3
:100A1000204143495F4741505F50414952494E4749
:100A20005F434F4D504C4554455F56534556545FB8
:100A3000434F44450A00000020202020202D205054
:100A4000616972696E67204B4F0A20202020202D9B
:100A5000205374617475733A203078253032580A07
:100A600020202020202D20526561736F6E3A2030A7
:100A700078253032580A00003E3E3D3D20686369CB
:100A80005F6C655F636F6E6E656374696F6E5F63E5
:100A90006F6D706C6574655F6576656E74202D2072
:100AA000436F6E6E656374696F6E2068616E646C0F
:100AB000653A203078253034580A00002020202064
:100AC000202D20436F6E6E656374696F6E206573B1
:100AD0007461626C6973686564207769746820402A
:100AE0003A253032783A253032783A253032783A21
:100AF000253032783A253032783A253032780A007B
:100B000020202020202D20436F6E6E656374696F56
:100B10006E20496E74657276616C3A2020202564DF
:100B20002E25303264206D730A20202020202D20B5
:100B3000436F6E6E656374696F6E206C6174656E71
:100B400063793A2020202025640A20202020202DAF
:100B5000205375706572766973696F6E2054696D84
:100B6000656F75743A202564206D730A00000000DB
:100B70006863695F6C655F726561645F7068792046
:100B80006661696C7572653A20726561736F6E3D5E
:100B90003078253032580A003D3D3E3E206863697A
:100BA0005F6C655F7365745F706879205048592089
:100BB000506172616D202054583D2025642C2052D4
:100BC000583D202564202D20000000006163695FEE
:100BD0006761705F7465726D696E617465206661CE
:100BE000696C7572653A20726561736F6E3D30781D
:100BF000253032580A0000003D3D3E3E20616369C9
:100C00005F6761705F7465726D696E617465203ACB
:100C100020537563636573730A0000006163695F45
:100C2000676174745F636C745F65786368616E6735
:100C3000655F636F6E666967206661696C75726572
:100C40003A20726561736F6E3D3078253032580AF4
:100C5000000000003D3D3E3E206163695F676174B6
:100C6000745F636C745F65786368616E67655F630A
:100C70006F6E666967203A20537563636573730A04
:100C8000000000003D3D3E3E206163695F6761708A
:100C90005F7365745F6164766572746973696E67AA
:100CA0005F636F6E66696775726174696F6E202D20
:100CB000206661696C2C20726573756C743A203003
:100CC00078253032580A00003D3D3E3E2053756382
:100CD000636573733A206163695F6761705F736511
:100CE000745F6164766572746973696E675F636F60
:100CF0006E66696775726174696F6E0A0000000044
:100D00003D3D3E3E206163695F6761705F7365745E
:100D10005F6164766572746973696E675F6461743C
:100D200061204661696C65642C20726573756C7412
:100D30003A203078253032580A0000003D3D3E3ED2
:100D400020537563636573733A206163695F6761FC
:100D5000705F7365745F6164766572746973696EE0
:100D6000675F646174610A003D3D3E3E20616369D6
:100D70005F6761705F7365745F61647665727469E3
:100D800073696E675F656E61626C65204661696C50
:100D900065642C20726573756C743A203078253048
:100DA00032580A003D3D3E3E2053756363657373C0
:100DB0003A206163695F6761705F7365745F616446
:100DC000766572746973696E675F656E61626C6582
:100DD0000A00000044697361626C65206164766595
:100DE00072746973696E67202D206661696C2C20AE
:100DF000726573756C743A203078253032580A0069
:100E00003D3D3E3E2044697361626C6520616476BD
:100E10006572746973696E67202D2053756363650D
:100E200073730A006163695F6C326361705F636F43
:100E30006E6E656374696F6E5F706172616D65740B
:100E400065725F7570646174655F726571202D20D5
:100E50006661696C2C20726573756C743A20307809
:100E6000253032580A0000003D3D3E3E2061636956
:100E70005F6C326361705F636F6E6E656374696F20
:100E80006E5F706172616D657465725F75706461CB
:100E900074655F726571202D20537563636573738C
:100EA0000A00000000000000000000000000000038
:100EB0000000000000000000000000000000000032
:100EC0000000000000000000000000000000000022
:100ED0000000000000000000000000000000000012
:100EE0000000000000000000000000000000000002
:100EF00000000000000000000000000000000000F2
:100F000000000000000000000000000000000000E1
:100F100000000000000000000000000000000000D1
:100F200000000000000000000000000000000000C1
:100F300000000000000000000000000000000000B1
:100F400000000000000000000000000000000000A1
:100F50000000000000000000000000000000000091
:100F60000000000000000000000000000000000081
:100F70000000000000000000000000000000000071
:100F80000000000000000000000000000000000061
:100F90000000000000000000000000000000000051
:100FA0000000000000000000000000000000000041
:100FB0000000000000000000000000000000000031
:100FC0000000000000000000000000000000000021
:100FD0000000000000000000000000000000000011
:100FE0000000000000000000000000000000000001
:100FF00000000000000000000000000000000000F1
:1010000000000000000000000000000000000000E0
:1010100000000000000000000000000000000000D0
:1010200000000000000000000000000000000000C0
:101030000000000000000000000000000000007C34
:1010400000000001FF80000003FFC0000003FFC09C
:10105000000003FFC0000003FFC0000003FFC0004A
:101060000003FFC0000003FFC0000003FFC000003A
:1010700001FF80000001FF80000001FF80000001EF
:10108000FF80000001FF80000001FF00000000FF62
:1010900000000000FF00000000FF00000000FF0053
:1010A000000000FF00000000FE000000007E0000C5
:1010B00000007E000000007E000000007E000000B6
:1010C000007E000000003C000000003C000000002A
:1010D0000000000000000000000000000000000010
:1010E000000000003C00000000FF00000001FF8045
:1010F000000001FF80000001FF80000001FF800070
:101100000001FF80000001FF80000001FF8000005F
:1011100000FF000000003C00000000000000000094
:1011200000000000000000000000000000000000BF
:1011300000000000000000000000000000000000AF
:10114000000000000000000000000000000000009F
:10115000000000000000000000000000000000008F
:10116000000000000000000000000000000000007F
:10117000000000000000000000000000000000006F
:10118000000000000000000000000000000000005F
:101190000000000000000000000000007F0FE000E1
:1011A000007F0FE000003F0FE000003F0FE0000075
:1011B0003F0FC000003F07C000003F07C000003ED7
:1011C00007C000003E07C000001E07C000001E0749
:1011D0008000001E078000001E038000001E0380A8
:1011E00000001C038000001C038000000C03800032
:1011F000000C0300000000000000000000000000E0
:1012000000000000000000000000000000000000DE
:1012100000000000000000000000000000000000CE
:1012200000000000000000000000000000000000BE
:1012300000000000000000000000000000000000AE
:10124000000000000000000000000000000000009E
:10125000000000000000000000000000000000008E
:10126000000000000000000000000000000000007E
:10127000000000000000000000000000000000006E
:10128000000000000000000000000000000000005E
:10129000000000000000000000000000000000004E
:1012A000000000000000000000000000000000003E
:1012B000000000000000000000000000000000002E
:1012C000000000000000000000000000000000001E
:1012D000000000000000000000000000000000000E
:1012E00000000000000000000000000000000000FE
:1012F00000000000000000000000000000000000EE
:101300000000000000007F01FC00007F01FC0000E5
:101310007F03F80000FE03F80000FE03F80000FE63
:1013200003F80000FE03F80000FE03F80000FC07CD
:10133000F00001FC07F00001FC07F000FFFFFFFFD9
:1013400000FFFFFFFF00FFFFFFFF00FFFFFFFF00A9
:1013500003F80FE00003F80FE00003F80FE00003CC
:10136000F80FE00003F81FC00007F01FC00007F0EF
:101370001FC00007F01FC00007F01FC003FFFFFFE2
:10138000FF03FFFFFFFF03FFFFFFFF03FFFFFFFF61
:10139000000FE03F80000FE03F80000FE07F000083
:1013A0001FC07F00001FC07F00001FC07F00001F04
:1013B000C07F00001FC07F00001FC0FE00003F80F4
:1013C000FE00003F80FE0000000000000000000062
:1013D000000000000000000000000000000000000D
:1013E00000000000000000000000000000000000FD
:1013F00000000000000000000000000000000000ED
:1014000000000000000000000000000000000000DC
:1014100000000000000000000000000000000000CC
:1014200000000000000000000000000000000000BC
:1014300000000000000000000000000000000000AC
:10144000003000000000300000000030000000000C
:1014500030000000007C00000007FFE000003FFFBC
:10146000F800007FFFFE0000FC30FE0001F8303F76
:101470000003F0301F8003F0300F8007F03007C00A
:1014800007F03007C007F03007C00FF03007C00F7B
:10149000F83007C00FFC3007C00FFE3000000FFF10
:1014A000F0000007FFF0000007FFFC000007FFFF4F
:1014B000800007FFFFE00003FFFFF80001FFFFFED1
:1014C0000001FFFFFF0000FFFFFF80007FFFFFC064
:1014D000001FFFFFC00007FFFFE00001FFFFE0006B
:1014E000007FFFF000003FFFF001C033FFF00F80EE
:1014F00030FFF00F80307FF00F80303FF00F8030F2
:101500003FF00F80303FF00F80303FE00FC0303FA2
:10151000E007C0303FC007E0303F8003F0307F80FD
:1015200001F831FE0000FFFFFC00003FFFF000006B
:101530000FFF0000000070000000003000000000FD
:1015400030000000003000000000300000000030DB
:10155000000000000000000000000000000000008B
:10156000000000000000000000000000000000007B
:10157000000000000000000000000000000000006B
:10158000000000000000000000000000000000005B
:10159000000000000000000000000000000000004B
:1015A000000000000000000000000000000000003B
:1015B000000000000000007C00007803FF8000783D
:1015C0000FC7C000F01F87E000F01F87F001F03F59
:1015D00083F001E03F83F803E03F83F803C03F83DB
:1015E000F803C07F83F807807F83F807807F83F844
:1015F0000F007F83F80F007F83F81E003F83F81EE3
:10160000003F83F83C003F83F83C003F83F07800C4
:101610001F87F078001F87E0F0000FC7C0F00003BD
:10162000FF81F000007C01E00F000003E03F0000BC
:1016300003C0FC000003C1F800000781F8000007A8
:1016400083F800000F03F800000F03F800001E07E6
:10165000F000001E07F000003C07F000003C07F01F
:1016600000007807F000007807F00000F803F800A9
:1016700000F003F80001F003F80001E001F80003B6
:10168000E001F80003C000FC0003C0003F00078039
:10169000000F00000000000000000000000000003B
:1016A000000000000000000000000000000000003A
:1016B000000000000000000000000000000000002A
:1016C000000000000000000000000000000000001A
:1016D000000000000000000000000000000000000A
:1016E00000000000000000000000000000000000FA
:1016F00000000000000000000000000000000000EA
:1017000000000000000000000000000000000000D9
:101710000000000000003F00000001FFE0000007A3
:10172000FFF000000FFFF800001FE07C00003FE02A
:101730003C00003FC03C00003FC01C00007FC01CBC
:1017400000007FE01C00007FE01C00007FF03C00F8
:10175000007FF83C00003FF87800003FFCF80000F4
:101760003FFFF007001FFFE007000FFF800F000F93
:10177000FF800F0007FF800F001FFFC00E007FFFDC
:10178000C00E00FFFFE01E03F9FFF01E07F0FFF0A0
:101790001C0FE07FF83C1FE07FFC381FE03FFC7827
:1017A0003FE03FFE703FE01FFFF03FE00FFFE03FF4
:1017B000F00FFFE03FF007FFC03FF803FFC03FF826
:1017C00003FFE03FFC01FFE01FFE01FFF01FFE00F2
:1017D000FFF80FFF00FFF80FFFC1FFFC07FFFFFF3F
:1017E000FC01FFFF9FFE00FFFF1FFF003FFC0FFFFC
:1017F0000007E00000000000000000000000000002
:1018000000000000000000000000000000000000D8
:1018100000000000000000000000000000000000C8
:1018200000000000000000000000000000000000B8
:1018300000000000000000000000000000000000A8
:101840000000000000000000000000000000000098
:101850000000000000000000000000000000000088
:101860000000000000000000000000000000000078
:1018700000007F000000007F000000003F0000002B
:10188000003F000000003F000000003F000000009B
:101890003F000000003E000000003E000000001E6F
:1018A000000000001E000000001E000000001E00DE
:1018B0000000001E000000001C000000001C0000D2
:1018C00000000C000000000C000000000000000000
:1018D0000000000000000000000000000000000008
:1018E00000000000000000000000000000000000F8
:1018F00000000000000000000000000000000000E8
:1019000000000000000000000000000000000000D7
:1019100000000000000000000000000000000000C7
:1019200000000000000000000000000000000000B7
:1019300000000000000000000000000000000000A7
:101940000000000000000000000000000000000097
:101950000000000000000000000000000000000087
:101960000000000000000000000000000000000077
:101970000000000000000000000000000000000067
:101980000000000000000000000000000000000057
:101990000000000000000000000000000000000047
:1019A0000000000000000000000000000000000037
:1019B0000000000000000000000000000000000027
:1019C000000000000000000000000000000C00000B
:1019D00000001C000000007C00000001FC00000072
:1019E00003F800000007F00000000FF00000001FE7
:1019F000E00000003FC00000007FC0000000FF804A
:101A0000000000FF80000001FF00000003FF000055
:101A10000003FF00000007FE00000007FE000000BA
:101A200007FE0000000FFC0000000FFC0000000F8C
:101A3000FC0000000FFC0000000FFC0000001FF87D
:101A40000000001FF80000001FF80000001FF80051
:101A500000001FF80000001FF80000001FF8000041
:101A6000001FF80000001FF80000001FF800000031
:101A70001FF80000000FF80000000FFC0000000F2E
:101A8000FC0000000FFC0000000FFC00000007FC41
:101A900000000007FC00000007FE00000003FE003D
:101AA000000003FE00000001FF00000000FF000036
:101AB0000000FF800000007F800000003FC00000A9
:101AC000001FC00000000FE000000007E000000061
:101AD00003F000000001F8000000007C000000009E
:101AE0003C000000000C00000000000000000000AE
:101AF00000000000000000000000000000000000E6
:101B000000000000000000000000000000000000D5
:101B100000000000000000000000000000000000C5
:101B200000000000000000000010000000001C0089
:101B30000000001F000000000F800000000FE00008
:101B4000000007F000000003F800000003FC0000A4
:101B50000001FE00000000FF00000000FF00000088
:101B600000FF800000007FC00000007FC000000078
:101B70003FE00000003FE00000003FF00000003FB9
:101B8000F00000001FF00000001FF00000001FF830
:101B90000000001FF80000001FF80000001FF80000
:101BA00000001FF80000001FF80000001FF80000F0
:101BB000001FF80000001FF80000001FF8000000E0
:101BC0001FF80000001FF80000001FF80000001FB1
:101BD000F80000001FF80000001FF80000001FF8C8
:101BE0000000003FF00000003FF00000003FF00068
:101BF00000003FF00000007FE00000007FE00000F8
:101C0000007FC0000000FFC0000000FF8000000156
:101C1000FF00000001FF00000003FE00000003FCC5
:101C200000000007F80000000FF00000001FE000B7
:101C300000001F800000001F000000001C000000CA
:101C40000010000000000000000000000000000084
:101C50000000000000000000000000000000000084
:101C60000000000000000000000000000000000074
:101C70000000000000000000000000000000000064
:101C8000000000000000000000000000000F000045
:101C900000000F000000000F00000000070000001F
:101CA000000702000003070E000007C61E00000721
:101CB000F67F00000FFFFF0000007FE00000000F34
:101CC000000000001F800000003DC000000079E01F
:101CD000000000F8F0000001F0F8000001F07800CA
:101CE00000006070000000202000000000000000E4
:101CF00000000000000000000000000000000000E4
:101D000000000000000000000000000000000000D3
:101D100000000000000000000000000000000000C3
:101D200000000000000000000000000000000000B3
:101D300000000000000000000000000000000000A3
:101D40000000000000000000000000000000000093
:101D50000000000000000000000000000000000083
:101D60000000000000000000000000000000000073
:101D70000000000000000000000000000000000063
:101D80000000000000000000000000000000000053
:101D90000000000000000000000000000000000043
:101DA0000000000000000000000000000000000033
:101DB0000000000000000000000000000000000023
:101DC0000000000000000000000000000000000013
:101DD0000000000000000000000000000000000003
:101DE00000000000000000000000000000000000F3
:101DF00000000000000000000000000000000000E3
:101E000000000000000000000003C000000003C04C
:101E100000000003C000000003C000000003C00079
:101E2000000003C000000003C000000003C0000069
:101E30000003C000000003C000000003C000000059
:101E400003C000000003C00000FFFFFFFF00FFFF12
:101E5000FFFF00FFFFFFFF00FFFFFFFF00FFFFFF8F
:101E6000FF000003C000000003C000000003C0002A
:101E7000000003C000000003C000000003C0000019
:101E80000003C000000003C000000003C000000009
:101E900003C000000003C000000003C000000003F6
:101EA000C000000003C000000000000000000000AF
:101EB0000000000000000000000000000000000022
:101EC0000000000000000000000000000000000012
:101ED0000000000000000000000000000000000002
:101EE00000000000000000000000000000000000F2
:101EF00000000000000000000000000000000000E2
:101F000000000000000000000000000000000000D1
:101F100000000000000000000000000000000000C1
:101F200000000000000000000000000000000000B1
:101F300000000000000000000000000000000000A1
:101F40000000000000000000000000000000000091
:101F50000000000000000000000000000000000081
:101F60000000000000000000000000000000000071
:101F70000000000000000000000000000000000061
:101F80000000000000000000000000000000000051
:101F90000000000000000000000000000000000041
:101FA0000000000000000000000000000000000031
:101FB0000000000000000000000000000000000021
:101FC0000000000000000000000000000000000011
:101FD0000000000000000000000000000000000001
:101FE0000000000000000000000000000001E00010
:101FF000000007F800000007FC0000000FFC0000D4
:10200000000FFE0000000FFE0000000FFE000000A9
:102010000FFE00000007FE00000007FE00000001A8
:10202000FC000000007C000000007C00000000F8C4
:1020300000000001F800000003F000000003E000D1
:10204000000003C0000000030000000000000000CA
:102050000000000000000000000000000000000080
:102060000000000000000000000000000000000070
:102070000000000000000000000000000000000060
:102080000000000000000000000000000000000050
:102090000000000000000000000000000000000040
:1020A0000000000000000000000000000000000030
:1020B0000000000000000000000000000000000020
:1020C0000000000000000000000000000000000010
:1020D0000000000000000000000000000000000000
:1020E00000000000000000000000000000000000F0
:1020F00000000000000000000000000000000000E0
:1021000000000000000000000000000000000000CF
:102110000000000000000000007FFF0000007FFFC3
:102120000000007FFF0000007FFF0000007FFF0035
:1021300000007FFF0000007FFF0000007FFF000025
:10214000000000000000000000000000000000008F
:10215000000000000000000000000000000000007F
:10216000000000000000000000000000000000006F
:10217000000000000000000000000000000000005F
:10218000000000000000000000000000000000004F
:10219000000000000000000000000000000000003F
:1021A000000000000000000000000000000000002F
:1021B000000000000000000000000000000000001F
:1021C000000000000000000000000000000000000F
:1021D00000000000000000000000000000000000FF
:1021E00000000000000000000000000000000000EF
:1021F00000000000000000000000000000000000DF
:1022000000000000000000000000000000000000CE
:1022100000000000000000000000000000000000BE
:1022200000000000000000000000000000000000AE
:10223000000000000000000000000000000000009E
:10224000000000000000000000000000000000008E
:10225000000000000000000000000000000000007E
:10226000000000000000000000000000000000006E
:10227000000000000000000000000000000000005E
:10228000000000000000000000000000000000004E
:10229000000000000000000000000000000000003E
:1022A00000000000000000000001E000000007F84E
:1022B00000000007FC0000000FFE0000000FFE0001
:1022C00000000FFE0000000FFE0000000FFE0000E7
:1022D0000007FC00000007F800000001E00000001B
:1022E00000000000000000000000000000000000EE
:1022F00000000000000000000000000000000000DE
:1023000000000000000000000000000000000000CD
:1023100000000000000000000000000000000000BD
:1023200000000000000000000000000000000000AD
:10233000000000000000000000000000000000009D
:10234000000000000000000000000000000000008D
:10235000000000000000000000000000000000007D
:1023600000000000078000000007800000000F0050
:102370000000000F000000001F000000001E000011
:1023800000001E000000003C000000003C000000B7
:10239000007C0000000078000000007800000000D1
:1023A000F000000000F000000000F000000001E07C
:1023B00000000001E000000003C000000003C000B6
:1023C000000003C00000000780000000078000003C
:1023D000000F800000000F000000000F0000000050
:1023E0001E000000001E000000003E000000003C37
:1023F000000000003C0000000078000000007800B1
:10240000000000F800000000F000000000F00000F4
:102410000001E000000001E000000003E000000017
:1024200003C000000003C000000007800000000798
:102430008000000007800000000F000000000F0077
:102440000000001E000000001E000000001E000032
:1024500000003C000000003C000000007C00000088
:102460000078000000007800000000F0000000008C
:10247000F00000000000000000000000000000006C
:10248000000000000000000000000000000000004C
:10249000000000000000000000000000000000003C
:1024A000000000000000000000000000000000002C
:1024B000000000000000000000000000000000001C
:1024C00000007F0000000FFFF000003FFFFC000055
:1024D0007FFFFF0000FFC3FF8001FF81FFC003FFFC
:1024E00081FFC007FF00FFE007FF00FFF00FFF00C4
:1024F000FFF00FFF007FF81FFF007FF81FFE007F37
:10250000F81FFE007FF81FFE007FFC3FFE007FFCEF
:102510003FFE007FFC3FFE007FFC3FFE007FFC3F54
:10252000FE007FFC3FFE007FFC3FFE007FFC3FFE85
:10253000007FFC3FFE007FFC3FFE007FFC3FFE0073
:102540007FFC3FFE007FFC3FFE007FFC3FFE007FE4
:10255000FC1FFE007FFC1FFE007FF81FFE007FF8BF
:102560001FFF007FF80FFF007FF80FFF00FFF0074D
:10257000FF00FFF007FF00FFE003FF81FFC001FF46
:1025800081FFC000FFC3FF80007FFFFF00003FFF0F
:10259000FC00000FFFF00000007F000000000000C2
:1025A000000000000000000000000000000000002B
:1025B000000000000000000000000000000000001B
:1025C000000000000000000000000000000000000B
:1025D00000000000000000000000000000000000FB
:1025E00000000000000000000000000000000000EB
:1025F00000000000000000000000000000000000DB
:1026000000000000000000000000000000000000CA
:1026100000000000000000000000000000000000BA
:102620000FF00000001FF00000003FF00000003F2E
:10263000F0000000FFF0000001FFF0000007FFF0D5
:1026400000001FFFF00001FFFFF00001FFFFF0009E
:1026500001FFFFF00001FEFFF00001F0FFF00001BC
:1026600000FFF0000000FFF0000000FFF00000009D
:10267000FFF0000000FFF0000000FFF0000000FF8E
:10268000F0000000FFF0000000FFF0000000FFF08D
:10269000000000FFF0000000FFF0000000FFF0006D
:1026A0000000FFF0000000FFF0000000FFF000005D
:1026B00000FFF0000000FFF0000000FFF00000004D
:1026C000FFF0000000FFF0000000FFF0000000FF3E
:1026D000F0000000FFF0000000FFF0000000FFF03D
:1026E000000000FFF0000000FFF0000000FFF0001D
:1026F0000000FFF0000000FFF000000000000000FC
:1027000000000000000000000000000000000000C9
:1027100000000000000000000000000000000000B9
:1027200000000000000000000000000000000000A9
:102730000000000000000000000000000000000099
:102740000000000000000000000000000000000089
:102750000000000000000000000000000000000079
:102760000000000000000000000000000000000069
:102770000000000000000000000000000000FF005A
:1027800000000FFFF000003FFFFC0000FFFFFF0014
:1027900001FC07FF8003F803FFC003F001FFE0071F
:1027A000E000FFE007E000FFF00FC000FFF00FC007
:1027B00000FFF00FC000FFF00FC000FFF00FC000DF
:1027C000FFF00FC000FFF00FC001FFE007C001FFE6
:1027D000E007E003FFC0006003FFC0000007FF80C8
:1027E00000000FFF0000001FFE0000003FFC000083
:1027F000003FF80000007FF0000000FFC000000173
:10280000FF80000003FF00000007FE0000000FF83B
:102810000000003FF00000007FE0000000FF8000AB
:102820000001FFFFFFF003FFFFFFF007FFFFFFF0D6
:102830000FFFFFFFF00FFFFFFFF01FFFFFFFF01F75
:10284000FFFFFFF01FFFFFFFF01FFFFFFFF01FFF65
:10285000FFFFF01FFFFFFFF000000000000000007E
:102860000000000000000000000000000000000068
:102870000000000000000000000000000000000058
:102880000000000000000000000000000000000048
:102890000000000000000000000000000000000038
:1028A0000000000000000000000000000000000028
:1028B0000000000000000000000000000000000018
:1028C0000000000000000000000000000000000008
:1028D00000000000000001FE0000001FFFF00000EB
:1028E0007FFFFC0000FFFFFF0001F80FFF8003E007
:1028F00007FF8003C003FFC007C001FFC007C0017E
:10290000FFE007C001FFE0078001FFE0078001FF53
:10291000E00FC001FFE001C001FFE0000001FFE0A7
:10292000000001FFC0000003FFC0000007FF80009F
:10293000000FFF0000003FFE00001FFFF800001F17
:10294000FFE000001FFFC000001FFFFC00001FFF92
:10295000FF0000001FFF80000007FFC0000003FF12
:10296000E0000001FFE0000001FFF0000000FFF0C8
:102970000F8000FFF01F8000FFF01F0000FFF01F1E
:102980000000FFF01F0000FFF01F0001FFF00F80AC
:1029900001FFF00F8003FFE00FC007FFC007F00F3B
:1029A000FFC003FFFFFF0001FFFFFE00003FFFF03D
:1029B000000003FF00000000000000000000000015
:1029C0000000000000000000000000000000000007
:1029D00000000000000000000000000000000000F7
:1029E00000000000000000000000000000000000E7
:1029F00000000000000000000000000000000000D7
:102A000000000000000000000000000000000000C6
:102A100000000000000000000000000000000000B6
:102A200000000000000000000000000000000000A6
:102A30000000000000000000000001FE0000000394
:102A4000FE00000003FE00000007FE0000000FFE75
:102A50000000000FFE0000001FFE0000003FFE000F
:102A600000003FFE0000007FFE000000FFFE0000AF
:102A700000FFFE000001FFFE000003FFFE00000754
:102A8000CFFE000007CFFE00000F8FFE00001F0FDB
:102A9000FE00001F0FFE00003E0FFE00007C0FFE38
:102AA00000007C0FFE0000F80FFE0001F00FFE009A
:102AB00003F00FFE0003E00FFE0007C00FFE000F43
:102AC000C00FFE000F800FFE001F800FFE001FFFD3
:102AD000FFFFF01FFFFFFFF01FFFFFFFF01FFFFFD3
:102AE000FFF01FFFFFFFF000001FFE0000001FFEB1
:102AF0000000001FFE0000001FFE0000001FFE007F
:102B000000001FFE0000001FFE0000001FFE00006E
:102B1000001FFE0000000000000000000000000098
:102B200000000000000000000000000000000000A5
:102B30000000000000000000000000000000000095
:102B40000000000000000000000000000000000085
:102B50000000000000000000000000000000000075
:102B60000000000000000000000000000000000065
:102B70000000000000000000000000000000000055
:102B80000000000000000000000000000000000045
:102B9000000000000000007FFFFFC000FFFFFFC03B
:102BA00000FFFFFF8000FFFFFF8000FFFFFF8000AE
:102BB000FFFFFF8000FFFFFF8001FFFFFF8001FF9D
:102BC000FFFF0001E000000001E000000001E00064
:102BD000000001E000000003E000000003C000006E
:102BE0000003C000000003C03F000003C3FFF0006B
:102BF00007CFFFFC0007FFFFFE0007FFFFFF800776
:102C0000FC07FFC007F003FFC007E001FFE001C0C1
:102C100001FFE0000000FFF0000000FFF0000000F6
:102C2000FFF0000000FFF0000000FFF0038000FF55
:102C3000F00F8000FFF01F8000FFF01F0000FFF08A
:102C40001F0000FFF01F8001FFE00F8001FFE00F79
:102C50008003FFC00FC007FF8007F01FFF0003FFC6
:102C6000FFFE0001FFFFF800007FFFE0000003FC13
:102C70000000000000000000000000000000000054
:102C80000000000000000000000000000000000044
:102C90000000000000000000000000000000000034
:102CA0000000000000000000000000000000000024
:102CB0000000000000000000000000000000000014
:102CC0000000000000000000000000000000000004
:102CD00000000000000000000000000000000000F4
:102CE00000000000000000000000000000000000E4
:102CF0000000000000000FC0000000FFFC00000703
:102D0000FFFF00000FFFFF80001FF80FC0007FF0E3
:102D100007E0007FE003E000FFC003E001FFC00325
:102D2000E003FFC003E003FF8003E007FF8003E050
:102D300007FF80000007FF8000000FFF8000000FEA
:102D4000FF81E0000FFF0FFC000FFF3FFF000FFFB0
:102D50007FFF801FFFFFFFC01FFFE1FFE01FFFC0DD
:102D6000FFF01FFF807FF01FFF807FF81FFF007FB5
:102D7000F81FFF007FF81FFF003FF81FFF003FFC18
:102D80000FFF003FFC0FFF003FFC0FFF003FFC0F59
:102D9000FF003FFC0FFF003FF807FF007FF807FF31
:102DA000007FF807FF007FF803FF007FF003FF803C
:102DB0007FF001FF80FFE000FFC0FFC0007FE1FF68
:102DC00080003FFFFF00000FFFFE000003FFF80040
:102DD00000003F8000000000000000000000000034
:102DE00000000000000000000000000000000000E3
:102DF00000000000000000000000000000000000D3
:102E000000000000000000000000000000000000C2
:102E100000000000000000000000000000000000B2
:102E200000000000000000000000000000000000A2
:102E30000000000000000000000000000000000092
:102E40000000000000000000000000000000000082
:102E5000000007FFFFFFF007FFFFFFF007FFFFFF86
:102E6000F00FFFFFFFF00FFFFFFFF00FFFFFFFF07E
:102E70000FFFFFFFF00FFFFFFFE00FFFFFFFE00F6F
:102E8000FFFFFFC00000003F800000007F800000C7
:102E900000FF00000001FE00000003FE000000072C
:102EA000FC00000007FC0000000FF80000001FF805
:102EB0000000001FF80000003FF00000007FF0005D
:102EC00000007FE0000000FFE0000000FFE00000E5
:102ED00001FFE0000001FFC0000001FFC00000038F
:102EE000FFC0000003FFC0000007FF80000007FFD5
:102EF00080000007FF8000000FFF8000000FFF80B0
:102F000000000FFF8000000FFF8000000FFF800017
:102F1000001FFF8000001FFF8000001FFF800000D7
:102F20001FFF8000001FFF8000001FFF80000000C7
:102F30000000000000000000000000000000000091
:102F40000000000000000000000000000000000081
:102F50000000000000000000000000000000000071
:102F60000000000000000000000000000000000061
:102F70000000000000000000000000000000000051
:102F80000000000000000000000000000000000041
:102F90000000000000000000000000000000000031
:102FA0000000000000000000000000000000000021
:102FB0000000FE0000000FFFE000003FFFFC0000EB
:102FC000FFFFFE0001FE00FF0003F8003F8007F056
:102FD000000F8007F0000FC00FF00007C00FF000D7
:102FE00007C00FF00007C00FF00007C00FF8000780
:102FF000C00FFE0007C00FFF800F800FFFF00F0013
:103000000FFFFF1E000FFFFFFC0007FFFFF8000788
:10301000FFFFFE0003FFFFFF0001FFFFFF8000FF37
:10302000FFFFE0007FFFFFE001FFFFFFF003E3FF92
:10303000FFF807C07FFFF80F8007FFF81F8001FF30
:10304000FC1F00007FFC1F00001FFC1F00000FFC86
:103050001F00000FFC1F00000FF81F000007F81FE3
:1030600080000FF81F80000FF00FC0000FF007E086
:10307000001FE007F8007FC003FE00FF8000FFFF95
:10308000FF00007FFFFC00000FFFF0000000FF00CA
:103090000000000000000000000000000000000030
:1030A0000000000000000000000000000000000020
:1030B0000000000000000000000000000000000010
:1030C0000000000000000000000000000000000000
:1030D00000000000000000000000000000000000F0
:1030E00000000000000000000000000000000000E0
:1030F00000000000000000000000000000000000D0
:1031000000000000000000000000000000000001BE
:10311000FC0000000FFFE000003FFFF80000FFFF91
:10312000FC0001FFC3FF0003FF81FF0007FF01FF59
:103130008007FF00FFC00FFE00FFE00FFE00FFE072
:103140001FFE00FFE01FFE00FFF01FFE007FF01FCC
:10315000FE007FF01FFE007FF81FFE007FF81FFEBD
:10316000007FF81FFE007FF81FFE00FFF81FFE0023
:10317000FFF81FFE00FFF80FFE00FFF80FFF01FF32
:10318000F807FF01FFF807FF83FFF803FFFFFFF8D1
:1031900001FFFEFFF800FFFCFFF8003FF0FFF0002A
:1031A00007C0FFF0000000FFF0000001FFF000404A
:1031B00001FFE007C001FFE007C001FFC007C00139
:1031C000FFC007C003FF8007E003FF0003E007FE26
:1031D0000003F81FFC0001FFFFF80000FFFFE00004
:1031E000003FFF80000003F8000000000000000026
:1031F00000000000000000000000000000000000CF
:1032000000000000000000000000000000000000BE
:1032100000000000000000000000000000000000AE
:10322000000000000000000000000000000000009E
:10323000000000000000000000000000000000008E
:10324000000000000000000000000000000000007E
:10325000000000000000000000000000000000006E
:10326000000000000000000000000000000000005E
:10327000000000000000000000000000000000004E
:10328000000000000000000000000000000000003E
:10329000000000000000000000000000000000002E
:1032A0000000000000000000000000000001E0003D
:1032B000000007F800000007FC0000000FFE0000FF
:1032C000000FFE0000000FFE0000000FFE000000D7
:1032D0000FFE00000007FC00000007F800000001DE
:1032E000E0000000000000000000000000000000FE
:1032F00000000000000000000000000000000000CE
:1033000000000000000000000000000000000000BD
:103310000001E000000007F800000007FC000000CA
:103320000FFE0000000FFE0000000FFE0000000F67
:10333000FE0000000FFE00000007FC00000007F880
:1033400000000001E000000000000000000000009C
:10335000000000000000000000000000000000006D
:10336000000000000000000000000000000000005D
:10337000000000000000000000000000000000004D
:10338000000000000000000000000000000000003D
:10339000000000000000000000000000000000002D
:1033A000000000000000000000000000000000001D
:1033B000000000000000000000000000000000000D
:1033C00000000000000000000000000000000000FD
:1033D00000000000000000000000000000000000ED
:1033E00000000000000000000000000000000000DD
:1033F00000000000000000000000000000000000CD
:10340000000000000000000000000001E0000000DB
:1034100007F800000007FC0000000FFE0000000F8E
:10342000FE0000000FFE0000000FFE0000000FFE77
:1034300000000007FC00000007F800000001E000A9
:10344000000000000000000000000000000000007C
:10345000000000000000000000000000000000006C
:10346000000000000000000000000000000000015B
:10347000E000000007F800000007FC0000000FFC5F
:103480000000000FFE0000000FFE0000000FFE0015
:1034900000000FFE00000007FE00000007FE000015
:1034A0000001FC000000007C000000007C00000027
:1034B00000F800000001F800000003F00000000325
:1034C000E000000003C00000000300000000000056
:1034D00000000000000000000000000000000000EC
:1034E00000000000000000000000000000000000DC
:1034F00000000000000000000000000000000000CC
:1035000000000000000000000000000000000000BB
:1035100000000000000000000000000000000000AB
:10352000000000000000000000000000000000009B
:1035300010000000007000000000F000000003F028
:103540000000000FF00000003FF00000007FF000DE
:103550000001FFF0000007FFF000001FFFF0000077
:103560003FFFF00000FFFFF00003FFFFF0000FFF40
:10357000FFE0001FFFFF80007FFFFE0000FFFFF85D
:103580000000FFFFE00000FFFFC00000FFFF0000A1
:1035900000FFFC000000FFFC000000FFFF00000037
:1035A000FFFF800000FFFFE00000FFFFF800007F4A
:1035B000FFFE00001FFFFF800007FFFFC00003FFAA
:1035C000FFF00000FFFFF000003FFFF000000FFFE2
:1035D000F0000003FFF0000001FFF00000007FF0AA
:1035E0000000001FF000000007F000000001F000E4
:1035F000000000700000000030000000000000002B
:1036000000000000000000000000000000000000BA
:1036100000000000000000000000000000000000AA
:10362000000000000000000000000000000000009A
:10363000000000000000000000000000000000008A
:10364000000000000000000000000000000000007A
:10365000000000000000000000000000000000006A
:10366000000000000000000000000000000000005A
:10367000000000000000000000000000000000004A
:10368000000000000000000000000000000000003A
:10369000000000000000000000000000000000002A
:1036A000000000000000000000000000000000001A
:1036B000000000000000000000000000000000000A
:1036C000000000000000000000000000FFFFFFFFFE
:1036D00000FFFFFFFF00FFFFFFFF00FFFFFFFF00F6
:1036E000FFFFFFFF000000000000000000000000DE
:1036F00000000000000000000000000000000000CA
:10370000000000FFFFFFFF00FFFFFFFF00FFFFFFC4
:10371000FF00FFFFFFFF00FFFFFFFF0000000000B2
:103720000000000000000000000000000000000099
:103730000000000000000000000000000000000089
:103740000000000000000000000000000000000079
:103750000000000000000000000000000000000069
:103760000000000000000000000000000000000059
:103770000000000000000000000000000000000049
:103780000000000000000000000000000000000039
:103790000000000000000000000000000000000029
:1037A0000000000000000000000000000000000019
:1037B0000000000000000000000000000000000009
:1037C00000000000000000000000000000000000F9
:1037D00000000000000000000000000000000000E9
:1037E000000000000000000000C000000000E00039
:1037F000000000F800000000FE00000000FF800054
:103800000000FFC0000000FFF0000000FFFC00000F
:1038100000FFFF000000FFFF800000FFFFE000004E
:10382000FFFFF800007FFFFC00003FFFFF00000FDC
:10383000FFFFC00003FFFFF00000FFFFF000007F6C
:10384000FFF000001FFFF0000007FFF0000001FF85
:10385000F0000001FFF0000007FFF000001FFFF084
:1038600000007FFFF00001FFFFF00003FFFFF0000A
:103870000FFFFFC0003FFFFF0000FFFFFC0000FF45
:10388000FFF00000FFFFE00000FFFF800000FFFEF0
:10389000000000FFF8000000FFE0000000FFC00093
:1038A0000000FF00000000FC00000000F00000002D
:1038B00000C0000000000000000000000000000048
:1038C00000000000000000000000000000000000F8
:1038D00000000000000000000000000000000000E8
:1038E00000000000000000000000000000000000D8
:1038F00000000000000000000000000000000000C8
:1039000000000000000000000000000000000000B7
:1039100000000000000000000000000000000000A7
:103920000000000000000000000000000000000097
:103930000000000000000000000000000000000087
:103940000000000FE00000007FFE000001FFFF808C
:103950000003FFFFC00003E0FFE00007C07FF000AE
:1039600007C03FF00007C03FF80007C01FF800077E
:10397000C01FF80007C01FF80007C01FF80001C0F3
:103980001FF80000001FF80000001FF80000001FD3
:10399000F80000001FF80000001FF80003E01FF807
:1039A0000003E01FF00003E01FF00003F03FE00021
:1039B00003F87FC00003FFFF800003EFFF00000358
:1039C000E3FE000003E0F0000003E000000003E07D
:1039D00000000000000000000000000000000000E7
:1039E0000000000000000001E000000007F80000F7
:1039F000000FFC0000000FFC0000000FFC000000A6
:103A00000FFC0000000FFC0000000FFC0000000F86
:103A1000FC00000007F800000001E00000000000CA
:103A20000000000000000000000000000000000096
:103A30000000000000000000000000000000000086
:103A40000000000000000000000000000000000076
:103A50000000000000000000000000000000000066
:103A60000000000000000000000000000000000056
:103A70000000000000000000000000000000000046
:103A80000000000000000000000000000000000036
:103A90000000000000000000000000000003F8002B
:103AA00000003FFFC00001FFFFF00007FFFFFC0028
:103AB0000FF001FE003FC0007F007F00001F00FEEE
:103AC00000000701F800000303F000000107F00008
:103AD000000107E00000000FC00000000FC00380DD
:103AE000301F800FE7F01F801FF7F03F003F9FF06F
:103AF0003F007F0FE03F007F0FE03F00FE0FE07EC2
:103B000000FE0FE07E01FE0FE07E01FC0FC07E0193
:103B1000FC0FC07E01FC0FC07E03FC1FC07E03FCB7
:103B20001FC07E03FC1FC03F03FC1F803F03FC3F00
:103B3000813F01FC3F813F01FC7F871F80FFFFFF2A
:103B40001F80FFBFFF0FC01C1FFC0FC00007C00776
:103B5000E000000003F000000001F800000000FC9D
:103B6000000000007E00000E003F80003E000FF0CD
:103B700003FC0003FFFFF00000FFFF80000007F0E0
:103B80000000000000000000000000000000000035
:103B90000000000000000000000000000000000025
:103BA0000000000000000000000000000000000015
:103BB0000000000000000000000000000000000005
:103BC00000000000000000000000000000000000F5
:103BD00000000000000000000000000000000000E5
:103BE00000000000000000000000000000000000D5
:103BF00000000000000000000000000000000007BE
:103C0000FF0000000FFF0000000FFF0000000FFF8B
:103C10008000001FFF8000001FFF8000001FFF804A
:103C200000001FFFC000003FFFC000003FFFC000BA
:103C3000003FFFC000007DFFE000007DFFE00000CE
:103C400079FFE0000079FFF00000F8FFF00000F0DD
:103C5000FFF00000F0FFF00001F07FF80001E07FCE
:103C6000F80001E07FF80003E07FFC0003E03FFC88
:103C70000003C03FFC0003C03FFC0007C03FFE0044
:103C800007801FFE0007801FFE000F801FFE000F31
:103C9000800FFF000FFFFFFF001FFFFFFF001FFF50
:103CA000FFFF801FFFFFFF801E0007FF803E000711
:103CB000FF803C0007FFC03C0003FFC07C0003FF07
:103CC000C07C0003FFE0780001FFE0780001FFE026
:103CD000F80001FFE0F00001FFF00000000000002C
:103CE00000000000000000000000000000000000D4
:103CF00000000000000000000000000000000000C4
:103D000000000000000000000000000000000000B3
:103D100000000000000000000000000000000000A3
:103D20000000000000000000000000000000000093
:103D30000000000000000000000000000000000083
:103D40000000000000000000000000000000000073
:103D50000000000000000000000000000FFFFFE076
:103D6000000FFFFFFF000FFFFFFFC00FFFFFFFE08F
:103D70000FFF01FFF00FFF00FFF80FFF007FF80FAC
:103D8000FF003FFC0FFF003FFC0FFF003FFC0FFF59
:103D9000003FFC0FFF003FFC0FFF003FFC0FFF0048
:103DA0003FFC0FFF003FFC0FFF003FF80FFF007FBD
:103DB000F00FFF00FFE00FFF01FFC00FFFFFFF004C
:103DC0000FFFFFFC000FFFFFFF000FFFFFFFC00F03
:103DD000FF01FFF00FFF007FF80FFF003FFC0FFF18
:103DE000003FFE0FFF001FFE0FFF001FFF0FFF0031
:103DF0001FFF0FFF001FFF0FFF000FFF0FFF000F40
:103E0000FF0FFF001FFF0FFF001FFF0FFF001FFF2F
:103E10000FFF001FFE0FFF003FFE0FFF007FFE0F92
:103E2000FF00FFFC0FFFFFFFF80FFFFFFFF00FFF8A
:103E3000FFFF800FFFFFF8000000000000000000FF
:103E40000000000000000000000000000000000072
:103E50000000000000000000000000000000000062
:103E60000000000000000000000000000000000052
:103E70000000000000000000000000000000000042
:103E80000000000000000000000000000000000032
:103E90000000000000000000000000000000000022
:103EA0000000000000000000000000000000000012
:103EB0000000000000000000000000001FC0000023
:103EC00001FFFC000007FFFF00001FFFFF80003F15
:103ED000F81FC0007FE007E000FFC003E001FFC063
:103EE00003E003FF8001F007FF8001F007FF80017E
:103EF000F00FFF0001F00FFF0000F00FFF0000F0D7
:103F00001FFF0000C01FFE0000001FFE0000001F7A
:103F1000FE0000003FFE0000003FFE0000003FFEEC
:103F20000000003FFE0000003FFE0000003FFE00DA
:103F300000003FFE0000003FFE0000003FFE0000CA
:103F4000003FFE0000601FFE00007C1FFE00003CE2
:103F50001FFF00003C1FFF00003C0FFF00007C0F14
:103F6000FF00007C0FFF80007C07FF8000F807FF48
:103F7000C000F803FFC001F001FFE003F000FFF80C
:103F80000FE0007FFFFF80001FFFFF000007FFF82A
:103F90000000003F80000000000000000000000062
:103FA0000000000000000000000000000000000011
:103FB0000000000000000000000000000000000001
:103FC00000000000000000000000000000000000F1
:103FD00000000000000000000000000000000000E1
:103FE00000000000000000000000000000000000D1
:103FF00000000000000000000000000000000000C1
:1040000000000000000000000000000000000000B0
:1040100000000000000000000FFFFFC0000FFFFFC6
:10402000FC000FFFFFFF000FFFFFFFC00FFF01FFAE
:10403000E00FFF007FF00FFF003FF80FFF003FFC95
:104040000FFF001FFC0FFF001FFE0FFF001FFE0FE2
:10405000FF000FFF0FFF000FFF0FFF000FFF0FFF0D
:10406000000FFF0FFF000FFF0FFF000FFF0FFF00FC
:104070000FFF0FFF000FFF0FFF000FFF0FFF000FDD
:10408000FF0FFF000FFF0FFF000FFF0FFF000FFFDD
:104090000FFF000FFF0FFF000FFF0FFF000FFF0FBD
:1040A000FF000FFF0FFF000FFF0FFF000FFF0FFFBD
:1040B000000FFF0FFF000FFF0FFF000FFF0FFF00AC
:1040C0001FFE0FFF001FFE0FFF001FFC0FFF003F32
:1040D000FC0FFF003FF80FFF007FF00FFF01FFE034
:1040E0000FFFFFFFC00FFFFFFF000FFFFFFC000FE0
:1040F000FFFF800000000000000000000000000042
:1041000000000000000000000000000000000000AF
:10411000000000000000000000000000000000009F
:10412000000000000000000000000000000000008F
:10413000000000000000000000000000000000007F
:10414000000000000000000000000000000000006F
:10415000000000000000000000000000000000005F
:10416000000000000000000000000000000000004F
:104170000000000000000FFFFFFF000FFFFFFF0027
:104180000FFFFFFF000FFFFFFF000FFF0000000FFA
:10419000FF0000000FFF0000000FFF0000000FFFF6
:1041A0000000000FFF0000000FFF0000000FFF00E5
:1041B00000000FFF0000000FFF0000000FFF0000D5
:1041C000000FFF0000000FFF0000000FFF000000C5
:1041D0000FFFFFFC000FFFFFFC000FFFFFFC000FB5
:1041E000FFFFFC000FFF0000000FFF0000000FFFAB
:1041F0000000000FFF0000000FFF0000000FFF0095
:1042000000000FFF0000000FFF0000000FFF000084
:10421000000FFF0000000FFF0000000FFF00000074
:104220000FFF0000000FFF0000000FFF0000000F55
:10423000FF0000000FFF0000000FFF0000000FFF55
:10424000FFFFE00FFFFFFFE00FFFFFFFE00FFFFFAB
:10425000FFE000000000000000000000000000007F
:10426000000000000000000000000000000000004E
:10427000000000000000000000000000000000003E
:10428000000000000000000000000000000000002E
:10429000000000000000000000000000000000001E
:1042A000000000000000000000000000000000000E
:1042B00000000000000000000000000000000000FE
:1042C00000000000000000000000000000000000EE
:1042D000000000000FFFFFFF000FFFFFFF000FFFB8
:1042E000FFFF000FFFFFFF000FFF0000000FFF00A8
:1042F00000000FFF0000000FFF0000000FFF000094
:10430000000FFF0000000FFF0000000FFF00000083
:104310000FFF0000000FFF0000000FFF0000000F64
:10432000FF0000000FFF0000000FFF0000000FFF64
:104330000000000FFFFFFC000FFFFFFC000FFFFF5E
:10434000FC000FFFFFFC000FFF0000000FFF00004C
:10435000000FFF0000000FFF0000000FFF00000033
:104360000FFF0000000FFF0000000FFF0000000F14
:10437000FF0000000FFF0000000FFF0000000FFF14
:104380000000000FFF0000000FFF0000000FFF0003
:1043900000000FFF0000000FFF0000000FFF0000F3
:1043A000000FFF0000000FFF0000000FFF000000E3
:1043B00000000000000000000000000000000000FD
:1043C00000000000000000000000000000000000ED
:1043D00000000000000000000000000000000000DD
:1043E00000000000000000000000000000000000CD
:1043F00000000000000000000000000000000000BD
:1044000000000000000000000000000000000000AC
:10441000000000000000000000000000000000009C
:10442000000000000000000000000000000000008C
:10443000000000001FC0000001FFF8000007FFFEA1
:1044400000001FFFFF80003FF80FC0007FE007C0A3
:1044500000FFC003E001FFC001F003FF8001F0078F
:10446000FF8001F007FF0001F80FFF0000F80FFFC9
:104470000000F00FFF0000C01FFF0000001FFF0042
:1044800000001FFF0000001FFF0000003FFF0000B2
:10449000003FFF0000003FFF07FFFE3FFE07FFFE5B
:1044A0003FFE07FFFE3FFE07FFFE3FFF000FFE3F00
:1044B000FF000FFE3FFF000FFE1FFF000FFE1FFF5C
:1044C000000FFE1FFF000FFE1FFF000FFE1FFF006B
:1044D0000FFE0FFF000FFE0FFF000FFE07FF000F84
:1044E000FE07FF800FFE03FF801FFE01FFC01FFEBF
:1044F00000FFC01FFE007FF03FFE003FFFFFFE00F9
:104500000FFFFF3E0003FFFC1E00001FC01E000047
:10451000000000000000000000000000000000009B
:10452000000000000000000000000000000000008B
:10453000000000000000000000000000000000007B
:10454000000000000000000000000000000000006B
:10455000000000000000000000000000000000005B
:10456000000000000000000000000000000000004B
:10457000000000000000000000000000000000003B
:10458000000000000000000000000000000000002B
:104590000FFF001FFE0FFF001FFE0FFF001FFE0F8B
:1045A000FF001FFE0FFF001FFE0FFF001FFE0FFF8B
:1045B000001FFE0FFF001FFE0FFF001FFE0FFF007A
:1045C0001FFE0FFF001FFE0FFF001FFE0FFF001F4B
:1045D000FE0FFF001FFE0FFF001FFE0FFF001FFE5C
:1045E0000FFF001FFE0FFF001FFE0FFFFFFFFE0F5C
:1045F000FFFFFFFE0FFFFFFFFE0FFFFFFFFE0FFF9E
:10460000001FFE0FFF001FFE0FFF001FFE0FFF0029
:104610001FFE0FFF001FFE0FFF001FFE0FFF001FFA
:10462000FE0FFF001FFE0FFF001FFE0FFF001FFE0B
:104630000FFF001FFE0FFF001FFE0FFF001FFE0FEA
:10464000FF001FFE0FFF001FFE0FFF001FFE0FFFEA
:10465000001FFE0FFF001FFE0FFF001FFE0FFF00D9
:104660001FFE0FFF001FFE0FFF001FFE00000000D7
:10467000000000000000000000000000000000003A
:10468000000000000000000000000000000000002A
:10469000000000000000000000000000000000001A
:1046A000000000000000000000000000000000000A
:1046B00000000000000000000000000000000000FA
:1046C00000000000000000000000000000000000EA
:1046D00000000000000000000000000000000000DA
:1046E00000000000000000000000000000000FFFBC
:1046F0000000000FFF0000000FFF0000000FFF0090
:1047000000000FFF0000000FFF0000000FFF00007F
:10471000000FFF0000000FFF0000000FFF0000006F
:104720000FFF0000000FFF0000000FFF0000000F50
:10473000FF0000000FFF0000000FFF0000000FFF50
:104740000000000FFF0000000FFF0000000FFF003F
:1047500000000FFF0000000FFF0000000FFF00002F
:10476000000FFF0000000FFF0000000FFF0000001F
:104770000FFF0000000FFF0000000FFF0000000F00
:10478000FF0000000FFF0000000FFF0000000FFF00
:104790000000000FFF0000000FFF0000000FFF00EF
:1047A00000000FFF0000000FFF0000000FFF0000DF
:1047B000000FFF0000000FFF0000000FFF000000CF
:1047C0000FFF0000000FFF000000000000000000CD
:1047D00000000000000000000000000000000000D9
:1047E00000000000000000000000000000000000C9
:1047F00000000000000000000000000000000000B9
:1048000000000000000000000000000000000000A8
:104810000000000000000000000000000000000098
:104820000000000000000000000000000000000088
:104830000000000000000000000000000000000078
:10484000000000000000000000000000001FFF004A
:1048500000001FFF0000001FFF0000001FFF0000FE
:10486000001FFF0000001FFF0000001FFF000000EE
:104870001FFF0000001FFF0000001FFF0000001FBF
:10488000FF0000001FFF0000001FFF0000001FFFCF
:104890000000001FFF0000001FFF0000001FFF00BE
:1048A00000001FFF0000001FFF0000001FFF0000AE
:1048B000001FFF0000001FFF0000001FFF0000009E
:1048C0001FFF0000001FFF0000001FFF0000001F6F
:1048D000FF0000001FFF0000181FFF0000781FFFEF
:1048E0000000781FFF0000F01FFE0000F01FFE0018
:1048F00000F01FFE0000F01FFE0000F01FFE000091
:10490000F01FFE0000F01FFC0000781FFC00007884
:104910001FF800003C3FF800001FFFF000000FFFF1
:10492000E0000003FFC00000007E00000000000067
:104930000000000000000000000000000000000077
:104940000000000000000000000000000000000067
:104950000000000000000000000000000000000057
:104960000000000000000000000000000000000047
:104970000000000000000000000000000000000037
:104980000000000000000000000000000000000027
:104990000000000000000000000000000000000017
:1049A000000000000000000000000FFF0000F80FF2
:1049B000FF0001F00FFF0003F00FFF0007E00FFF03
:1049C0000007C00FFF000F800FFF001F000FFF0048
:1049D0003F000FFF007E000FFF007C000FFF00F87C
:1049E000000FFF01F8000FFF03F0000FFF03E000CE
:1049F0000FFF07E0000FFF0FE0000FFF1FF0000F99
:104A0000FF1FF0000FFF3FF8000FFF7FF8000FFFC0
:104A1000FFFC000FFFFFFC000FFFFFFE000FFFFF7A
:104A2000FE000FFFFFFF000FFFDFFF800FFF9FFF64
:104A3000800FFF0FFFC00FFF07FFC00FFF07FFE052
:104A40000FFF03FFE00FFF03FFF00FFF01FFF00F69
:104A5000FF01FFF80FFF00FFF80FFF00FFFC0FFF43
:104A6000007FFE0FFF007FFE0FFF003FFF0FFF00E4
:104A70003FFF0FFF001FFF0FFF000FFF0FFF000F93
:104A8000FF0FFF0007FF0000000000000000000013
:104A90000000000000000000000000000000000016
:104AA0000000000000000000000000000000000006
:104AB00000000000000000000000000000000000F6
:104AC00000000000000000000000000000000000E6
:104AD00000000000000000000000000000000000D6
:104AE00000000000000000000000000000000000C6
:104AF00000000000000000000000000000000000B6
:104B000000000000000000000FFF0000000FFF0089
:104B100000000FFF0000000FFF0000000FFF00006B
:104B2000000FFF0000000FFF0000000FFF0000005B
:104B30000FFF0000000FFF0000000FFF0000000F3C
:104B4000FF0000000FFF0000000FFF0000000FFF3C
:104B50000000000FFF0000000FFF0000000FFF002B
:104B600000000FFF0000000FFF0000000FFF00001B
:104B7000000FFF0000000FFF0000000FFF0000000B
:104B80000FFF0000000FFF0000000FFF0000000FEC
:104B9000FF0000000FFF0000000FFF0000000FFFEC
:104BA0000000000FFF0000000FFF0000000FFF00DB
:104BB00000000FFF0000000FFF0000000FFF0000CB
:104BC000000FFF0000000FFF0000000FFF000000BB
:104BD0000FFFFFFFC00FFFFFFFC00FFFFFFFC00F62
:104BE000FFFFFFC000000000000000000000000008
:104BF00000000000000000000000000000000000B5
:104C000000000000000000000000000000000000A4
:104C10000000000000000000000000000000000094
:104C20000000000000000000000000000000000084
:104C30000000000000000000000000000000000074
:104C40000000000000000000000000000000000064
:104C50000000000000000000000000000000000054
:104C60000000000000000FFF0000FF0FFF8001FFA9
:104C70000FFF8001FF0FFF8001FF0FFFC001FF0F3B
:104C8000FFC003FF0FFFC003FF0FFFC003FF0FFFB5
:104C9000E007FF0FFFE007FF0FFFE007FF0FFFF048
:104CA00007FF0FFFF00FFF0FFFF00FFF0FFFF00FD9
:104CB000FF0FFFF81F7F0F7FF81E7F0F7FF81E7F0B
:104CC0000F7FF81E7F0F3FFC3E7F0F3FFC3C7F0FA6
:104CD0003FFC3C7F0F1FFE3C7F0F1FFE787F0F1FA6
:104CE000FE787F0F1FFE787F0F0FFFF87F0F0FFFFB
:104CF000F07F0F0FFFF07F0F07FFF07F0F07FFE040
:104D00007F0F07FFE07F0F07FFE07F0F03FFE07FCC
:104D10000F03FFC07F0F03FFC07F0F01FFC07F0F96
:104D200001FF807F0F01FF807F0F00FF807F0F005A
:104D3000FF807F0F00FF007F0F00FF007F0F007FCD
:104D4000007F0000000000000000000000000000E4
:104D50000000000000000000000000000000000053
:104D60000000000000000000000000000000000043
:104D70000000000000000000000000000000000033
:104D80000000000000000000000000000000000023
:104D90000000000000000000000000000000000013
:104DA0000000000000000000000000000000000003
:104DB00000000000000000000000000000000000F3
:104DC000000000000FF00000F00FF00000F00FF8FE
:104DD0000000F00FFC0000F00FFC0000F00FFE00E0
:104DE00000F00FFF0000F00FFF0000F00FFF800049
:104DF000F00FFFC000F00FFFC000F00FFFE000F069
:104E00000FFFF000F00FFFF000F00FFFF800F00FC1
:104E1000FFFC00F00FFFFC00F00F7FFE00F00F7FA3
:104E2000FF00F00F3FFF00F00F1FFF80F00F1FFF8C
:104E3000C0F00F0FFFC0F00F07FFE0F00F07FFF00B
:104E4000F00F03FFF0F00F01FFF8F00F01FFFCF08F
:104E50000F00FFFCF00F007FFEF00F007FFFF00F50
:104E6000003FFFF00F001FFFF00F001FFFF00F00CB
:104E70000FFFF00F0007FFF00F0007FFF00F000318
:104E8000FFF00F0001FFF00F0001FFF00F0000FF27
:104E9000F00F00007FF00F00007FF00F00003FF0E8
:104EA0000000000000000000000000000000000002
:104EB00000000000000000000000000000000000F2
:104EC00000000000000000000000000000000000E2
:104ED00000000000000000000000000000000000D2
:104EE00000000000000000000000000000000000C2
:104EF00000000000000000000000000000000000B2
:104F000000000000000000000000000000000000A1
:104F10000000000000000000000000000000003F52
:104F200080000007FFFC00001FFFFF00007FFFFF65
:104F3000C000FFE0FFE001FFC07FF003FF803FF80B
:104F400003FF003FF807FF001FFC0FFF001FFC0FCF
:104F5000FF001FFE0FFF001FFE1FFE001FFE1FFEB3
:104F6000000FFF1FFE000FFF1FFE000FFF3FFE00A0
:104F70000FFF3FFE000FFF3FFE000FFF3FFE000F41
:104F8000FF3FFE000FFF3FFE000FFF3FFE000FFF41
:104F90003FFE000FFF3FFE000FFF3FFE000FFF3FF1
:104FA000FE000FFF3FFE000FFF1FFE000FFF1FFE62
:104FB000000FFF1FFE000FFF1FFE000FFF1FFE0070
:104FC0001FFE0FFF001FFE0FFF001FFE07FF001F49
:104FD000FC07FF001FFC03FF003FF803FF803FF8C2
:104FE00001FFC07FF000FFE0FFE0003FFFFF800017
:104FF0001FFFFF000007FFFC0000003F80000000D3
:1050000000000000000000000000000000000000A0
:105010000000000000000000000000000000000090
:105020000000000000000000000000000000000080
:105030000000000000000000000000000000000070
:105040000000000000000000000000000000000060
:105050000000000000000000000000000000000050
:105060000000000000000000000000000000000040
:105070000000000000000000000000000000000030
:105080000FFFFFE0000FFFFFFE000FFFFFFF800F8D
:10509000FFFFFFE00FFF01FFF00FFF00FFF80FFF22
:1050A000007FF80FFF003FFC0FFF003FFC0FFF00E9
:1050B0003FFC0FFF003FFC0FFF001FFE0FFF001F14
:1050C000FE0FFF001FFE0FFF001FFE0FFF003FFC43
:1050D0000FFF003FFC0FFF003FFC0FFF003FFC0FE6
:1050E000FF007FF80FFF00FFF00FFF01FFF00FFF41
:1050F000FFFFC00FFFFFFF800FFFFFFC000FFFFF50
:10510000C0000FFF0000000FFF0000000FFF0000B5
:10511000000FFF0000000FFF0000000FFF00000065
:105120000FFF0000000FFF0000000FFF0000000F46
:10513000FF0000000FFF0000000FFF0000000FFF46
:105140000000000FFF0000000FFF0000000FFF0035
:1051500000000FFF0000000FFF0000000000000033
:10516000000000000000000000000000000000003F
:10517000000000000000000000000000000000002F
:10518000000000000000000000000000000000001F
:10519000000000000000000000000000000000000F
:1051A00000000000000000000000000000000000FF
:1051B00000000000000000000000000000000000EF
:1051C00000000000000000000000000000000000DF
:1051D00000000000000000000000000000000000CF
:1051E0003F80000007FFF800001FFFFF00007FFF67
:1051F000FF8000FFE0FFE001FFC07FF003FF803F82
:10520000F003FF003FF807FF001FFC07FF001FFC33
:105210000FFF001FFE0FFF001FFE1FFE001FFE1FDF
:10522000FE001FFF1FFE001FFF1FFE000FFF3FFEBF
:10523000000FFF3FFE000FFF3FFE000FFF3FFE008D
:105240000FFF3FFE000FFF3FFE000FFF3FFE000F6E
:10525000FF3FFE000FFF3FFE000FFF3FFE000FFF6E
:105260003FFE000FFF3FFE001FFF1FFE001FFF1F3E
:10527000FE001FFF1FFE001FFF1FFE0C1FFE1FFF73
:105280003F1FFE0FFF7F9FFE0FFFFFBFFC07FFFFCB
:10529000FFFC07FFC3FFF803FF81FFF803FF81FF57
:1052A000F001FF81FFE000FFE1FFC0007FFFFF8012
:1052B000001FFFFE000007FFFE0600003FFE070084
:1052C0000000FF070000007F8F0000007FFF00004C
:1052D000007FFF0000003FFF0000003FFE000000D5
:1052E0001FFE0000000FFC00000001E000000000B5
:1052F00000000000000000000000000000000000AE
:10530000000000000000000000000000000000009D
:10531000000000000000000000000000000000008D
:10532000000000000000000000000000000000007D
:105330000000000000000000000000000FFFFFE080
:10534000000FFFFFFE000FFFFFFF800FFFFFFFE0DA
:105350000FFF01FFF00FFF00FFF80FFF007FF80FB6
:10536000FF003FFC0FFF003FFC0FFF003FFE0FFF61
:10537000001FFE0FFF001FFE0FFF001FFE0FFF00AC
:105380003FFC0FFF003FFC0FFF003FFC0FFF007FC3
:10539000F80FFF00FFF80FFF01FFF00FFFFFFFE026
:1053A0000FFFFFFF800FFFFFFC000FFFFFFC000F50
:1053B000FF03FF000FFF01FFC00FFF00FFE00FFF23
:1053C00000FFF00FFF007FF00FFF007FF80FFF00DE
:1053D0007FF80FFF007FF80FFF007FF80FFF007FBF
:1053E000F80FFF007FF80FFF007FF80FFF007FFC32
:1053F0000FFF007FFC0FFF007FFC0FFF007FFC0F03
:10540000FF007FFC0FFF003FFC0FFF003FFE0FFF80
:10541000003FFE0FFF003FFF000000000000000003
:10542000000000000000000000000000000000007C
:10543000000000000000000000000000000000006C
:10544000000000000000000000000000000000005C
:10545000000000000000000000000000000000004C
:10546000000000000000000000000000000000003C
:10547000000000000000000000000000000000002C
:10548000000000000000000000000000000000001C
:10549000000000000000000000000001FC0000000F
:1054A0001FFFC000007FFFF00001FFFFF80003F8BE
:1054B00001FC0007F0007E000FE0003E000FC0007E
:1054C0003E001FC0001F001FC0001F001FC0001FA4
:1054D000001FE0001F001FF0001F001FF800000069
:1054E0001FFE0000001FFF8000001FFFF000001FD4
:1054F000FFFC00000FFFFF00000FFFFFC00007FFD1
:10550000FFF00003FFFFF80001FFFFFC0000FFFFBA
:10551000FE00007FFFFF00001FFFFF800007FFFF6E
:10552000800001FFFF8000003FFFC007000FFFC0A9
:105530003E0007FFC03E0001FFC03E0000FFC03E2E
:105540000000FFC03E0000FFC03E00007FC01F0003
:1055500000FF801F0000FF801F8000FF000FC001C0
:10556000FE0007F007FE0003FFFFF80001FFFFF059
:1055700000003FFFC0000003FC000000000000002E
:10558000000000000000000000000000000000001B
:10559000000000000000000000000000000000000B
:1055A00000000000000000000000000000000000FB
:1055B00000000000000000000000000000000000EB
:1055C00000000000000000000000000000000000DB
:1055D00000000000000000000000000000000000CB
:1055E00000000000000000000000000000000000BB
:1055F0000000000000000000FFFFFFFFC0FFFFFFF2
:10560000FFC0FFFFFFFFC0FFFFFFFFC0001FFF0045
:1056100000001FFF0000001FFF0000001FFF000030
:10562000001FFF0000001FFF0000001FFF00000020
:105630001FFF0000001FFF0000001FFF0000001FF1
:10564000FF0000001FFF0000001FFF0000001FFF01
:105650000000001FFF0000001FFF0000001FFF00F0
:1056600000001FFF0000001FFF0000001FFF0000E0
:10567000001FFF0000001FFF0000001FFF000000D0
:105680001FFF0000001FFF0000001FFF0000001FA1
:10569000FF0000001FFF0000001FFF0000001FFFB1
:1056A0000000001FFF0000001FFF0000001FFF00A0
:1056B00000001FFF0000001FFF0000001FFF000090
:1056C000001FFF0000001FFF0000001FFF00000080
:1056D0001FFF0000000000000000000000000000AC
:1056E00000000000000000000000000000000000BA
:1056F00000000000000000000000000000000000AA
:105700000000000000000000000000000000000099
:105710000000000000000000000000000000000089
:105720000000000000000000000000000000000079
:105730000000000000000000000000000000000069
:105740000000000000000000000000000000000059
:105750000000000000000FFF0000780FFF0000783D
:105760000FFF0000780FFF0000780FFF0000780F98
:10577000FF0000780FFF0000780FFF0000780FFF98
:105780000000780FFF0000780FFF0000780FFF0087
:1057900000780FFF0000780FFF0000780FFF000077
:1057A000780FFF0000780FFF0000780FFF000078EF
:1057B0000FFF0000780FFF0000780FFF0000780F48
:1057C000FF0000780FFF0000780FFF0000780FFF48
:1057D0000000780FFF0000780FFF0000780FFF0037
:1057E00000780FFF0000780FFF0000780FFF000027
:1057F000780FFF0000780FFF0000700FFF0000F02F
:105800000FFF0000F00FFF8000F007FF8001E007AE
:10581000FFC003E003FFE00FC001FFFFFF8000FFB8
:10582000FFFF00007FFFFE00000FFFF8000000FFF9
:105830000000000000000000000000000000000068
:105840000000000000000000000000000000000058
:105850000000000000000000000000000000000048
:105860000000000000000000000000000000000038
:105870000000000000000000000000000000000028
:105880000000000000000000000000000000000018
:105890000000000000000000000000000000000008
:1058A00000000000000000000000000000000000F8
:1058B00000000000FFF00001E0FFF80001E07FF8C9
:1058C0000003E07FF80003C07FF80003C07FFC0006
:1058D00007C03FFC0007803FFC0007803FFC00073B
:1058E000803FFE000F801FFE000F001FFE000F0014
:1058F0001FFF001F001FFF001E000FFF001E000FF4
:10590000FF001E000FFF803C0007FF803C0007FFE8
:10591000803C0007FF807C0007FFC0780003FFC0C9
:10592000780003FFC0780003FFC0F00003FFE0F041
:105930000001FFE0F00001FFE1F00001FFE1E00005
:1059400001FFF1E00000FFF1E00000FFF3C0000004
:10595000FFF3C000007FFBC000007FFFC000007F9E
:10596000FF8000007FFF8000003FFF8000003FFFBE
:105970000000003FFF0000003FFF0000001FFF008D
:1059800000001FFE0000001FFE0000001FFE0000C0
:105990000000000000000000000000000000000007
:1059A00000000000000000000000000000000000F7
:1059B00000000000000000000000000000000000E7
:1059C00000000000000000000000000000000000D7
:1059D00000000000000000000000000000000000C7
:1059E00000000000000000000000000000000000B7
:1059F00000000000000000000000000000000000A7
:105A00000000000000000000000000000000000096
:105A10000000FFF0003F80FFF8003F807FF8007F2C
:105A2000C07FF8007FC07FF8007FC07FFC007FC090
:105A30003FFC00FFE03FFC00FFE03FFC00FFE03FD9
:105A4000FE00FFE01FFE01FFF01FFE01FFF01FFE42
:105A500001FFF01FFF01FFF00FFF03FFF80FFF032F
:105A6000FFF80FFF03FFF80FFF83FFF807FF87FF23
:105A7000FC07FF87FFFC07FF87FFFC07FFC7BFFC92
:105A800003FFCFBFFE03FFCF1FFE03FFCF1FFE03A9
:105A9000FFEF1FFE01FFFF1FFF01FFFE0FFF01FFD2
:105AA000FE0FFF01FFFE0FFF00FFFE0FFF00FFFCD8
:105AB00007FF00FFFC07FF007FFC07FF007FFC07DC
:105AC000FF007FF803FF007FF803FF003FF803FFAC
:105AD000003FF003FF003FF001FF003FF001FF0037
